{"contracts/UTH2Mining.sol":{"UTH2Mining":{"abi":[{"inputs":[{"internalType":"address","name":"_uth2","type":"address"},{"internalType":"address","name":"_btch2o","type":"address"},{"internalType":"uint256[7]","name":"_prices","type":"uint256[7]"},{"internalType":"uint256[7]","name":"_rates","type":"uint256[7]"}],"stateMutability":"nonpayable","type":"constructor"},{"anonymous":false,"inputs":[{"indexed":true,"internalType":"address","name":"user","type":"address"},{"indexed":false,"internalType":"uint8","name":"pkg","type":"uint8"},{"indexed":false,"internalType":"uint256","name":"count","type":"uint256"},{"indexed":false,"internalType":"uint256","name":"cost","type":"uint256"}],"name":"PackageBought","type":"event"},{"anonymous":false,"inputs":[{"indexed":false,"internalType":"uint8","name":"pkg","type":"uint8"},{"indexed":false,"internalType":"uint256","name":"price","type":"uint256"},{"indexed":false,"internalType":"uint256","name":"rate","type":"uint256"}],"name":"PackageUpdated","type":"event"},{"anonymous":false,"inputs":[{"indexed":false,"internalType":"uint256","name":"amount","type":"uint256"}],"name":"PoolFunded","type":"event"},{"anonymous":false,"inputs":[{"indexed":true,"internalType":"address","name":"user","type":"address"},{"indexed":false,"internalType":"uint256","name":"amount","type":"uint256"}],"name":"RewardsClaimed","type":"event"},{"inputs":[],"name":"NUM_PKG","outputs":[{"internalType":"uint256","name":"","type":"uint256"}],"stateMutability":"view","type":"function"},{"inputs":[],"name":"YEAR","outputs":[{"internalType":"uint256","name":"","type":"uint256"}],"stateMutability":"view","type":"function"},{"inputs":[],"name":"btch2o","outputs":[{"internalType":"contract IERC20","name":"","type":"address"}],"stateMutability":"view","type":"function"},{"inputs":[{"internalType":"uint8","name":"pkg","type":"uint8"},{"internalType":"uint256","name":"count","type":"uint256"}],"name":"buyPackage","outputs":[],"stateMutability":"nonpayable","type":"function"},{"inputs":[],"name":"claimRewards","outputs":[],"stateMutability":"nonpayable","type":"function"},{"inputs":[{"internalType":"uint256","name":"amount","type":"uint256"}],"name":"fundPool","outputs":[],"stateMutability":"nonpayable","type":"function"},{"inputs":[],"name":"getPackages","outputs":[{"internalType":"uint256[7]","name":"prices","type":"uint256[7]"},{"internalType":"uint256[7]","name":"rates","type":"uint256[7]"}],"stateMutability":"view","type":"function"},{"inputs":[{"internalType":"address","name":"user","type":"address"}],"name":"getUserCounts","outputs":[{"internalType":"uint256[7]","name":"","type":"uint256[7]"}],"stateMutability":"view","type":"function"},{"inputs":[{"internalType":"address","name":"user","type":"address"}],"name":"getUserRate","outputs":[{"internalType":"uint256","name":"ratePerYear","type":"uint256"}],"stateMutability":"view","type":"function"},{"inputs":[],"name":"owner","outputs":[{"internalType":"address","name":"","type":"address"}],"stateMutability":"view","type":"function"},{"inputs":[{"internalType":"uint256","name":"","type":"uint256"}],"name":"packages","outputs":[{"internalType":"uint256","name":"price","type":"uint256"},{"internalType":"uint256","name":"ratePerYear","type":"uint256"}],"stateMutability":"view","type":"function"},{"inputs":[{"internalType":"address","name":"user","type":"address"}],"name":"pendingRewards","outputs":[{"internalType":"uint256","name":"","type":"uint256"}],"stateMutability":"view","type":"function"},{"inputs":[],"name":"poolBalance","outputs":[{"internalType":"uint256","name":"","type":"uint256"}],"stateMutability":"view","type":"function"},{"inputs":[{"internalType":"address","name":"token","type":"address"},{"internalType":"uint256","name":"amount","type":"uint256"}],"name":"rescueToken","outputs":[],"stateMutability":"nonpayable","type":"function"},{"inputs":[{"internalType":"uint256[7]","name":"prices","type":"uint256[7]"},{"internalType":"uint256[7]","name":"rates","type":"uint256[7]"}],"name":"setAllPackages","outputs":[],"stateMutability":"nonpayable","type":"function"},{"inputs":[{"internalType":"uint8","name":"pkg","type":"uint8"},{"internalType":"uint256","name":"price","type":"uint256"},{"internalType":"uint256","name":"rate","type":"uint256"}],"name":"setPackage","outputs":[],"stateMutability":"nonpayable","type":"function"},{"inputs":[],"name":"totalUTH2Collected","outputs":[{"internalType":"uint256","name":"","type":"uint256"}],"stateMutability":"view","type":"function"},{"inputs":[{"internalType":"address","name":"newOwner","type":"address"}],"name":"transferOwnership","outputs":[],"stateMutability":"nonpayable","type":"function"},{"inputs":[{"internalType":"address","name":"","type":"address"}],"name":"userInfo","outputs":[{"internalType":"uint256","name":"lastClaim","type":"uint256"},{"internalType":"uint256","name":"accrued","type":"uint256"}],"stateMutability":"view","type":"function"},{"inputs":[],"name":"uth2","outputs":[{"internalType":"contract IERC20","name":"","type":"address"}],"stateMutability":"view","type":"function"},{"inputs":[],"name":"withdrawUTH2","outputs":[],"stateMutability":"nonpayable","type":"function"}],"evm":{"bytecode":{"linkReferences":{},"object":"60c034620001a0576001600160401b03601f620014e738819003918201601f19168401919083831185841017620001a55781906040938452853983019161020084840312620001a0576200005384620001bb565b9360206200008162000067828401620001bb565b956101206200007982888701620001d0565b9401620001d0565b600080546001600160a01b031916331781556001600160a01b039788166080529590961660a052845b60ff81166007808210156200015c57620000d2620000c983876200022a565b51928a6200022a565b5190875192888401848110898211176200014857895283528483019182528310156200013457600290600184811b8094519101555191015560ff8091169081146200012057600101620000aa565b634e487b7160e01b86526011600452602486fd5b634e487b7160e01b88526032600452602488fd5b634e487b7160e01b8b52604160045260248bfd5b8651611294908162000253823960805181818161034901528181610c8e0152610ea1015260a0518181816101f1015281816104ae015281816108e30152610e5e0152f35b600080fd5b634e487b7160e01b600052604160045260246000fd5b51906001600160a01b0382168203620001a057565b9080601f83011215620001a0576040519160e083016001600160401b03811184821017620001a557604052829060e08101928311620001a057905b828210620002195750505090565b81518152602091820191016200020b565b9060078110156200023c5760051b0190565b634e487b7160e01b600052603260045260246000fdfe6080604081815260048036101561001557600080fd5b60009260e08435811c91826304e4fc5e14610e8d575081630f2f565f14610e485781631959a00214610e02578163254b516e14610c03578163293c4ab514610b8957816331d7a26214610b5b57816333f3d62814610ab2578163372500ab1461089c578163487cb94d1461087f5781635c05a89f146107d1575080637d59551e146106f257806380168a751461063e578063839145401461061f5780638da5cb5b146105f7578063913701b61461053157806396365d4414610480578063afeca72b1461031a578063c216212a146102de578063d38d8ecf146102bf578063da3a5f721461018f5763f2fde38b1461010c57600080fd5b3461018b57602036600319011261018b57610125610ed0565b835491906001600160a01b039061013f3383861614611226565b169283156101595750506001600160a01b03191617815580f35b906020606492519162461bcd60e51b8352820152600c60248201526b5a65726f206164647265737360a01b6044820152fd5b8280fd5b508290346102bb576020908160031936011261018b5780359060018060a01b036101bd818654163314611226565b85516323b872dd60e01b815233838201908152306020820152604081018590529091859183919082908990829060600103927f0000000000000000000000000000000000000000000000000000000000000000165af19081156102b1578591610284575b501561025357507fd20389ec208fde395624b8221fa1cae9211e46a6ba77134c8e0b1af8c9603398929351908152a180f35b845162461bcd60e51b8152908101839052600b60248201526a119d5b990819985a5b195960aa1b6044820152606490fd5b6102a49150843d86116102aa575b61029c81836110cb565b81019061113c565b86610221565b503d610292565b86513d87823e3d90fd5b5080fd5b5050346102bb57816003193601126102bb576020906010549051908152f35b508290346102bb5760203660031901126102bb5735906007821015610317575060011b6002816001015491015482519182526020820152f35b80fd5b508290346102bb57816003193601126102bb5781546001600160a01b039081169390610347338614611226565b7f0000000000000000000000000000000000000000000000000000000000000000168151946370a0823160e01b865230848701526020938487602481865afa968715610476578697610443575b50861561040a57835163a9059cbb60e01b81526001600160a01b0390921690820190815260208101879052909291849184919082908890829060400103925af190811561040157506103e4578280f35b816103fa92903d106102aa5761029c81836110cb565b5081808280f35b513d85823e3d90fd5b835162461bcd60e51b815290810185905260136024820152724e6f7468696e6720746f20776974686472617760681b6044820152606490fd5b9096508481813d831161046f575b61045b81836110cb565b8101031261046b57519587610394565b8580fd5b503d610451565b84513d88823e3d90fd5b50903461018b578260031936011261018b5780516370a0823160e01b815230928101929092526020826024817f00000000000000000000000000000000000000000000000000000000000000006001600160a01b03165afa9182156105275783926104f0575b6020838351908152f35b9091506020813d821161051f575b8161050b602093836110cb565b8101031261018b57602092505190386104e6565b3d91506104fe565b81513d85823e3d90fd5b509190346102bb5760203660031901126102bb5761054d610ed0565b6001600160a01b03168252600f602052808220919081805b60078060ff831610156105ed5761057c8287610f57565b9054600391821b1c610599575b505061059490610f46565b610565565b6105a68388979497610f57565b9054911b1c908510156105da57610594916105cc6105d29260028860011b015490610f7d565b90610f90565b939038610589565b634e487b7160e01b835260328752602483fd5b6020858551908152f35b5050346102bb57816003193601126102bb57905490516001600160a01b039091168152602090f35b5050346102bb57816003193601126102bb57602090516301e133808152f35b509134610317576101c03660031901126103175760e4923684116102bb57366101c4116102bb5761067960018060a01b038354163314611226565b815b60078060ff831610156106ee57611fe08260051b169085519161069d8361107d565b80850135835287013560208301528210156106db57906106d16106d692600183811b01906020600191805184550151910155565b610f46565b61067b565b634e487b7160e01b845260328352602484fd5b8380f35b509190346102bb5760603660031901126102bb5761070e610eeb565b602435916044359061072a60018060a01b038654163314611226565b610739600760ff8516106110fe565b80516107448161107d565b84815282602082015260078410156107be57916107b89161079a85947fba7cc8548ff33d367f1eb6ac96624923f2e84dfdd24691183f8792efeb8c4464979660011b600101906020600191805184550151910155565b519384938460409194939260ff606083019616825260208201520152565b0390a180f35b634e487b7160e01b865260328752602486fd5b83858492346102bb57816003193601126102bb5782516107f0816110af565b81368237835192610800846110af565b82368537805b60ff81166007808210156108605782101561084d5790610848916108426002600184811b80910154610838858a6110ed565b52015491886110ed565b52610f46565b610806565b634e487b7160e01b835260328852602483fd5b6101c08561087d89896108758d518095610efb565b830190610efb565bf35b505050346102bb57816003193601126102bb576020905160078152f35b5050903461018b578260031936011261018b576108b833611154565b338352602090600f825260088185200154928315610a7e5781516370a0823160e01b815230828201527f00000000000000000000000000000000000000000000000000000000000000006001600160a01b0316908481602481855afa908115610a74579086918891610a3f575b5010610a0b5733808752600f8552838720600801879055835163a9059cbb60e01b81528381019182526020820187905291859183919082908a90829060400103925af1908115610a015786916109e4575b50156109aa5750907ffc30cddea38e2bf4d6ea7d3f9ed3b6ad7f176419f4963bd81318067a4aee73fe91519283523392a280f35b82606492519162461bcd60e51b83528201526016602482015275109510d20c93c81d1c985b9cd9995c8819985a5b195960521b6044820152fd5b6109fb9150843d86116102aa5761029c81836110cb565b38610976565b83513d88823e3d90fd5b5082606492519162461bcd60e51b8352820152600f60248201526e52657761726420706f6f6c206c6f7760881b6044820152fd5b809250868092503d8311610a6d575b610a5881836110cb565b81010312610a695785905138610925565b8680fd5b503d610a4e565b84513d89823e3d90fd5b82606492519162461bcd60e51b8352820152601060248201526f4e6f7468696e6720746f20636c61696d60801b6044820152fd5b5050903461018b578060031936011261018b576020610b2292610ad3610ed0565b85546001600160a01b03908116908790610aee338414611226565b865163a9059cbb60e01b81526001600160a01b03909316948301948552602435602086015291968794859391849160400190565b0393165af1908115610b525750610b37575080f35b610b4e9060203d81116102aa5761029c81836110cb565b5080f35b513d84823e3d90fd5b505050346102bb5760203660031901126102bb57602090610b82610b7d610ed0565b610f9d565b9051908152f35b8484346102bb576020918260031936011261031757610ba6610ed0565b848351610bb2816110af565b3690376001600160a01b03168152600f8352818120825193909190845b60078310610bee57868661087d87610be6836110af565b518092610efb565b60018281928654815201940192019192610bcf565b838584346102bb57826003193601126102bb57610c1e610eeb565b90602435610c31600760ff8516106110fe565b8015610dd257610c4033611154565b6007831015610dbf57610c5a818460011b60010154610f7d565b85516323b872dd60e01b815233818501908152306020828101919091526040820184905292949290829081906060010381897f00000000000000000000000000000000000000000000000000000000000000006001600160a01b03165af1908115610db5578691610d97575b5015610d5d5750610d577f72be55cdddb684d7757becf89a7380578b111d8df14ab625fa2e2cdc7c811f58939495610d0084601054610f90565b601055338752600f602052610d1786828920610f57565b81549060031b90610d2a8682841c610f90565b821b91600019901b19161790555192839233968460409194939260ff606083019616825260208201520152565b0390a280f35b606490602087519162461bcd60e51b835282015260146024820152731555120c881d1c985b9cd9995c8819985a5b195960621b6044820152fd5b610daf915060203d81116102aa5761029c81836110cb565b87610cc6565b87513d88823e3d90fd5b634e487b7160e01b845260328252602484fd5b845162461bcd60e51b8152602081840152600a602482015269436f756e74207a65726f60b01b6044820152606490fd5b505050346102bb5760203660031901126102bb579081906001600160a01b03610e29610ed0565b168152600f602052206008600782015491015482519182526020820152f35b505050346102bb57816003193601126102bb57517f00000000000000000000000000000000000000000000000000000000000000006001600160a01b03168152602090f35b8590346102bb57816003193601126102bb577f00000000000000000000000000000000000000000000000000000000000000006001600160a01b03168152602090f35b600435906001600160a01b0382168203610ee657565b600080fd5b6004359060ff82168203610ee657565b6000915b60078310610f0c57505050565b600190825181526020809101920192019190610eff565b91908203918211610f3057565b634e487b7160e01b600052601160045260246000fd5b60ff1660ff8114610f305760010190565b6007821015610f67570190600090565b634e487b7160e01b600052603260045260246000fd5b81810292918115918404141715610f3057565b91908201809211610f3057565b6001600160a01b03166000908152600f6020526040812060078082015490929190801561107657610fce9042610f23565b918093815b8160ff82161061100257505050610ff8610fff939260086301e1338093015493610f7d565b0490610f90565b90565b61100c8185610f57565b9054600391821b1c611028575b5061102390610f46565b610fd3565b6110358286989398610f57565b9054911b1c8287101561106257611023916105cc61105b9260028a60011b015490610f7d565b9590611019565b634e487b7160e01b84526032600452602484fd5b5050905090565b6040810190811067ffffffffffffffff82111761109957604052565b634e487b7160e01b600052604160045260246000fd5b60e0810190811067ffffffffffffffff82111761109957604052565b90601f8019910116810190811067ffffffffffffffff82111761109957604052565b906007811015610f675760051b0190565b1561110557565b60405162461bcd60e51b815260206004820152600f60248201526e496e76616c6964207061636b61676560881b6044820152606490fd5b90816020910312610ee657518015158103610ee65790565b6001600160a01b03166000908152600f6020526040812060078082018054909391901561121e57611186845442610f23565b918091815b8160ff8216106111be575050506301e133806111ac6111b793600893610f7d565b049201918254610f90565b9055429055565b6111c88187610f57565b9054600391821b1c6111e4575b506111df90610f46565b61118b565b6111f18288969396610f57565b9054911b1c82851015611062576111df916105cc6112179260028860011b015490610f7d565b93906111d5565b505050429055565b1561122d57565b60405162461bcd60e51b81526020600482015260096024820152682737ba1037bbb732b960b91b6044820152606490fdfea26469706673582212205caf0a9adb648d9096e8edc876c0b5f3dc0787b17b5e117b7a2d33d5b105cdb464736f6c63430008140033","opcodes":"PUSH1 0xC0 CALLVALUE PUSH3 0x1A0 JUMPI PUSH1 0x1 PUSH1 0x1 PUSH1 0x40 SHL SUB PUSH1 0x1F PUSH3 0x14E7 CODESIZE DUP2 SWAP1 SUB SWAP2 DUP3 ADD PUSH1 0x1F NOT AND DUP5 ADD SWAP2 SWAP1 DUP4 DUP4 GT DUP6 DUP5 LT OR PUSH3 0x1A5 JUMPI DUP2 SWAP1 PUSH1 0x40 SWAP4 DUP5 MSTORE DUP6 CODECOPY DUP4 ADD SWAP2 PUSH2 0x200 DUP5 DUP5 SUB SLT PUSH3 0x1A0 JUMPI PUSH3 0x53 DUP5 PUSH3 0x1BB JUMP JUMPDEST SWAP4 PUSH1 0x20 PUSH3 0x81 PUSH3 0x67 DUP3 DUP5 ADD PUSH3 0x1BB JUMP JUMPDEST SWAP6 PUSH2 0x120 PUSH3 0x79 DUP3 DUP9 DUP8 ADD PUSH3 0x1D0 JUMP JUMPDEST SWAP5 ADD PUSH3 0x1D0 JUMP JUMPDEST PUSH1 0x0 DUP1 SLOAD PUSH1 0x1 PUSH1 0x1 PUSH1 0xA0 SHL SUB NOT AND CALLER OR DUP2 SSTORE PUSH1 0x1 PUSH1 0x1 PUSH1 0xA0 SHL SUB SWAP8 DUP9 AND PUSH1 0x80 MSTORE SWAP6 SWAP1 SWAP7 AND PUSH1 0xA0 MSTORE DUP5 JUMPDEST PUSH1 0xFF DUP2 AND PUSH1 0x7 DUP1 DUP3 LT ISZERO PUSH3 0x15C JUMPI PUSH3 0xD2 PUSH3 0xC9 DUP4 DUP8 PUSH3 0x22A JUMP JUMPDEST MLOAD SWAP3 DUP11 PUSH3 0x22A JUMP JUMPDEST MLOAD SWAP1 DUP8 MLOAD SWAP3 DUP9 DUP5 ADD DUP5 DUP2 LT DUP10 DUP3 GT OR PUSH3 0x148 JUMPI DUP10 MSTORE DUP4 MSTORE DUP5 DUP4 ADD SWAP2 DUP3 MSTORE DUP4 LT ISZERO PUSH3 0x134 JUMPI PUSH1 0x2 SWAP1 PUSH1 0x1 DUP5 DUP2 SHL DUP1 SWAP5 MLOAD SWAP2 ADD SSTORE MLOAD SWAP2 ADD SSTORE PUSH1 0xFF DUP1 SWAP2 AND SWAP1 DUP2 EQ PUSH3 0x120 JUMPI PUSH1 0x1 ADD PUSH3 0xAA JUMP JUMPDEST PUSH4 0x4E487B71 PUSH1 0xE0 SHL DUP7 MSTORE PUSH1 0x11 PUSH1 0x4 MSTORE PUSH1 0x24 DUP7 REVERT JUMPDEST PUSH4 0x4E487B71 PUSH1 0xE0 SHL DUP9 MSTORE PUSH1 0x32 PUSH1 0x4 MSTORE PUSH1 0x24 DUP9 REVERT JUMPDEST PUSH4 0x4E487B71 PUSH1 0xE0 SHL DUP12 MSTORE PUSH1 0x41 PUSH1 0x4 MSTORE PUSH1 0x24 DUP12 REVERT JUMPDEST DUP7 MLOAD PUSH2 0x1294 SWAP1 DUP2 PUSH3 0x253 DUP3 CODECOPY PUSH1 0x80 MLOAD DUP2 DUP2 DUP2 PUSH2 0x349 ADD MSTORE DUP2 DUP2 PUSH2 0xC8E ADD MSTORE PUSH2 0xEA1 ADD MSTORE PUSH1 0xA0 MLOAD DUP2 DUP2 DUP2 PUSH2 0x1F1 ADD MSTORE DUP2 DUP2 PUSH2 0x4AE ADD MSTORE DUP2 DUP2 PUSH2 0x8E3 ADD MSTORE PUSH2 0xE5E ADD MSTORE RETURN JUMPDEST PUSH1 0x0 DUP1 REVERT JUMPDEST PUSH4 0x4E487B71 PUSH1 0xE0 SHL PUSH1 0x0 MSTORE PUSH1 0x41 PUSH1 0x4 MSTORE PUSH1 0x24 PUSH1 0x0 REVERT JUMPDEST MLOAD SWAP1 PUSH1 0x1 PUSH1 0x1 PUSH1 0xA0 SHL SUB DUP3 AND DUP3 SUB PUSH3 0x1A0 JUMPI JUMP JUMPDEST SWAP1 DUP1 PUSH1 0x1F DUP4 ADD SLT ISZERO PUSH3 0x1A0 JUMPI PUSH1 0x40 MLOAD SWAP2 PUSH1 0xE0 DUP4 ADD PUSH1 0x1 PUSH1 0x1 PUSH1 0x40 SHL SUB DUP2 GT DUP5 DUP3 LT OR PUSH3 0x1A5 JUMPI PUSH1 0x40 MSTORE DUP3 SWAP1 PUSH1 0xE0 DUP2 ADD SWAP3 DUP4 GT PUSH3 0x1A0 JUMPI SWAP1 JUMPDEST DUP3 DUP3 LT PUSH3 0x219 JUMPI POP POP POP SWAP1 JUMP JUMPDEST DUP2 MLOAD DUP2 MSTORE PUSH1 0x20 SWAP2 DUP3 ADD SWAP2 ADD PUSH3 0x20B JUMP JUMPDEST SWAP1 PUSH1 0x7 DUP2 LT ISZERO PUSH3 0x23C JUMPI PUSH1 0x5 SHL ADD SWAP1 JUMP JUMPDEST PUSH4 0x4E487B71 PUSH1 0xE0 SHL PUSH1 0x0 MSTORE PUSH1 0x32 PUSH1 0x4 MSTORE PUSH1 0x24 PUSH1 0x0 REVERT INVALID PUSH1 0x80 PUSH1 0x40 DUP2 DUP2 MSTORE PUSH1 0x4 DUP1 CALLDATASIZE LT ISZERO PUSH2 0x15 JUMPI PUSH1 0x0 DUP1 REVERT JUMPDEST PUSH1 0x0 SWAP3 PUSH1 0xE0 DUP5 CALLDATALOAD DUP2 SHR SWAP2 DUP3 PUSH4 0x4E4FC5E EQ PUSH2 0xE8D JUMPI POP DUP2 PUSH4 0xF2F565F EQ PUSH2 0xE48 JUMPI DUP2 PUSH4 0x1959A002 EQ PUSH2 0xE02 JUMPI DUP2 PUSH4 0x254B516E EQ PUSH2 0xC03 JUMPI DUP2 PUSH4 0x293C4AB5 EQ PUSH2 0xB89 JUMPI DUP2 PUSH4 0x31D7A262 EQ PUSH2 0xB5B JUMPI DUP2 PUSH4 0x33F3D628 EQ PUSH2 0xAB2 JUMPI DUP2 PUSH4 0x372500AB EQ PUSH2 0x89C JUMPI DUP2 PUSH4 0x487CB94D EQ PUSH2 0x87F JUMPI DUP2 PUSH4 0x5C05A89F EQ PUSH2 0x7D1 JUMPI POP DUP1 PUSH4 0x7D59551E EQ PUSH2 0x6F2 JUMPI DUP1 PUSH4 0x80168A75 EQ PUSH2 0x63E JUMPI DUP1 PUSH4 0x83914540 EQ PUSH2 0x61F JUMPI DUP1 PUSH4 0x8DA5CB5B EQ PUSH2 0x5F7 JUMPI DUP1 PUSH4 0x913701B6 EQ PUSH2 0x531 JUMPI DUP1 PUSH4 0x96365D44 EQ PUSH2 0x480 JUMPI DUP1 PUSH4 0xAFECA72B EQ PUSH2 0x31A JUMPI DUP1 PUSH4 0xC216212A EQ PUSH2 0x2DE JUMPI DUP1 PUSH4 0xD38D8ECF EQ PUSH2 0x2BF JUMPI DUP1 PUSH4 0xDA3A5F72 EQ PUSH2 0x18F JUMPI PUSH4 0xF2FDE38B EQ PUSH2 0x10C JUMPI PUSH1 0x0 DUP1 REVERT JUMPDEST CALLVALUE PUSH2 0x18B JUMPI PUSH1 0x20 CALLDATASIZE PUSH1 0x3 NOT ADD SLT PUSH2 0x18B JUMPI PUSH2 0x125 PUSH2 0xED0 JUMP JUMPDEST DUP4 SLOAD SWAP2 SWAP1 PUSH1 0x1 PUSH1 0x1 PUSH1 0xA0 SHL SUB SWAP1 PUSH2 0x13F CALLER DUP4 DUP7 AND EQ PUSH2 0x1226 JUMP JUMPDEST AND SWAP3 DUP4 ISZERO PUSH2 0x159 JUMPI POP POP PUSH1 0x1 PUSH1 0x1 PUSH1 0xA0 SHL SUB NOT AND OR DUP2 SSTORE DUP1 RETURN JUMPDEST SWAP1 PUSH1 0x20 PUSH1 0x64 SWAP3 MLOAD SWAP2 PUSH3 0x461BCD PUSH1 0xE5 SHL DUP4 MSTORE DUP3 ADD MSTORE PUSH1 0xC PUSH1 0x24 DUP3 ADD MSTORE PUSH12 0x5A65726F2061646472657373 PUSH1 0xA0 SHL PUSH1 0x44 DUP3 ADD MSTORE REVERT JUMPDEST DUP3 DUP1 REVERT JUMPDEST POP DUP3 SWAP1 CALLVALUE PUSH2 0x2BB JUMPI PUSH1 0x20 SWAP1 DUP2 PUSH1 0x3 NOT CALLDATASIZE ADD SLT PUSH2 0x18B JUMPI DUP1 CALLDATALOAD SWAP1 PUSH1 0x1 DUP1 PUSH1 0xA0 SHL SUB PUSH2 0x1BD DUP2 DUP7 SLOAD AND CALLER EQ PUSH2 0x1226 JUMP JUMPDEST DUP6 MLOAD PUSH4 0x23B872DD PUSH1 0xE0 SHL DUP2 MSTORE CALLER DUP4 DUP3 ADD SWAP1 DUP2 MSTORE ADDRESS PUSH1 0x20 DUP3 ADD MSTORE PUSH1 0x40 DUP2 ADD DUP6 SWAP1 MSTORE SWAP1 SWAP2 DUP6 SWAP2 DUP4 SWAP2 SWAP1 DUP3 SWAP1 DUP10 SWAP1 DUP3 SWAP1 PUSH1 0x60 ADD SUB SWAP3 PUSH32 0x0 AND GAS CALL SWAP1 DUP2 ISZERO PUSH2 0x2B1 JUMPI DUP6 SWAP2 PUSH2 0x284 JUMPI JUMPDEST POP ISZERO PUSH2 0x253 JUMPI POP PUSH32 0xD20389EC208FDE395624B8221FA1CAE9211E46A6BA77134C8E0B1AF8C9603398 SWAP3 SWAP4 MLOAD SWAP1 DUP2 MSTORE LOG1 DUP1 RETURN JUMPDEST DUP5 MLOAD PUSH3 0x461BCD PUSH1 0xE5 SHL DUP2 MSTORE SWAP1 DUP2 ADD DUP4 SWAP1 MSTORE PUSH1 0xB PUSH1 0x24 DUP3 ADD MSTORE PUSH11 0x119D5B990819985A5B1959 PUSH1 0xAA SHL PUSH1 0x44 DUP3 ADD MSTORE PUSH1 0x64 SWAP1 REVERT JUMPDEST PUSH2 0x2A4 SWAP2 POP DUP5 RETURNDATASIZE DUP7 GT PUSH2 0x2AA JUMPI JUMPDEST PUSH2 0x29C DUP2 DUP4 PUSH2 0x10CB JUMP JUMPDEST DUP2 ADD SWAP1 PUSH2 0x113C JUMP JUMPDEST DUP7 PUSH2 0x221 JUMP JUMPDEST POP RETURNDATASIZE PUSH2 0x292 JUMP JUMPDEST DUP7 MLOAD RETURNDATASIZE DUP8 DUP3 RETURNDATACOPY RETURNDATASIZE SWAP1 REVERT JUMPDEST POP DUP1 REVERT JUMPDEST POP POP CALLVALUE PUSH2 0x2BB JUMPI DUP2 PUSH1 0x3 NOT CALLDATASIZE ADD SLT PUSH2 0x2BB JUMPI PUSH1 0x20 SWAP1 PUSH1 0x10 SLOAD SWAP1 MLOAD SWAP1 DUP2 MSTORE RETURN JUMPDEST POP DUP3 SWAP1 CALLVALUE PUSH2 0x2BB JUMPI PUSH1 0x20 CALLDATASIZE PUSH1 0x3 NOT ADD SLT PUSH2 0x2BB JUMPI CALLDATALOAD SWAP1 PUSH1 0x7 DUP3 LT ISZERO PUSH2 0x317 JUMPI POP PUSH1 0x1 SHL PUSH1 0x2 DUP2 PUSH1 0x1 ADD SLOAD SWAP2 ADD SLOAD DUP3 MLOAD SWAP2 DUP3 MSTORE PUSH1 0x20 DUP3 ADD MSTORE RETURN JUMPDEST DUP1 REVERT JUMPDEST POP DUP3 SWAP1 CALLVALUE PUSH2 0x2BB JUMPI DUP2 PUSH1 0x3 NOT CALLDATASIZE ADD SLT PUSH2 0x2BB JUMPI DUP2 SLOAD PUSH1 0x1 PUSH1 0x1 PUSH1 0xA0 SHL SUB SWAP1 DUP2 AND SWAP4 SWAP1 PUSH2 0x347 CALLER DUP7 EQ PUSH2 0x1226 JUMP JUMPDEST PUSH32 0x0 AND DUP2 MLOAD SWAP5 PUSH4 0x70A08231 PUSH1 0xE0 SHL DUP7 MSTORE ADDRESS DUP5 DUP8 ADD MSTORE PUSH1 0x20 SWAP4 DUP5 DUP8 PUSH1 0x24 DUP2 DUP7 GAS STATICCALL SWAP7 DUP8 ISZERO PUSH2 0x476 JUMPI DUP7 SWAP8 PUSH2 0x443 JUMPI JUMPDEST POP DUP7 ISZERO PUSH2 0x40A JUMPI DUP4 MLOAD PUSH4 0xA9059CBB PUSH1 0xE0 SHL DUP2 MSTORE PUSH1 0x1 PUSH1 0x1 PUSH1 0xA0 SHL SUB SWAP1 SWAP3 AND SWAP1 DUP3 ADD SWAP1 DUP2 MSTORE PUSH1 0x20 DUP2 ADD DUP8 SWAP1 MSTORE SWAP1 SWAP3 SWAP2 DUP5 SWAP2 DUP5 SWAP2 SWAP1 DUP3 SWAP1 DUP9 SWAP1 DUP3 SWAP1 PUSH1 0x40 ADD SUB SWAP3 GAS CALL SWAP1 DUP2 ISZERO PUSH2 0x401 JUMPI POP PUSH2 0x3E4 JUMPI DUP3 DUP1 RETURN JUMPDEST DUP2 PUSH2 0x3FA SWAP3 SWAP1 RETURNDATASIZE LT PUSH2 0x2AA JUMPI PUSH2 0x29C DUP2 DUP4 PUSH2 0x10CB JUMP JUMPDEST POP DUP2 DUP1 DUP3 DUP1 RETURN JUMPDEST MLOAD RETURNDATASIZE DUP6 DUP3 RETURNDATACOPY RETURNDATASIZE SWAP1 REVERT JUMPDEST DUP4 MLOAD PUSH3 0x461BCD PUSH1 0xE5 SHL DUP2 MSTORE SWAP1 DUP2 ADD DUP6 SWAP1 MSTORE PUSH1 0x13 PUSH1 0x24 DUP3 ADD MSTORE PUSH19 0x4E6F7468696E6720746F207769746864726177 PUSH1 0x68 SHL PUSH1 0x44 DUP3 ADD MSTORE PUSH1 0x64 SWAP1 REVERT JUMPDEST SWAP1 SWAP7 POP DUP5 DUP2 DUP2 RETURNDATASIZE DUP4 GT PUSH2 0x46F JUMPI JUMPDEST PUSH2 0x45B DUP2 DUP4 PUSH2 0x10CB JUMP JUMPDEST DUP2 ADD SUB SLT PUSH2 0x46B JUMPI MLOAD SWAP6 DUP8 PUSH2 0x394 JUMP JUMPDEST DUP6 DUP1 REVERT JUMPDEST POP RETURNDATASIZE PUSH2 0x451 JUMP JUMPDEST DUP5 MLOAD RETURNDATASIZE DUP9 DUP3 RETURNDATACOPY RETURNDATASIZE SWAP1 REVERT JUMPDEST POP SWAP1 CALLVALUE PUSH2 0x18B JUMPI DUP3 PUSH1 0x3 NOT CALLDATASIZE ADD SLT PUSH2 0x18B JUMPI DUP1 MLOAD PUSH4 0x70A08231 PUSH1 0xE0 SHL DUP2 MSTORE ADDRESS SWAP3 DUP2 ADD SWAP3 SWAP1 SWAP3 MSTORE PUSH1 0x20 DUP3 PUSH1 0x24 DUP2 PUSH32 0x0 PUSH1 0x1 PUSH1 0x1 PUSH1 0xA0 SHL SUB AND GAS STATICCALL SWAP2 DUP3 ISZERO PUSH2 0x527 JUMPI DUP4 SWAP3 PUSH2 0x4F0 JUMPI JUMPDEST PUSH1 0x20 DUP4 DUP4 MLOAD SWAP1 DUP2 MSTORE RETURN JUMPDEST SWAP1 SWAP2 POP PUSH1 0x20 DUP2 RETURNDATASIZE DUP3 GT PUSH2 0x51F JUMPI JUMPDEST DUP2 PUSH2 0x50B PUSH1 0x20 SWAP4 DUP4 PUSH2 0x10CB JUMP JUMPDEST DUP2 ADD SUB SLT PUSH2 0x18B JUMPI PUSH1 0x20 SWAP3 POP MLOAD SWAP1 CODESIZE PUSH2 0x4E6 JUMP JUMPDEST RETURNDATASIZE SWAP2 POP PUSH2 0x4FE JUMP JUMPDEST DUP2 MLOAD RETURNDATASIZE DUP6 DUP3 RETURNDATACOPY RETURNDATASIZE SWAP1 REVERT JUMPDEST POP SWAP2 SWAP1 CALLVALUE PUSH2 0x2BB JUMPI PUSH1 0x20 CALLDATASIZE PUSH1 0x3 NOT ADD SLT PUSH2 0x2BB JUMPI PUSH2 0x54D PUSH2 0xED0 JUMP JUMPDEST PUSH1 0x1 PUSH1 0x1 PUSH1 0xA0 SHL SUB AND DUP3 MSTORE PUSH1 0xF PUSH1 0x20 MSTORE DUP1 DUP3 KECCAK256 SWAP2 SWAP1 DUP2 DUP1 JUMPDEST PUSH1 0x7 DUP1 PUSH1 0xFF DUP4 AND LT ISZERO PUSH2 0x5ED JUMPI PUSH2 0x57C DUP3 DUP8 PUSH2 0xF57 JUMP JUMPDEST SWAP1 SLOAD PUSH1 0x3 SWAP2 DUP3 SHL SHR PUSH2 0x599 JUMPI JUMPDEST POP POP PUSH2 0x594 SWAP1 PUSH2 0xF46 JUMP JUMPDEST PUSH2 0x565 JUMP JUMPDEST PUSH2 0x5A6 DUP4 DUP9 SWAP8 SWAP5 SWAP8 PUSH2 0xF57 JUMP JUMPDEST SWAP1 SLOAD SWAP2 SHL SHR SWAP1 DUP6 LT ISZERO PUSH2 0x5DA JUMPI PUSH2 0x594 SWAP2 PUSH2 0x5CC PUSH2 0x5D2 SWAP3 PUSH1 0x2 DUP9 PUSH1 0x1 SHL ADD SLOAD SWAP1 PUSH2 0xF7D JUMP JUMPDEST SWAP1 PUSH2 0xF90 JUMP JUMPDEST SWAP4 SWAP1 CODESIZE PUSH2 0x589 JUMP JUMPDEST PUSH4 0x4E487B71 PUSH1 0xE0 SHL DUP4 MSTORE PUSH1 0x32 DUP8 MSTORE PUSH1 0x24 DUP4 REVERT JUMPDEST PUSH1 0x20 DUP6 DUP6 MLOAD SWAP1 DUP2 MSTORE RETURN JUMPDEST POP POP CALLVALUE PUSH2 0x2BB JUMPI DUP2 PUSH1 0x3 NOT CALLDATASIZE ADD SLT PUSH2 0x2BB JUMPI SWAP1 SLOAD SWAP1 MLOAD PUSH1 0x1 PUSH1 0x1 PUSH1 0xA0 SHL SUB SWAP1 SWAP2 AND DUP2 MSTORE PUSH1 0x20 SWAP1 RETURN JUMPDEST POP POP CALLVALUE PUSH2 0x2BB JUMPI DUP2 PUSH1 0x3 NOT CALLDATASIZE ADD SLT PUSH2 0x2BB JUMPI PUSH1 0x20 SWAP1 MLOAD PUSH4 0x1E13380 DUP2 MSTORE RETURN JUMPDEST POP SWAP2 CALLVALUE PUSH2 0x317 JUMPI PUSH2 0x1C0 CALLDATASIZE PUSH1 0x3 NOT ADD SLT PUSH2 0x317 JUMPI PUSH1 0xE4 SWAP3 CALLDATASIZE DUP5 GT PUSH2 0x2BB JUMPI CALLDATASIZE PUSH2 0x1C4 GT PUSH2 0x2BB JUMPI PUSH2 0x679 PUSH1 0x1 DUP1 PUSH1 0xA0 SHL SUB DUP4 SLOAD AND CALLER EQ PUSH2 0x1226 JUMP JUMPDEST DUP2 JUMPDEST PUSH1 0x7 DUP1 PUSH1 0xFF DUP4 AND LT ISZERO PUSH2 0x6EE JUMPI PUSH2 0x1FE0 DUP3 PUSH1 0x5 SHL AND SWAP1 DUP6 MLOAD SWAP2 PUSH2 0x69D DUP4 PUSH2 0x107D JUMP JUMPDEST DUP1 DUP6 ADD CALLDATALOAD DUP4 MSTORE DUP8 ADD CALLDATALOAD PUSH1 0x20 DUP4 ADD MSTORE DUP3 LT ISZERO PUSH2 0x6DB JUMPI SWAP1 PUSH2 0x6D1 PUSH2 0x6D6 SWAP3 PUSH1 0x1 DUP4 DUP2 SHL ADD SWAP1 PUSH1 0x20 PUSH1 0x1 SWAP2 DUP1 MLOAD DUP5 SSTORE ADD MLOAD SWAP2 ADD SSTORE JUMP JUMPDEST PUSH2 0xF46 JUMP JUMPDEST PUSH2 0x67B JUMP JUMPDEST PUSH4 0x4E487B71 PUSH1 0xE0 SHL DUP5 MSTORE PUSH1 0x32 DUP4 MSTORE PUSH1 0x24 DUP5 REVERT JUMPDEST DUP4 DUP1 RETURN JUMPDEST POP SWAP2 SWAP1 CALLVALUE PUSH2 0x2BB JUMPI PUSH1 0x60 CALLDATASIZE PUSH1 0x3 NOT ADD SLT PUSH2 0x2BB JUMPI PUSH2 0x70E PUSH2 0xEEB JUMP JUMPDEST PUSH1 0x24 CALLDATALOAD SWAP2 PUSH1 0x44 CALLDATALOAD SWAP1 PUSH2 0x72A PUSH1 0x1 DUP1 PUSH1 0xA0 SHL SUB DUP7 SLOAD AND CALLER EQ PUSH2 0x1226 JUMP JUMPDEST PUSH2 0x739 PUSH1 0x7 PUSH1 0xFF DUP6 AND LT PUSH2 0x10FE JUMP JUMPDEST DUP1 MLOAD PUSH2 0x744 DUP2 PUSH2 0x107D JUMP JUMPDEST DUP5 DUP2 MSTORE DUP3 PUSH1 0x20 DUP3 ADD MSTORE PUSH1 0x7 DUP5 LT ISZERO PUSH2 0x7BE JUMPI SWAP2 PUSH2 0x7B8 SWAP2 PUSH2 0x79A DUP6 SWAP5 PUSH32 0xBA7CC8548FF33D367F1EB6AC96624923F2E84DFDD24691183F8792EFEB8C4464 SWAP8 SWAP7 PUSH1 0x1 SHL PUSH1 0x1 ADD SWAP1 PUSH1 0x20 PUSH1 0x1 SWAP2 DUP1 MLOAD DUP5 SSTORE ADD MLOAD SWAP2 ADD SSTORE JUMP JUMPDEST MLOAD SWAP4 DUP5 SWAP4 DUP5 PUSH1 0x40 SWAP2 SWAP5 SWAP4 SWAP3 PUSH1 0xFF PUSH1 0x60 DUP4 ADD SWAP7 AND DUP3 MSTORE PUSH1 0x20 DUP3 ADD MSTORE ADD MSTORE JUMP JUMPDEST SUB SWAP1 LOG1 DUP1 RETURN JUMPDEST PUSH4 0x4E487B71 PUSH1 0xE0 SHL DUP7 MSTORE PUSH1 0x32 DUP8 MSTORE PUSH1 0x24 DUP7 REVERT JUMPDEST DUP4 DUP6 DUP5 SWAP3 CALLVALUE PUSH2 0x2BB JUMPI DUP2 PUSH1 0x3 NOT CALLDATASIZE ADD SLT PUSH2 0x2BB JUMPI DUP3 MLOAD PUSH2 0x7F0 DUP2 PUSH2 0x10AF JUMP JUMPDEST DUP2 CALLDATASIZE DUP3 CALLDATACOPY DUP4 MLOAD SWAP3 PUSH2 0x800 DUP5 PUSH2 0x10AF JUMP JUMPDEST DUP3 CALLDATASIZE DUP6 CALLDATACOPY DUP1 JUMPDEST PUSH1 0xFF DUP2 AND PUSH1 0x7 DUP1 DUP3 LT ISZERO PUSH2 0x860 JUMPI DUP3 LT ISZERO PUSH2 0x84D JUMPI SWAP1 PUSH2 0x848 SWAP2 PUSH2 0x842 PUSH1 0x2 PUSH1 0x1 DUP5 DUP2 SHL DUP1 SWAP2 ADD SLOAD PUSH2 0x838 DUP6 DUP11 PUSH2 0x10ED JUMP JUMPDEST MSTORE ADD SLOAD SWAP2 DUP9 PUSH2 0x10ED JUMP JUMPDEST MSTORE PUSH2 0xF46 JUMP JUMPDEST PUSH2 0x806 JUMP JUMPDEST PUSH4 0x4E487B71 PUSH1 0xE0 SHL DUP4 MSTORE PUSH1 0x32 DUP9 MSTORE PUSH1 0x24 DUP4 REVERT JUMPDEST PUSH2 0x1C0 DUP6 PUSH2 0x87D DUP10 DUP10 PUSH2 0x875 DUP14 MLOAD DUP1 SWAP6 PUSH2 0xEFB JUMP JUMPDEST DUP4 ADD SWAP1 PUSH2 0xEFB JUMP JUMPDEST RETURN JUMPDEST POP POP POP CALLVALUE PUSH2 0x2BB JUMPI DUP2 PUSH1 0x3 NOT CALLDATASIZE ADD SLT PUSH2 0x2BB JUMPI PUSH1 0x20 SWAP1 MLOAD PUSH1 0x7 DUP2 MSTORE RETURN JUMPDEST POP POP SWAP1 CALLVALUE PUSH2 0x18B JUMPI DUP3 PUSH1 0x3 NOT CALLDATASIZE ADD SLT PUSH2 0x18B JUMPI PUSH2 0x8B8 CALLER PUSH2 0x1154 JUMP JUMPDEST CALLER DUP4 MSTORE PUSH1 0x20 SWAP1 PUSH1 0xF DUP3 MSTORE PUSH1 0x8 DUP2 DUP6 KECCAK256 ADD SLOAD SWAP3 DUP4 ISZERO PUSH2 0xA7E JUMPI DUP2 MLOAD PUSH4 0x70A08231 PUSH1 0xE0 SHL DUP2 MSTORE ADDRESS DUP3 DUP3 ADD MSTORE PUSH32 0x0 PUSH1 0x1 PUSH1 0x1 PUSH1 0xA0 SHL SUB AND SWAP1 DUP5 DUP2 PUSH1 0x24 DUP2 DUP6 GAS STATICCALL SWAP1 DUP2 ISZERO PUSH2 0xA74 JUMPI SWAP1 DUP7 SWAP2 DUP9 SWAP2 PUSH2 0xA3F JUMPI JUMPDEST POP LT PUSH2 0xA0B JUMPI CALLER DUP1 DUP8 MSTORE PUSH1 0xF DUP6 MSTORE DUP4 DUP8 KECCAK256 PUSH1 0x8 ADD DUP8 SWAP1 SSTORE DUP4 MLOAD PUSH4 0xA9059CBB PUSH1 0xE0 SHL DUP2 MSTORE DUP4 DUP2 ADD SWAP2 DUP3 MSTORE PUSH1 0x20 DUP3 ADD DUP8 SWAP1 MSTORE SWAP2 DUP6 SWAP2 DUP4 SWAP2 SWAP1 DUP3 SWAP1 DUP11 SWAP1 DUP3 SWAP1 PUSH1 0x40 ADD SUB SWAP3 GAS CALL SWAP1 DUP2 ISZERO PUSH2 0xA01 JUMPI DUP7 SWAP2 PUSH2 0x9E4 JUMPI JUMPDEST POP ISZERO PUSH2 0x9AA JUMPI POP SWAP1 PUSH32 0xFC30CDDEA38E2BF4D6EA7D3F9ED3B6AD7F176419F4963BD81318067A4AEE73FE SWAP2 MLOAD SWAP3 DUP4 MSTORE CALLER SWAP3 LOG2 DUP1 RETURN JUMPDEST DUP3 PUSH1 0x64 SWAP3 MLOAD SWAP2 PUSH3 0x461BCD PUSH1 0xE5 SHL DUP4 MSTORE DUP3 ADD MSTORE PUSH1 0x16 PUSH1 0x24 DUP3 ADD MSTORE PUSH22 0x109510D20C93C81D1C985B9CD9995C8819985A5B1959 PUSH1 0x52 SHL PUSH1 0x44 DUP3 ADD MSTORE REVERT JUMPDEST PUSH2 0x9FB SWAP2 POP DUP5 RETURNDATASIZE DUP7 GT PUSH2 0x2AA JUMPI PUSH2 0x29C DUP2 DUP4 PUSH2 0x10CB JUMP JUMPDEST CODESIZE PUSH2 0x976 JUMP JUMPDEST DUP4 MLOAD RETURNDATASIZE DUP9 DUP3 RETURNDATACOPY RETURNDATASIZE SWAP1 REVERT JUMPDEST POP DUP3 PUSH1 0x64 SWAP3 MLOAD SWAP2 PUSH3 0x461BCD PUSH1 0xE5 SHL DUP4 MSTORE DUP3 ADD MSTORE PUSH1 0xF PUSH1 0x24 DUP3 ADD MSTORE PUSH15 0x52657761726420706F6F6C206C6F77 PUSH1 0x88 SHL PUSH1 0x44 DUP3 ADD MSTORE REVERT JUMPDEST DUP1 SWAP3 POP DUP7 DUP1 SWAP3 POP RETURNDATASIZE DUP4 GT PUSH2 0xA6D JUMPI JUMPDEST PUSH2 0xA58 DUP2 DUP4 PUSH2 0x10CB JUMP JUMPDEST DUP2 ADD SUB SLT PUSH2 0xA69 JUMPI DUP6 SWAP1 MLOAD CODESIZE PUSH2 0x925 JUMP JUMPDEST DUP7 DUP1 REVERT JUMPDEST POP RETURNDATASIZE PUSH2 0xA4E JUMP JUMPDEST DUP5 MLOAD RETURNDATASIZE DUP10 DUP3 RETURNDATACOPY RETURNDATASIZE SWAP1 REVERT JUMPDEST DUP3 PUSH1 0x64 SWAP3 MLOAD SWAP2 PUSH3 0x461BCD PUSH1 0xE5 SHL DUP4 MSTORE DUP3 ADD MSTORE PUSH1 0x10 PUSH1 0x24 DUP3 ADD MSTORE PUSH16 0x4E6F7468696E6720746F20636C61696D PUSH1 0x80 SHL PUSH1 0x44 DUP3 ADD MSTORE REVERT JUMPDEST POP POP SWAP1 CALLVALUE PUSH2 0x18B JUMPI DUP1 PUSH1 0x3 NOT CALLDATASIZE ADD SLT PUSH2 0x18B JUMPI PUSH1 0x20 PUSH2 0xB22 SWAP3 PUSH2 0xAD3 PUSH2 0xED0 JUMP JUMPDEST DUP6 SLOAD PUSH1 0x1 PUSH1 0x1 PUSH1 0xA0 SHL SUB SWAP1 DUP2 AND SWAP1 DUP8 SWAP1 PUSH2 0xAEE CALLER DUP5 EQ PUSH2 0x1226 JUMP JUMPDEST DUP7 MLOAD PUSH4 0xA9059CBB PUSH1 0xE0 SHL DUP2 MSTORE PUSH1 0x1 PUSH1 0x1 PUSH1 0xA0 SHL SUB SWAP1 SWAP4 AND SWAP5 DUP4 ADD SWAP5 DUP6 MSTORE PUSH1 0x24 CALLDATALOAD PUSH1 0x20 DUP7 ADD MSTORE SWAP2 SWAP7 DUP8 SWAP5 DUP6 SWAP4 SWAP2 DUP5 SWAP2 PUSH1 0x40 ADD SWAP1 JUMP JUMPDEST SUB SWAP4 AND GAS CALL SWAP1 DUP2 ISZERO PUSH2 0xB52 JUMPI POP PUSH2 0xB37 JUMPI POP DUP1 RETURN JUMPDEST PUSH2 0xB4E SWAP1 PUSH1 0x20 RETURNDATASIZE DUP2 GT PUSH2 0x2AA JUMPI PUSH2 0x29C DUP2 DUP4 PUSH2 0x10CB JUMP JUMPDEST POP DUP1 RETURN JUMPDEST MLOAD RETURNDATASIZE DUP5 DUP3 RETURNDATACOPY RETURNDATASIZE SWAP1 REVERT JUMPDEST POP POP POP CALLVALUE PUSH2 0x2BB JUMPI PUSH1 0x20 CALLDATASIZE PUSH1 0x3 NOT ADD SLT PUSH2 0x2BB JUMPI PUSH1 0x20 SWAP1 PUSH2 0xB82 PUSH2 0xB7D PUSH2 0xED0 JUMP JUMPDEST PUSH2 0xF9D JUMP JUMPDEST SWAP1 MLOAD SWAP1 DUP2 MSTORE RETURN JUMPDEST DUP5 DUP5 CALLVALUE PUSH2 0x2BB JUMPI PUSH1 0x20 SWAP2 DUP3 PUSH1 0x3 NOT CALLDATASIZE ADD SLT PUSH2 0x317 JUMPI PUSH2 0xBA6 PUSH2 0xED0 JUMP JUMPDEST DUP5 DUP4 MLOAD PUSH2 0xBB2 DUP2 PUSH2 0x10AF JUMP JUMPDEST CALLDATASIZE SWAP1 CALLDATACOPY PUSH1 0x1 PUSH1 0x1 PUSH1 0xA0 SHL SUB AND DUP2 MSTORE PUSH1 0xF DUP4 MSTORE DUP2 DUP2 KECCAK256 DUP3 MLOAD SWAP4 SWAP1 SWAP2 SWAP1 DUP5 JUMPDEST PUSH1 0x7 DUP4 LT PUSH2 0xBEE JUMPI DUP7 DUP7 PUSH2 0x87D DUP8 PUSH2 0xBE6 DUP4 PUSH2 0x10AF JUMP JUMPDEST MLOAD DUP1 SWAP3 PUSH2 0xEFB JUMP JUMPDEST PUSH1 0x1 DUP3 DUP2 SWAP3 DUP7 SLOAD DUP2 MSTORE ADD SWAP5 ADD SWAP3 ADD SWAP2 SWAP3 PUSH2 0xBCF JUMP JUMPDEST DUP4 DUP6 DUP5 CALLVALUE PUSH2 0x2BB JUMPI DUP3 PUSH1 0x3 NOT CALLDATASIZE ADD SLT PUSH2 0x2BB JUMPI PUSH2 0xC1E PUSH2 0xEEB JUMP JUMPDEST SWAP1 PUSH1 0x24 CALLDATALOAD PUSH2 0xC31 PUSH1 0x7 PUSH1 0xFF DUP6 AND LT PUSH2 0x10FE JUMP JUMPDEST DUP1 ISZERO PUSH2 0xDD2 JUMPI PUSH2 0xC40 CALLER PUSH2 0x1154 JUMP JUMPDEST PUSH1 0x7 DUP4 LT ISZERO PUSH2 0xDBF JUMPI PUSH2 0xC5A DUP2 DUP5 PUSH1 0x1 SHL PUSH1 0x1 ADD SLOAD PUSH2 0xF7D JUMP JUMPDEST DUP6 MLOAD PUSH4 0x23B872DD PUSH1 0xE0 SHL DUP2 MSTORE CALLER DUP2 DUP6 ADD SWAP1 DUP2 MSTORE ADDRESS PUSH1 0x20 DUP3 DUP2 ADD SWAP2 SWAP1 SWAP2 MSTORE PUSH1 0x40 DUP3 ADD DUP5 SWAP1 MSTORE SWAP3 SWAP5 SWAP3 SWAP1 DUP3 SWAP1 DUP2 SWAP1 PUSH1 0x60 ADD SUB DUP2 DUP10 PUSH32 0x0 PUSH1 0x1 PUSH1 0x1 PUSH1 0xA0 SHL SUB AND GAS CALL SWAP1 DUP2 ISZERO PUSH2 0xDB5 JUMPI DUP7 SWAP2 PUSH2 0xD97 JUMPI JUMPDEST POP ISZERO PUSH2 0xD5D JUMPI POP PUSH2 0xD57 PUSH32 0x72BE55CDDDB684D7757BECF89A7380578B111D8DF14AB625FA2E2CDC7C811F58 SWAP4 SWAP5 SWAP6 PUSH2 0xD00 DUP5 PUSH1 0x10 SLOAD PUSH2 0xF90 JUMP JUMPDEST PUSH1 0x10 SSTORE CALLER DUP8 MSTORE PUSH1 0xF PUSH1 0x20 MSTORE PUSH2 0xD17 DUP7 DUP3 DUP10 KECCAK256 PUSH2 0xF57 JUMP JUMPDEST DUP2 SLOAD SWAP1 PUSH1 0x3 SHL SWAP1 PUSH2 0xD2A DUP7 DUP3 DUP5 SHR PUSH2 0xF90 JUMP JUMPDEST DUP3 SHL SWAP2 PUSH1 0x0 NOT SWAP1 SHL NOT AND OR SWAP1 SSTORE MLOAD SWAP3 DUP4 SWAP3 CALLER SWAP7 DUP5 PUSH1 0x40 SWAP2 SWAP5 SWAP4 SWAP3 PUSH1 0xFF PUSH1 0x60 DUP4 ADD SWAP7 AND DUP3 MSTORE PUSH1 0x20 DUP3 ADD MSTORE ADD MSTORE JUMP JUMPDEST SUB SWAP1 LOG2 DUP1 RETURN JUMPDEST PUSH1 0x64 SWAP1 PUSH1 0x20 DUP8 MLOAD SWAP2 PUSH3 0x461BCD PUSH1 0xE5 SHL DUP4 MSTORE DUP3 ADD MSTORE PUSH1 0x14 PUSH1 0x24 DUP3 ADD MSTORE PUSH20 0x1555120C881D1C985B9CD9995C8819985A5B1959 PUSH1 0x62 SHL PUSH1 0x44 DUP3 ADD MSTORE REVERT JUMPDEST PUSH2 0xDAF SWAP2 POP PUSH1 0x20 RETURNDATASIZE DUP2 GT PUSH2 0x2AA JUMPI PUSH2 0x29C DUP2 DUP4 PUSH2 0x10CB JUMP JUMPDEST DUP8 PUSH2 0xCC6 JUMP JUMPDEST DUP8 MLOAD RETURNDATASIZE DUP9 DUP3 RETURNDATACOPY RETURNDATASIZE SWAP1 REVERT JUMPDEST PUSH4 0x4E487B71 PUSH1 0xE0 SHL DUP5 MSTORE PUSH1 0x32 DUP3 MSTORE PUSH1 0x24 DUP5 REVERT JUMPDEST DUP5 MLOAD PUSH3 0x461BCD PUSH1 0xE5 SHL DUP2 MSTORE PUSH1 0x20 DUP2 DUP5 ADD MSTORE PUSH1 0xA PUSH1 0x24 DUP3 ADD MSTORE PUSH10 0x436F756E74207A65726F PUSH1 0xB0 SHL PUSH1 0x44 DUP3 ADD MSTORE PUSH1 0x64 SWAP1 REVERT JUMPDEST POP POP POP CALLVALUE PUSH2 0x2BB JUMPI PUSH1 0x20 CALLDATASIZE PUSH1 0x3 NOT ADD SLT PUSH2 0x2BB JUMPI SWAP1 DUP2 SWAP1 PUSH1 0x1 PUSH1 0x1 PUSH1 0xA0 SHL SUB PUSH2 0xE29 PUSH2 0xED0 JUMP JUMPDEST AND DUP2 MSTORE PUSH1 0xF PUSH1 0x20 MSTORE KECCAK256 PUSH1 0x8 PUSH1 0x7 DUP3 ADD SLOAD SWAP2 ADD SLOAD DUP3 MLOAD SWAP2 DUP3 MSTORE PUSH1 0x20 DUP3 ADD MSTORE RETURN JUMPDEST POP POP POP CALLVALUE PUSH2 0x2BB JUMPI DUP2 PUSH1 0x3 NOT CALLDATASIZE ADD SLT PUSH2 0x2BB JUMPI MLOAD PUSH32 0x0 PUSH1 0x1 PUSH1 0x1 PUSH1 0xA0 SHL SUB AND DUP2 MSTORE PUSH1 0x20 SWAP1 RETURN JUMPDEST DUP6 SWAP1 CALLVALUE PUSH2 0x2BB JUMPI DUP2 PUSH1 0x3 NOT CALLDATASIZE ADD SLT PUSH2 0x2BB JUMPI PUSH32 0x0 PUSH1 0x1 PUSH1 0x1 PUSH1 0xA0 SHL SUB AND DUP2 MSTORE PUSH1 0x20 SWAP1 RETURN JUMPDEST PUSH1 0x4 CALLDATALOAD SWAP1 PUSH1 0x1 PUSH1 0x1 PUSH1 0xA0 SHL SUB DUP3 AND DUP3 SUB PUSH2 0xEE6 JUMPI JUMP JUMPDEST PUSH1 0x0 DUP1 REVERT JUMPDEST PUSH1 0x4 CALLDATALOAD SWAP1 PUSH1 0xFF DUP3 AND DUP3 SUB PUSH2 0xEE6 JUMPI JUMP JUMPDEST PUSH1 0x0 SWAP2 JUMPDEST PUSH1 0x7 DUP4 LT PUSH2 0xF0C JUMPI POP POP POP JUMP JUMPDEST PUSH1 0x1 SWAP1 DUP3 MLOAD DUP2 MSTORE PUSH1 0x20 DUP1 SWAP2 ADD SWAP3 ADD SWAP3 ADD SWAP2 SWAP1 PUSH2 0xEFF JUMP JUMPDEST SWAP2 SWAP1 DUP3 SUB SWAP2 DUP3 GT PUSH2 0xF30 JUMPI JUMP JUMPDEST PUSH4 0x4E487B71 PUSH1 0xE0 SHL PUSH1 0x0 MSTORE PUSH1 0x11 PUSH1 0x4 MSTORE PUSH1 0x24 PUSH1 0x0 REVERT JUMPDEST PUSH1 0xFF AND PUSH1 0xFF DUP2 EQ PUSH2 0xF30 JUMPI PUSH1 0x1 ADD SWAP1 JUMP JUMPDEST PUSH1 0x7 DUP3 LT ISZERO PUSH2 0xF67 JUMPI ADD SWAP1 PUSH1 0x0 SWAP1 JUMP JUMPDEST PUSH4 0x4E487B71 PUSH1 0xE0 SHL PUSH1 0x0 MSTORE PUSH1 0x32 PUSH1 0x4 MSTORE PUSH1 0x24 PUSH1 0x0 REVERT JUMPDEST DUP2 DUP2 MUL SWAP3 SWAP2 DUP2 ISZERO SWAP2 DUP5 DIV EQ OR ISZERO PUSH2 0xF30 JUMPI JUMP JUMPDEST SWAP2 SWAP1 DUP3 ADD DUP1 SWAP3 GT PUSH2 0xF30 JUMPI JUMP JUMPDEST PUSH1 0x1 PUSH1 0x1 PUSH1 0xA0 SHL SUB AND PUSH1 0x0 SWAP1 DUP2 MSTORE PUSH1 0xF PUSH1 0x20 MSTORE PUSH1 0x40 DUP2 KECCAK256 PUSH1 0x7 DUP1 DUP3 ADD SLOAD SWAP1 SWAP3 SWAP2 SWAP1 DUP1 ISZERO PUSH2 0x1076 JUMPI PUSH2 0xFCE SWAP1 TIMESTAMP PUSH2 0xF23 JUMP JUMPDEST SWAP2 DUP1 SWAP4 DUP2 JUMPDEST DUP2 PUSH1 0xFF DUP3 AND LT PUSH2 0x1002 JUMPI POP POP POP PUSH2 0xFF8 PUSH2 0xFFF SWAP4 SWAP3 PUSH1 0x8 PUSH4 0x1E13380 SWAP4 ADD SLOAD SWAP4 PUSH2 0xF7D JUMP JUMPDEST DIV SWAP1 PUSH2 0xF90 JUMP JUMPDEST SWAP1 JUMP JUMPDEST PUSH2 0x100C DUP2 DUP6 PUSH2 0xF57 JUMP JUMPDEST SWAP1 SLOAD PUSH1 0x3 SWAP2 DUP3 SHL SHR PUSH2 0x1028 JUMPI JUMPDEST POP PUSH2 0x1023 SWAP1 PUSH2 0xF46 JUMP JUMPDEST PUSH2 0xFD3 JUMP JUMPDEST PUSH2 0x1035 DUP3 DUP7 SWAP9 SWAP4 SWAP9 PUSH2 0xF57 JUMP JUMPDEST SWAP1 SLOAD SWAP2 SHL SHR DUP3 DUP8 LT ISZERO PUSH2 0x1062 JUMPI PUSH2 0x1023 SWAP2 PUSH2 0x5CC PUSH2 0x105B SWAP3 PUSH1 0x2 DUP11 PUSH1 0x1 SHL ADD SLOAD SWAP1 PUSH2 0xF7D JUMP JUMPDEST SWAP6 SWAP1 PUSH2 0x1019 JUMP JUMPDEST PUSH4 0x4E487B71 PUSH1 0xE0 SHL DUP5 MSTORE PUSH1 0x32 PUSH1 0x4 MSTORE PUSH1 0x24 DUP5 REVERT JUMPDEST POP POP SWAP1 POP SWAP1 JUMP JUMPDEST PUSH1 0x40 DUP2 ADD SWAP1 DUP2 LT PUSH8 0xFFFFFFFFFFFFFFFF DUP3 GT OR PUSH2 0x1099 JUMPI PUSH1 0x40 MSTORE JUMP JUMPDEST PUSH4 0x4E487B71 PUSH1 0xE0 SHL PUSH1 0x0 MSTORE PUSH1 0x41 PUSH1 0x4 MSTORE PUSH1 0x24 PUSH1 0x0 REVERT JUMPDEST PUSH1 0xE0 DUP2 ADD SWAP1 DUP2 LT PUSH8 0xFFFFFFFFFFFFFFFF DUP3 GT OR PUSH2 0x1099 JUMPI PUSH1 0x40 MSTORE JUMP JUMPDEST SWAP1 PUSH1 0x1F DUP1 NOT SWAP2 ADD AND DUP2 ADD SWAP1 DUP2 LT PUSH8 0xFFFFFFFFFFFFFFFF DUP3 GT OR PUSH2 0x1099 JUMPI PUSH1 0x40 MSTORE JUMP JUMPDEST SWAP1 PUSH1 0x7 DUP2 LT ISZERO PUSH2 0xF67 JUMPI PUSH1 0x5 SHL ADD SWAP1 JUMP JUMPDEST ISZERO PUSH2 0x1105 JUMPI JUMP JUMPDEST PUSH1 0x40 MLOAD PUSH3 0x461BCD PUSH1 0xE5 SHL DUP2 MSTORE PUSH1 0x20 PUSH1 0x4 DUP3 ADD MSTORE PUSH1 0xF PUSH1 0x24 DUP3 ADD MSTORE PUSH15 0x496E76616C6964207061636B616765 PUSH1 0x88 SHL PUSH1 0x44 DUP3 ADD MSTORE PUSH1 0x64 SWAP1 REVERT JUMPDEST SWAP1 DUP2 PUSH1 0x20 SWAP2 SUB SLT PUSH2 0xEE6 JUMPI MLOAD DUP1 ISZERO ISZERO DUP2 SUB PUSH2 0xEE6 JUMPI SWAP1 JUMP JUMPDEST PUSH1 0x1 PUSH1 0x1 PUSH1 0xA0 SHL SUB AND PUSH1 0x0 SWAP1 DUP2 MSTORE PUSH1 0xF PUSH1 0x20 MSTORE PUSH1 0x40 DUP2 KECCAK256 PUSH1 0x7 DUP1 DUP3 ADD DUP1 SLOAD SWAP1 SWAP4 SWAP2 SWAP1 ISZERO PUSH2 0x121E JUMPI PUSH2 0x1186 DUP5 SLOAD TIMESTAMP PUSH2 0xF23 JUMP JUMPDEST SWAP2 DUP1 SWAP2 DUP2 JUMPDEST DUP2 PUSH1 0xFF DUP3 AND LT PUSH2 0x11BE JUMPI POP POP POP PUSH4 0x1E13380 PUSH2 0x11AC PUSH2 0x11B7 SWAP4 PUSH1 0x8 SWAP4 PUSH2 0xF7D JUMP JUMPDEST DIV SWAP3 ADD SWAP2 DUP3 SLOAD PUSH2 0xF90 JUMP JUMPDEST SWAP1 SSTORE TIMESTAMP SWAP1 SSTORE JUMP JUMPDEST PUSH2 0x11C8 DUP2 DUP8 PUSH2 0xF57 JUMP JUMPDEST SWAP1 SLOAD PUSH1 0x3 SWAP2 DUP3 SHL SHR PUSH2 0x11E4 JUMPI JUMPDEST POP PUSH2 0x11DF SWAP1 PUSH2 0xF46 JUMP JUMPDEST PUSH2 0x118B JUMP JUMPDEST PUSH2 0x11F1 DUP3 DUP9 SWAP7 SWAP4 SWAP7 PUSH2 0xF57 JUMP JUMPDEST SWAP1 SLOAD SWAP2 SHL SHR DUP3 DUP6 LT ISZERO PUSH2 0x1062 JUMPI PUSH2 0x11DF SWAP2 PUSH2 0x5CC PUSH2 0x1217 SWAP3 PUSH1 0x2 DUP9 PUSH1 0x1 SHL ADD SLOAD SWAP1 PUSH2 0xF7D JUMP JUMPDEST SWAP4 SWAP1 PUSH2 0x11D5 JUMP JUMPDEST POP POP POP TIMESTAMP SWAP1 SSTORE JUMP JUMPDEST ISZERO PUSH2 0x122D JUMPI JUMP JUMPDEST PUSH1 0x40 MLOAD PUSH3 0x461BCD PUSH1 0xE5 SHL DUP2 MSTORE PUSH1 0x20 PUSH1 0x4 DUP3 ADD MSTORE PUSH1 0x9 PUSH1 0x24 DUP3 ADD MSTORE PUSH9 0x2737BA1037BBB732B9 PUSH1 0xB9 SHL PUSH1 0x44 DUP3 ADD MSTORE PUSH1 0x64 SWAP1 REVERT INVALID LOG2 PUSH5 0x6970667358 0x22 SLT KECCAK256 0x5C 0xAF EXP SWAP11 0xDB PUSH5 0x8D9096E8ED 0xC8 PUSH23 0xC0B5F3DC0787B17B5E117B7A2D33D5B105CDB464736F6C PUSH4 0x43000814 STOP CALLER "},"methodIdentifiers":{"NUM_PKG()":"487cb94d","YEAR()":"83914540","btch2o()":"0f2f565f","buyPackage(uint8,uint256)":"254b516e","claimRewards()":"372500ab","fundPool(uint256)":"da3a5f72","getPackages()":"5c05a89f","getUserCounts(address)":"293c4ab5","getUserRate(address)":"913701b6","owner()":"8da5cb5b","packages(uint256)":"c216212a","pendingRewards(address)":"31d7a262","poolBalance()":"96365d44","rescueToken(address,uint256)":"33f3d628","setAllPackages(uint256[7],uint256[7])":"80168a75","setPackage(uint8,uint256,uint256)":"7d59551e","totalUTH2Collected()":"d38d8ecf","transferOwnership(address)":"f2fde38b","userInfo(address)":"1959a002","uth2()":"04e4fc5e","withdrawUTH2()":"afeca72b"}}}}}