{"contracts/UTH2Mining.sol":{"UTH2Mining":{"abi":[{"inputs":[{"internalType":"address","name":"_uth2","type":"address"},{"internalType":"address","name":"_btch2o","type":"address"},{"internalType":"address","name":"_owner2","type":"address"},{"internalType":"uint256[7]","name":"_prices","type":"uint256[7]"},{"internalType":"uint256[7]","name":"_rates","type":"uint256[7]"}],"stateMutability":"nonpayable","type":"constructor"},{"anonymous":false,"inputs":[{"indexed":true,"internalType":"address","name":"newOwner1","type":"address"}],"name":"Owner1Transferred","type":"event"},{"anonymous":false,"inputs":[{"indexed":true,"internalType":"address","name":"newOwner2","type":"address"}],"name":"Owner2Changed","type":"event"},{"anonymous":false,"inputs":[{"indexed":true,"internalType":"address","name":"user","type":"address"},{"indexed":false,"internalType":"uint8","name":"pkg","type":"uint8"},{"indexed":false,"internalType":"uint256","name":"count","type":"uint256"},{"indexed":false,"internalType":"uint256","name":"cost","type":"uint256"}],"name":"PackageBought","type":"event"},{"anonymous":false,"inputs":[{"indexed":false,"internalType":"uint8","name":"pkg","type":"uint8"},{"indexed":false,"internalType":"uint256","name":"price","type":"uint256"},{"indexed":false,"internalType":"uint256","name":"rate","type":"uint256"}],"name":"PackageUpdated","type":"event"},{"anonymous":false,"inputs":[{"indexed":true,"internalType":"address","name":"token","type":"address"},{"indexed":false,"internalType":"uint256","name":"amount","type":"uint256"},{"indexed":true,"internalType":"address","name":"funder","type":"address"}],"name":"PoolFunded","type":"event"},{"anonymous":false,"inputs":[{"indexed":true,"internalType":"address","name":"token","type":"address"}],"name":"RewardTokenAdded","type":"event"},{"anonymous":false,"inputs":[{"indexed":true,"internalType":"address","name":"token","type":"address"}],"name":"RewardTokenRemoved","type":"event"},{"anonymous":false,"inputs":[{"indexed":true,"internalType":"address","name":"user","type":"address"},{"indexed":false,"internalType":"uint256","name":"amount","type":"uint256"},{"indexed":true,"internalType":"address","name":"token","type":"address"}],"name":"RewardsClaimed","type":"event"},{"inputs":[],"name":"NUM_PKG","outputs":[{"internalType":"uint256","name":"","type":"uint256"}],"stateMutability":"view","type":"function"},{"inputs":[],"name":"YEAR","outputs":[{"internalType":"uint256","name":"","type":"uint256"}],"stateMutability":"view","type":"function"},{"inputs":[{"internalType":"address","name":"token","type":"address"}],"name":"addRewardToken","outputs":[],"stateMutability":"nonpayable","type":"function"},{"inputs":[{"internalType":"uint8","name":"pkg","type":"uint8"},{"internalType":"uint256","name":"count","type":"uint256"}],"name":"buyPackage","outputs":[],"stateMutability":"nonpayable","type":"function"},{"inputs":[],"name":"claimRewards","outputs":[],"stateMutability":"nonpayable","type":"function"},{"inputs":[{"internalType":"address","name":"token","type":"address"},{"internalType":"uint256","name":"amount","type":"uint256"}],"name":"fundPool","outputs":[],"stateMutability":"nonpayable","type":"function"},{"inputs":[],"name":"getContractBalances","outputs":[{"internalType":"address[]","name":"tokens","type":"address[]"},{"internalType":"uint256[]","name":"balances","type":"uint256[]"}],"stateMutability":"view","type":"function"},{"inputs":[],"name":"getPackages","outputs":[{"internalType":"uint256[7]","name":"prices","type":"uint256[7]"},{"internalType":"uint256[7]","name":"rates","type":"uint256[7]"}],"stateMutability":"view","type":"function"},{"inputs":[],"name":"getRewardTokens","outputs":[{"internalType":"address[]","name":"","type":"address[]"}],"stateMutability":"view","type":"function"},{"inputs":[{"internalType":"address","name":"user","type":"address"}],"name":"getUserCounts","outputs":[{"internalType":"uint256[7]","name":"","type":"uint256[7]"}],"stateMutability":"view","type":"function"},{"inputs":[{"internalType":"address","name":"user","type":"address"}],"name":"getUserRate","outputs":[{"internalType":"uint256","name":"","type":"uint256"}],"stateMutability":"view","type":"function"},{"inputs":[{"internalType":"address","name":"","type":"address"}],"name":"isRewardToken","outputs":[{"internalType":"bool","name":"","type":"bool"}],"stateMutability":"view","type":"function"},{"inputs":[],"name":"owner1","outputs":[{"internalType":"address","name":"","type":"address"}],"stateMutability":"view","type":"function"},{"inputs":[],"name":"owner2","outputs":[{"internalType":"address","name":"","type":"address"}],"stateMutability":"view","type":"function"},{"inputs":[{"internalType":"uint256","name":"","type":"uint256"}],"name":"packages","outputs":[{"internalType":"uint256","name":"price","type":"uint256"},{"internalType":"uint256","name":"ratePerYear","type":"uint256"}],"stateMutability":"view","type":"function"},{"inputs":[{"internalType":"address","name":"user","type":"address"}],"name":"pendingRewards","outputs":[{"internalType":"uint256","name":"","type":"uint256"}],"stateMutability":"view","type":"function"},{"inputs":[],"name":"poolBalance","outputs":[{"internalType":"uint256","name":"","type":"uint256"}],"stateMutability":"view","type":"function"},{"inputs":[],"name":"primaryToken","outputs":[{"internalType":"address","name":"","type":"address"}],"stateMutability":"view","type":"function"},{"inputs":[{"internalType":"address","name":"token","type":"address"}],"name":"removeRewardToken","outputs":[],"stateMutability":"nonpayable","type":"function"},{"inputs":[{"internalType":"address","name":"token","type":"address"},{"internalType":"uint256","name":"amount","type":"uint256"}],"name":"rescueToken","outputs":[],"stateMutability":"nonpayable","type":"function"},{"inputs":[{"internalType":"uint256","name":"","type":"uint256"}],"name":"rewardTokens","outputs":[{"internalType":"address","name":"","type":"address"}],"stateMutability":"view","type":"function"},{"inputs":[{"internalType":"uint256[7]","name":"prices","type":"uint256[7]"},{"internalType":"uint256[7]","name":"rates","type":"uint256[7]"}],"name":"setAllPackages","outputs":[],"stateMutability":"nonpayable","type":"function"},{"inputs":[{"internalType":"address","name":"newOwner2","type":"address"}],"name":"setOwner2","outputs":[],"stateMutability":"nonpayable","type":"function"},{"inputs":[{"internalType":"uint8","name":"pkg","type":"uint8"},{"internalType":"uint256","name":"price","type":"uint256"},{"internalType":"uint256","name":"rate","type":"uint256"}],"name":"setPackage","outputs":[],"stateMutability":"nonpayable","type":"function"},{"inputs":[],"name":"totalUTH2Collected","outputs":[{"internalType":"uint256","name":"","type":"uint256"}],"stateMutability":"view","type":"function"},{"inputs":[{"internalType":"address","name":"newOwner","type":"address"}],"name":"transferOwner1","outputs":[],"stateMutability":"nonpayable","type":"function"},{"inputs":[{"internalType":"address","name":"","type":"address"}],"name":"userInfo","outputs":[{"internalType":"uint256","name":"lastClaim","type":"uint256"},{"internalType":"uint256","name":"accrued","type":"uint256"}],"stateMutability":"view","type":"function"},{"inputs":[],"name":"uth2","outputs":[{"internalType":"contract IERC20","name":"","type":"address"}],"stateMutability":"view","type":"function"}],"evm":{"bytecode":{"linkReferences":{},"object":"60a03462000252576001600160401b0390601f62001c2738819003918201601f1916830192919084841183851017620002575781906040948552833981019261022082850312620002525762000055826200026d565b90602092620000668482016200026d565b9362000093620000788784016200026d565b976101406200008b826060870162000282565b940162000282565b6001600160a01b03978816958615620002205760018060a01b0319908960009733848a5416178955600199848b5416178a551660805260025499680100000000000000008b10156200020c57888b01806002558b1015620001f857889a6002895285892001911680928254161790558552600382528685208660ff1982541617905584975b6200013d575b8651611922908162000305823960805181818161100c01526113ba0152f35b60ff8816600780821015620001f057620001656200015c8387620002dc565b519284620002dc565b51908951928a840184811089821117620001dc578b5283528483019182528a1015620001c8576005908a891b925183600401555191015560ff809816978814620001b457968501968562000118565b634e487b7160e01b85526011600452602485fd5b634e487b7160e01b87526032600452602487fd5b634e487b7160e01b8a52604160045260248afd5b50506200011e565b634e487b7160e01b88526032600452602488fd5b634e487b7160e01b88526041600452602488fd5b875162461bcd60e51b815260048101849052600b60248201526a4f776e657232207a65726f60a81b6044820152606490fd5b600080fd5b634e487b7160e01b600052604160045260246000fd5b51906001600160a01b03821682036200025257565b9080601f8301121562000252576040519160e083016001600160401b038111848210176200025757604052829060e081019283116200025257905b828210620002cb5750505090565b8151815260209182019101620002bd565b906007811015620002ee5760051b0190565b634e487b7160e01b600052603260045260246000fdfe60806040908082526004908136101561001757600080fd5b60009060e08235811c91826304e4fc5e146113a6575081631959a002146113615781631c03e6cc14611246578163254b516e14610f72578163293c4ab514610ef85781632bfd514614610d8d57816331d7a26214610d6757816333f3d62814610cb6578163372500ab14610aa45781633d509c9714610881578163487cb94d14610865578163527097251461083c5781635825884f146107c45781635c05a89f146107175750806373688914146106ef5780637bb7bed1146106c35780637d59551e146105e757806380168a75146105325780638391454014610513578063913701b6146104e657806391ac094c146104b357806396365d441461040e5780639b5cc9f414610399578063b5fd73f81461035b578063c216212a14610323578063c4f59f9b146102ee578063d38d8ecf146102cb5763ffd2a7d31461015b57600080fd5b346102c857806003193601126102c85791906101756116eb565b9260025461018281611763565b9061018f855192836116b8565b80825261019b81611763565b9360209182840195601f1901368737845b81811061020157505050806101ca86519787899889528801906114bd565b928684038288015251928381520193925b8281106101ea57505050500390f35b8351855286955093810193928101926001016101db565b610211819994969597989961143c565b90548a516370a0823160e01b8152308682015291602491899184918491839160039190911b1c6001600160a01b03165afa9182156102be57879261028b575b50885183101561027a57509061026e91878260051b8a01015261177b565b979695939492976101ac565b634e487b7160e01b87526032855286fd5b9091508781813d83116102b7575b6102a381836116b8565b810103126102b357519038610250565b8680fd5b503d610299565b8b513d89823e3d90fd5b80fd5b5082346102ea57816003193601126102ea576020906013549051908152f35b5080fd5b5082346102ea57816003193601126102ea5761031f9061030c6116eb565b90519182916020835260208301906114bd565b0390f35b50346102c85760203660031901126102c85781359060078210156102c8575060059060011b8092015491015482519182526020820152f35b5082346102ea5760203660031901126102ea5760209160ff9082906001600160a01b036103866113e9565b1681526003855220541690519015158152f35b50346102c85760203660031901126102c8576103b36113e9565b8154906001600160a01b03906103cc338385161461183d565b1680916103da821515611876565b6001600160a01b0319161782557f0b532da792a8aec144e3a0854b26380749893326db86863f7aa666ad460df2c98280a280f35b50913461049d578260031936011261049d57602060249261042d611489565b94905491845195869384926370a0823160e01b8452309084015260018060a01b039160031b1c165afa9182156104a957839261046e575b6020838351908152f35b9091506020813d82116104a1575b81610489602093836116b8565b8101031261049d5760209250519038610464565b8280fd5b3d915061047c565b81513d85823e3d90fd5b5082346102ea57816003193601126102ea576020906104d0611489565b905491519160018060a01b039160031b1c168152f35b5082346102ea5760203660031901126102ea5760209061050c6105076113e9565b6115be565b9051908152f35b5082346102ea57816003193601126102ea57602090516301e133808152f35b508290346102c8576101c03660031901126102c85760e4903682116102c857366101c4116102c85761056e60018060a01b03825416331461183d565b805b60078060ff831610156105e357611fe08260051b16908551916105928361166a565b80880135835285013560208301528210156105d057906105c66105cb928260011b8801906020600191805184550151910155565b61159d565b610570565b634e487b7160e01b835260328652602483fd5b8280f35b5082346102ea5760603660031901126102ea57610602611404565b602435916044359061061e60018060a01b03865416331461183d565b61062d600760ff85161061178a565b80516106388161166a565b84815282602082015260078410156106b0579061068c6106aa93927fba7cc8548ff33d367f1eb6ac96624923f2e84dfdd24691183f8792efeb8c446497988660011b01906020600191805184550151910155565b519384938460409194939260ff606083019616825260208201520152565b0390a180f35b634e487b7160e01b865260328752602486fd5b5091903461049d57602036600319011261049d5735916002548310156102c857506104d060209261143c565b5082346102ea57816003193601126102ea57905490516001600160a01b039091168152602090f35b84929150346102ea57816003193601126102ea5782516107368161169c565b813682378351926107468461169c565b82368537805b60ff81166007808210156107a557821015610792579061078d9161078760058360011b808c015461077d858a6116da565b52015491886116da565b5261159d565b61074c565b634e487b7160e01b835260328852602483fd5b6101c0856107c289896107ba8d518095611414565b830190611414565bf35b82346102c85760203660031901126102c8576107de6113e9565b81546001600160a01b0391906107f7908316331461183d565b16610803811515611876565b600180546001600160a01b031916821790557f7e94bdc8f5d207846a5bc8d54a4a9e25703fe2b5cf10c1e62398d675d74af0b08280a280f35b8285346102ea57816003193601126102ea5760015490516001600160a01b039091168152602090f35b8285346102ea57816003193601126102ea576020905160078152f35b8285853461049d57602036600319011261049d5761089d6113e9565b83546001600160a01b0393918491821633148015610a97575b6108bf906118b1565b16918285526003918260205260ff818720541615610a5f5783856108e1611489565b905490861b1c1614610a115783865282602052852060ff19815416905560019384805b610932575b86857f66257bcef574219c04f7c05f7a1c78d599da10491294c92a5805c48b4cdf50098280a280f35b6002805480831015610a0a5786846109498561143c565b905490891b1c16146109665750506109609061177b565b85610904565b9293919094959650600019928381019081116109f7579061099a8561098d6109b99461143c565b9054908a1b1c169161143c565b90919082549060031b9160018060a01b03809116831b921b1916179055565b83549081156109e4575001926109ce8461143c565b81939154921b1b19169055558083808080610909565b634e487b7160e01b885260319052602487fd5b634e487b7160e01b895260118352602489fd5b5050610909565b906020608492519162461bcd60e51b8352820152602260248201527f43616e6e6f742072656d6f7665207072696d6172792072657761726420746f6b60448201526132b760f11b6064820152fd5b906020606492519162461bcd60e51b835282015260126024820152712737ba1030903932bbb0b932103a37b5b2b760711b6044820152fd5b50600154821633146108b6565b5050913461049d578260031936011261049d57610ac0336117e0565b33835260206012815260088285200154918215610c8257610adf611489565b905482516370a0823160e01b8152308188015260039290921b1c6001600160a01b031694908381602481895afa908115610c06579085918891610c51575b5010610c10573380875260128452828720600801879055825163a9059cbb60e01b8152828101918252602082018690529084908290819060400103818a8a5af1908115610c06578791610bd9575b5015610b9f5750907f322e87f0ab668ec0046e03e8c0bb8a8fe21edc59facfbdb533d069385d99879991519283523392a380f35b82606492519162461bcd60e51b8352820152601660248201527514995dd85c99081d1c985b9cd9995c8819985a5b195960521b6044820152fd5b610bf99150843d8611610bff575b610bf181836116b8565b8101906117c8565b38610b6b565b503d610be7565b83513d89823e3d90fd5b82606492519162461bcd60e51b8352820152601f60248201527f52657761726420706f6f6c206c6f77202d20636f6e74616374206f776e6572006044820152fd5b809250858092503d8311610c7b575b610c6a81836116b8565b810103126102b35784905138610b1d565b503d610c60565b5162461bcd60e51b81529283015250601060248201526f4e6f7468696e6720746f20636c61696d60801b6044820152606490fd5b5050913461049d578060031936011261049d576020610d21610cd66113e9565b85546001600160a01b039590861633148015610d5a575b610cf6906118b1565b845163a9059cbb60e01b81523391810191825260243560208301529586938492899291849160400190565b0393165af1908115610d515750610d36575080f35b610d4d9060203d8111610bff57610bf181836116b8565b5080f35b513d84823e3d90fd5b5060015486163314610ced565b8285346102ea5760203660031901126102ea5760209061050c610d886113e9565b61153d565b5050913461049d578060031936011261049d57610da86113e9565b835460243593916001600160a01b0391821633148015610eeb575b610dcc906118b1565b16918285526020916003835260ff828720541615610eaa5781516323b872dd60e01b8152338282019081523060208201526040810187905284908290819060600103818a895af1908115610c06578791610e8d575b5015610e555750907f50e73928be07b534e0beea032889bb051f54b4a046bb43c73625b53db520ab2691519384523393a380f35b82606492519162461bcd60e51b83528201526014602482015273119d5b99081d1c985b9cd9995c8819985a5b195960621b6044820152fd5b610ea49150843d8611610bff57610bf181836116b8565b38610e21565b82606492519162461bcd60e51b8352820152601860248201527f546f6b656e206e6f7420696e20726577617264206c69737400000000000000006044820152fd5b5060015482163314610dc3565b8285346102ea57602091826003193601126102c857610f156113e9565b848351610f218161169c565b3690376001600160a01b0316815260128352818120825193909190845b60078310610f5d5786866107c287610f558361169c565b518092611414565b60018281928654815201940192019192610f3e565b505090346102ea57826003193601126102ea57610f8d611404565b90602435610fa0600760ff85161061178a565b801561121657610faf336117e0565b600783101561120357610fc8818460011b84015461151d565b918260011c90610fd882856114fa565b865488516323b872dd60e01b808252338583019081526001600160a01b0393841660208083019190915260408201979097527f000000000000000000000000000000000000000000000000000000000000000084169391929087908290819003606001818e885af19081156111f9578b916111dc575b5015611199576001548b519283523386840190815291166001600160a01b031660208201526040810193909352918491839182908b90829060600103925af190811561118f578791611172575b501561113157507f72be55cdddb684d7757becf89a7380578b111d8df14ab625fa2e2cdc7c811f58939495601261112b926110d886601354611530565b601355338952526110eb868289206115ae565b81549060031b906110fe8682841c611530565b821b91600019901b19161790555192839233968460409194939260ff606083019616825260208201520152565b0390a280f35b60649187519162461bcd60e51b8352820152601e60248201527f55544832207472616e7366657220746f206f776e657232206661696c656400006044820152fd5b6111899150833d8511610bff57610bf181836116b8565b3861109b565b88513d89823e3d90fd5b8a5162461bcd60e51b8152808601879052601e60248201527f55544832207472616e7366657220746f206f776e657231206661696c656400006044820152606490fd5b6111f39150873d8911610bff57610bf181836116b8565b3861104e565b8c513d8d823e3d90fd5b634e487b7160e01b845260328252602484fd5b845162461bcd60e51b8152602081840152600a602482015269436f756e74207a65726f60b01b6044820152606490fd5b5050913461049d57602036600319011261049d576112626113e9565b83546001600160a01b0390811633148015611354575b611281906118b1565b81169261128f841515611876565b838552600360205260ff838620541661131b57600254906801000000000000000082101561130857509061099a8260016112cc940160025561143c565b81835260036020528220805460ff191660011790557ff3e4c2c64e71e6ba2eaab9a599bced62f9eb91d2cda610bf41aa8c80ff2cf8268280a280f35b634e487b7160e01b865260419052602485fd5b606490602084519162461bcd60e51b83528201526013602482015272151bdad95b88185b1c9958591e481859191959606a1b6044820152fd5b5060015481163314611278565b8285346102ea5760203660031901126102ea579081906001600160a01b036113876113e9565b1681526012602052206008600782015491015482519182526020820152f35b8390346102ea57816003193601126102ea577f00000000000000000000000000000000000000000000000000000000000000006001600160a01b03168152602090f35b600435906001600160a01b03821682036113ff57565b600080fd5b6004359060ff821682036113ff57565b6000915b6007831061142557505050565b600190825181526020809101920192019190611418565b6002548110156114735760026000527f405787fa12a823e0f2b7631cc41b3ba8828b3321ca811111fa75cd3aa3bb5ace0190600090565b634e487b7160e01b600052603260045260246000fd5b600254156114735760026000527f405787fa12a823e0f2b7631cc41b3ba8828b3321ca811111fa75cd3aa3bb5ace90600090565b90815180825260208080930193019160005b8281106114dd575050505090565b83516001600160a01b0316855293810193928101926001016114cf565b9190820391821161150757565b634e487b7160e01b600052601160045260246000fd5b8181029291811591840414171561150757565b9190820180921161150757565b6001600160a01b03811660009081526012602052604090206007810154919082156115955761158b6301e1338091611586600861157d61159297426114fa565b920154946115be565b61151d565b0490611530565b90565b505050600090565b60ff1660ff81146115075760010190565b6007821015611473570190600090565b6001600160a01b03166000908152601260205260408120909182805b60078060ff83161015611663576115f182866115ae565b9054600391821b1c61160e575b50506116099061159d565b6115da565b61161b83879894986115ae565b9054911b1c9086101561164f57611609916116416116479260058960011b01549061151d565b90611530565b9490386115fe565b634e487b7160e01b83526032600452602483fd5b5050509050565b6040810190811067ffffffffffffffff82111761168657604052565b634e487b7160e01b600052604160045260246000fd5b60e0810190811067ffffffffffffffff82111761168657604052565b90601f8019910116810190811067ffffffffffffffff82111761168657604052565b9060078110156114735760051b0190565b60405190600254808352826020918282019060026000527f405787fa12a823e0f2b7631cc41b3ba8828b3321ca811111fa75cd3aa3bb5ace936000905b8282106117405750505061173e925003836116b8565b565b85546001600160a01b031684526001958601958895509381019390910190611728565b67ffffffffffffffff81116116865760051b60200190565b60001981146115075760010190565b1561179157565b60405162461bcd60e51b815260206004820152600f60248201526e496e76616c6964207061636b61676560881b6044820152606490fd5b908160209103126113ff575180151581036113ff5790565b60018060a01b0381166000526012602052604060002060078101918254156118365760086301e1338061182461182f9361158661181e8854426114fa565b916115be565b049201918254611530565b9055429055565b5050429055565b1561184457565b60405162461bcd60e51b815260206004820152600a6024820152694e6f74206f776e65723160b01b6044820152606490fd5b1561187d57565b60405162461bcd60e51b815260206004820152600c60248201526b5a65726f206164647265737360a01b6044820152606490fd5b156118b857565b60405162461bcd60e51b815260206004820152600c60248201526b2737ba1030b71037bbb732b960a11b6044820152606490fdfea264697066735822122079499055872ab17bdffe48c1891b955e1e5fcc2512c7d6fc90c455126bb4843564736f6c63430008140033","opcodes":"PUSH1 0xA0 CALLVALUE PUSH3 0x252 JUMPI PUSH1 0x1 PUSH1 0x1 PUSH1 0x40 SHL SUB SWAP1 PUSH1 0x1F PUSH3 0x1C27 CODESIZE DUP2 SWAP1 SUB SWAP2 DUP3 ADD PUSH1 0x1F NOT AND DUP4 ADD SWAP3 SWAP2 SWAP1 DUP5 DUP5 GT DUP4 DUP6 LT OR PUSH3 0x257 JUMPI DUP2 SWAP1 PUSH1 0x40 SWAP5 DUP6 MSTORE DUP4 CODECOPY DUP2 ADD SWAP3 PUSH2 0x220 DUP3 DUP6 SUB SLT PUSH3 0x252 JUMPI PUSH3 0x55 DUP3 PUSH3 0x26D JUMP JUMPDEST SWAP1 PUSH1 0x20 SWAP3 PUSH3 0x66 DUP5 DUP3 ADD PUSH3 0x26D JUMP JUMPDEST SWAP4 PUSH3 0x93 PUSH3 0x78 DUP8 DUP5 ADD PUSH3 0x26D JUMP JUMPDEST SWAP8 PUSH2 0x140 PUSH3 0x8B DUP3 PUSH1 0x60 DUP8 ADD PUSH3 0x282 JUMP JUMPDEST SWAP5 ADD PUSH3 0x282 JUMP JUMPDEST PUSH1 0x1 PUSH1 0x1 PUSH1 0xA0 SHL SUB SWAP8 DUP9 AND SWAP6 DUP7 ISZERO PUSH3 0x220 JUMPI PUSH1 0x1 DUP1 PUSH1 0xA0 SHL SUB NOT SWAP1 DUP10 PUSH1 0x0 SWAP8 CALLER DUP5 DUP11 SLOAD AND OR DUP10 SSTORE PUSH1 0x1 SWAP10 DUP5 DUP12 SLOAD AND OR DUP11 SSTORE AND PUSH1 0x80 MSTORE PUSH1 0x2 SLOAD SWAP10 PUSH9 0x10000000000000000 DUP12 LT ISZERO PUSH3 0x20C JUMPI DUP9 DUP12 ADD DUP1 PUSH1 0x2 SSTORE DUP12 LT ISZERO PUSH3 0x1F8 JUMPI DUP9 SWAP11 PUSH1 0x2 DUP10 MSTORE DUP6 DUP10 KECCAK256 ADD SWAP2 AND DUP1 SWAP3 DUP3 SLOAD AND OR SWAP1 SSTORE DUP6 MSTORE PUSH1 0x3 DUP3 MSTORE DUP7 DUP6 KECCAK256 DUP7 PUSH1 0xFF NOT DUP3 SLOAD AND OR SWAP1 SSTORE DUP5 SWAP8 JUMPDEST PUSH3 0x13D JUMPI JUMPDEST DUP7 MLOAD PUSH2 0x1922 SWAP1 DUP2 PUSH3 0x305 DUP3 CODECOPY PUSH1 0x80 MLOAD DUP2 DUP2 DUP2 PUSH2 0x100C ADD MSTORE PUSH2 0x13BA ADD MSTORE RETURN JUMPDEST PUSH1 0xFF DUP9 AND PUSH1 0x7 DUP1 DUP3 LT ISZERO PUSH3 0x1F0 JUMPI PUSH3 0x165 PUSH3 0x15C DUP4 DUP8 PUSH3 0x2DC JUMP JUMPDEST MLOAD SWAP3 DUP5 PUSH3 0x2DC JUMP JUMPDEST MLOAD SWAP1 DUP10 MLOAD SWAP3 DUP11 DUP5 ADD DUP5 DUP2 LT DUP10 DUP3 GT OR PUSH3 0x1DC JUMPI DUP12 MSTORE DUP4 MSTORE DUP5 DUP4 ADD SWAP2 DUP3 MSTORE DUP11 LT ISZERO PUSH3 0x1C8 JUMPI PUSH1 0x5 SWAP1 DUP11 DUP10 SHL SWAP3 MLOAD DUP4 PUSH1 0x4 ADD SSTORE MLOAD SWAP2 ADD SSTORE PUSH1 0xFF DUP1 SWAP9 AND SWAP8 DUP9 EQ PUSH3 0x1B4 JUMPI SWAP7 DUP6 ADD SWAP7 DUP6 PUSH3 0x118 JUMP JUMPDEST PUSH4 0x4E487B71 PUSH1 0xE0 SHL DUP6 MSTORE PUSH1 0x11 PUSH1 0x4 MSTORE PUSH1 0x24 DUP6 REVERT JUMPDEST PUSH4 0x4E487B71 PUSH1 0xE0 SHL DUP8 MSTORE PUSH1 0x32 PUSH1 0x4 MSTORE PUSH1 0x24 DUP8 REVERT JUMPDEST PUSH4 0x4E487B71 PUSH1 0xE0 SHL DUP11 MSTORE PUSH1 0x41 PUSH1 0x4 MSTORE PUSH1 0x24 DUP11 REVERT JUMPDEST POP POP PUSH3 0x11E JUMP JUMPDEST PUSH4 0x4E487B71 PUSH1 0xE0 SHL DUP9 MSTORE PUSH1 0x32 PUSH1 0x4 MSTORE PUSH1 0x24 DUP9 REVERT JUMPDEST PUSH4 0x4E487B71 PUSH1 0xE0 SHL DUP9 MSTORE PUSH1 0x41 PUSH1 0x4 MSTORE PUSH1 0x24 DUP9 REVERT JUMPDEST DUP8 MLOAD PUSH3 0x461BCD PUSH1 0xE5 SHL DUP2 MSTORE PUSH1 0x4 DUP2 ADD DUP5 SWAP1 MSTORE PUSH1 0xB PUSH1 0x24 DUP3 ADD MSTORE PUSH11 0x4F776E657232207A65726F PUSH1 0xA8 SHL PUSH1 0x44 DUP3 ADD MSTORE PUSH1 0x64 SWAP1 REVERT JUMPDEST PUSH1 0x0 DUP1 REVERT JUMPDEST PUSH4 0x4E487B71 PUSH1 0xE0 SHL PUSH1 0x0 MSTORE PUSH1 0x41 PUSH1 0x4 MSTORE PUSH1 0x24 PUSH1 0x0 REVERT JUMPDEST MLOAD SWAP1 PUSH1 0x1 PUSH1 0x1 PUSH1 0xA0 SHL SUB DUP3 AND DUP3 SUB PUSH3 0x252 JUMPI JUMP JUMPDEST SWAP1 DUP1 PUSH1 0x1F DUP4 ADD SLT ISZERO PUSH3 0x252 JUMPI PUSH1 0x40 MLOAD SWAP2 PUSH1 0xE0 DUP4 ADD PUSH1 0x1 PUSH1 0x1 PUSH1 0x40 SHL SUB DUP2 GT DUP5 DUP3 LT OR PUSH3 0x257 JUMPI PUSH1 0x40 MSTORE DUP3 SWAP1 PUSH1 0xE0 DUP2 ADD SWAP3 DUP4 GT PUSH3 0x252 JUMPI SWAP1 JUMPDEST DUP3 DUP3 LT PUSH3 0x2CB JUMPI POP POP POP SWAP1 JUMP JUMPDEST DUP2 MLOAD DUP2 MSTORE PUSH1 0x20 SWAP2 DUP3 ADD SWAP2 ADD PUSH3 0x2BD JUMP JUMPDEST SWAP1 PUSH1 0x7 DUP2 LT ISZERO PUSH3 0x2EE JUMPI PUSH1 0x5 SHL ADD SWAP1 JUMP JUMPDEST PUSH4 0x4E487B71 PUSH1 0xE0 SHL PUSH1 0x0 MSTORE PUSH1 0x32 PUSH1 0x4 MSTORE PUSH1 0x24 PUSH1 0x0 REVERT INVALID PUSH1 0x80 PUSH1 0x40 SWAP1 DUP1 DUP3 MSTORE PUSH1 0x4 SWAP1 DUP2 CALLDATASIZE LT ISZERO PUSH2 0x17 JUMPI PUSH1 0x0 DUP1 REVERT JUMPDEST PUSH1 0x0 SWAP1 PUSH1 0xE0 DUP3 CALLDATALOAD DUP2 SHR SWAP2 DUP3 PUSH4 0x4E4FC5E EQ PUSH2 0x13A6 JUMPI POP DUP2 PUSH4 0x1959A002 EQ PUSH2 0x1361 JUMPI DUP2 PUSH4 0x1C03E6CC EQ PUSH2 0x1246 JUMPI DUP2 PUSH4 0x254B516E EQ PUSH2 0xF72 JUMPI DUP2 PUSH4 0x293C4AB5 EQ PUSH2 0xEF8 JUMPI DUP2 PUSH4 0x2BFD5146 EQ PUSH2 0xD8D JUMPI DUP2 PUSH4 0x31D7A262 EQ PUSH2 0xD67 JUMPI DUP2 PUSH4 0x33F3D628 EQ PUSH2 0xCB6 JUMPI DUP2 PUSH4 0x372500AB EQ PUSH2 0xAA4 JUMPI DUP2 PUSH4 0x3D509C97 EQ PUSH2 0x881 JUMPI DUP2 PUSH4 0x487CB94D EQ PUSH2 0x865 JUMPI DUP2 PUSH4 0x52709725 EQ PUSH2 0x83C JUMPI DUP2 PUSH4 0x5825884F EQ PUSH2 0x7C4 JUMPI DUP2 PUSH4 0x5C05A89F EQ PUSH2 0x717 JUMPI POP DUP1 PUSH4 0x73688914 EQ PUSH2 0x6EF JUMPI DUP1 PUSH4 0x7BB7BED1 EQ PUSH2 0x6C3 JUMPI DUP1 PUSH4 0x7D59551E EQ PUSH2 0x5E7 JUMPI DUP1 PUSH4 0x80168A75 EQ PUSH2 0x532 JUMPI DUP1 PUSH4 0x83914540 EQ PUSH2 0x513 JUMPI DUP1 PUSH4 0x913701B6 EQ PUSH2 0x4E6 JUMPI DUP1 PUSH4 0x91AC094C EQ PUSH2 0x4B3 JUMPI DUP1 PUSH4 0x96365D44 EQ PUSH2 0x40E JUMPI DUP1 PUSH4 0x9B5CC9F4 EQ PUSH2 0x399 JUMPI DUP1 PUSH4 0xB5FD73F8 EQ PUSH2 0x35B JUMPI DUP1 PUSH4 0xC216212A EQ PUSH2 0x323 JUMPI DUP1 PUSH4 0xC4F59F9B EQ PUSH2 0x2EE JUMPI DUP1 PUSH4 0xD38D8ECF EQ PUSH2 0x2CB JUMPI PUSH4 0xFFD2A7D3 EQ PUSH2 0x15B JUMPI PUSH1 0x0 DUP1 REVERT JUMPDEST CALLVALUE PUSH2 0x2C8 JUMPI DUP1 PUSH1 0x3 NOT CALLDATASIZE ADD SLT PUSH2 0x2C8 JUMPI SWAP2 SWAP1 PUSH2 0x175 PUSH2 0x16EB JUMP JUMPDEST SWAP3 PUSH1 0x2 SLOAD PUSH2 0x182 DUP2 PUSH2 0x1763 JUMP JUMPDEST SWAP1 PUSH2 0x18F DUP6 MLOAD SWAP3 DUP4 PUSH2 0x16B8 JUMP JUMPDEST DUP1 DUP3 MSTORE PUSH2 0x19B DUP2 PUSH2 0x1763 JUMP JUMPDEST SWAP4 PUSH1 0x20 SWAP2 DUP3 DUP5 ADD SWAP6 PUSH1 0x1F NOT ADD CALLDATASIZE DUP8 CALLDATACOPY DUP5 JUMPDEST DUP2 DUP2 LT PUSH2 0x201 JUMPI POP POP POP DUP1 PUSH2 0x1CA DUP7 MLOAD SWAP8 DUP8 DUP10 SWAP9 DUP10 MSTORE DUP9 ADD SWAP1 PUSH2 0x14BD JUMP JUMPDEST SWAP3 DUP7 DUP5 SUB DUP3 DUP9 ADD MSTORE MLOAD SWAP3 DUP4 DUP2 MSTORE ADD SWAP4 SWAP3 JUMPDEST DUP3 DUP2 LT PUSH2 0x1EA JUMPI POP POP POP POP SUB SWAP1 RETURN JUMPDEST DUP4 MLOAD DUP6 MSTORE DUP7 SWAP6 POP SWAP4 DUP2 ADD SWAP4 SWAP3 DUP2 ADD SWAP3 PUSH1 0x1 ADD PUSH2 0x1DB JUMP JUMPDEST PUSH2 0x211 DUP2 SWAP10 SWAP5 SWAP7 SWAP6 SWAP8 SWAP9 SWAP10 PUSH2 0x143C JUMP JUMPDEST SWAP1 SLOAD DUP11 MLOAD PUSH4 0x70A08231 PUSH1 0xE0 SHL DUP2 MSTORE ADDRESS DUP7 DUP3 ADD MSTORE SWAP2 PUSH1 0x24 SWAP2 DUP10 SWAP2 DUP5 SWAP2 DUP5 SWAP2 DUP4 SWAP2 PUSH1 0x3 SWAP2 SWAP1 SWAP2 SHL SHR PUSH1 0x1 PUSH1 0x1 PUSH1 0xA0 SHL SUB AND GAS STATICCALL SWAP2 DUP3 ISZERO PUSH2 0x2BE JUMPI DUP8 SWAP3 PUSH2 0x28B JUMPI JUMPDEST POP DUP9 MLOAD DUP4 LT ISZERO PUSH2 0x27A JUMPI POP SWAP1 PUSH2 0x26E SWAP2 DUP8 DUP3 PUSH1 0x5 SHL DUP11 ADD ADD MSTORE PUSH2 0x177B JUMP JUMPDEST SWAP8 SWAP7 SWAP6 SWAP4 SWAP5 SWAP3 SWAP8 PUSH2 0x1AC JUMP JUMPDEST PUSH4 0x4E487B71 PUSH1 0xE0 SHL DUP8 MSTORE PUSH1 0x32 DUP6 MSTORE DUP7 REVERT JUMPDEST SWAP1 SWAP2 POP DUP8 DUP2 DUP2 RETURNDATASIZE DUP4 GT PUSH2 0x2B7 JUMPI JUMPDEST PUSH2 0x2A3 DUP2 DUP4 PUSH2 0x16B8 JUMP JUMPDEST DUP2 ADD SUB SLT PUSH2 0x2B3 JUMPI MLOAD SWAP1 CODESIZE PUSH2 0x250 JUMP JUMPDEST DUP7 DUP1 REVERT JUMPDEST POP RETURNDATASIZE PUSH2 0x299 JUMP JUMPDEST DUP12 MLOAD RETURNDATASIZE DUP10 DUP3 RETURNDATACOPY RETURNDATASIZE SWAP1 REVERT JUMPDEST DUP1 REVERT JUMPDEST POP DUP3 CALLVALUE PUSH2 0x2EA JUMPI DUP2 PUSH1 0x3 NOT CALLDATASIZE ADD SLT PUSH2 0x2EA JUMPI PUSH1 0x20 SWAP1 PUSH1 0x13 SLOAD SWAP1 MLOAD SWAP1 DUP2 MSTORE RETURN JUMPDEST POP DUP1 REVERT JUMPDEST POP DUP3 CALLVALUE PUSH2 0x2EA JUMPI DUP2 PUSH1 0x3 NOT CALLDATASIZE ADD SLT PUSH2 0x2EA JUMPI PUSH2 0x31F SWAP1 PUSH2 0x30C PUSH2 0x16EB JUMP JUMPDEST SWAP1 MLOAD SWAP2 DUP3 SWAP2 PUSH1 0x20 DUP4 MSTORE PUSH1 0x20 DUP4 ADD SWAP1 PUSH2 0x14BD JUMP JUMPDEST SUB SWAP1 RETURN JUMPDEST POP CALLVALUE PUSH2 0x2C8 JUMPI PUSH1 0x20 CALLDATASIZE PUSH1 0x3 NOT ADD SLT PUSH2 0x2C8 JUMPI DUP2 CALLDATALOAD SWAP1 PUSH1 0x7 DUP3 LT ISZERO PUSH2 0x2C8 JUMPI POP PUSH1 0x5 SWAP1 PUSH1 0x1 SHL DUP1 SWAP3 ADD SLOAD SWAP2 ADD SLOAD DUP3 MLOAD SWAP2 DUP3 MSTORE PUSH1 0x20 DUP3 ADD MSTORE RETURN JUMPDEST POP DUP3 CALLVALUE PUSH2 0x2EA JUMPI PUSH1 0x20 CALLDATASIZE PUSH1 0x3 NOT ADD SLT PUSH2 0x2EA JUMPI PUSH1 0x20 SWAP2 PUSH1 0xFF SWAP1 DUP3 SWAP1 PUSH1 0x1 PUSH1 0x1 PUSH1 0xA0 SHL SUB PUSH2 0x386 PUSH2 0x13E9 JUMP JUMPDEST AND DUP2 MSTORE PUSH1 0x3 DUP6 MSTORE KECCAK256 SLOAD AND SWAP1 MLOAD SWAP1 ISZERO ISZERO DUP2 MSTORE RETURN JUMPDEST POP CALLVALUE PUSH2 0x2C8 JUMPI PUSH1 0x20 CALLDATASIZE PUSH1 0x3 NOT ADD SLT PUSH2 0x2C8 JUMPI PUSH2 0x3B3 PUSH2 0x13E9 JUMP JUMPDEST DUP2 SLOAD SWAP1 PUSH1 0x1 PUSH1 0x1 PUSH1 0xA0 SHL SUB SWAP1 PUSH2 0x3CC CALLER DUP4 DUP6 AND EQ PUSH2 0x183D JUMP JUMPDEST AND DUP1 SWAP2 PUSH2 0x3DA DUP3 ISZERO ISZERO PUSH2 0x1876 JUMP JUMPDEST PUSH1 0x1 PUSH1 0x1 PUSH1 0xA0 SHL SUB NOT AND OR DUP3 SSTORE PUSH32 0xB532DA792A8AEC144E3A0854B26380749893326DB86863F7AA666AD460DF2C9 DUP3 DUP1 LOG2 DUP1 RETURN JUMPDEST POP SWAP2 CALLVALUE PUSH2 0x49D JUMPI DUP3 PUSH1 0x3 NOT CALLDATASIZE ADD SLT PUSH2 0x49D JUMPI PUSH1 0x20 PUSH1 0x24 SWAP3 PUSH2 0x42D PUSH2 0x1489 JUMP JUMPDEST SWAP5 SWAP1 SLOAD SWAP2 DUP5 MLOAD SWAP6 DUP7 SWAP4 DUP5 SWAP3 PUSH4 0x70A08231 PUSH1 0xE0 SHL DUP5 MSTORE ADDRESS SWAP1 DUP5 ADD MSTORE PUSH1 0x1 DUP1 PUSH1 0xA0 SHL SUB SWAP2 PUSH1 0x3 SHL SHR AND GAS STATICCALL SWAP2 DUP3 ISZERO PUSH2 0x4A9 JUMPI DUP4 SWAP3 PUSH2 0x46E JUMPI JUMPDEST PUSH1 0x20 DUP4 DUP4 MLOAD SWAP1 DUP2 MSTORE RETURN JUMPDEST SWAP1 SWAP2 POP PUSH1 0x20 DUP2 RETURNDATASIZE DUP3 GT PUSH2 0x4A1 JUMPI JUMPDEST DUP2 PUSH2 0x489 PUSH1 0x20 SWAP4 DUP4 PUSH2 0x16B8 JUMP JUMPDEST DUP2 ADD SUB SLT PUSH2 0x49D JUMPI PUSH1 0x20 SWAP3 POP MLOAD SWAP1 CODESIZE PUSH2 0x464 JUMP JUMPDEST DUP3 DUP1 REVERT JUMPDEST RETURNDATASIZE SWAP2 POP PUSH2 0x47C JUMP JUMPDEST DUP2 MLOAD RETURNDATASIZE DUP6 DUP3 RETURNDATACOPY RETURNDATASIZE SWAP1 REVERT JUMPDEST POP DUP3 CALLVALUE PUSH2 0x2EA JUMPI DUP2 PUSH1 0x3 NOT CALLDATASIZE ADD SLT PUSH2 0x2EA JUMPI PUSH1 0x20 SWAP1 PUSH2 0x4D0 PUSH2 0x1489 JUMP JUMPDEST SWAP1 SLOAD SWAP2 MLOAD SWAP2 PUSH1 0x1 DUP1 PUSH1 0xA0 SHL SUB SWAP2 PUSH1 0x3 SHL SHR AND DUP2 MSTORE RETURN JUMPDEST POP DUP3 CALLVALUE PUSH2 0x2EA JUMPI PUSH1 0x20 CALLDATASIZE PUSH1 0x3 NOT ADD SLT PUSH2 0x2EA JUMPI PUSH1 0x20 SWAP1 PUSH2 0x50C PUSH2 0x507 PUSH2 0x13E9 JUMP JUMPDEST PUSH2 0x15BE JUMP JUMPDEST SWAP1 MLOAD SWAP1 DUP2 MSTORE RETURN JUMPDEST POP DUP3 CALLVALUE PUSH2 0x2EA JUMPI DUP2 PUSH1 0x3 NOT CALLDATASIZE ADD SLT PUSH2 0x2EA JUMPI PUSH1 0x20 SWAP1 MLOAD PUSH4 0x1E13380 DUP2 MSTORE RETURN JUMPDEST POP DUP3 SWAP1 CALLVALUE PUSH2 0x2C8 JUMPI PUSH2 0x1C0 CALLDATASIZE PUSH1 0x3 NOT ADD SLT PUSH2 0x2C8 JUMPI PUSH1 0xE4 SWAP1 CALLDATASIZE DUP3 GT PUSH2 0x2C8 JUMPI CALLDATASIZE PUSH2 0x1C4 GT PUSH2 0x2C8 JUMPI PUSH2 0x56E PUSH1 0x1 DUP1 PUSH1 0xA0 SHL SUB DUP3 SLOAD AND CALLER EQ PUSH2 0x183D JUMP JUMPDEST DUP1 JUMPDEST PUSH1 0x7 DUP1 PUSH1 0xFF DUP4 AND LT ISZERO PUSH2 0x5E3 JUMPI PUSH2 0x1FE0 DUP3 PUSH1 0x5 SHL AND SWAP1 DUP6 MLOAD SWAP2 PUSH2 0x592 DUP4 PUSH2 0x166A JUMP JUMPDEST DUP1 DUP9 ADD CALLDATALOAD DUP4 MSTORE DUP6 ADD CALLDATALOAD PUSH1 0x20 DUP4 ADD MSTORE DUP3 LT ISZERO PUSH2 0x5D0 JUMPI SWAP1 PUSH2 0x5C6 PUSH2 0x5CB SWAP3 DUP3 PUSH1 0x1 SHL DUP9 ADD SWAP1 PUSH1 0x20 PUSH1 0x1 SWAP2 DUP1 MLOAD DUP5 SSTORE ADD MLOAD SWAP2 ADD SSTORE JUMP JUMPDEST PUSH2 0x159D JUMP JUMPDEST PUSH2 0x570 JUMP JUMPDEST PUSH4 0x4E487B71 PUSH1 0xE0 SHL DUP4 MSTORE PUSH1 0x32 DUP7 MSTORE PUSH1 0x24 DUP4 REVERT JUMPDEST DUP3 DUP1 RETURN JUMPDEST POP DUP3 CALLVALUE PUSH2 0x2EA JUMPI PUSH1 0x60 CALLDATASIZE PUSH1 0x3 NOT ADD SLT PUSH2 0x2EA JUMPI PUSH2 0x602 PUSH2 0x1404 JUMP JUMPDEST PUSH1 0x24 CALLDATALOAD SWAP2 PUSH1 0x44 CALLDATALOAD SWAP1 PUSH2 0x61E PUSH1 0x1 DUP1 PUSH1 0xA0 SHL SUB DUP7 SLOAD AND CALLER EQ PUSH2 0x183D JUMP JUMPDEST PUSH2 0x62D PUSH1 0x7 PUSH1 0xFF DUP6 AND LT PUSH2 0x178A JUMP JUMPDEST DUP1 MLOAD PUSH2 0x638 DUP2 PUSH2 0x166A JUMP JUMPDEST DUP5 DUP2 MSTORE DUP3 PUSH1 0x20 DUP3 ADD MSTORE PUSH1 0x7 DUP5 LT ISZERO PUSH2 0x6B0 JUMPI SWAP1 PUSH2 0x68C PUSH2 0x6AA SWAP4 SWAP3 PUSH32 0xBA7CC8548FF33D367F1EB6AC96624923F2E84DFDD24691183F8792EFEB8C4464 SWAP8 SWAP9 DUP7 PUSH1 0x1 SHL ADD SWAP1 PUSH1 0x20 PUSH1 0x1 SWAP2 DUP1 MLOAD DUP5 SSTORE ADD MLOAD SWAP2 ADD SSTORE JUMP JUMPDEST MLOAD SWAP4 DUP5 SWAP4 DUP5 PUSH1 0x40 SWAP2 SWAP5 SWAP4 SWAP3 PUSH1 0xFF PUSH1 0x60 DUP4 ADD SWAP7 AND DUP3 MSTORE PUSH1 0x20 DUP3 ADD MSTORE ADD MSTORE JUMP JUMPDEST SUB SWAP1 LOG1 DUP1 RETURN JUMPDEST PUSH4 0x4E487B71 PUSH1 0xE0 SHL DUP7 MSTORE PUSH1 0x32 DUP8 MSTORE PUSH1 0x24 DUP7 REVERT JUMPDEST POP SWAP2 SWAP1 CALLVALUE PUSH2 0x49D JUMPI PUSH1 0x20 CALLDATASIZE PUSH1 0x3 NOT ADD SLT PUSH2 0x49D JUMPI CALLDATALOAD SWAP2 PUSH1 0x2 SLOAD DUP4 LT ISZERO PUSH2 0x2C8 JUMPI POP PUSH2 0x4D0 PUSH1 0x20 SWAP3 PUSH2 0x143C JUMP JUMPDEST POP DUP3 CALLVALUE PUSH2 0x2EA JUMPI DUP2 PUSH1 0x3 NOT CALLDATASIZE ADD SLT PUSH2 0x2EA JUMPI SWAP1 SLOAD SWAP1 MLOAD PUSH1 0x1 PUSH1 0x1 PUSH1 0xA0 SHL SUB SWAP1 SWAP2 AND DUP2 MSTORE PUSH1 0x20 SWAP1 RETURN JUMPDEST DUP5 SWAP3 SWAP2 POP CALLVALUE PUSH2 0x2EA JUMPI DUP2 PUSH1 0x3 NOT CALLDATASIZE ADD SLT PUSH2 0x2EA JUMPI DUP3 MLOAD PUSH2 0x736 DUP2 PUSH2 0x169C JUMP JUMPDEST DUP2 CALLDATASIZE DUP3 CALLDATACOPY DUP4 MLOAD SWAP3 PUSH2 0x746 DUP5 PUSH2 0x169C JUMP JUMPDEST DUP3 CALLDATASIZE DUP6 CALLDATACOPY DUP1 JUMPDEST PUSH1 0xFF DUP2 AND PUSH1 0x7 DUP1 DUP3 LT ISZERO PUSH2 0x7A5 JUMPI DUP3 LT ISZERO PUSH2 0x792 JUMPI SWAP1 PUSH2 0x78D SWAP2 PUSH2 0x787 PUSH1 0x5 DUP4 PUSH1 0x1 SHL DUP1 DUP13 ADD SLOAD PUSH2 0x77D DUP6 DUP11 PUSH2 0x16DA JUMP JUMPDEST MSTORE ADD SLOAD SWAP2 DUP9 PUSH2 0x16DA JUMP JUMPDEST MSTORE PUSH2 0x159D JUMP JUMPDEST PUSH2 0x74C JUMP JUMPDEST PUSH4 0x4E487B71 PUSH1 0xE0 SHL DUP4 MSTORE PUSH1 0x32 DUP9 MSTORE PUSH1 0x24 DUP4 REVERT JUMPDEST PUSH2 0x1C0 DUP6 PUSH2 0x7C2 DUP10 DUP10 PUSH2 0x7BA DUP14 MLOAD DUP1 SWAP6 PUSH2 0x1414 JUMP JUMPDEST DUP4 ADD SWAP1 PUSH2 0x1414 JUMP JUMPDEST RETURN JUMPDEST DUP3 CALLVALUE PUSH2 0x2C8 JUMPI PUSH1 0x20 CALLDATASIZE PUSH1 0x3 NOT ADD SLT PUSH2 0x2C8 JUMPI PUSH2 0x7DE PUSH2 0x13E9 JUMP JUMPDEST DUP2 SLOAD PUSH1 0x1 PUSH1 0x1 PUSH1 0xA0 SHL SUB SWAP2 SWAP1 PUSH2 0x7F7 SWAP1 DUP4 AND CALLER EQ PUSH2 0x183D JUMP JUMPDEST AND PUSH2 0x803 DUP2 ISZERO ISZERO PUSH2 0x1876 JUMP JUMPDEST PUSH1 0x1 DUP1 SLOAD PUSH1 0x1 PUSH1 0x1 PUSH1 0xA0 SHL SUB NOT AND DUP3 OR SWAP1 SSTORE PUSH32 0x7E94BDC8F5D207846A5BC8D54A4A9E25703FE2B5CF10C1E62398D675D74AF0B0 DUP3 DUP1 LOG2 DUP1 RETURN JUMPDEST DUP3 DUP6 CALLVALUE PUSH2 0x2EA JUMPI DUP2 PUSH1 0x3 NOT CALLDATASIZE ADD SLT PUSH2 0x2EA JUMPI PUSH1 0x1 SLOAD SWAP1 MLOAD PUSH1 0x1 PUSH1 0x1 PUSH1 0xA0 SHL SUB SWAP1 SWAP2 AND DUP2 MSTORE PUSH1 0x20 SWAP1 RETURN JUMPDEST DUP3 DUP6 CALLVALUE PUSH2 0x2EA JUMPI DUP2 PUSH1 0x3 NOT CALLDATASIZE ADD SLT PUSH2 0x2EA JUMPI PUSH1 0x20 SWAP1 MLOAD PUSH1 0x7 DUP2 MSTORE RETURN JUMPDEST DUP3 DUP6 DUP6 CALLVALUE PUSH2 0x49D JUMPI PUSH1 0x20 CALLDATASIZE PUSH1 0x3 NOT ADD SLT PUSH2 0x49D JUMPI PUSH2 0x89D PUSH2 0x13E9 JUMP JUMPDEST DUP4 SLOAD PUSH1 0x1 PUSH1 0x1 PUSH1 0xA0 SHL SUB SWAP4 SWAP2 DUP5 SWAP2 DUP3 AND CALLER EQ DUP1 ISZERO PUSH2 0xA97 JUMPI JUMPDEST PUSH2 0x8BF SWAP1 PUSH2 0x18B1 JUMP JUMPDEST AND SWAP2 DUP3 DUP6 MSTORE PUSH1 0x3 SWAP2 DUP3 PUSH1 0x20 MSTORE PUSH1 0xFF DUP2 DUP8 KECCAK256 SLOAD AND ISZERO PUSH2 0xA5F JUMPI DUP4 DUP6 PUSH2 0x8E1 PUSH2 0x1489 JUMP JUMPDEST SWAP1 SLOAD SWAP1 DUP7 SHL SHR AND EQ PUSH2 0xA11 JUMPI DUP4 DUP7 MSTORE DUP3 PUSH1 0x20 MSTORE DUP6 KECCAK256 PUSH1 0xFF NOT DUP2 SLOAD AND SWAP1 SSTORE PUSH1 0x1 SWAP4 DUP5 DUP1 JUMPDEST PUSH2 0x932 JUMPI JUMPDEST DUP7 DUP6 PUSH32 0x66257BCEF574219C04F7C05F7A1C78D599DA10491294C92A5805C48B4CDF5009 DUP3 DUP1 LOG2 DUP1 RETURN JUMPDEST PUSH1 0x2 DUP1 SLOAD DUP1 DUP4 LT ISZERO PUSH2 0xA0A JUMPI DUP7 DUP5 PUSH2 0x949 DUP6 PUSH2 0x143C JUMP JUMPDEST SWAP1 SLOAD SWAP1 DUP10 SHL SHR AND EQ PUSH2 0x966 JUMPI POP POP PUSH2 0x960 SWAP1 PUSH2 0x177B JUMP JUMPDEST DUP6 PUSH2 0x904 JUMP JUMPDEST SWAP3 SWAP4 SWAP2 SWAP1 SWAP5 SWAP6 SWAP7 POP PUSH1 0x0 NOT SWAP3 DUP4 DUP2 ADD SWAP1 DUP2 GT PUSH2 0x9F7 JUMPI SWAP1 PUSH2 0x99A DUP6 PUSH2 0x98D PUSH2 0x9B9 SWAP5 PUSH2 0x143C JUMP JUMPDEST SWAP1 SLOAD SWAP1 DUP11 SHL SHR AND SWAP2 PUSH2 0x143C JUMP JUMPDEST SWAP1 SWAP2 SWAP1 DUP3 SLOAD SWAP1 PUSH1 0x3 SHL SWAP2 PUSH1 0x1 DUP1 PUSH1 0xA0 SHL SUB DUP1 SWAP2 AND DUP4 SHL SWAP3 SHL NOT AND OR SWAP1 SSTORE JUMP JUMPDEST DUP4 SLOAD SWAP1 DUP2 ISZERO PUSH2 0x9E4 JUMPI POP ADD SWAP3 PUSH2 0x9CE DUP5 PUSH2 0x143C JUMP JUMPDEST DUP2 SWAP4 SWAP2 SLOAD SWAP3 SHL SHL NOT AND SWAP1 SSTORE SSTORE DUP1 DUP4 DUP1 DUP1 DUP1 PUSH2 0x909 JUMP JUMPDEST PUSH4 0x4E487B71 PUSH1 0xE0 SHL DUP9 MSTORE PUSH1 0x31 SWAP1 MSTORE PUSH1 0x24 DUP8 REVERT JUMPDEST PUSH4 0x4E487B71 PUSH1 0xE0 SHL DUP10 MSTORE PUSH1 0x11 DUP4 MSTORE PUSH1 0x24 DUP10 REVERT JUMPDEST POP POP PUSH2 0x909 JUMP JUMPDEST SWAP1 PUSH1 0x20 PUSH1 0x84 SWAP3 MLOAD SWAP2 PUSH3 0x461BCD PUSH1 0xE5 SHL DUP4 MSTORE DUP3 ADD MSTORE PUSH1 0x22 PUSH1 0x24 DUP3 ADD MSTORE PUSH32 0x43616E6E6F742072656D6F7665207072696D6172792072657761726420746F6B PUSH1 0x44 DUP3 ADD MSTORE PUSH2 0x32B7 PUSH1 0xF1 SHL PUSH1 0x64 DUP3 ADD MSTORE REVERT JUMPDEST SWAP1 PUSH1 0x20 PUSH1 0x64 SWAP3 MLOAD SWAP2 PUSH3 0x461BCD PUSH1 0xE5 SHL DUP4 MSTORE DUP3 ADD MSTORE PUSH1 0x12 PUSH1 0x24 DUP3 ADD MSTORE PUSH18 0x2737BA1030903932BBB0B932103A37B5B2B7 PUSH1 0x71 SHL PUSH1 0x44 DUP3 ADD MSTORE REVERT JUMPDEST POP PUSH1 0x1 SLOAD DUP3 AND CALLER EQ PUSH2 0x8B6 JUMP JUMPDEST POP POP SWAP2 CALLVALUE PUSH2 0x49D JUMPI DUP3 PUSH1 0x3 NOT CALLDATASIZE ADD SLT PUSH2 0x49D JUMPI PUSH2 0xAC0 CALLER PUSH2 0x17E0 JUMP JUMPDEST CALLER DUP4 MSTORE PUSH1 0x20 PUSH1 0x12 DUP2 MSTORE PUSH1 0x8 DUP3 DUP6 KECCAK256 ADD SLOAD SWAP2 DUP3 ISZERO PUSH2 0xC82 JUMPI PUSH2 0xADF PUSH2 0x1489 JUMP JUMPDEST SWAP1 SLOAD DUP3 MLOAD PUSH4 0x70A08231 PUSH1 0xE0 SHL DUP2 MSTORE ADDRESS DUP2 DUP9 ADD MSTORE PUSH1 0x3 SWAP3 SWAP1 SWAP3 SHL SHR PUSH1 0x1 PUSH1 0x1 PUSH1 0xA0 SHL SUB AND SWAP5 SWAP1 DUP4 DUP2 PUSH1 0x24 DUP2 DUP10 GAS STATICCALL SWAP1 DUP2 ISZERO PUSH2 0xC06 JUMPI SWAP1 DUP6 SWAP2 DUP9 SWAP2 PUSH2 0xC51 JUMPI JUMPDEST POP LT PUSH2 0xC10 JUMPI CALLER DUP1 DUP8 MSTORE PUSH1 0x12 DUP5 MSTORE DUP3 DUP8 KECCAK256 PUSH1 0x8 ADD DUP8 SWAP1 SSTORE DUP3 MLOAD PUSH4 0xA9059CBB PUSH1 0xE0 SHL DUP2 MSTORE DUP3 DUP2 ADD SWAP2 DUP3 MSTORE PUSH1 0x20 DUP3 ADD DUP7 SWAP1 MSTORE SWAP1 DUP5 SWAP1 DUP3 SWAP1 DUP2 SWAP1 PUSH1 0x40 ADD SUB DUP2 DUP11 DUP11 GAS CALL SWAP1 DUP2 ISZERO PUSH2 0xC06 JUMPI DUP8 SWAP2 PUSH2 0xBD9 JUMPI JUMPDEST POP ISZERO PUSH2 0xB9F JUMPI POP SWAP1 PUSH32 0x322E87F0AB668EC0046E03E8C0BB8A8FE21EDC59FACFBDB533D069385D998799 SWAP2 MLOAD SWAP3 DUP4 MSTORE CALLER SWAP3 LOG3 DUP1 RETURN JUMPDEST DUP3 PUSH1 0x64 SWAP3 MLOAD SWAP2 PUSH3 0x461BCD PUSH1 0xE5 SHL DUP4 MSTORE DUP3 ADD MSTORE PUSH1 0x16 PUSH1 0x24 DUP3 ADD MSTORE PUSH22 0x14995DD85C99081D1C985B9CD9995C8819985A5B1959 PUSH1 0x52 SHL PUSH1 0x44 DUP3 ADD MSTORE REVERT JUMPDEST PUSH2 0xBF9 SWAP2 POP DUP5 RETURNDATASIZE DUP7 GT PUSH2 0xBFF JUMPI JUMPDEST PUSH2 0xBF1 DUP2 DUP4 PUSH2 0x16B8 JUMP JUMPDEST DUP2 ADD SWAP1 PUSH2 0x17C8 JUMP JUMPDEST CODESIZE PUSH2 0xB6B JUMP JUMPDEST POP RETURNDATASIZE PUSH2 0xBE7 JUMP JUMPDEST DUP4 MLOAD RETURNDATASIZE DUP10 DUP3 RETURNDATACOPY RETURNDATASIZE SWAP1 REVERT JUMPDEST DUP3 PUSH1 0x64 SWAP3 MLOAD SWAP2 PUSH3 0x461BCD PUSH1 0xE5 SHL DUP4 MSTORE DUP3 ADD MSTORE PUSH1 0x1F PUSH1 0x24 DUP3 ADD MSTORE PUSH32 0x52657761726420706F6F6C206C6F77202D20636F6E74616374206F776E657200 PUSH1 0x44 DUP3 ADD MSTORE REVERT JUMPDEST DUP1 SWAP3 POP DUP6 DUP1 SWAP3 POP RETURNDATASIZE DUP4 GT PUSH2 0xC7B JUMPI JUMPDEST PUSH2 0xC6A DUP2 DUP4 PUSH2 0x16B8 JUMP JUMPDEST DUP2 ADD SUB SLT PUSH2 0x2B3 JUMPI DUP5 SWAP1 MLOAD CODESIZE PUSH2 0xB1D JUMP JUMPDEST POP RETURNDATASIZE PUSH2 0xC60 JUMP JUMPDEST MLOAD PUSH3 0x461BCD PUSH1 0xE5 SHL DUP2 MSTORE SWAP3 DUP4 ADD MSTORE POP PUSH1 0x10 PUSH1 0x24 DUP3 ADD MSTORE PUSH16 0x4E6F7468696E6720746F20636C61696D PUSH1 0x80 SHL PUSH1 0x44 DUP3 ADD MSTORE PUSH1 0x64 SWAP1 REVERT JUMPDEST POP POP SWAP2 CALLVALUE PUSH2 0x49D JUMPI DUP1 PUSH1 0x3 NOT CALLDATASIZE ADD SLT PUSH2 0x49D JUMPI PUSH1 0x20 PUSH2 0xD21 PUSH2 0xCD6 PUSH2 0x13E9 JUMP JUMPDEST DUP6 SLOAD PUSH1 0x1 PUSH1 0x1 PUSH1 0xA0 SHL SUB SWAP6 SWAP1 DUP7 AND CALLER EQ DUP1 ISZERO PUSH2 0xD5A JUMPI JUMPDEST PUSH2 0xCF6 SWAP1 PUSH2 0x18B1 JUMP JUMPDEST DUP5 MLOAD PUSH4 0xA9059CBB PUSH1 0xE0 SHL DUP2 MSTORE CALLER SWAP2 DUP2 ADD SWAP2 DUP3 MSTORE PUSH1 0x24 CALLDATALOAD PUSH1 0x20 DUP4 ADD MSTORE SWAP6 DUP7 SWAP4 DUP5 SWAP3 DUP10 SWAP3 SWAP2 DUP5 SWAP2 PUSH1 0x40 ADD SWAP1 JUMP JUMPDEST SUB SWAP4 AND GAS CALL SWAP1 DUP2 ISZERO PUSH2 0xD51 JUMPI POP PUSH2 0xD36 JUMPI POP DUP1 RETURN JUMPDEST PUSH2 0xD4D SWAP1 PUSH1 0x20 RETURNDATASIZE DUP2 GT PUSH2 0xBFF JUMPI PUSH2 0xBF1 DUP2 DUP4 PUSH2 0x16B8 JUMP JUMPDEST POP DUP1 RETURN JUMPDEST MLOAD RETURNDATASIZE DUP5 DUP3 RETURNDATACOPY RETURNDATASIZE SWAP1 REVERT JUMPDEST POP PUSH1 0x1 SLOAD DUP7 AND CALLER EQ PUSH2 0xCED JUMP JUMPDEST DUP3 DUP6 CALLVALUE PUSH2 0x2EA JUMPI PUSH1 0x20 CALLDATASIZE PUSH1 0x3 NOT ADD SLT PUSH2 0x2EA JUMPI PUSH1 0x20 SWAP1 PUSH2 0x50C PUSH2 0xD88 PUSH2 0x13E9 JUMP JUMPDEST PUSH2 0x153D JUMP JUMPDEST POP POP SWAP2 CALLVALUE PUSH2 0x49D JUMPI DUP1 PUSH1 0x3 NOT CALLDATASIZE ADD SLT PUSH2 0x49D JUMPI PUSH2 0xDA8 PUSH2 0x13E9 JUMP JUMPDEST DUP4 SLOAD PUSH1 0x24 CALLDATALOAD SWAP4 SWAP2 PUSH1 0x1 PUSH1 0x1 PUSH1 0xA0 SHL SUB SWAP2 DUP3 AND CALLER EQ DUP1 ISZERO PUSH2 0xEEB JUMPI JUMPDEST PUSH2 0xDCC SWAP1 PUSH2 0x18B1 JUMP JUMPDEST AND SWAP2 DUP3 DUP6 MSTORE PUSH1 0x20 SWAP2 PUSH1 0x3 DUP4 MSTORE PUSH1 0xFF DUP3 DUP8 KECCAK256 SLOAD AND ISZERO PUSH2 0xEAA JUMPI DUP2 MLOAD PUSH4 0x23B872DD PUSH1 0xE0 SHL DUP2 MSTORE CALLER DUP3 DUP3 ADD SWAP1 DUP2 MSTORE ADDRESS PUSH1 0x20 DUP3 ADD MSTORE PUSH1 0x40 DUP2 ADD DUP8 SWAP1 MSTORE DUP5 SWAP1 DUP3 SWAP1 DUP2 SWAP1 PUSH1 0x60 ADD SUB DUP2 DUP11 DUP10 GAS CALL SWAP1 DUP2 ISZERO PUSH2 0xC06 JUMPI DUP8 SWAP2 PUSH2 0xE8D JUMPI JUMPDEST POP ISZERO PUSH2 0xE55 JUMPI POP SWAP1 PUSH32 0x50E73928BE07B534E0BEEA032889BB051F54B4A046BB43C73625B53DB520AB26 SWAP2 MLOAD SWAP4 DUP5 MSTORE CALLER SWAP4 LOG3 DUP1 RETURN JUMPDEST DUP3 PUSH1 0x64 SWAP3 MLOAD SWAP2 PUSH3 0x461BCD PUSH1 0xE5 SHL DUP4 MSTORE DUP3 ADD MSTORE PUSH1 0x14 PUSH1 0x24 DUP3 ADD MSTORE PUSH20 0x119D5B99081D1C985B9CD9995C8819985A5B1959 PUSH1 0x62 SHL PUSH1 0x44 DUP3 ADD MSTORE REVERT JUMPDEST PUSH2 0xEA4 SWAP2 POP DUP5 RETURNDATASIZE DUP7 GT PUSH2 0xBFF JUMPI PUSH2 0xBF1 DUP2 DUP4 PUSH2 0x16B8 JUMP JUMPDEST CODESIZE PUSH2 0xE21 JUMP JUMPDEST DUP3 PUSH1 0x64 SWAP3 MLOAD SWAP2 PUSH3 0x461BCD PUSH1 0xE5 SHL DUP4 MSTORE DUP3 ADD MSTORE PUSH1 0x18 PUSH1 0x24 DUP3 ADD MSTORE PUSH32 0x546F6B656E206E6F7420696E20726577617264206C6973740000000000000000 PUSH1 0x44 DUP3 ADD MSTORE REVERT JUMPDEST POP PUSH1 0x1 SLOAD DUP3 AND CALLER EQ PUSH2 0xDC3 JUMP JUMPDEST DUP3 DUP6 CALLVALUE PUSH2 0x2EA JUMPI PUSH1 0x20 SWAP2 DUP3 PUSH1 0x3 NOT CALLDATASIZE ADD SLT PUSH2 0x2C8 JUMPI PUSH2 0xF15 PUSH2 0x13E9 JUMP JUMPDEST DUP5 DUP4 MLOAD PUSH2 0xF21 DUP2 PUSH2 0x169C JUMP JUMPDEST CALLDATASIZE SWAP1 CALLDATACOPY PUSH1 0x1 PUSH1 0x1 PUSH1 0xA0 SHL SUB AND DUP2 MSTORE PUSH1 0x12 DUP4 MSTORE DUP2 DUP2 KECCAK256 DUP3 MLOAD SWAP4 SWAP1 SWAP2 SWAP1 DUP5 JUMPDEST PUSH1 0x7 DUP4 LT PUSH2 0xF5D JUMPI DUP7 DUP7 PUSH2 0x7C2 DUP8 PUSH2 0xF55 DUP4 PUSH2 0x169C JUMP JUMPDEST MLOAD DUP1 SWAP3 PUSH2 0x1414 JUMP JUMPDEST PUSH1 0x1 DUP3 DUP2 SWAP3 DUP7 SLOAD DUP2 MSTORE ADD SWAP5 ADD SWAP3 ADD SWAP2 SWAP3 PUSH2 0xF3E JUMP JUMPDEST POP POP SWAP1 CALLVALUE PUSH2 0x2EA JUMPI DUP3 PUSH1 0x3 NOT CALLDATASIZE ADD SLT PUSH2 0x2EA JUMPI PUSH2 0xF8D PUSH2 0x1404 JUMP JUMPDEST SWAP1 PUSH1 0x24 CALLDATALOAD PUSH2 0xFA0 PUSH1 0x7 PUSH1 0xFF DUP6 AND LT PUSH2 0x178A JUMP JUMPDEST DUP1 ISZERO PUSH2 0x1216 JUMPI PUSH2 0xFAF CALLER PUSH2 0x17E0 JUMP JUMPDEST PUSH1 0x7 DUP4 LT ISZERO PUSH2 0x1203 JUMPI PUSH2 0xFC8 DUP2 DUP5 PUSH1 0x1 SHL DUP5 ADD SLOAD PUSH2 0x151D JUMP JUMPDEST SWAP2 DUP3 PUSH1 0x1 SHR SWAP1 PUSH2 0xFD8 DUP3 DUP6 PUSH2 0x14FA JUMP JUMPDEST DUP7 SLOAD DUP9 MLOAD PUSH4 0x23B872DD PUSH1 0xE0 SHL DUP1 DUP3 MSTORE CALLER DUP6 DUP4 ADD SWAP1 DUP2 MSTORE PUSH1 0x1 PUSH1 0x1 PUSH1 0xA0 SHL SUB SWAP4 DUP5 AND PUSH1 0x20 DUP1 DUP4 ADD SWAP2 SWAP1 SWAP2 MSTORE PUSH1 0x40 DUP3 ADD SWAP8 SWAP1 SWAP8 MSTORE PUSH32 0x0 DUP5 AND SWAP4 SWAP2 SWAP3 SWAP1 DUP8 SWAP1 DUP3 SWAP1 DUP2 SWAP1 SUB PUSH1 0x60 ADD DUP2 DUP15 DUP9 GAS CALL SWAP1 DUP2 ISZERO PUSH2 0x11F9 JUMPI DUP12 SWAP2 PUSH2 0x11DC JUMPI JUMPDEST POP ISZERO PUSH2 0x1199 JUMPI PUSH1 0x1 SLOAD DUP12 MLOAD SWAP3 DUP4 MSTORE CALLER DUP7 DUP5 ADD SWAP1 DUP2 MSTORE SWAP2 AND PUSH1 0x1 PUSH1 0x1 PUSH1 0xA0 SHL SUB AND PUSH1 0x20 DUP3 ADD MSTORE PUSH1 0x40 DUP2 ADD SWAP4 SWAP1 SWAP4 MSTORE SWAP2 DUP5 SWAP2 DUP4 SWAP2 DUP3 SWAP1 DUP12 SWAP1 DUP3 SWAP1 PUSH1 0x60 ADD SUB SWAP3 GAS CALL SWAP1 DUP2 ISZERO PUSH2 0x118F JUMPI DUP8 SWAP2 PUSH2 0x1172 JUMPI JUMPDEST POP ISZERO PUSH2 0x1131 JUMPI POP PUSH32 0x72BE55CDDDB684D7757BECF89A7380578B111D8DF14AB625FA2E2CDC7C811F58 SWAP4 SWAP5 SWAP6 PUSH1 0x12 PUSH2 0x112B SWAP3 PUSH2 0x10D8 DUP7 PUSH1 0x13 SLOAD PUSH2 0x1530 JUMP JUMPDEST PUSH1 0x13 SSTORE CALLER DUP10 MSTORE MSTORE PUSH2 0x10EB DUP7 DUP3 DUP10 KECCAK256 PUSH2 0x15AE JUMP JUMPDEST DUP2 SLOAD SWAP1 PUSH1 0x3 SHL SWAP1 PUSH2 0x10FE DUP7 DUP3 DUP5 SHR PUSH2 0x1530 JUMP JUMPDEST DUP3 SHL SWAP2 PUSH1 0x0 NOT SWAP1 SHL NOT AND OR SWAP1 SSTORE MLOAD SWAP3 DUP4 SWAP3 CALLER SWAP7 DUP5 PUSH1 0x40 SWAP2 SWAP5 SWAP4 SWAP3 PUSH1 0xFF PUSH1 0x60 DUP4 ADD SWAP7 AND DUP3 MSTORE PUSH1 0x20 DUP3 ADD MSTORE ADD MSTORE JUMP JUMPDEST SUB SWAP1 LOG2 DUP1 RETURN JUMPDEST PUSH1 0x64 SWAP2 DUP8 MLOAD SWAP2 PUSH3 0x461BCD PUSH1 0xE5 SHL DUP4 MSTORE DUP3 ADD MSTORE PUSH1 0x1E PUSH1 0x24 DUP3 ADD MSTORE PUSH32 0x55544832207472616E7366657220746F206F776E657232206661696C65640000 PUSH1 0x44 DUP3 ADD MSTORE REVERT JUMPDEST PUSH2 0x1189 SWAP2 POP DUP4 RETURNDATASIZE DUP6 GT PUSH2 0xBFF JUMPI PUSH2 0xBF1 DUP2 DUP4 PUSH2 0x16B8 JUMP JUMPDEST CODESIZE PUSH2 0x109B JUMP JUMPDEST DUP9 MLOAD RETURNDATASIZE DUP10 DUP3 RETURNDATACOPY RETURNDATASIZE SWAP1 REVERT JUMPDEST DUP11 MLOAD PUSH3 0x461BCD PUSH1 0xE5 SHL DUP2 MSTORE DUP1 DUP7 ADD DUP8 SWAP1 MSTORE PUSH1 0x1E PUSH1 0x24 DUP3 ADD MSTORE PUSH32 0x55544832207472616E7366657220746F206F776E657231206661696C65640000 PUSH1 0x44 DUP3 ADD MSTORE PUSH1 0x64 SWAP1 REVERT JUMPDEST PUSH2 0x11F3 SWAP2 POP DUP8 RETURNDATASIZE DUP10 GT PUSH2 0xBFF JUMPI PUSH2 0xBF1 DUP2 DUP4 PUSH2 0x16B8 JUMP JUMPDEST CODESIZE PUSH2 0x104E JUMP JUMPDEST DUP13 MLOAD RETURNDATASIZE DUP14 DUP3 RETURNDATACOPY RETURNDATASIZE SWAP1 REVERT JUMPDEST PUSH4 0x4E487B71 PUSH1 0xE0 SHL DUP5 MSTORE PUSH1 0x32 DUP3 MSTORE PUSH1 0x24 DUP5 REVERT JUMPDEST DUP5 MLOAD PUSH3 0x461BCD PUSH1 0xE5 SHL DUP2 MSTORE PUSH1 0x20 DUP2 DUP5 ADD MSTORE PUSH1 0xA PUSH1 0x24 DUP3 ADD MSTORE PUSH10 0x436F756E74207A65726F PUSH1 0xB0 SHL PUSH1 0x44 DUP3 ADD MSTORE PUSH1 0x64 SWAP1 REVERT JUMPDEST POP POP SWAP2 CALLVALUE PUSH2 0x49D JUMPI PUSH1 0x20 CALLDATASIZE PUSH1 0x3 NOT ADD SLT PUSH2 0x49D JUMPI PUSH2 0x1262 PUSH2 0x13E9 JUMP JUMPDEST DUP4 SLOAD PUSH1 0x1 PUSH1 0x1 PUSH1 0xA0 SHL SUB SWAP1 DUP2 AND CALLER EQ DUP1 ISZERO PUSH2 0x1354 JUMPI JUMPDEST PUSH2 0x1281 SWAP1 PUSH2 0x18B1 JUMP JUMPDEST DUP2 AND SWAP3 PUSH2 0x128F DUP5 ISZERO ISZERO PUSH2 0x1876 JUMP JUMPDEST DUP4 DUP6 MSTORE PUSH1 0x3 PUSH1 0x20 MSTORE PUSH1 0xFF DUP4 DUP7 KECCAK256 SLOAD AND PUSH2 0x131B JUMPI PUSH1 0x2 SLOAD SWAP1 PUSH9 0x10000000000000000 DUP3 LT ISZERO PUSH2 0x1308 JUMPI POP SWAP1 PUSH2 0x99A DUP3 PUSH1 0x1 PUSH2 0x12CC SWAP5 ADD PUSH1 0x2 SSTORE PUSH2 0x143C JUMP JUMPDEST DUP2 DUP4 MSTORE PUSH1 0x3 PUSH1 0x20 MSTORE DUP3 KECCAK256 DUP1 SLOAD PUSH1 0xFF NOT AND PUSH1 0x1 OR SWAP1 SSTORE PUSH32 0xF3E4C2C64E71E6BA2EAAB9A599BCED62F9EB91D2CDA610BF41AA8C80FF2CF826 DUP3 DUP1 LOG2 DUP1 RETURN JUMPDEST PUSH4 0x4E487B71 PUSH1 0xE0 SHL DUP7 MSTORE PUSH1 0x41 SWAP1 MSTORE PUSH1 0x24 DUP6 REVERT JUMPDEST PUSH1 0x64 SWAP1 PUSH1 0x20 DUP5 MLOAD SWAP2 PUSH3 0x461BCD PUSH1 0xE5 SHL DUP4 MSTORE DUP3 ADD MSTORE PUSH1 0x13 PUSH1 0x24 DUP3 ADD MSTORE PUSH19 0x151BDAD95B88185B1C9958591E481859191959 PUSH1 0x6A SHL PUSH1 0x44 DUP3 ADD MSTORE REVERT JUMPDEST POP PUSH1 0x1 SLOAD DUP2 AND CALLER EQ PUSH2 0x1278 JUMP JUMPDEST DUP3 DUP6 CALLVALUE PUSH2 0x2EA JUMPI PUSH1 0x20 CALLDATASIZE PUSH1 0x3 NOT ADD SLT PUSH2 0x2EA JUMPI SWAP1 DUP2 SWAP1 PUSH1 0x1 PUSH1 0x1 PUSH1 0xA0 SHL SUB PUSH2 0x1387 PUSH2 0x13E9 JUMP JUMPDEST AND DUP2 MSTORE PUSH1 0x12 PUSH1 0x20 MSTORE KECCAK256 PUSH1 0x8 PUSH1 0x7 DUP3 ADD SLOAD SWAP2 ADD SLOAD DUP3 MLOAD SWAP2 DUP3 MSTORE PUSH1 0x20 DUP3 ADD MSTORE RETURN JUMPDEST DUP4 SWAP1 CALLVALUE PUSH2 0x2EA JUMPI DUP2 PUSH1 0x3 NOT CALLDATASIZE ADD SLT PUSH2 0x2EA JUMPI PUSH32 0x0 PUSH1 0x1 PUSH1 0x1 PUSH1 0xA0 SHL SUB AND DUP2 MSTORE PUSH1 0x20 SWAP1 RETURN JUMPDEST PUSH1 0x4 CALLDATALOAD SWAP1 PUSH1 0x1 PUSH1 0x1 PUSH1 0xA0 SHL SUB DUP3 AND DUP3 SUB PUSH2 0x13FF JUMPI JUMP JUMPDEST PUSH1 0x0 DUP1 REVERT JUMPDEST PUSH1 0x4 CALLDATALOAD SWAP1 PUSH1 0xFF DUP3 AND DUP3 SUB PUSH2 0x13FF JUMPI JUMP JUMPDEST PUSH1 0x0 SWAP2 JUMPDEST PUSH1 0x7 DUP4 LT PUSH2 0x1425 JUMPI POP POP POP JUMP JUMPDEST PUSH1 0x1 SWAP1 DUP3 MLOAD DUP2 MSTORE PUSH1 0x20 DUP1 SWAP2 ADD SWAP3 ADD SWAP3 ADD SWAP2 SWAP1 PUSH2 0x1418 JUMP JUMPDEST PUSH1 0x2 SLOAD DUP2 LT ISZERO PUSH2 0x1473 JUMPI PUSH1 0x2 PUSH1 0x0 MSTORE PUSH32 0x405787FA12A823E0F2B7631CC41B3BA8828B3321CA811111FA75CD3AA3BB5ACE ADD SWAP1 PUSH1 0x0 SWAP1 JUMP JUMPDEST PUSH4 0x4E487B71 PUSH1 0xE0 SHL PUSH1 0x0 MSTORE PUSH1 0x32 PUSH1 0x4 MSTORE PUSH1 0x24 PUSH1 0x0 REVERT JUMPDEST PUSH1 0x2 SLOAD ISZERO PUSH2 0x1473 JUMPI PUSH1 0x2 PUSH1 0x0 MSTORE PUSH32 0x405787FA12A823E0F2B7631CC41B3BA8828B3321CA811111FA75CD3AA3BB5ACE SWAP1 PUSH1 0x0 SWAP1 JUMP JUMPDEST SWAP1 DUP2 MLOAD DUP1 DUP3 MSTORE PUSH1 0x20 DUP1 DUP1 SWAP4 ADD SWAP4 ADD SWAP2 PUSH1 0x0 JUMPDEST DUP3 DUP2 LT PUSH2 0x14DD JUMPI POP POP POP POP SWAP1 JUMP JUMPDEST DUP4 MLOAD PUSH1 0x1 PUSH1 0x1 PUSH1 0xA0 SHL SUB AND DUP6 MSTORE SWAP4 DUP2 ADD SWAP4 SWAP3 DUP2 ADD SWAP3 PUSH1 0x1 ADD PUSH2 0x14CF JUMP JUMPDEST SWAP2 SWAP1 DUP3 SUB SWAP2 DUP3 GT PUSH2 0x1507 JUMPI JUMP JUMPDEST PUSH4 0x4E487B71 PUSH1 0xE0 SHL PUSH1 0x0 MSTORE PUSH1 0x11 PUSH1 0x4 MSTORE PUSH1 0x24 PUSH1 0x0 REVERT JUMPDEST DUP2 DUP2 MUL SWAP3 SWAP2 DUP2 ISZERO SWAP2 DUP5 DIV EQ OR ISZERO PUSH2 0x1507 JUMPI JUMP JUMPDEST SWAP2 SWAP1 DUP3 ADD DUP1 SWAP3 GT PUSH2 0x1507 JUMPI JUMP JUMPDEST PUSH1 0x1 PUSH1 0x1 PUSH1 0xA0 SHL SUB DUP2 AND PUSH1 0x0 SWAP1 DUP2 MSTORE PUSH1 0x12 PUSH1 0x20 MSTORE PUSH1 0x40 SWAP1 KECCAK256 PUSH1 0x7 DUP2 ADD SLOAD SWAP2 SWAP1 DUP3 ISZERO PUSH2 0x1595 JUMPI PUSH2 0x158B PUSH4 0x1E13380 SWAP2 PUSH2 0x1586 PUSH1 0x8 PUSH2 0x157D PUSH2 0x1592 SWAP8 TIMESTAMP PUSH2 0x14FA JUMP JUMPDEST SWAP3 ADD SLOAD SWAP5 PUSH2 0x15BE JUMP JUMPDEST PUSH2 0x151D JUMP JUMPDEST DIV SWAP1 PUSH2 0x1530 JUMP JUMPDEST SWAP1 JUMP JUMPDEST POP POP POP PUSH1 0x0 SWAP1 JUMP JUMPDEST PUSH1 0xFF AND PUSH1 0xFF DUP2 EQ PUSH2 0x1507 JUMPI PUSH1 0x1 ADD SWAP1 JUMP JUMPDEST PUSH1 0x7 DUP3 LT ISZERO PUSH2 0x1473 JUMPI ADD SWAP1 PUSH1 0x0 SWAP1 JUMP JUMPDEST PUSH1 0x1 PUSH1 0x1 PUSH1 0xA0 SHL SUB AND PUSH1 0x0 SWAP1 DUP2 MSTORE PUSH1 0x12 PUSH1 0x20 MSTORE PUSH1 0x40 DUP2 KECCAK256 SWAP1 SWAP2 DUP3 DUP1 JUMPDEST PUSH1 0x7 DUP1 PUSH1 0xFF DUP4 AND LT ISZERO PUSH2 0x1663 JUMPI PUSH2 0x15F1 DUP3 DUP7 PUSH2 0x15AE JUMP JUMPDEST SWAP1 SLOAD PUSH1 0x3 SWAP2 DUP3 SHL SHR PUSH2 0x160E JUMPI JUMPDEST POP POP PUSH2 0x1609 SWAP1 PUSH2 0x159D JUMP JUMPDEST PUSH2 0x15DA JUMP JUMPDEST PUSH2 0x161B DUP4 DUP8 SWAP9 SWAP5 SWAP9 PUSH2 0x15AE JUMP JUMPDEST SWAP1 SLOAD SWAP2 SHL SHR SWAP1 DUP7 LT ISZERO PUSH2 0x164F JUMPI PUSH2 0x1609 SWAP2 PUSH2 0x1641 PUSH2 0x1647 SWAP3 PUSH1 0x5 DUP10 PUSH1 0x1 SHL ADD SLOAD SWAP1 PUSH2 0x151D JUMP JUMPDEST SWAP1 PUSH2 0x1530 JUMP JUMPDEST SWAP5 SWAP1 CODESIZE PUSH2 0x15FE JUMP JUMPDEST PUSH4 0x4E487B71 PUSH1 0xE0 SHL DUP4 MSTORE PUSH1 0x32 PUSH1 0x4 MSTORE PUSH1 0x24 DUP4 REVERT JUMPDEST POP POP POP SWAP1 POP JUMP JUMPDEST PUSH1 0x40 DUP2 ADD SWAP1 DUP2 LT PUSH8 0xFFFFFFFFFFFFFFFF DUP3 GT OR PUSH2 0x1686 JUMPI PUSH1 0x40 MSTORE JUMP JUMPDEST PUSH4 0x4E487B71 PUSH1 0xE0 SHL PUSH1 0x0 MSTORE PUSH1 0x41 PUSH1 0x4 MSTORE PUSH1 0x24 PUSH1 0x0 REVERT JUMPDEST PUSH1 0xE0 DUP2 ADD SWAP1 DUP2 LT PUSH8 0xFFFFFFFFFFFFFFFF DUP3 GT OR PUSH2 0x1686 JUMPI PUSH1 0x40 MSTORE JUMP JUMPDEST SWAP1 PUSH1 0x1F DUP1 NOT SWAP2 ADD AND DUP2 ADD SWAP1 DUP2 LT PUSH8 0xFFFFFFFFFFFFFFFF DUP3 GT OR PUSH2 0x1686 JUMPI PUSH1 0x40 MSTORE JUMP JUMPDEST SWAP1 PUSH1 0x7 DUP2 LT ISZERO PUSH2 0x1473 JUMPI PUSH1 0x5 SHL ADD SWAP1 JUMP JUMPDEST PUSH1 0x40 MLOAD SWAP1 PUSH1 0x2 SLOAD DUP1 DUP4 MSTORE DUP3 PUSH1 0x20 SWAP2 DUP3 DUP3 ADD SWAP1 PUSH1 0x2 PUSH1 0x0 MSTORE PUSH32 0x405787FA12A823E0F2B7631CC41B3BA8828B3321CA811111FA75CD3AA3BB5ACE SWAP4 PUSH1 0x0 SWAP1 JUMPDEST DUP3 DUP3 LT PUSH2 0x1740 JUMPI POP POP POP PUSH2 0x173E SWAP3 POP SUB DUP4 PUSH2 0x16B8 JUMP JUMPDEST JUMP JUMPDEST DUP6 SLOAD PUSH1 0x1 PUSH1 0x1 PUSH1 0xA0 SHL SUB AND DUP5 MSTORE PUSH1 0x1 SWAP6 DUP7 ADD SWAP6 DUP9 SWAP6 POP SWAP4 DUP2 ADD SWAP4 SWAP1 SWAP2 ADD SWAP1 PUSH2 0x1728 JUMP JUMPDEST PUSH8 0xFFFFFFFFFFFFFFFF DUP2 GT PUSH2 0x1686 JUMPI PUSH1 0x5 SHL PUSH1 0x20 ADD SWAP1 JUMP JUMPDEST PUSH1 0x0 NOT DUP2 EQ PUSH2 0x1507 JUMPI PUSH1 0x1 ADD SWAP1 JUMP JUMPDEST ISZERO PUSH2 0x1791 JUMPI JUMP JUMPDEST PUSH1 0x40 MLOAD PUSH3 0x461BCD PUSH1 0xE5 SHL DUP2 MSTORE PUSH1 0x20 PUSH1 0x4 DUP3 ADD MSTORE PUSH1 0xF PUSH1 0x24 DUP3 ADD MSTORE PUSH15 0x496E76616C6964207061636B616765 PUSH1 0x88 SHL PUSH1 0x44 DUP3 ADD MSTORE PUSH1 0x64 SWAP1 REVERT JUMPDEST SWAP1 DUP2 PUSH1 0x20 SWAP2 SUB SLT PUSH2 0x13FF JUMPI MLOAD DUP1 ISZERO ISZERO DUP2 SUB PUSH2 0x13FF JUMPI SWAP1 JUMP JUMPDEST PUSH1 0x1 DUP1 PUSH1 0xA0 SHL SUB DUP2 AND PUSH1 0x0 MSTORE PUSH1 0x12 PUSH1 0x20 MSTORE PUSH1 0x40 PUSH1 0x0 KECCAK256 PUSH1 0x7 DUP2 ADD SWAP2 DUP3 SLOAD ISZERO PUSH2 0x1836 JUMPI PUSH1 0x8 PUSH4 0x1E13380 PUSH2 0x1824 PUSH2 0x182F SWAP4 PUSH2 0x1586 PUSH2 0x181E DUP9 SLOAD TIMESTAMP PUSH2 0x14FA JUMP JUMPDEST SWAP2 PUSH2 0x15BE JUMP JUMPDEST DIV SWAP3 ADD SWAP2 DUP3 SLOAD PUSH2 0x1530 JUMP JUMPDEST SWAP1 SSTORE TIMESTAMP SWAP1 SSTORE JUMP JUMPDEST POP POP TIMESTAMP SWAP1 SSTORE JUMP JUMPDEST ISZERO PUSH2 0x1844 JUMPI JUMP JUMPDEST PUSH1 0x40 MLOAD PUSH3 0x461BCD PUSH1 0xE5 SHL DUP2 MSTORE PUSH1 0x20 PUSH1 0x4 DUP3 ADD MSTORE PUSH1 0xA PUSH1 0x24 DUP3 ADD MSTORE PUSH10 0x4E6F74206F776E657231 PUSH1 0xB0 SHL PUSH1 0x44 DUP3 ADD MSTORE PUSH1 0x64 SWAP1 REVERT JUMPDEST ISZERO PUSH2 0x187D JUMPI JUMP JUMPDEST PUSH1 0x40 MLOAD PUSH3 0x461BCD PUSH1 0xE5 SHL DUP2 MSTORE PUSH1 0x20 PUSH1 0x4 DUP3 ADD MSTORE PUSH1 0xC PUSH1 0x24 DUP3 ADD MSTORE PUSH12 0x5A65726F2061646472657373 PUSH1 0xA0 SHL PUSH1 0x44 DUP3 ADD MSTORE PUSH1 0x64 SWAP1 REVERT JUMPDEST ISZERO PUSH2 0x18B8 JUMPI JUMP JUMPDEST PUSH1 0x40 MLOAD PUSH3 0x461BCD PUSH1 0xE5 SHL DUP2 MSTORE PUSH1 0x20 PUSH1 0x4 DUP3 ADD MSTORE PUSH1 0xC PUSH1 0x24 DUP3 ADD MSTORE PUSH12 0x2737BA1030B71037BBB732B9 PUSH1 0xA1 SHL PUSH1 0x44 DUP3 ADD MSTORE PUSH1 0x64 SWAP1 REVERT INVALID LOG2 PUSH5 0x6970667358 0x22 SLT KECCAK256 PUSH26 0x499055872AB17BDFFE48C1891B955E1E5FCC2512C7D6FC90C455 SLT PUSH12 0xB4843564736F6C6343000814 STOP CALLER "},"methodIdentifiers":{"NUM_PKG()":"487cb94d","YEAR()":"83914540","addRewardToken(address)":"1c03e6cc","buyPackage(uint8,uint256)":"254b516e","claimRewards()":"372500ab","fundPool(address,uint256)":"2bfd5146","getContractBalances()":"ffd2a7d3","getPackages()":"5c05a89f","getRewardTokens()":"c4f59f9b","getUserCounts(address)":"293c4ab5","getUserRate(address)":"913701b6","isRewardToken(address)":"b5fd73f8","owner1()":"73688914","owner2()":"52709725","packages(uint256)":"c216212a","pendingRewards(address)":"31d7a262","poolBalance()":"96365d44","primaryToken()":"91ac094c","removeRewardToken(address)":"3d509c97","rescueToken(address,uint256)":"33f3d628","rewardTokens(uint256)":"7bb7bed1","setAllPackages(uint256[7],uint256[7])":"80168a75","setOwner2(address)":"5825884f","setPackage(uint8,uint256,uint256)":"7d59551e","totalUTH2Collected()":"d38d8ecf","transferOwner1(address)":"9b5cc9f4","userInfo(address)":"1959a002","uth2()":"04e4fc5e"}}}}}