{"contracts/SwapProxy.sol":{"SwapProxy":{"abi":[{"inputs":[{"internalType":"address","name":"_owner","type":"address"}],"stateMutability":"nonpayable","type":"constructor"},{"anonymous":false,"inputs":[{"indexed":false,"internalType":"uint256","name":"newFeeBps","type":"uint256"}],"name":"FeeUpdated","type":"event"},{"anonymous":false,"inputs":[{"indexed":false,"internalType":"address","name":"newOwner","type":"address"}],"name":"OwnerUpdated","type":"event"},{"anonymous":false,"inputs":[{"indexed":true,"internalType":"address","name":"user","type":"address"},{"indexed":true,"internalType":"address","name":"tokenIn","type":"address"},{"indexed":true,"internalType":"address","name":"tokenOut","type":"address"},{"indexed":false,"internalType":"uint256","name":"amountIn","type":"uint256"},{"indexed":false,"internalType":"uint256","name":"amountOut","type":"uint256"},{"indexed":false,"internalType":"uint256","name":"feeAmount","type":"uint256"}],"name":"Swapped","type":"event"},{"inputs":[],"name":"SWAP_ROUTER","outputs":[{"internalType":"address","name":"","type":"address"}],"stateMutability":"view","type":"function"},{"inputs":[],"name":"feeBps","outputs":[{"internalType":"uint256","name":"","type":"uint256"}],"stateMutability":"view","type":"function"},{"inputs":[],"name":"getFeeBps","outputs":[{"internalType":"uint256","name":"","type":"uint256"}],"stateMutability":"view","type":"function"},{"inputs":[],"name":"owner","outputs":[{"internalType":"address","name":"","type":"address"}],"stateMutability":"view","type":"function"},{"inputs":[{"internalType":"address","name":"token","type":"address"}],"name":"rescueToken","outputs":[],"stateMutability":"nonpayable","type":"function"},{"inputs":[{"internalType":"uint256","name":"_feeBps","type":"uint256"}],"name":"setFeeBps","outputs":[],"stateMutability":"nonpayable","type":"function"},{"inputs":[{"internalType":"address","name":"_newOwner","type":"address"}],"name":"setOwner","outputs":[],"stateMutability":"nonpayable","type":"function"},{"inputs":[{"internalType":"address","name":"tokenIn","type":"address"},{"internalType":"address","name":"tokenOut","type":"address"},{"internalType":"uint256","name":"amountIn","type":"uint256"},{"internalType":"uint256","name":"amountOutMin","type":"uint256"},{"internalType":"uint24","name":"poolFee","type":"uint24"},{"internalType":"uint256","name":"deadline","type":"uint256"}],"name":"swap","outputs":[{"internalType":"uint256","name":"amountOut","type":"uint256"}],"stateMutability":"nonpayable","type":"function"}],"evm":{"bytecode":{"linkReferences":{},"object":"6080346100b157601f61095b38819003918201601f19168301916001600160401b038311848410176100b6578084926020946040528339810103126100b157516001600160a01b038116908190036100b157600a600155801561007f57600080546001600160a01b03191691909117905560405161088e90816100cd8239f35b60405162461bcd60e51b815260206004820152600a6024820152692d32b9379037bbb732b960b11b6044820152606490fd5b600080fd5b634e487b7160e01b600052604160045260246000fdfe6080604052600436101561001257600080fd5b60003560e01c806313af40351461072457806324a9d853146107065780632c928098146107065780634460d3cf146105df57806372c27b621461054e5780638da5cb5b14610525578063c33034b3146100a85763c60058931461007457600080fd5b346100a35760003660031901126100a357602060405173091ad9e2e6e5ed44c1c66db50e49a601f9f36cf68152f35b600080fd5b346100a35760c03660031901126100a3576100c16107d0565b6024356001600160a01b03811681036100a3576084359162ffffff831683036100a357604435156104f2574260a435106104c3576001600160a01b0381161515806104b1575b1561047f57600154806044350290604435820403610469576044356127108204810311610469576040516323b872dd60e01b8152336004820152306024820152604480359082015260208160648160006001600160a01b0388165af180156103875761044a575b5061271081046103d8575b60405163095ea7b360e01b815273091ad9e2e6e5ed44c1c66db50e49a601f9f36cf6600482015261271082046044803591909103602483015260209082908160006001600160a01b0388165af18015610387576103a9575b50604051938461010081011067ffffffffffffffff610100870111176103935762ffffff90610100860160405260018060a01b038416865260018060a01b038516602087015216604085015233606085015260a435608085015261271081046044350360a085015260643560c0850152600060e08501526040519363414bf38960e01b855260018060a01b03815116600486015260018060a01b03602082015116602486015262ffffff604082015116604486015260018060a01b0360608201511660648601526080810151608486015260a081015160a486015260c081015160c486015260e060018060a01b039101511660e485015260208461010481600073091ad9e2e6e5ed44c1c66db50e49a601f9f36cf65af192831561038757600093610352575b60209450612710604051926044358452858785015204604083015260018060a01b03169160018060a01b0316907fc9163c3bdf7263acf1bb3d24072cc7da025f7181c31e2edc7e1673edf5e0ca3260603392a4604051908152f35b92506020843d60201161037f575b8161036d6020938361081e565b810103126100a35760209351926102f7565b3d9150610360565b6040513d6000823e3d90fd5b634e487b7160e01b600052604160045260246000fd5b6103ca9060203d6020116103d1575b6103c2818361081e565b810190610840565b50846101d1565b503d6103b8565b60005460405163a9059cbb60e01b81526001600160a01b039091166004820152612710820460248201526020818060448101038160006001600160a01b0388165af180156103875761042b575b50610179565b6104439060203d6020116103d1576103c2818361081e565b5084610425565b6104629060203d6020116103d1576103c2818361081e565b508461016e565b634e487b7160e01b600052601160045260246000fd5b60405162461bcd60e51b815260206004820152600a6024820152692d32b937903a37b5b2b760b11b6044820152606490fd5b506001600160a01b0382161515610107565b60405162461bcd60e51b8152602060048201526007602482015266115e1c1a5c995960ca1b6044820152606490fd5b60405162461bcd60e51b815260206004820152600b60248201526a16995c9bc8185b5bdd5b9d60aa1b6044820152606490fd5b346100a35760003660031901126100a3576000546040516001600160a01b039091168152602090f35b346100a35760203660031901126100a35760043561057760018060a01b036000541633146107e6565b6101f481116105b1576020817f8c4d35e54a3f2ef1134138fd8ea3daee6a3c89e10d2665996babdf70261e2c7692600155604051908152a1005b60405162461bcd60e51b81526020600482015260066024820152654d617820352560d01b6044820152606490fd5b346100a3576020806003193601126100a3576105f96107d0565b6000546001600160a01b03908116916106133384146107e6565b16604051916370a0823160e01b83523060048401528383602481855afa928315610387576000936106d7575b50821561069e5760405163a9059cbb60e01b81526001600160a01b0391909116600482015260248101929092528290829060449082906000905af180156103875761068657005b8161069c92903d106103d1576103c2818361081e565b005b60405162461bcd60e51b81526004810185905260116024820152704e6f7468696e6720746f2072657363756560781b6044820152606490fd5b9092508381813d83116106ff575b6106ef818361081e565b810103126100a35751918461063f565b503d6106e5565b346100a35760003660031901126100a3576020600154604051908152f35b346100a35760203660031901126100a35761073d6107d0565b600054906001600160a01b039061075733838516146107e6565b1690811561079c576001600160a01b03191681176000556040519081527f4ffd725fc4a22075e9ec71c59edf9c38cdeb588a91b24fc5b61388c5be41282b90602090a1005b60405162461bcd60e51b815260206004820152600c60248201526b5a65726f206164647265737360a01b6044820152606490fd5b600435906001600160a01b03821682036100a357565b156107ed57565b60405162461bcd60e51b81526020600482015260096024820152682737ba1037bbb732b960b91b6044820152606490fd5b90601f8019910116810190811067ffffffffffffffff82111761039357604052565b908160209103126100a3575180151581036100a3579056fea2646970667358221220944b58c6bb92eeb7b66ace87cd933fed8a0152e767283746b3b10180b44470a164736f6c63430008140033","opcodes":"PUSH1 0x80 CALLVALUE PUSH2 0xB1 JUMPI PUSH1 0x1F PUSH2 0x95B CODESIZE DUP2 SWAP1 SUB SWAP2 DUP3 ADD PUSH1 0x1F NOT AND DUP4 ADD SWAP2 PUSH1 0x1 PUSH1 0x1 PUSH1 0x40 SHL SUB DUP4 GT DUP5 DUP5 LT OR PUSH2 0xB6 JUMPI DUP1 DUP5 SWAP3 PUSH1 0x20 SWAP5 PUSH1 0x40 MSTORE DUP4 CODECOPY DUP2 ADD SUB SLT PUSH2 0xB1 JUMPI MLOAD PUSH1 0x1 PUSH1 0x1 PUSH1 0xA0 SHL SUB DUP2 AND SWAP1 DUP2 SWAP1 SUB PUSH2 0xB1 JUMPI PUSH1 0xA PUSH1 0x1 SSTORE DUP1 ISZERO PUSH2 0x7F JUMPI PUSH1 0x0 DUP1 SLOAD PUSH1 0x1 PUSH1 0x1 PUSH1 0xA0 SHL SUB NOT AND SWAP2 SWAP1 SWAP2 OR SWAP1 SSTORE PUSH1 0x40 MLOAD PUSH2 0x88E SWAP1 DUP2 PUSH2 0xCD DUP3 CODECOPY RETURN JUMPDEST PUSH1 0x40 MLOAD PUSH3 0x461BCD PUSH1 0xE5 SHL DUP2 MSTORE PUSH1 0x20 PUSH1 0x4 DUP3 ADD MSTORE PUSH1 0xA PUSH1 0x24 DUP3 ADD MSTORE PUSH10 0x2D32B9379037BBB732B9 PUSH1 0xB1 SHL PUSH1 0x44 DUP3 ADD MSTORE PUSH1 0x64 SWAP1 REVERT JUMPDEST PUSH1 0x0 DUP1 REVERT JUMPDEST PUSH4 0x4E487B71 PUSH1 0xE0 SHL PUSH1 0x0 MSTORE PUSH1 0x41 PUSH1 0x4 MSTORE PUSH1 0x24 PUSH1 0x0 REVERT INVALID PUSH1 0x80 PUSH1 0x40 MSTORE PUSH1 0x4 CALLDATASIZE LT ISZERO PUSH2 0x12 JUMPI PUSH1 0x0 DUP1 REVERT JUMPDEST PUSH1 0x0 CALLDATALOAD PUSH1 0xE0 SHR DUP1 PUSH4 0x13AF4035 EQ PUSH2 0x724 JUMPI DUP1 PUSH4 0x24A9D853 EQ PUSH2 0x706 JUMPI DUP1 PUSH4 0x2C928098 EQ PUSH2 0x706 JUMPI DUP1 PUSH4 0x4460D3CF EQ PUSH2 0x5DF JUMPI DUP1 PUSH4 0x72C27B62 EQ PUSH2 0x54E JUMPI DUP1 PUSH4 0x8DA5CB5B EQ PUSH2 0x525 JUMPI DUP1 PUSH4 0xC33034B3 EQ PUSH2 0xA8 JUMPI PUSH4 0xC6005893 EQ PUSH2 0x74 JUMPI PUSH1 0x0 DUP1 REVERT JUMPDEST CALLVALUE PUSH2 0xA3 JUMPI PUSH1 0x0 CALLDATASIZE PUSH1 0x3 NOT ADD SLT PUSH2 0xA3 JUMPI PUSH1 0x20 PUSH1 0x40 MLOAD PUSH20 0x91AD9E2E6E5ED44C1C66DB50E49A601F9F36CF6 DUP2 MSTORE RETURN JUMPDEST PUSH1 0x0 DUP1 REVERT JUMPDEST CALLVALUE PUSH2 0xA3 JUMPI PUSH1 0xC0 CALLDATASIZE PUSH1 0x3 NOT ADD SLT PUSH2 0xA3 JUMPI PUSH2 0xC1 PUSH2 0x7D0 JUMP JUMPDEST PUSH1 0x24 CALLDATALOAD PUSH1 0x1 PUSH1 0x1 PUSH1 0xA0 SHL SUB DUP2 AND DUP2 SUB PUSH2 0xA3 JUMPI PUSH1 0x84 CALLDATALOAD SWAP2 PUSH3 0xFFFFFF DUP4 AND DUP4 SUB PUSH2 0xA3 JUMPI PUSH1 0x44 CALLDATALOAD ISZERO PUSH2 0x4F2 JUMPI TIMESTAMP PUSH1 0xA4 CALLDATALOAD LT PUSH2 0x4C3 JUMPI PUSH1 0x1 PUSH1 0x1 PUSH1 0xA0 SHL SUB DUP2 AND ISZERO ISZERO DUP1 PUSH2 0x4B1 JUMPI JUMPDEST ISZERO PUSH2 0x47F JUMPI PUSH1 0x1 SLOAD DUP1 PUSH1 0x44 CALLDATALOAD MUL SWAP1 PUSH1 0x44 CALLDATALOAD DUP3 DIV SUB PUSH2 0x469 JUMPI PUSH1 0x44 CALLDATALOAD PUSH2 0x2710 DUP3 DIV DUP2 SUB GT PUSH2 0x469 JUMPI PUSH1 0x40 MLOAD PUSH4 0x23B872DD PUSH1 0xE0 SHL DUP2 MSTORE CALLER PUSH1 0x4 DUP3 ADD MSTORE ADDRESS PUSH1 0x24 DUP3 ADD MSTORE PUSH1 0x44 DUP1 CALLDATALOAD SWAP1 DUP3 ADD MSTORE PUSH1 0x20 DUP2 PUSH1 0x64 DUP2 PUSH1 0x0 PUSH1 0x1 PUSH1 0x1 PUSH1 0xA0 SHL SUB DUP9 AND GAS CALL DUP1 ISZERO PUSH2 0x387 JUMPI PUSH2 0x44A JUMPI JUMPDEST POP PUSH2 0x2710 DUP2 DIV PUSH2 0x3D8 JUMPI JUMPDEST PUSH1 0x40 MLOAD PUSH4 0x95EA7B3 PUSH1 0xE0 SHL DUP2 MSTORE PUSH20 0x91AD9E2E6E5ED44C1C66DB50E49A601F9F36CF6 PUSH1 0x4 DUP3 ADD MSTORE PUSH2 0x2710 DUP3 DIV PUSH1 0x44 DUP1 CALLDATALOAD SWAP2 SWAP1 SWAP2 SUB PUSH1 0x24 DUP4 ADD MSTORE PUSH1 0x20 SWAP1 DUP3 SWAP1 DUP2 PUSH1 0x0 PUSH1 0x1 PUSH1 0x1 PUSH1 0xA0 SHL SUB DUP9 AND GAS CALL DUP1 ISZERO PUSH2 0x387 JUMPI PUSH2 0x3A9 JUMPI JUMPDEST POP PUSH1 0x40 MLOAD SWAP4 DUP5 PUSH2 0x100 DUP2 ADD LT PUSH8 0xFFFFFFFFFFFFFFFF PUSH2 0x100 DUP8 ADD GT OR PUSH2 0x393 JUMPI PUSH3 0xFFFFFF SWAP1 PUSH2 0x100 DUP7 ADD PUSH1 0x40 MSTORE PUSH1 0x1 DUP1 PUSH1 0xA0 SHL SUB DUP5 AND DUP7 MSTORE PUSH1 0x1 DUP1 PUSH1 0xA0 SHL SUB DUP6 AND PUSH1 0x20 DUP8 ADD MSTORE AND PUSH1 0x40 DUP6 ADD MSTORE CALLER PUSH1 0x60 DUP6 ADD MSTORE PUSH1 0xA4 CALLDATALOAD PUSH1 0x80 DUP6 ADD MSTORE PUSH2 0x2710 DUP2 DIV PUSH1 0x44 CALLDATALOAD SUB PUSH1 0xA0 DUP6 ADD MSTORE PUSH1 0x64 CALLDATALOAD PUSH1 0xC0 DUP6 ADD MSTORE PUSH1 0x0 PUSH1 0xE0 DUP6 ADD MSTORE PUSH1 0x40 MLOAD SWAP4 PUSH4 0x414BF389 PUSH1 0xE0 SHL DUP6 MSTORE PUSH1 0x1 DUP1 PUSH1 0xA0 SHL SUB DUP2 MLOAD AND PUSH1 0x4 DUP7 ADD MSTORE PUSH1 0x1 DUP1 PUSH1 0xA0 SHL SUB PUSH1 0x20 DUP3 ADD MLOAD AND PUSH1 0x24 DUP7 ADD MSTORE PUSH3 0xFFFFFF PUSH1 0x40 DUP3 ADD MLOAD AND PUSH1 0x44 DUP7 ADD MSTORE PUSH1 0x1 DUP1 PUSH1 0xA0 SHL SUB PUSH1 0x60 DUP3 ADD MLOAD AND PUSH1 0x64 DUP7 ADD MSTORE PUSH1 0x80 DUP2 ADD MLOAD PUSH1 0x84 DUP7 ADD MSTORE PUSH1 0xA0 DUP2 ADD MLOAD PUSH1 0xA4 DUP7 ADD MSTORE PUSH1 0xC0 DUP2 ADD MLOAD PUSH1 0xC4 DUP7 ADD MSTORE PUSH1 0xE0 PUSH1 0x1 DUP1 PUSH1 0xA0 SHL SUB SWAP2 ADD MLOAD AND PUSH1 0xE4 DUP6 ADD MSTORE PUSH1 0x20 DUP5 PUSH2 0x104 DUP2 PUSH1 0x0 PUSH20 0x91AD9E2E6E5ED44C1C66DB50E49A601F9F36CF6 GAS CALL SWAP3 DUP4 ISZERO PUSH2 0x387 JUMPI PUSH1 0x0 SWAP4 PUSH2 0x352 JUMPI JUMPDEST PUSH1 0x20 SWAP5 POP PUSH2 0x2710 PUSH1 0x40 MLOAD SWAP3 PUSH1 0x44 CALLDATALOAD DUP5 MSTORE DUP6 DUP8 DUP6 ADD MSTORE DIV PUSH1 0x40 DUP4 ADD MSTORE PUSH1 0x1 DUP1 PUSH1 0xA0 SHL SUB AND SWAP2 PUSH1 0x1 DUP1 PUSH1 0xA0 SHL SUB AND SWAP1 PUSH32 0xC9163C3BDF7263ACF1BB3D24072CC7DA025F7181C31E2EDC7E1673EDF5E0CA32 PUSH1 0x60 CALLER SWAP3 LOG4 PUSH1 0x40 MLOAD SWAP1 DUP2 MSTORE RETURN JUMPDEST SWAP3 POP PUSH1 0x20 DUP5 RETURNDATASIZE PUSH1 0x20 GT PUSH2 0x37F JUMPI JUMPDEST DUP2 PUSH2 0x36D PUSH1 0x20 SWAP4 DUP4 PUSH2 0x81E JUMP JUMPDEST DUP2 ADD SUB SLT PUSH2 0xA3 JUMPI PUSH1 0x20 SWAP4 MLOAD SWAP3 PUSH2 0x2F7 JUMP JUMPDEST RETURNDATASIZE SWAP2 POP PUSH2 0x360 JUMP JUMPDEST PUSH1 0x40 MLOAD RETURNDATASIZE PUSH1 0x0 DUP3 RETURNDATACOPY RETURNDATASIZE SWAP1 REVERT JUMPDEST PUSH4 0x4E487B71 PUSH1 0xE0 SHL PUSH1 0x0 MSTORE PUSH1 0x41 PUSH1 0x4 MSTORE PUSH1 0x24 PUSH1 0x0 REVERT JUMPDEST PUSH2 0x3CA SWAP1 PUSH1 0x20 RETURNDATASIZE PUSH1 0x20 GT PUSH2 0x3D1 JUMPI JUMPDEST PUSH2 0x3C2 DUP2 DUP4 PUSH2 0x81E JUMP JUMPDEST DUP2 ADD SWAP1 PUSH2 0x840 JUMP JUMPDEST POP DUP5 PUSH2 0x1D1 JUMP JUMPDEST POP RETURNDATASIZE PUSH2 0x3B8 JUMP JUMPDEST PUSH1 0x0 SLOAD PUSH1 0x40 MLOAD PUSH4 0xA9059CBB PUSH1 0xE0 SHL DUP2 MSTORE PUSH1 0x1 PUSH1 0x1 PUSH1 0xA0 SHL SUB SWAP1 SWAP2 AND PUSH1 0x4 DUP3 ADD MSTORE PUSH2 0x2710 DUP3 DIV PUSH1 0x24 DUP3 ADD MSTORE PUSH1 0x20 DUP2 DUP1 PUSH1 0x44 DUP2 ADD SUB DUP2 PUSH1 0x0 PUSH1 0x1 PUSH1 0x1 PUSH1 0xA0 SHL SUB DUP9 AND GAS CALL DUP1 ISZERO PUSH2 0x387 JUMPI PUSH2 0x42B JUMPI JUMPDEST POP PUSH2 0x179 JUMP JUMPDEST PUSH2 0x443 SWAP1 PUSH1 0x20 RETURNDATASIZE PUSH1 0x20 GT PUSH2 0x3D1 JUMPI PUSH2 0x3C2 DUP2 DUP4 PUSH2 0x81E JUMP JUMPDEST POP DUP5 PUSH2 0x425 JUMP JUMPDEST PUSH2 0x462 SWAP1 PUSH1 0x20 RETURNDATASIZE PUSH1 0x20 GT PUSH2 0x3D1 JUMPI PUSH2 0x3C2 DUP2 DUP4 PUSH2 0x81E JUMP JUMPDEST POP DUP5 PUSH2 0x16E JUMP JUMPDEST PUSH4 0x4E487B71 PUSH1 0xE0 SHL PUSH1 0x0 MSTORE PUSH1 0x11 PUSH1 0x4 MSTORE PUSH1 0x24 PUSH1 0x0 REVERT JUMPDEST PUSH1 0x40 MLOAD PUSH3 0x461BCD PUSH1 0xE5 SHL DUP2 MSTORE PUSH1 0x20 PUSH1 0x4 DUP3 ADD MSTORE PUSH1 0xA PUSH1 0x24 DUP3 ADD MSTORE PUSH10 0x2D32B937903A37B5B2B7 PUSH1 0xB1 SHL PUSH1 0x44 DUP3 ADD MSTORE PUSH1 0x64 SWAP1 REVERT JUMPDEST POP PUSH1 0x1 PUSH1 0x1 PUSH1 0xA0 SHL SUB DUP3 AND ISZERO ISZERO PUSH2 0x107 JUMP JUMPDEST PUSH1 0x40 MLOAD PUSH3 0x461BCD PUSH1 0xE5 SHL DUP2 MSTORE PUSH1 0x20 PUSH1 0x4 DUP3 ADD MSTORE PUSH1 0x7 PUSH1 0x24 DUP3 ADD MSTORE PUSH7 0x115E1C1A5C9959 PUSH1 0xCA SHL PUSH1 0x44 DUP3 ADD MSTORE PUSH1 0x64 SWAP1 REVERT JUMPDEST PUSH1 0x40 MLOAD PUSH3 0x461BCD PUSH1 0xE5 SHL DUP2 MSTORE PUSH1 0x20 PUSH1 0x4 DUP3 ADD MSTORE PUSH1 0xB PUSH1 0x24 DUP3 ADD MSTORE PUSH11 0x16995C9BC8185B5BDD5B9D PUSH1 0xAA SHL PUSH1 0x44 DUP3 ADD MSTORE PUSH1 0x64 SWAP1 REVERT JUMPDEST CALLVALUE PUSH2 0xA3 JUMPI PUSH1 0x0 CALLDATASIZE PUSH1 0x3 NOT ADD SLT PUSH2 0xA3 JUMPI PUSH1 0x0 SLOAD PUSH1 0x40 MLOAD PUSH1 0x1 PUSH1 0x1 PUSH1 0xA0 SHL SUB SWAP1 SWAP2 AND DUP2 MSTORE PUSH1 0x20 SWAP1 RETURN JUMPDEST CALLVALUE PUSH2 0xA3 JUMPI PUSH1 0x20 CALLDATASIZE PUSH1 0x3 NOT ADD SLT PUSH2 0xA3 JUMPI PUSH1 0x4 CALLDATALOAD PUSH2 0x577 PUSH1 0x1 DUP1 PUSH1 0xA0 SHL SUB PUSH1 0x0 SLOAD AND CALLER EQ PUSH2 0x7E6 JUMP JUMPDEST PUSH2 0x1F4 DUP2 GT PUSH2 0x5B1 JUMPI PUSH1 0x20 DUP2 PUSH32 0x8C4D35E54A3F2EF1134138FD8EA3DAEE6A3C89E10D2665996BABDF70261E2C76 SWAP3 PUSH1 0x1 SSTORE PUSH1 0x40 MLOAD SWAP1 DUP2 MSTORE LOG1 STOP JUMPDEST PUSH1 0x40 MLOAD PUSH3 0x461BCD PUSH1 0xE5 SHL DUP2 MSTORE PUSH1 0x20 PUSH1 0x4 DUP3 ADD MSTORE PUSH1 0x6 PUSH1 0x24 DUP3 ADD MSTORE PUSH6 0x4D6178203525 PUSH1 0xD0 SHL PUSH1 0x44 DUP3 ADD MSTORE PUSH1 0x64 SWAP1 REVERT JUMPDEST CALLVALUE PUSH2 0xA3 JUMPI PUSH1 0x20 DUP1 PUSH1 0x3 NOT CALLDATASIZE ADD SLT PUSH2 0xA3 JUMPI PUSH2 0x5F9 PUSH2 0x7D0 JUMP JUMPDEST PUSH1 0x0 SLOAD PUSH1 0x1 PUSH1 0x1 PUSH1 0xA0 SHL SUB SWAP1 DUP2 AND SWAP2 PUSH2 0x613 CALLER DUP5 EQ PUSH2 0x7E6 JUMP JUMPDEST AND PUSH1 0x40 MLOAD SWAP2 PUSH4 0x70A08231 PUSH1 0xE0 SHL DUP4 MSTORE ADDRESS PUSH1 0x4 DUP5 ADD MSTORE DUP4 DUP4 PUSH1 0x24 DUP2 DUP6 GAS STATICCALL SWAP3 DUP4 ISZERO PUSH2 0x387 JUMPI PUSH1 0x0 SWAP4 PUSH2 0x6D7 JUMPI JUMPDEST POP DUP3 ISZERO PUSH2 0x69E JUMPI PUSH1 0x40 MLOAD PUSH4 0xA9059CBB PUSH1 0xE0 SHL DUP2 MSTORE PUSH1 0x1 PUSH1 0x1 PUSH1 0xA0 SHL SUB SWAP2 SWAP1 SWAP2 AND PUSH1 0x4 DUP3 ADD MSTORE PUSH1 0x24 DUP2 ADD SWAP3 SWAP1 SWAP3 MSTORE DUP3 SWAP1 DUP3 SWAP1 PUSH1 0x44 SWAP1 DUP3 SWAP1 PUSH1 0x0 SWAP1 GAS CALL DUP1 ISZERO PUSH2 0x387 JUMPI PUSH2 0x686 JUMPI STOP JUMPDEST DUP2 PUSH2 0x69C SWAP3 SWAP1 RETURNDATASIZE LT PUSH2 0x3D1 JUMPI PUSH2 0x3C2 DUP2 DUP4 PUSH2 0x81E JUMP JUMPDEST STOP JUMPDEST PUSH1 0x40 MLOAD PUSH3 0x461BCD PUSH1 0xE5 SHL DUP2 MSTORE PUSH1 0x4 DUP2 ADD DUP6 SWAP1 MSTORE PUSH1 0x11 PUSH1 0x24 DUP3 ADD MSTORE PUSH17 0x4E6F7468696E6720746F20726573637565 PUSH1 0x78 SHL PUSH1 0x44 DUP3 ADD MSTORE PUSH1 0x64 SWAP1 REVERT JUMPDEST SWAP1 SWAP3 POP DUP4 DUP2 DUP2 RETURNDATASIZE DUP4 GT PUSH2 0x6FF JUMPI JUMPDEST PUSH2 0x6EF DUP2 DUP4 PUSH2 0x81E JUMP JUMPDEST DUP2 ADD SUB SLT PUSH2 0xA3 JUMPI MLOAD SWAP2 DUP5 PUSH2 0x63F JUMP JUMPDEST POP RETURNDATASIZE PUSH2 0x6E5 JUMP JUMPDEST CALLVALUE PUSH2 0xA3 JUMPI PUSH1 0x0 CALLDATASIZE PUSH1 0x3 NOT ADD SLT PUSH2 0xA3 JUMPI PUSH1 0x20 PUSH1 0x1 SLOAD PUSH1 0x40 MLOAD SWAP1 DUP2 MSTORE RETURN JUMPDEST CALLVALUE PUSH2 0xA3 JUMPI PUSH1 0x20 CALLDATASIZE PUSH1 0x3 NOT ADD SLT PUSH2 0xA3 JUMPI PUSH2 0x73D PUSH2 0x7D0 JUMP JUMPDEST PUSH1 0x0 SLOAD SWAP1 PUSH1 0x1 PUSH1 0x1 PUSH1 0xA0 SHL SUB SWAP1 PUSH2 0x757 CALLER DUP4 DUP6 AND EQ PUSH2 0x7E6 JUMP JUMPDEST AND SWAP1 DUP2 ISZERO PUSH2 0x79C JUMPI PUSH1 0x1 PUSH1 0x1 PUSH1 0xA0 SHL SUB NOT AND DUP2 OR PUSH1 0x0 SSTORE PUSH1 0x40 MLOAD SWAP1 DUP2 MSTORE PUSH32 0x4FFD725FC4A22075E9EC71C59EDF9C38CDEB588A91B24FC5B61388C5BE41282B SWAP1 PUSH1 0x20 SWAP1 LOG1 STOP JUMPDEST PUSH1 0x40 MLOAD PUSH3 0x461BCD PUSH1 0xE5 SHL DUP2 MSTORE PUSH1 0x20 PUSH1 0x4 DUP3 ADD MSTORE PUSH1 0xC PUSH1 0x24 DUP3 ADD MSTORE PUSH12 0x5A65726F2061646472657373 PUSH1 0xA0 SHL PUSH1 0x44 DUP3 ADD MSTORE PUSH1 0x64 SWAP1 REVERT JUMPDEST PUSH1 0x4 CALLDATALOAD SWAP1 PUSH1 0x1 PUSH1 0x1 PUSH1 0xA0 SHL SUB DUP3 AND DUP3 SUB PUSH2 0xA3 JUMPI JUMP JUMPDEST ISZERO PUSH2 0x7ED JUMPI JUMP JUMPDEST PUSH1 0x40 MLOAD PUSH3 0x461BCD PUSH1 0xE5 SHL DUP2 MSTORE PUSH1 0x20 PUSH1 0x4 DUP3 ADD MSTORE PUSH1 0x9 PUSH1 0x24 DUP3 ADD MSTORE PUSH9 0x2737BA1037BBB732B9 PUSH1 0xB9 SHL PUSH1 0x44 DUP3 ADD MSTORE PUSH1 0x64 SWAP1 REVERT JUMPDEST SWAP1 PUSH1 0x1F DUP1 NOT SWAP2 ADD AND DUP2 ADD SWAP1 DUP2 LT PUSH8 0xFFFFFFFFFFFFFFFF DUP3 GT OR PUSH2 0x393 JUMPI PUSH1 0x40 MSTORE JUMP JUMPDEST SWAP1 DUP2 PUSH1 0x20 SWAP2 SUB SLT PUSH2 0xA3 JUMPI MLOAD DUP1 ISZERO ISZERO DUP2 SUB PUSH2 0xA3 JUMPI SWAP1 JUMP INVALID LOG2 PUSH5 0x6970667358 0x22 SLT KECCAK256 SWAP5 0x4B PC 0xC6 0xBB SWAP3 0xEE 0xB7 0xB6 PUSH11 0xCE87CD933FED8A0152E767 0x28 CALLDATACOPY CHAINID 0xB3 0xB1 ADD DUP1 0xB4 PREVRANDAO PUSH17 0xA164736F6C634300081400330000000000 "},"methodIdentifiers":{"SWAP_ROUTER()":"c6005893","feeBps()":"24a9d853","getFeeBps()":"2c928098","owner()":"8da5cb5b","rescueToken(address)":"4460d3cf","setFeeBps(uint256)":"72c27b62","setOwner(address)":"13af4035","swap(address,address,uint256,uint256,uint24,uint256)":"c33034b3"}}}}}