{"contracts/BTCH2OStaking.sol":{"BTCH2OStaking":{"abi":[{"inputs":[{"internalType":"address","name":"_token","type":"address"},{"internalType":"uint256","name":"_aprBps","type":"uint256"}],"stateMutability":"nonpayable","type":"constructor"},{"anonymous":false,"inputs":[{"indexed":false,"internalType":"uint256","name":"newAprBps","type":"uint256"}],"name":"AprSet","type":"event"},{"anonymous":false,"inputs":[{"indexed":true,"internalType":"address","name":"user","type":"address"},{"indexed":false,"internalType":"uint256","name":"netReward","type":"uint256"},{"indexed":false,"internalType":"uint256","name":"fee","type":"uint256"}],"name":"Claimed","type":"event"},{"anonymous":false,"inputs":[{"indexed":true,"internalType":"address","name":"to","type":"address"},{"indexed":false,"internalType":"uint256","name":"amount","type":"uint256"}],"name":"FeeWithdrawn","type":"event"},{"anonymous":false,"inputs":[{"indexed":false,"internalType":"uint256","name":"deposit","type":"uint256"},{"indexed":false,"internalType":"uint256","name":"withdraw","type":"uint256"},{"indexed":false,"internalType":"uint256","name":"claim","type":"uint256"}],"name":"FeesSet","type":"event"},{"anonymous":false,"inputs":[{"indexed":true,"internalType":"address","name":"from","type":"address"},{"indexed":false,"internalType":"uint256","name":"amount","type":"uint256"}],"name":"Funded","type":"event"},{"anonymous":false,"inputs":[{"indexed":true,"internalType":"address","name":"previousOwner","type":"address"},{"indexed":true,"internalType":"address","name":"newOwner","type":"address"}],"name":"OwnershipTransferred","type":"event"},{"anonymous":false,"inputs":[{"indexed":true,"internalType":"address","name":"user","type":"address"},{"indexed":false,"internalType":"uint256","name":"netAmount","type":"uint256"},{"indexed":false,"internalType":"uint256","name":"fee","type":"uint256"}],"name":"Staked","type":"event"},{"anonymous":false,"inputs":[{"indexed":true,"internalType":"address","name":"user","type":"address"},{"indexed":false,"internalType":"uint256","name":"netAmount","type":"uint256"},{"indexed":false,"internalType":"uint256","name":"fee","type":"uint256"}],"name":"Unstaked","type":"event"},{"inputs":[],"name":"YEAR","outputs":[{"internalType":"uint256","name":"","type":"uint256"}],"stateMutability":"view","type":"function"},{"inputs":[],"name":"apr","outputs":[{"internalType":"uint256","name":"","type":"uint256"}],"stateMutability":"view","type":"function"},{"inputs":[],"name":"aprBps","outputs":[{"internalType":"uint256","name":"","type":"uint256"}],"stateMutability":"view","type":"function"},{"inputs":[],"name":"claim","outputs":[],"stateMutability":"nonpayable","type":"function"},{"inputs":[],"name":"claimFeeBps","outputs":[{"internalType":"uint256","name":"","type":"uint256"}],"stateMutability":"view","type":"function"},{"inputs":[],"name":"depositFeeBps","outputs":[{"internalType":"uint256","name":"","type":"uint256"}],"stateMutability":"view","type":"function"},{"inputs":[],"name":"feeBalance","outputs":[{"internalType":"uint256","name":"","type":"uint256"}],"stateMutability":"view","type":"function"},{"inputs":[{"internalType":"uint256","name":"amount","type":"uint256"}],"name":"fundRewards","outputs":[],"stateMutability":"nonpayable","type":"function"},{"inputs":[],"name":"owner","outputs":[{"internalType":"address","name":"","type":"address"}],"stateMutability":"view","type":"function"},{"inputs":[{"internalType":"address","name":"user","type":"address"}],"name":"pendingRewards","outputs":[{"internalType":"uint256","name":"","type":"uint256"}],"stateMutability":"view","type":"function"},{"inputs":[{"internalType":"address","name":"token","type":"address"},{"internalType":"uint256","name":"amount","type":"uint256"}],"name":"rescueToken","outputs":[],"stateMutability":"nonpayable","type":"function"},{"inputs":[],"name":"rewardPool","outputs":[{"internalType":"uint256","name":"","type":"uint256"}],"stateMutability":"view","type":"function"},{"inputs":[{"internalType":"uint256","name":"_aprBps","type":"uint256"}],"name":"setApr","outputs":[],"stateMutability":"nonpayable","type":"function"},{"inputs":[{"internalType":"uint256","name":"_deposit","type":"uint256"},{"internalType":"uint256","name":"_withdraw","type":"uint256"},{"internalType":"uint256","name":"_claim","type":"uint256"}],"name":"setFees","outputs":[],"stateMutability":"nonpayable","type":"function"},{"inputs":[{"internalType":"uint256","name":"amount","type":"uint256"}],"name":"stake","outputs":[],"stateMutability":"nonpayable","type":"function"},{"inputs":[{"internalType":"address","name":"user","type":"address"}],"name":"stakedBalance","outputs":[{"internalType":"uint256","name":"","type":"uint256"}],"stateMutability":"view","type":"function"},{"inputs":[],"name":"stakingToken","outputs":[{"internalType":"contract IERC20","name":"","type":"address"}],"stateMutability":"view","type":"function"},{"inputs":[],"name":"totalStaked","outputs":[{"internalType":"uint256","name":"","type":"uint256"}],"stateMutability":"view","type":"function"},{"inputs":[{"internalType":"address","name":"_newOwner","type":"address"}],"name":"transferOwnership","outputs":[],"stateMutability":"nonpayable","type":"function"},{"inputs":[{"internalType":"uint256","name":"amount","type":"uint256"}],"name":"unstake","outputs":[],"stateMutability":"nonpayable","type":"function"},{"inputs":[],"name":"withdrawFeeBps","outputs":[{"internalType":"uint256","name":"","type":"uint256"}],"stateMutability":"view","type":"function"},{"inputs":[],"name":"withdrawFees","outputs":[],"stateMutability":"nonpayable","type":"function"}],"evm":{"bytecode":{"linkReferences":{},"object":"6080346100c357601f61124538819003918201601f19168301916001600160401b038311848410176100c85780849260409485528339810103126100c35780516001600160a01b03811691908290036100c357602001519080156100895760018060a01b031933816000541617600055600154161760015560025560405161116690816100df8239f35b60405162461bcd60e51b8152602060048201526012602482015271212a21a419279d103d32b937903a37b5b2b760711b6044820152606490fd5b600080fd5b634e487b7160e01b600052604160045260246000fdfe6080604081815260048036101561001557600080fd5b600092833560e01c90816325ac1df214610e57575080632e17de7814610cea57806331d7a26214610cc457806333f3d62814610b97578063476343ee14610a725780634e71d92d1461080e57806357ded9c9146107ef57806359cee29c14610747578063602172671461070f57806360b71d4e146106f057806366666aa91461062c57806372f702f3146106035780637a526f4e146105e45780637aca2b59146105c7578063817b1cd2146105a857806383914540146105895780638da5cb5b1461056157806393707a191461048f578063a694fc3a1461033c578063ab87982714610319578063cec10c11146101c65763f2fde38b1461011557600080fd5b346101c25760203660031901126101c25761012e610e73565b8354916001600160a01b03808416926101483385146110f0565b1693841561018857505082907f8be0079c531659141344cd1fd0a4f28419497f9722a3daafe3b4186f6b6457e08580a36001600160a01b03191617815580f35b906020606492519162461bcd60e51b8352820152601460248201527342544348324f3a207a65726f206164647265737360601b6044820152fd5b8280fd5b50346101c25760603660031901126101c257803591602435604435926101f660018060a01b0387541633146110f0565b6107d08086116102d6578083116102935784116102505791816060949286947f01bae858246c904512695a3f6d48ab88abb7a0192fdd7c53b043e60317795f4597600355558260055581519384526020840152820152a180f35b606490602084519162461bcd60e51b8352820152601960248201527f42544348324f3a20636c61696d20666565206d617820323025000000000000006044820152fd5b835162461bcd60e51b8152602081840152601c60248201527f42544348324f3a20776974686472617720666565206d617820323025000000006044820152606490fd5b835162461bcd60e51b8152602081840152601b60248201527f42544348324f3a206465706f73697420666565206d61782032302500000000006044820152606490fd5b5050346103385781600319360112610338576020906003549051908152f35b5080fd5b50346101c2576020918260031936011261048b576103c792823590610362821515610e8e565b61036b33610faf565b8061271061037b60035485610ed0565b04926103878482610ef9565b60015486516323b872dd60e01b8152339881019889523060208a015260408901939093529197909688926001600160a01b03169183918b91839160600190565b03925af1948515610481577f1449c6dd7851abc30abf37f57715f492010519147cc2652fbc38202c18a6ee909495610406918891610454575b50610f56565b81610440575b33865260088152828620610421868254610fa2565b905561042f85600654610fa2565b60065582519485528401523392a280f35b61044c82600754610fa2565b60075561040c565b6104749150833d851161047a575b61046c8183610f06565b810190610f3e565b38610400565b503d610462565b83513d88823e3d90fd5b8380fd5b5090346101c25760203660031901126101c2576104f66020833580946104b6821515610e8e565b60015485516323b872dd60e01b8152339281019283523060208401526040830193909352919384926001600160a01b031691839189918391606090910190565b03925af1908115610557579061051291859161053f5750610f56565b519081527f5af8184bef8e4b45eb9f6ed7734d04da38ced226495548f46e0c8ff8d7d9a52460203392a280f35b610474915060203d811161047a5761046c8183610f06565b82513d86823e3d90fd5b505034610338578160031936011261033857905490516001600160a01b039091168152602090f35b505034610338578160031936011261033857602090516301e133808152f35b5050346103385781600319360112610338576020906006549051908152f35b50346101c257826003193601126101c25760209250549051908152f35b5050346103385781600319360112610338576020906005549051908152f35b50503461033857816003193601126103385760015490516001600160a01b039091168152602090f35b5091346106ed57806003193601126106ed5760015482516370a0823160e01b81523094810194909452602090849060249082906001600160a01b03165afa80156106e15781906106ad575b6020935061068a60065460075490610fa2565b90818111156106a55761069d9250610ef9565b905b51908152f35b50509061069f565b50916020813d82116106d9575b816106c760209383610f06565b810103126101c2579160209251610677565b3d91506106ba565b509051903d90823e3d90fd5b80fd5b5050346103385781600319360112610338576020906007549051908152f35b5050346103385760203660031901126103385760209181906001600160a01b03610737610e73565b1681526008845220549051908152f35b5090346101c25760203660031901126101c25781359161077160018060a01b0385541633146110f0565b620186a083116107ad5750816020917f255ab19e375a5b5dc7b35b2afa98fce75881b45b93ed72721caab22e3ce7f9899360025551908152a180f35b6020606492519162461bcd60e51b8352820152601a60248201527f42544348324f3a204150522064656d61736961646f20616c746f0000000000006044820152fd5b5050346103385781600319360112610338576020906002549051908152f35b5091903461033857816003193601126103385761082a33610faf565b33825260209060088252600281842001918254908115610a305761085e61271061085660055485610ed0565b048093610ef9565b60015484516370a0823160e01b8152308982015291956001600160a01b0392909184908290602490829087165afa908115610a265788916109f5575b50600654906108b5886108b06007548095610fa2565b610fa2565b11610981579783928888936109049a9b888061096e575b505055600154875163a9059cbb60e01b815233938101938452602084019490945292988993919091169183918b918391604090910190565b03925af1948515610481577f987d620f307ff6b94d58743cb7a7509f24071586a77759b77c2d4e29f75a2f9a9495610943918891610951575b5061102e565b82519485528401523392a280f35b6109689150833d851161047a5761046c8183610f06565b3861093d565b61097791610fa2565b60075538886108cc565b855162461bcd60e51b8152808a01859052604260248201527f42544348324f3a20696e73756666696369656e74207265776172642062616c6160448201527f6e6365202d206f776e6572206d7573742066756e642074686520636f6e74726160648201526118dd60f21b608482015260a490fd5b90508381813d8311610a1f575b610a0c8183610f06565b81010312610a1b57513861089a565b8780fd5b503d610a02565b86513d8a823e3d90fd5b8560649184519162461bcd60e51b8352820152601860248201527f42544348324f3a206e6f7468696e6720746f20636c61696d00000000000000006044820152fd5b5091903461033857816003193601126103385781546001600160a01b03908116610a9d3382146110f0565b600754908115610b54576007859055600154845163a9059cbb60e01b81526001600160a01b039092169682019687526020878101849052959694959194859185169082908990829060400103925af1918215610b4a57610b276020937f78473f3f373f7673597f4f0fa5873cb4d375fea6d4339ad6b56dbd411513cb3f958891610b33575061102e565b8554169351908152a280f35b6109689150853d811161047a5761046c8183610f06565b84513d87823e3d90fd5b835162461bcd60e51b8152602081880152601b60248201527f42544348324f3a206e6f206665657320746f20776974686472617700000000006044820152606490fd5b50346101c257816003193601126101c257610bb0610e73565b83546001600160a01b0390811690610bc93383146110f0565b80600154169216918214801590610cba575b15610c5157835163a9059cbb60e01b81526001600160a01b039091169281019283526024356020848101919091529093929091849182908790829060400103925af1908115610c485750610c2d575080f35b610c449060203d811161047a5761046c8183610f06565b5080f35b513d84823e3d90fd5b835162461bcd60e51b8152602081850152603a60248201527f42544348324f3a2063616e6e6f7420726573637565207374616b696e6720746f60448201527f6b656e207768696c6520757365727320617265207374616b65640000000000006064820152608490fd5b5060065415610bdb565b5050346103385760203660031901126103385760209061069d610ce5610e73565b61107a565b5082903461033857602092836003193601126101c25781353384526008855281842094610d18821515610e8e565b81865410610e1557610da69495610d2e33610faf565b610d39838254610ef9565b9055610d4782600654610ef9565b60065580610d64612710610d5c875486610ed0565b048094610ef9565b809584610e01575b600154865163a9059cbb60e01b8152339281019283526020830193909352919788926001600160a01b03169183918b918391604090910190565b03925af1948515610481577f7fc4727e062e336010f2c282598ef5f14facb3de68cf8195c2f23e1454b2b74e9495610943918891610de4575061102e565b610dfb9150833d851161047a5761046c8183610f06565b8861093d565b610e0d85600754610fa2565b600755610d6c565b8360649184519162461bcd60e51b8352820152601a60248201527f42544348324f3a20696e73756666696369656e74207374616b650000000000006044820152fd5b8490346103385781600319360112610338576020906002548152f35b600435906001600160a01b0382168203610e8957565b600080fd5b15610e9557565b60405162461bcd60e51b8152602060048201526013602482015272109510d20c93ce881e995c9bc8185b5bdd5b9d606a1b6044820152606490fd5b81810292918115918404141715610ee357565b634e487b7160e01b600052601160045260246000fd5b91908203918211610ee357565b90601f8019910116810190811067ffffffffffffffff821117610f2857604052565b634e487b7160e01b600052604160045260246000fd5b90816020910312610e8957518015158103610e895790565b15610f5d57565b60405162461bcd60e51b815260206004820152601b60248201527f42544348324f3a207472616e7366657246726f6d206661696c656400000000006044820152606490fd5b91908201809211610ee357565b6001600160a01b03166000908152600860205260409020805480151580611021575b610fdf575b50600142910155565b61100964496cebb80091611004610ffa600186015442610ef9565b9160025490610ed0565b610ed0565b0461101960028301918254610fa2565b905538610fd6565b5060018201541515610fd1565b1561103557565b60405162461bcd60e51b815260206004820152601760248201527f42544348324f3a207472616e73666572206661696c65640000000000000000006044820152606490fd5b6001600160a01b0316600090815260086020526040902080549081156110e757600264496cebb8006110cf6110d894600185015480156000146110db57506110046110c6425b42610ef9565b91855490610ed0565b04910154610fa2565b90565b6110c6611004916110c0565b60029150015490565b156110f757565b60405162461bcd60e51b8152602060048201526011602482015270212a21a419279d103737ba1037bbb732b960791b6044820152606490fdfea264697066735822122045de55a736b8199d208c5e620e7ac5563172661be0a35bdc9629b9932c34582e64736f6c63430008140033","opcodes":"PUSH1 0x80 CALLVALUE PUSH2 0xC3 JUMPI PUSH1 0x1F PUSH2 0x1245 CODESIZE DUP2 SWAP1 SUB SWAP2 DUP3 ADD PUSH1 0x1F NOT AND DUP4 ADD SWAP2 PUSH1 0x1 PUSH1 0x1 PUSH1 0x40 SHL SUB DUP4 GT DUP5 DUP5 LT OR PUSH2 0xC8 JUMPI DUP1 DUP5 SWAP3 PUSH1 0x40 SWAP5 DUP6 MSTORE DUP4 CODECOPY DUP2 ADD SUB SLT PUSH2 0xC3 JUMPI DUP1 MLOAD PUSH1 0x1 PUSH1 0x1 PUSH1 0xA0 SHL SUB DUP2 AND SWAP2 SWAP1 DUP3 SWAP1 SUB PUSH2 0xC3 JUMPI PUSH1 0x20 ADD MLOAD SWAP1 DUP1 ISZERO PUSH2 0x89 JUMPI PUSH1 0x1 DUP1 PUSH1 0xA0 SHL SUB NOT CALLER DUP2 PUSH1 0x0 SLOAD AND OR PUSH1 0x0 SSTORE PUSH1 0x1 SLOAD AND OR PUSH1 0x1 SSTORE PUSH1 0x2 SSTORE PUSH1 0x40 MLOAD PUSH2 0x1166 SWAP1 DUP2 PUSH2 0xDF DUP3 CODECOPY RETURN JUMPDEST PUSH1 0x40 MLOAD PUSH3 0x461BCD PUSH1 0xE5 SHL DUP2 MSTORE PUSH1 0x20 PUSH1 0x4 DUP3 ADD MSTORE PUSH1 0x12 PUSH1 0x24 DUP3 ADD MSTORE PUSH18 0x212A21A419279D103D32B937903A37B5B2B7 PUSH1 0x71 SHL PUSH1 0x44 DUP3 ADD MSTORE PUSH1 0x64 SWAP1 REVERT JUMPDEST PUSH1 0x0 DUP1 REVERT JUMPDEST PUSH4 0x4E487B71 PUSH1 0xE0 SHL PUSH1 0x0 MSTORE PUSH1 0x41 PUSH1 0x4 MSTORE PUSH1 0x24 PUSH1 0x0 REVERT INVALID PUSH1 0x80 PUSH1 0x40 DUP2 DUP2 MSTORE PUSH1 0x4 DUP1 CALLDATASIZE LT ISZERO PUSH2 0x15 JUMPI PUSH1 0x0 DUP1 REVERT JUMPDEST PUSH1 0x0 SWAP3 DUP4 CALLDATALOAD PUSH1 0xE0 SHR SWAP1 DUP2 PUSH4 0x25AC1DF2 EQ PUSH2 0xE57 JUMPI POP DUP1 PUSH4 0x2E17DE78 EQ PUSH2 0xCEA JUMPI DUP1 PUSH4 0x31D7A262 EQ PUSH2 0xCC4 JUMPI DUP1 PUSH4 0x33F3D628 EQ PUSH2 0xB97 JUMPI DUP1 PUSH4 0x476343EE EQ PUSH2 0xA72 JUMPI DUP1 PUSH4 0x4E71D92D EQ PUSH2 0x80E JUMPI DUP1 PUSH4 0x57DED9C9 EQ PUSH2 0x7EF JUMPI DUP1 PUSH4 0x59CEE29C EQ PUSH2 0x747 JUMPI DUP1 PUSH4 0x60217267 EQ PUSH2 0x70F JUMPI DUP1 PUSH4 0x60B71D4E EQ PUSH2 0x6F0 JUMPI DUP1 PUSH4 0x66666AA9 EQ PUSH2 0x62C JUMPI DUP1 PUSH4 0x72F702F3 EQ PUSH2 0x603 JUMPI DUP1 PUSH4 0x7A526F4E EQ PUSH2 0x5E4 JUMPI DUP1 PUSH4 0x7ACA2B59 EQ PUSH2 0x5C7 JUMPI DUP1 PUSH4 0x817B1CD2 EQ PUSH2 0x5A8 JUMPI DUP1 PUSH4 0x83914540 EQ PUSH2 0x589 JUMPI DUP1 PUSH4 0x8DA5CB5B EQ PUSH2 0x561 JUMPI DUP1 PUSH4 0x93707A19 EQ PUSH2 0x48F JUMPI DUP1 PUSH4 0xA694FC3A EQ PUSH2 0x33C JUMPI DUP1 PUSH4 0xAB879827 EQ PUSH2 0x319 JUMPI DUP1 PUSH4 0xCEC10C11 EQ PUSH2 0x1C6 JUMPI PUSH4 0xF2FDE38B EQ PUSH2 0x115 JUMPI PUSH1 0x0 DUP1 REVERT JUMPDEST CALLVALUE PUSH2 0x1C2 JUMPI PUSH1 0x20 CALLDATASIZE PUSH1 0x3 NOT ADD SLT PUSH2 0x1C2 JUMPI PUSH2 0x12E PUSH2 0xE73 JUMP JUMPDEST DUP4 SLOAD SWAP2 PUSH1 0x1 PUSH1 0x1 PUSH1 0xA0 SHL SUB DUP1 DUP5 AND SWAP3 PUSH2 0x148 CALLER DUP6 EQ PUSH2 0x10F0 JUMP JUMPDEST AND SWAP4 DUP5 ISZERO PUSH2 0x188 JUMPI POP POP DUP3 SWAP1 PUSH32 0x8BE0079C531659141344CD1FD0A4F28419497F9722A3DAAFE3B4186F6B6457E0 DUP6 DUP1 LOG3 PUSH1 0x1 PUSH1 0x1 PUSH1 0xA0 SHL SUB NOT AND OR DUP2 SSTORE DUP1 RETURN JUMPDEST SWAP1 PUSH1 0x20 PUSH1 0x64 SWAP3 MLOAD SWAP2 PUSH3 0x461BCD PUSH1 0xE5 SHL DUP4 MSTORE DUP3 ADD MSTORE PUSH1 0x14 PUSH1 0x24 DUP3 ADD MSTORE PUSH20 0x42544348324F3A207A65726F2061646472657373 PUSH1 0x60 SHL PUSH1 0x44 DUP3 ADD MSTORE REVERT JUMPDEST DUP3 DUP1 REVERT JUMPDEST POP CALLVALUE PUSH2 0x1C2 JUMPI PUSH1 0x60 CALLDATASIZE PUSH1 0x3 NOT ADD SLT PUSH2 0x1C2 JUMPI DUP1 CALLDATALOAD SWAP2 PUSH1 0x24 CALLDATALOAD PUSH1 0x44 CALLDATALOAD SWAP3 PUSH2 0x1F6 PUSH1 0x1 DUP1 PUSH1 0xA0 SHL SUB DUP8 SLOAD AND CALLER EQ PUSH2 0x10F0 JUMP JUMPDEST PUSH2 0x7D0 DUP1 DUP7 GT PUSH2 0x2D6 JUMPI DUP1 DUP4 GT PUSH2 0x293 JUMPI DUP5 GT PUSH2 0x250 JUMPI SWAP2 DUP2 PUSH1 0x60 SWAP5 SWAP3 DUP7 SWAP5 PUSH32 0x1BAE858246C904512695A3F6D48AB88ABB7A0192FDD7C53B043E60317795F45 SWAP8 PUSH1 0x3 SSTORE SSTORE DUP3 PUSH1 0x5 SSTORE DUP2 MLOAD SWAP4 DUP5 MSTORE PUSH1 0x20 DUP5 ADD MSTORE DUP3 ADD MSTORE LOG1 DUP1 RETURN JUMPDEST PUSH1 0x64 SWAP1 PUSH1 0x20 DUP5 MLOAD SWAP2 PUSH3 0x461BCD PUSH1 0xE5 SHL DUP4 MSTORE DUP3 ADD MSTORE PUSH1 0x19 PUSH1 0x24 DUP3 ADD MSTORE PUSH32 0x42544348324F3A20636C61696D20666565206D61782032302500000000000000 PUSH1 0x44 DUP3 ADD MSTORE REVERT JUMPDEST DUP4 MLOAD PUSH3 0x461BCD PUSH1 0xE5 SHL DUP2 MSTORE PUSH1 0x20 DUP2 DUP5 ADD MSTORE PUSH1 0x1C PUSH1 0x24 DUP3 ADD MSTORE PUSH32 0x42544348324F3A20776974686472617720666565206D61782032302500000000 PUSH1 0x44 DUP3 ADD MSTORE PUSH1 0x64 SWAP1 REVERT JUMPDEST DUP4 MLOAD PUSH3 0x461BCD PUSH1 0xE5 SHL DUP2 MSTORE PUSH1 0x20 DUP2 DUP5 ADD MSTORE PUSH1 0x1B PUSH1 0x24 DUP3 ADD MSTORE PUSH32 0x42544348324F3A206465706F73697420666565206D6178203230250000000000 PUSH1 0x44 DUP3 ADD MSTORE PUSH1 0x64 SWAP1 REVERT JUMPDEST POP POP CALLVALUE PUSH2 0x338 JUMPI DUP2 PUSH1 0x3 NOT CALLDATASIZE ADD SLT PUSH2 0x338 JUMPI PUSH1 0x20 SWAP1 PUSH1 0x3 SLOAD SWAP1 MLOAD SWAP1 DUP2 MSTORE RETURN JUMPDEST POP DUP1 REVERT JUMPDEST POP CALLVALUE PUSH2 0x1C2 JUMPI PUSH1 0x20 SWAP2 DUP3 PUSH1 0x3 NOT CALLDATASIZE ADD SLT PUSH2 0x48B JUMPI PUSH2 0x3C7 SWAP3 DUP3 CALLDATALOAD SWAP1 PUSH2 0x362 DUP3 ISZERO ISZERO PUSH2 0xE8E JUMP JUMPDEST PUSH2 0x36B CALLER PUSH2 0xFAF JUMP JUMPDEST DUP1 PUSH2 0x2710 PUSH2 0x37B PUSH1 0x3 SLOAD DUP6 PUSH2 0xED0 JUMP JUMPDEST DIV SWAP3 PUSH2 0x387 DUP5 DUP3 PUSH2 0xEF9 JUMP JUMPDEST PUSH1 0x1 SLOAD DUP7 MLOAD PUSH4 0x23B872DD PUSH1 0xE0 SHL DUP2 MSTORE CALLER SWAP9 DUP2 ADD SWAP9 DUP10 MSTORE ADDRESS PUSH1 0x20 DUP11 ADD MSTORE PUSH1 0x40 DUP10 ADD SWAP4 SWAP1 SWAP4 MSTORE SWAP2 SWAP8 SWAP1 SWAP7 DUP9 SWAP3 PUSH1 0x1 PUSH1 0x1 PUSH1 0xA0 SHL SUB AND SWAP2 DUP4 SWAP2 DUP12 SWAP2 DUP4 SWAP2 PUSH1 0x60 ADD SWAP1 JUMP JUMPDEST SUB SWAP3 GAS CALL SWAP5 DUP6 ISZERO PUSH2 0x481 JUMPI PUSH32 0x1449C6DD7851ABC30ABF37F57715F492010519147CC2652FBC38202C18A6EE90 SWAP5 SWAP6 PUSH2 0x406 SWAP2 DUP9 SWAP2 PUSH2 0x454 JUMPI JUMPDEST POP PUSH2 0xF56 JUMP JUMPDEST DUP2 PUSH2 0x440 JUMPI JUMPDEST CALLER DUP7 MSTORE PUSH1 0x8 DUP2 MSTORE DUP3 DUP7 KECCAK256 PUSH2 0x421 DUP7 DUP3 SLOAD PUSH2 0xFA2 JUMP JUMPDEST SWAP1 SSTORE PUSH2 0x42F DUP6 PUSH1 0x6 SLOAD PUSH2 0xFA2 JUMP JUMPDEST PUSH1 0x6 SSTORE DUP3 MLOAD SWAP5 DUP6 MSTORE DUP5 ADD MSTORE CALLER SWAP3 LOG2 DUP1 RETURN JUMPDEST PUSH2 0x44C DUP3 PUSH1 0x7 SLOAD PUSH2 0xFA2 JUMP JUMPDEST PUSH1 0x7 SSTORE PUSH2 0x40C JUMP JUMPDEST PUSH2 0x474 SWAP2 POP DUP4 RETURNDATASIZE DUP6 GT PUSH2 0x47A JUMPI JUMPDEST PUSH2 0x46C DUP2 DUP4 PUSH2 0xF06 JUMP JUMPDEST DUP2 ADD SWAP1 PUSH2 0xF3E JUMP JUMPDEST CODESIZE PUSH2 0x400 JUMP JUMPDEST POP RETURNDATASIZE PUSH2 0x462 JUMP JUMPDEST DUP4 MLOAD RETURNDATASIZE DUP9 DUP3 RETURNDATACOPY RETURNDATASIZE SWAP1 REVERT JUMPDEST DUP4 DUP1 REVERT JUMPDEST POP SWAP1 CALLVALUE PUSH2 0x1C2 JUMPI PUSH1 0x20 CALLDATASIZE PUSH1 0x3 NOT ADD SLT PUSH2 0x1C2 JUMPI PUSH2 0x4F6 PUSH1 0x20 DUP4 CALLDATALOAD DUP1 SWAP5 PUSH2 0x4B6 DUP3 ISZERO ISZERO PUSH2 0xE8E JUMP JUMPDEST PUSH1 0x1 SLOAD DUP6 MLOAD PUSH4 0x23B872DD PUSH1 0xE0 SHL DUP2 MSTORE CALLER SWAP3 DUP2 ADD SWAP3 DUP4 MSTORE ADDRESS PUSH1 0x20 DUP5 ADD MSTORE PUSH1 0x40 DUP4 ADD SWAP4 SWAP1 SWAP4 MSTORE SWAP2 SWAP4 DUP5 SWAP3 PUSH1 0x1 PUSH1 0x1 PUSH1 0xA0 SHL SUB AND SWAP2 DUP4 SWAP2 DUP10 SWAP2 DUP4 SWAP2 PUSH1 0x60 SWAP1 SWAP2 ADD SWAP1 JUMP JUMPDEST SUB SWAP3 GAS CALL SWAP1 DUP2 ISZERO PUSH2 0x557 JUMPI SWAP1 PUSH2 0x512 SWAP2 DUP6 SWAP2 PUSH2 0x53F JUMPI POP PUSH2 0xF56 JUMP JUMPDEST MLOAD SWAP1 DUP2 MSTORE PUSH32 0x5AF8184BEF8E4B45EB9F6ED7734D04DA38CED226495548F46E0C8FF8D7D9A524 PUSH1 0x20 CALLER SWAP3 LOG2 DUP1 RETURN JUMPDEST PUSH2 0x474 SWAP2 POP PUSH1 0x20 RETURNDATASIZE DUP2 GT PUSH2 0x47A JUMPI PUSH2 0x46C DUP2 DUP4 PUSH2 0xF06 JUMP JUMPDEST DUP3 MLOAD RETURNDATASIZE DUP7 DUP3 RETURNDATACOPY RETURNDATASIZE SWAP1 REVERT JUMPDEST POP POP CALLVALUE PUSH2 0x338 JUMPI DUP2 PUSH1 0x3 NOT CALLDATASIZE ADD SLT PUSH2 0x338 JUMPI SWAP1 SLOAD SWAP1 MLOAD PUSH1 0x1 PUSH1 0x1 PUSH1 0xA0 SHL SUB SWAP1 SWAP2 AND DUP2 MSTORE PUSH1 0x20 SWAP1 RETURN JUMPDEST POP POP CALLVALUE PUSH2 0x338 JUMPI DUP2 PUSH1 0x3 NOT CALLDATASIZE ADD SLT PUSH2 0x338 JUMPI PUSH1 0x20 SWAP1 MLOAD PUSH4 0x1E13380 DUP2 MSTORE RETURN JUMPDEST POP POP CALLVALUE PUSH2 0x338 JUMPI DUP2 PUSH1 0x3 NOT CALLDATASIZE ADD SLT PUSH2 0x338 JUMPI PUSH1 0x20 SWAP1 PUSH1 0x6 SLOAD SWAP1 MLOAD SWAP1 DUP2 MSTORE RETURN JUMPDEST POP CALLVALUE PUSH2 0x1C2 JUMPI DUP3 PUSH1 0x3 NOT CALLDATASIZE ADD SLT PUSH2 0x1C2 JUMPI PUSH1 0x20 SWAP3 POP SLOAD SWAP1 MLOAD SWAP1 DUP2 MSTORE RETURN JUMPDEST POP POP CALLVALUE PUSH2 0x338 JUMPI DUP2 PUSH1 0x3 NOT CALLDATASIZE ADD SLT PUSH2 0x338 JUMPI PUSH1 0x20 SWAP1 PUSH1 0x5 SLOAD SWAP1 MLOAD SWAP1 DUP2 MSTORE RETURN JUMPDEST POP POP CALLVALUE PUSH2 0x338 JUMPI DUP2 PUSH1 0x3 NOT CALLDATASIZE ADD SLT PUSH2 0x338 JUMPI PUSH1 0x1 SLOAD SWAP1 MLOAD PUSH1 0x1 PUSH1 0x1 PUSH1 0xA0 SHL SUB SWAP1 SWAP2 AND DUP2 MSTORE PUSH1 0x20 SWAP1 RETURN JUMPDEST POP SWAP2 CALLVALUE PUSH2 0x6ED JUMPI DUP1 PUSH1 0x3 NOT CALLDATASIZE ADD SLT PUSH2 0x6ED JUMPI PUSH1 0x1 SLOAD DUP3 MLOAD PUSH4 0x70A08231 PUSH1 0xE0 SHL DUP2 MSTORE ADDRESS SWAP5 DUP2 ADD SWAP5 SWAP1 SWAP5 MSTORE PUSH1 0x20 SWAP1 DUP5 SWAP1 PUSH1 0x24 SWAP1 DUP3 SWAP1 PUSH1 0x1 PUSH1 0x1 PUSH1 0xA0 SHL SUB AND GAS STATICCALL DUP1 ISZERO PUSH2 0x6E1 JUMPI DUP2 SWAP1 PUSH2 0x6AD JUMPI JUMPDEST PUSH1 0x20 SWAP4 POP PUSH2 0x68A PUSH1 0x6 SLOAD PUSH1 0x7 SLOAD SWAP1 PUSH2 0xFA2 JUMP JUMPDEST SWAP1 DUP2 DUP2 GT ISZERO PUSH2 0x6A5 JUMPI PUSH2 0x69D SWAP3 POP PUSH2 0xEF9 JUMP JUMPDEST SWAP1 JUMPDEST MLOAD SWAP1 DUP2 MSTORE RETURN JUMPDEST POP POP SWAP1 PUSH2 0x69F JUMP JUMPDEST POP SWAP2 PUSH1 0x20 DUP2 RETURNDATASIZE DUP3 GT PUSH2 0x6D9 JUMPI JUMPDEST DUP2 PUSH2 0x6C7 PUSH1 0x20 SWAP4 DUP4 PUSH2 0xF06 JUMP JUMPDEST DUP2 ADD SUB SLT PUSH2 0x1C2 JUMPI SWAP2 PUSH1 0x20 SWAP3 MLOAD PUSH2 0x677 JUMP JUMPDEST RETURNDATASIZE SWAP2 POP PUSH2 0x6BA JUMP JUMPDEST POP SWAP1 MLOAD SWAP1 RETURNDATASIZE SWAP1 DUP3 RETURNDATACOPY RETURNDATASIZE SWAP1 REVERT JUMPDEST DUP1 REVERT JUMPDEST POP POP CALLVALUE PUSH2 0x338 JUMPI DUP2 PUSH1 0x3 NOT CALLDATASIZE ADD SLT PUSH2 0x338 JUMPI PUSH1 0x20 SWAP1 PUSH1 0x7 SLOAD SWAP1 MLOAD SWAP1 DUP2 MSTORE RETURN JUMPDEST POP POP CALLVALUE PUSH2 0x338 JUMPI PUSH1 0x20 CALLDATASIZE PUSH1 0x3 NOT ADD SLT PUSH2 0x338 JUMPI PUSH1 0x20 SWAP2 DUP2 SWAP1 PUSH1 0x1 PUSH1 0x1 PUSH1 0xA0 SHL SUB PUSH2 0x737 PUSH2 0xE73 JUMP JUMPDEST AND DUP2 MSTORE PUSH1 0x8 DUP5 MSTORE KECCAK256 SLOAD SWAP1 MLOAD SWAP1 DUP2 MSTORE RETURN JUMPDEST POP SWAP1 CALLVALUE PUSH2 0x1C2 JUMPI PUSH1 0x20 CALLDATASIZE PUSH1 0x3 NOT ADD SLT PUSH2 0x1C2 JUMPI DUP2 CALLDATALOAD SWAP2 PUSH2 0x771 PUSH1 0x1 DUP1 PUSH1 0xA0 SHL SUB DUP6 SLOAD AND CALLER EQ PUSH2 0x10F0 JUMP JUMPDEST PUSH3 0x186A0 DUP4 GT PUSH2 0x7AD JUMPI POP DUP2 PUSH1 0x20 SWAP2 PUSH32 0x255AB19E375A5B5DC7B35B2AFA98FCE75881B45B93ED72721CAAB22E3CE7F989 SWAP4 PUSH1 0x2 SSTORE MLOAD SWAP1 DUP2 MSTORE LOG1 DUP1 RETURN JUMPDEST PUSH1 0x20 PUSH1 0x64 SWAP3 MLOAD SWAP2 PUSH3 0x461BCD PUSH1 0xE5 SHL DUP4 MSTORE DUP3 ADD MSTORE PUSH1 0x1A PUSH1 0x24 DUP3 ADD MSTORE PUSH32 0x42544348324F3A204150522064656D61736961646F20616C746F000000000000 PUSH1 0x44 DUP3 ADD MSTORE REVERT JUMPDEST POP POP CALLVALUE PUSH2 0x338 JUMPI DUP2 PUSH1 0x3 NOT CALLDATASIZE ADD SLT PUSH2 0x338 JUMPI PUSH1 0x20 SWAP1 PUSH1 0x2 SLOAD SWAP1 MLOAD SWAP1 DUP2 MSTORE RETURN JUMPDEST POP SWAP2 SWAP1 CALLVALUE PUSH2 0x338 JUMPI DUP2 PUSH1 0x3 NOT CALLDATASIZE ADD SLT PUSH2 0x338 JUMPI PUSH2 0x82A CALLER PUSH2 0xFAF JUMP JUMPDEST CALLER DUP3 MSTORE PUSH1 0x20 SWAP1 PUSH1 0x8 DUP3 MSTORE PUSH1 0x2 DUP2 DUP5 KECCAK256 ADD SWAP2 DUP3 SLOAD SWAP1 DUP2 ISZERO PUSH2 0xA30 JUMPI PUSH2 0x85E PUSH2 0x2710 PUSH2 0x856 PUSH1 0x5 SLOAD DUP6 PUSH2 0xED0 JUMP JUMPDEST DIV DUP1 SWAP4 PUSH2 0xEF9 JUMP JUMPDEST PUSH1 0x1 SLOAD DUP5 MLOAD PUSH4 0x70A08231 PUSH1 0xE0 SHL DUP2 MSTORE ADDRESS DUP10 DUP3 ADD MSTORE SWAP2 SWAP6 PUSH1 0x1 PUSH1 0x1 PUSH1 0xA0 SHL SUB SWAP3 SWAP1 SWAP2 DUP5 SWAP1 DUP3 SWAP1 PUSH1 0x24 SWAP1 DUP3 SWAP1 DUP8 AND GAS STATICCALL SWAP1 DUP2 ISZERO PUSH2 0xA26 JUMPI DUP9 SWAP2 PUSH2 0x9F5 JUMPI JUMPDEST POP PUSH1 0x6 SLOAD SWAP1 PUSH2 0x8B5 DUP9 PUSH2 0x8B0 PUSH1 0x7 SLOAD DUP1 SWAP6 PUSH2 0xFA2 JUMP JUMPDEST PUSH2 0xFA2 JUMP JUMPDEST GT PUSH2 0x981 JUMPI SWAP8 DUP4 SWAP3 DUP9 DUP9 SWAP4 PUSH2 0x904 SWAP11 SWAP12 DUP9 DUP1 PUSH2 0x96E JUMPI JUMPDEST POP POP SSTORE PUSH1 0x1 SLOAD DUP8 MLOAD PUSH4 0xA9059CBB PUSH1 0xE0 SHL DUP2 MSTORE CALLER SWAP4 DUP2 ADD SWAP4 DUP5 MSTORE PUSH1 0x20 DUP5 ADD SWAP5 SWAP1 SWAP5 MSTORE SWAP3 SWAP9 DUP10 SWAP4 SWAP2 SWAP1 SWAP2 AND SWAP2 DUP4 SWAP2 DUP12 SWAP2 DUP4 SWAP2 PUSH1 0x40 SWAP1 SWAP2 ADD SWAP1 JUMP JUMPDEST SUB SWAP3 GAS CALL SWAP5 DUP6 ISZERO PUSH2 0x481 JUMPI PUSH32 0x987D620F307FF6B94D58743CB7A7509F24071586A77759B77C2D4E29F75A2F9A SWAP5 SWAP6 PUSH2 0x943 SWAP2 DUP9 SWAP2 PUSH2 0x951 JUMPI JUMPDEST POP PUSH2 0x102E JUMP JUMPDEST DUP3 MLOAD SWAP5 DUP6 MSTORE DUP5 ADD MSTORE CALLER SWAP3 LOG2 DUP1 RETURN JUMPDEST PUSH2 0x968 SWAP2 POP DUP4 RETURNDATASIZE DUP6 GT PUSH2 0x47A JUMPI PUSH2 0x46C DUP2 DUP4 PUSH2 0xF06 JUMP JUMPDEST CODESIZE PUSH2 0x93D JUMP JUMPDEST PUSH2 0x977 SWAP2 PUSH2 0xFA2 JUMP JUMPDEST PUSH1 0x7 SSTORE CODESIZE DUP9 PUSH2 0x8CC JUMP JUMPDEST DUP6 MLOAD PUSH3 0x461BCD PUSH1 0xE5 SHL DUP2 MSTORE DUP1 DUP11 ADD DUP6 SWAP1 MSTORE PUSH1 0x42 PUSH1 0x24 DUP3 ADD MSTORE PUSH32 0x42544348324F3A20696E73756666696369656E74207265776172642062616C61 PUSH1 0x44 DUP3 ADD MSTORE PUSH32 0x6E6365202D206F776E6572206D7573742066756E642074686520636F6E747261 PUSH1 0x64 DUP3 ADD MSTORE PUSH2 0x18DD PUSH1 0xF2 SHL PUSH1 0x84 DUP3 ADD MSTORE PUSH1 0xA4 SWAP1 REVERT JUMPDEST SWAP1 POP DUP4 DUP2 DUP2 RETURNDATASIZE DUP4 GT PUSH2 0xA1F JUMPI JUMPDEST PUSH2 0xA0C DUP2 DUP4 PUSH2 0xF06 JUMP JUMPDEST DUP2 ADD SUB SLT PUSH2 0xA1B JUMPI MLOAD CODESIZE PUSH2 0x89A JUMP JUMPDEST DUP8 DUP1 REVERT JUMPDEST POP RETURNDATASIZE PUSH2 0xA02 JUMP JUMPDEST DUP7 MLOAD RETURNDATASIZE DUP11 DUP3 RETURNDATACOPY RETURNDATASIZE SWAP1 REVERT JUMPDEST DUP6 PUSH1 0x64 SWAP2 DUP5 MLOAD SWAP2 PUSH3 0x461BCD PUSH1 0xE5 SHL DUP4 MSTORE DUP3 ADD MSTORE PUSH1 0x18 PUSH1 0x24 DUP3 ADD MSTORE PUSH32 0x42544348324F3A206E6F7468696E6720746F20636C61696D0000000000000000 PUSH1 0x44 DUP3 ADD MSTORE REVERT JUMPDEST POP SWAP2 SWAP1 CALLVALUE PUSH2 0x338 JUMPI DUP2 PUSH1 0x3 NOT CALLDATASIZE ADD SLT PUSH2 0x338 JUMPI DUP2 SLOAD PUSH1 0x1 PUSH1 0x1 PUSH1 0xA0 SHL SUB SWAP1 DUP2 AND PUSH2 0xA9D CALLER DUP3 EQ PUSH2 0x10F0 JUMP JUMPDEST PUSH1 0x7 SLOAD SWAP1 DUP2 ISZERO PUSH2 0xB54 JUMPI PUSH1 0x7 DUP6 SWAP1 SSTORE PUSH1 0x1 SLOAD DUP5 MLOAD PUSH4 0xA9059CBB PUSH1 0xE0 SHL DUP2 MSTORE PUSH1 0x1 PUSH1 0x1 PUSH1 0xA0 SHL SUB SWAP1 SWAP3 AND SWAP7 DUP3 ADD SWAP7 DUP8 MSTORE PUSH1 0x20 DUP8 DUP2 ADD DUP5 SWAP1 MSTORE SWAP6 SWAP7 SWAP5 SWAP6 SWAP2 SWAP5 DUP6 SWAP2 DUP6 AND SWAP1 DUP3 SWAP1 DUP10 SWAP1 DUP3 SWAP1 PUSH1 0x40 ADD SUB SWAP3 GAS CALL SWAP2 DUP3 ISZERO PUSH2 0xB4A JUMPI PUSH2 0xB27 PUSH1 0x20 SWAP4 PUSH32 0x78473F3F373F7673597F4F0FA5873CB4D375FEA6D4339AD6B56DBD411513CB3F SWAP6 DUP9 SWAP2 PUSH2 0xB33 JUMPI POP PUSH2 0x102E JUMP JUMPDEST DUP6 SLOAD AND SWAP4 MLOAD SWAP1 DUP2 MSTORE LOG2 DUP1 RETURN JUMPDEST PUSH2 0x968 SWAP2 POP DUP6 RETURNDATASIZE DUP2 GT PUSH2 0x47A JUMPI PUSH2 0x46C DUP2 DUP4 PUSH2 0xF06 JUMP JUMPDEST DUP5 MLOAD RETURNDATASIZE DUP8 DUP3 RETURNDATACOPY RETURNDATASIZE SWAP1 REVERT JUMPDEST DUP4 MLOAD PUSH3 0x461BCD PUSH1 0xE5 SHL DUP2 MSTORE PUSH1 0x20 DUP2 DUP9 ADD MSTORE PUSH1 0x1B PUSH1 0x24 DUP3 ADD MSTORE PUSH32 0x42544348324F3A206E6F206665657320746F2077697468647261770000000000 PUSH1 0x44 DUP3 ADD MSTORE PUSH1 0x64 SWAP1 REVERT JUMPDEST POP CALLVALUE PUSH2 0x1C2 JUMPI DUP2 PUSH1 0x3 NOT CALLDATASIZE ADD SLT PUSH2 0x1C2 JUMPI PUSH2 0xBB0 PUSH2 0xE73 JUMP JUMPDEST DUP4 SLOAD PUSH1 0x1 PUSH1 0x1 PUSH1 0xA0 SHL SUB SWAP1 DUP2 AND SWAP1 PUSH2 0xBC9 CALLER DUP4 EQ PUSH2 0x10F0 JUMP JUMPDEST DUP1 PUSH1 0x1 SLOAD AND SWAP3 AND SWAP2 DUP3 EQ DUP1 ISZERO SWAP1 PUSH2 0xCBA JUMPI JUMPDEST ISZERO PUSH2 0xC51 JUMPI DUP4 MLOAD PUSH4 0xA9059CBB PUSH1 0xE0 SHL DUP2 MSTORE PUSH1 0x1 PUSH1 0x1 PUSH1 0xA0 SHL SUB SWAP1 SWAP2 AND SWAP3 DUP2 ADD SWAP3 DUP4 MSTORE PUSH1 0x24 CALLDATALOAD PUSH1 0x20 DUP5 DUP2 ADD SWAP2 SWAP1 SWAP2 MSTORE SWAP1 SWAP4 SWAP3 SWAP1 SWAP2 DUP5 SWAP2 DUP3 SWAP1 DUP8 SWAP1 DUP3 SWAP1 PUSH1 0x40 ADD SUB SWAP3 GAS CALL SWAP1 DUP2 ISZERO PUSH2 0xC48 JUMPI POP PUSH2 0xC2D JUMPI POP DUP1 RETURN JUMPDEST PUSH2 0xC44 SWAP1 PUSH1 0x20 RETURNDATASIZE DUP2 GT PUSH2 0x47A JUMPI PUSH2 0x46C DUP2 DUP4 PUSH2 0xF06 JUMP JUMPDEST POP DUP1 RETURN JUMPDEST MLOAD RETURNDATASIZE DUP5 DUP3 RETURNDATACOPY RETURNDATASIZE SWAP1 REVERT JUMPDEST DUP4 MLOAD PUSH3 0x461BCD PUSH1 0xE5 SHL DUP2 MSTORE PUSH1 0x20 DUP2 DUP6 ADD MSTORE PUSH1 0x3A PUSH1 0x24 DUP3 ADD MSTORE PUSH32 0x42544348324F3A2063616E6E6F7420726573637565207374616B696E6720746F PUSH1 0x44 DUP3 ADD MSTORE PUSH32 0x6B656E207768696C6520757365727320617265207374616B6564000000000000 PUSH1 0x64 DUP3 ADD MSTORE PUSH1 0x84 SWAP1 REVERT JUMPDEST POP PUSH1 0x6 SLOAD ISZERO PUSH2 0xBDB JUMP JUMPDEST POP POP CALLVALUE PUSH2 0x338 JUMPI PUSH1 0x20 CALLDATASIZE PUSH1 0x3 NOT ADD SLT PUSH2 0x338 JUMPI PUSH1 0x20 SWAP1 PUSH2 0x69D PUSH2 0xCE5 PUSH2 0xE73 JUMP JUMPDEST PUSH2 0x107A JUMP JUMPDEST POP DUP3 SWAP1 CALLVALUE PUSH2 0x338 JUMPI PUSH1 0x20 SWAP3 DUP4 PUSH1 0x3 NOT CALLDATASIZE ADD SLT PUSH2 0x1C2 JUMPI DUP2 CALLDATALOAD CALLER DUP5 MSTORE PUSH1 0x8 DUP6 MSTORE DUP2 DUP5 KECCAK256 SWAP5 PUSH2 0xD18 DUP3 ISZERO ISZERO PUSH2 0xE8E JUMP JUMPDEST DUP2 DUP7 SLOAD LT PUSH2 0xE15 JUMPI PUSH2 0xDA6 SWAP5 SWAP6 PUSH2 0xD2E CALLER PUSH2 0xFAF JUMP JUMPDEST PUSH2 0xD39 DUP4 DUP3 SLOAD PUSH2 0xEF9 JUMP JUMPDEST SWAP1 SSTORE PUSH2 0xD47 DUP3 PUSH1 0x6 SLOAD PUSH2 0xEF9 JUMP JUMPDEST PUSH1 0x6 SSTORE DUP1 PUSH2 0xD64 PUSH2 0x2710 PUSH2 0xD5C DUP8 SLOAD DUP7 PUSH2 0xED0 JUMP JUMPDEST DIV DUP1 SWAP5 PUSH2 0xEF9 JUMP JUMPDEST DUP1 SWAP6 DUP5 PUSH2 0xE01 JUMPI JUMPDEST PUSH1 0x1 SLOAD DUP7 MLOAD PUSH4 0xA9059CBB PUSH1 0xE0 SHL DUP2 MSTORE CALLER SWAP3 DUP2 ADD SWAP3 DUP4 MSTORE PUSH1 0x20 DUP4 ADD SWAP4 SWAP1 SWAP4 MSTORE SWAP2 SWAP8 DUP9 SWAP3 PUSH1 0x1 PUSH1 0x1 PUSH1 0xA0 SHL SUB AND SWAP2 DUP4 SWAP2 DUP12 SWAP2 DUP4 SWAP2 PUSH1 0x40 SWAP1 SWAP2 ADD SWAP1 JUMP JUMPDEST SUB SWAP3 GAS CALL SWAP5 DUP6 ISZERO PUSH2 0x481 JUMPI PUSH32 0x7FC4727E062E336010F2C282598EF5F14FACB3DE68CF8195C2F23E1454B2B74E SWAP5 SWAP6 PUSH2 0x943 SWAP2 DUP9 SWAP2 PUSH2 0xDE4 JUMPI POP PUSH2 0x102E JUMP JUMPDEST PUSH2 0xDFB SWAP2 POP DUP4 RETURNDATASIZE DUP6 GT PUSH2 0x47A JUMPI PUSH2 0x46C DUP2 DUP4 PUSH2 0xF06 JUMP JUMPDEST DUP9 PUSH2 0x93D JUMP JUMPDEST PUSH2 0xE0D DUP6 PUSH1 0x7 SLOAD PUSH2 0xFA2 JUMP JUMPDEST PUSH1 0x7 SSTORE PUSH2 0xD6C JUMP JUMPDEST DUP4 PUSH1 0x64 SWAP2 DUP5 MLOAD SWAP2 PUSH3 0x461BCD PUSH1 0xE5 SHL DUP4 MSTORE DUP3 ADD MSTORE PUSH1 0x1A PUSH1 0x24 DUP3 ADD MSTORE PUSH32 0x42544348324F3A20696E73756666696369656E74207374616B65000000000000 PUSH1 0x44 DUP3 ADD MSTORE REVERT JUMPDEST DUP5 SWAP1 CALLVALUE PUSH2 0x338 JUMPI DUP2 PUSH1 0x3 NOT CALLDATASIZE ADD SLT PUSH2 0x338 JUMPI PUSH1 0x20 SWAP1 PUSH1 0x2 SLOAD DUP2 MSTORE RETURN JUMPDEST PUSH1 0x4 CALLDATALOAD SWAP1 PUSH1 0x1 PUSH1 0x1 PUSH1 0xA0 SHL SUB DUP3 AND DUP3 SUB PUSH2 0xE89 JUMPI JUMP JUMPDEST PUSH1 0x0 DUP1 REVERT JUMPDEST ISZERO PUSH2 0xE95 JUMPI JUMP JUMPDEST PUSH1 0x40 MLOAD PUSH3 0x461BCD PUSH1 0xE5 SHL DUP2 MSTORE PUSH1 0x20 PUSH1 0x4 DUP3 ADD MSTORE PUSH1 0x13 PUSH1 0x24 DUP3 ADD MSTORE PUSH19 0x109510D20C93CE881E995C9BC8185B5BDD5B9D PUSH1 0x6A SHL PUSH1 0x44 DUP3 ADD MSTORE PUSH1 0x64 SWAP1 REVERT JUMPDEST DUP2 DUP2 MUL SWAP3 SWAP2 DUP2 ISZERO SWAP2 DUP5 DIV EQ OR ISZERO PUSH2 0xEE3 JUMPI JUMP JUMPDEST PUSH4 0x4E487B71 PUSH1 0xE0 SHL PUSH1 0x0 MSTORE PUSH1 0x11 PUSH1 0x4 MSTORE PUSH1 0x24 PUSH1 0x0 REVERT JUMPDEST SWAP2 SWAP1 DUP3 SUB SWAP2 DUP3 GT PUSH2 0xEE3 JUMPI JUMP JUMPDEST SWAP1 PUSH1 0x1F DUP1 NOT SWAP2 ADD AND DUP2 ADD SWAP1 DUP2 LT PUSH8 0xFFFFFFFFFFFFFFFF DUP3 GT OR PUSH2 0xF28 JUMPI PUSH1 0x40 MSTORE JUMP JUMPDEST PUSH4 0x4E487B71 PUSH1 0xE0 SHL PUSH1 0x0 MSTORE PUSH1 0x41 PUSH1 0x4 MSTORE PUSH1 0x24 PUSH1 0x0 REVERT JUMPDEST SWAP1 DUP2 PUSH1 0x20 SWAP2 SUB SLT PUSH2 0xE89 JUMPI MLOAD DUP1 ISZERO ISZERO DUP2 SUB PUSH2 0xE89 JUMPI SWAP1 JUMP JUMPDEST ISZERO PUSH2 0xF5D JUMPI JUMP JUMPDEST PUSH1 0x40 MLOAD PUSH3 0x461BCD PUSH1 0xE5 SHL DUP2 MSTORE PUSH1 0x20 PUSH1 0x4 DUP3 ADD MSTORE PUSH1 0x1B PUSH1 0x24 DUP3 ADD MSTORE PUSH32 0x42544348324F3A207472616E7366657246726F6D206661696C65640000000000 PUSH1 0x44 DUP3 ADD MSTORE PUSH1 0x64 SWAP1 REVERT JUMPDEST SWAP2 SWAP1 DUP3 ADD DUP1 SWAP3 GT PUSH2 0xEE3 JUMPI JUMP JUMPDEST PUSH1 0x1 PUSH1 0x1 PUSH1 0xA0 SHL SUB AND PUSH1 0x0 SWAP1 DUP2 MSTORE PUSH1 0x8 PUSH1 0x20 MSTORE PUSH1 0x40 SWAP1 KECCAK256 DUP1 SLOAD DUP1 ISZERO ISZERO DUP1 PUSH2 0x1021 JUMPI JUMPDEST PUSH2 0xFDF JUMPI JUMPDEST POP PUSH1 0x1 TIMESTAMP SWAP2 ADD SSTORE JUMP JUMPDEST PUSH2 0x1009 PUSH5 0x496CEBB800 SWAP2 PUSH2 0x1004 PUSH2 0xFFA PUSH1 0x1 DUP7 ADD SLOAD TIMESTAMP PUSH2 0xEF9 JUMP JUMPDEST SWAP2 PUSH1 0x2 SLOAD SWAP1 PUSH2 0xED0 JUMP JUMPDEST PUSH2 0xED0 JUMP JUMPDEST DIV PUSH2 0x1019 PUSH1 0x2 DUP4 ADD SWAP2 DUP3 SLOAD PUSH2 0xFA2 JUMP JUMPDEST SWAP1 SSTORE CODESIZE PUSH2 0xFD6 JUMP JUMPDEST POP PUSH1 0x1 DUP3 ADD SLOAD ISZERO ISZERO PUSH2 0xFD1 JUMP JUMPDEST ISZERO PUSH2 0x1035 JUMPI JUMP JUMPDEST PUSH1 0x40 MLOAD PUSH3 0x461BCD PUSH1 0xE5 SHL DUP2 MSTORE PUSH1 0x20 PUSH1 0x4 DUP3 ADD MSTORE PUSH1 0x17 PUSH1 0x24 DUP3 ADD MSTORE PUSH32 0x42544348324F3A207472616E73666572206661696C6564000000000000000000 PUSH1 0x44 DUP3 ADD MSTORE PUSH1 0x64 SWAP1 REVERT JUMPDEST PUSH1 0x1 PUSH1 0x1 PUSH1 0xA0 SHL SUB AND PUSH1 0x0 SWAP1 DUP2 MSTORE PUSH1 0x8 PUSH1 0x20 MSTORE PUSH1 0x40 SWAP1 KECCAK256 DUP1 SLOAD SWAP1 DUP2 ISZERO PUSH2 0x10E7 JUMPI PUSH1 0x2 PUSH5 0x496CEBB800 PUSH2 0x10CF PUSH2 0x10D8 SWAP5 PUSH1 0x1 DUP6 ADD SLOAD DUP1 ISZERO PUSH1 0x0 EQ PUSH2 0x10DB JUMPI POP PUSH2 0x1004 PUSH2 0x10C6 TIMESTAMP JUMPDEST TIMESTAMP PUSH2 0xEF9 JUMP JUMPDEST SWAP2 DUP6 SLOAD SWAP1 PUSH2 0xED0 JUMP JUMPDEST DIV SWAP2 ADD SLOAD PUSH2 0xFA2 JUMP JUMPDEST SWAP1 JUMP JUMPDEST PUSH2 0x10C6 PUSH2 0x1004 SWAP2 PUSH2 0x10C0 JUMP JUMPDEST PUSH1 0x2 SWAP2 POP ADD SLOAD SWAP1 JUMP JUMPDEST ISZERO PUSH2 0x10F7 JUMPI JUMP JUMPDEST PUSH1 0x40 MLOAD PUSH3 0x461BCD PUSH1 0xE5 SHL DUP2 MSTORE PUSH1 0x20 PUSH1 0x4 DUP3 ADD MSTORE PUSH1 0x11 PUSH1 0x24 DUP3 ADD MSTORE PUSH17 0x212A21A419279D103737BA1037BBB732B9 PUSH1 0x79 SHL PUSH1 0x44 DUP3 ADD MSTORE PUSH1 0x64 SWAP1 REVERT INVALID LOG2 PUSH5 0x6970667358 0x22 SLT KECCAK256 GASLIMIT 0xDE SSTORE 0xA7 CALLDATASIZE 0xB8 NOT SWAP14 KECCAK256 DUP13 0x5E PUSH3 0xE7AC5 JUMP BALANCE PUSH19 0x661BE0A35BDC9629B9932C34582E64736F6C63 NUMBER STOP ADDMOD EQ STOP CALLER "},"methodIdentifiers":{"YEAR()":"83914540","apr()":"57ded9c9","aprBps()":"25ac1df2","claim()":"4e71d92d","claimFeeBps()":"7a526f4e","depositFeeBps()":"ab879827","feeBalance()":"60b71d4e","fundRewards(uint256)":"93707a19","owner()":"8da5cb5b","pendingRewards(address)":"31d7a262","rescueToken(address,uint256)":"33f3d628","rewardPool()":"66666aa9","setApr(uint256)":"59cee29c","setFees(uint256,uint256,uint256)":"cec10c11","stake(uint256)":"a694fc3a","stakedBalance(address)":"60217267","stakingToken()":"72f702f3","totalStaked()":"817b1cd2","transferOwnership(address)":"f2fde38b","unstake(uint256)":"2e17de78","withdrawFeeBps()":"7aca2b59","withdrawFees()":"476343ee"}}}}}