{"contracts/H2OMining.sol":{"H2OMining":{"abi":[{"inputs":[{"internalType":"address","name":"_wld","type":"address"},{"internalType":"address","name":"_h2o","type":"address"},{"internalType":"address","name":"_btch2o","type":"address"},{"internalType":"uint256","name":"_packagePriceWLD","type":"uint256"},{"internalType":"uint256","name":"_h2oRatePerYear","type":"uint256"},{"internalType":"uint256","name":"_btch2oRatePerYear","type":"uint256"}],"stateMutability":"nonpayable","type":"constructor"},{"anonymous":false,"inputs":[{"indexed":true,"internalType":"address","name":"user","type":"address"},{"indexed":false,"internalType":"uint256","name":"unitsBought","type":"uint256"},{"indexed":false,"internalType":"uint256","name":"totalPower","type":"uint256"}],"name":"PackageBought","type":"event"},{"anonymous":false,"inputs":[{"indexed":true,"internalType":"address","name":"token","type":"address"},{"indexed":false,"internalType":"uint256","name":"amount","type":"uint256"}],"name":"PoolFunded","type":"event"},{"anonymous":false,"inputs":[{"indexed":false,"internalType":"uint256","name":"newPrice","type":"uint256"}],"name":"PriceUpdated","type":"event"},{"anonymous":false,"inputs":[{"indexed":false,"internalType":"uint256","name":"h2oRate","type":"uint256"},{"indexed":false,"internalType":"uint256","name":"btch2oRate","type":"uint256"}],"name":"RatesUpdated","type":"event"},{"anonymous":false,"inputs":[{"indexed":true,"internalType":"address","name":"user","type":"address"},{"indexed":false,"internalType":"uint256","name":"h2oAmount","type":"uint256"},{"indexed":false,"internalType":"uint256","name":"btch2oAmount","type":"uint256"}],"name":"RewardsClaimed","type":"event"},{"anonymous":false,"inputs":[{"indexed":false,"internalType":"uint256","name":"amount","type":"uint256"}],"name":"WLDWithdrawn","type":"event"},{"inputs":[],"name":"YEAR","outputs":[{"internalType":"uint256","name":"","type":"uint256"}],"stateMutability":"view","type":"function"},{"inputs":[],"name":"btch2oPool","outputs":[{"internalType":"uint256","name":"","type":"uint256"}],"stateMutability":"view","type":"function"},{"inputs":[],"name":"btch2oRatePerYear","outputs":[{"internalType":"uint256","name":"","type":"uint256"}],"stateMutability":"view","type":"function"},{"inputs":[],"name":"btch2oToken","outputs":[{"internalType":"contract IERC20","name":"","type":"address"}],"stateMutability":"view","type":"function"},{"inputs":[{"internalType":"uint256","name":"units","type":"uint256"}],"name":"buyPackage","outputs":[],"stateMutability":"nonpayable","type":"function"},{"inputs":[],"name":"claimRewards","outputs":[],"stateMutability":"nonpayable","type":"function"},{"inputs":[{"internalType":"uint256","name":"amount","type":"uint256"}],"name":"fundBTCH2O","outputs":[],"stateMutability":"nonpayable","type":"function"},{"inputs":[{"internalType":"uint256","name":"amount","type":"uint256"}],"name":"fundH2O","outputs":[],"stateMutability":"nonpayable","type":"function"},{"inputs":[],"name":"h2oPool","outputs":[{"internalType":"uint256","name":"","type":"uint256"}],"stateMutability":"view","type":"function"},{"inputs":[],"name":"h2oRatePerYear","outputs":[{"internalType":"uint256","name":"","type":"uint256"}],"stateMutability":"view","type":"function"},{"inputs":[],"name":"h2oToken","outputs":[{"internalType":"contract IERC20","name":"","type":"address"}],"stateMutability":"view","type":"function"},{"inputs":[],"name":"owner","outputs":[{"internalType":"address","name":"","type":"address"}],"stateMutability":"view","type":"function"},{"inputs":[],"name":"packagePriceWLD","outputs":[{"internalType":"uint256","name":"","type":"uint256"}],"stateMutability":"view","type":"function"},{"inputs":[{"internalType":"address","name":"user","type":"address"}],"name":"pendingRewards","outputs":[{"internalType":"uint256","name":"h2oAmt","type":"uint256"},{"internalType":"uint256","name":"btch2oAmt","type":"uint256"}],"stateMutability":"view","type":"function"},{"inputs":[{"internalType":"address","name":"token","type":"address"},{"internalType":"uint256","name":"amount","type":"uint256"}],"name":"rescueToken","outputs":[],"stateMutability":"nonpayable","type":"function"},{"inputs":[{"internalType":"uint256","name":"_price","type":"uint256"}],"name":"setPackagePrice","outputs":[],"stateMutability":"nonpayable","type":"function"},{"inputs":[{"internalType":"uint256","name":"_h2oRate","type":"uint256"},{"internalType":"uint256","name":"_btch2oRate","type":"uint256"}],"name":"setRewardRates","outputs":[],"stateMutability":"nonpayable","type":"function"},{"inputs":[],"name":"totalPower","outputs":[{"internalType":"uint256","name":"","type":"uint256"}],"stateMutability":"view","type":"function"},{"inputs":[{"internalType":"address","name":"newOwner","type":"address"}],"name":"transferOwnership","outputs":[],"stateMutability":"nonpayable","type":"function"},{"inputs":[{"internalType":"address","name":"","type":"address"}],"name":"users","outputs":[{"internalType":"uint256","name":"power","type":"uint256"},{"internalType":"uint256","name":"lastClaimed","type":"uint256"},{"internalType":"uint256","name":"pendingH2O","type":"uint256"},{"internalType":"uint256","name":"pendingBTCH2O","type":"uint256"}],"stateMutability":"view","type":"function"},{"inputs":[],"name":"withdrawWLD","outputs":[],"stateMutability":"nonpayable","type":"function"},{"inputs":[],"name":"wldCollected","outputs":[{"internalType":"uint256","name":"","type":"uint256"}],"stateMutability":"view","type":"function"},{"inputs":[],"name":"wldToken","outputs":[{"internalType":"contract IERC20","name":"","type":"address"}],"stateMutability":"view","type":"function"}],"evm":{"bytecode":{"linkReferences":{},"object":"60e0346100f757601f6111fb38819003918201601f19168301916001600160401b038311848410176100fc5780849260c0946040528339810103126100f75761004781610112565b9061005460208201610112565b61006060408301610112565b9060608301519160a06080850151940151943360018060a01b0319600054161760005560018060a01b0392838092166080521660a0521660c0526001556002556003556040516110d4908161012782396080518181816102120152818161059c0152610778015260a0518181816103e20152818161093f0152610c35015260c051818181610466015281816108bb0152610b290152f35b600080fd5b634e487b7160e01b600052604160045260246000fd5b51906001600160a01b03821682036100f75756fe6040608081526004908136101561001557600080fd5b600091823560e01c90816331d7a26214610da057816333f3d62814610ced578163372500ab14610a4957816337ba04a0146109e6578163451a26c7146108ea5781634a541ac8146108a6578163634f13be1461088757816372c55971146107ee57816383914540146107cf5781638da5cb5b146107a75781639be3783d146107635781639c8f538314610744578163a87430ba146106ec578163ab69523b14610536578163b6ae541014610517578163c45eb57714610411578163d03625a8146103cd578163db3ad22c146103ae578163db40c6b31461038f578163df082af3146101e5578163eb6bdad5146101c6578163f2fde38b14610141575063f41c565d1461012057600080fd5b3461013d578160031936011261013d576020906008549051908152f35b5080fd5b9050346101c25760203660031901126101c25761015c610e58565b835491906001600160a01b03906101763383861614611028565b169283156101905750506001600160a01b03191617815580f35b906020606492519162461bcd60e51b8352820152600c60248201526b5a65726f206164647265737360a01b6044820152fd5b8280fd5b50503461013d578160031936011261013d576020906007549051908152f35b9050346101c257826003193601126101c25782546001600160a01b0390811690610210338314611028565b7f0000000000000000000000000000000000000000000000000000000000000000168351916370a0823160e01b835230848401526020938484602481865afa938415610385578794610352575b50831561031a57855163a9059cbb60e01b81526001600160a01b03909216908201908152602081018490529091849183919082908990829060400103925af1908115610310577fc279bb989fc18c5851adf5bfe55c947c5b36239700f3090fc450a4a143c1a47794916102d79187916102e3575b50611060565b8460085551908152a180f35b6103039150853d8711610309575b6102fb8183610e9c565b810190610ed4565b386102d1565b503d6102f1565b84513d87823e3d90fd5b855162461bcd60e51b815290810185905260126024820152714e6f20574c4420746f20776974686472617760701b6044820152606490fd5b9093508481813d831161037e575b61036a8183610e9c565b8101031261037a5751923861025d565b8680fd5b503d610360565b86513d89823e3d90fd5b50503461013d578160031936011261013d576020906006549051908152f35b50503461013d578160031936011261013d576020906005549051908152f35b50503461013d578160031936011261013d57517f00000000000000000000000000000000000000000000000000000000000000006001600160a01b03168152602090f35b919050346101c25760203660031901126101c25781359061049560208360018060a01b03610443818954163314611028565b84516323b872dd60e01b81523397810197885230602089015260408801929092527f00000000000000000000000000000000000000000000000000000000000000001695909283918291606090910190565b038188885af190811561050d57916104d97f32173d8e51cec3a6fe484b7a1c3febe760cdf96e03d4cca36a43563a4333e838949260209488916104f0575b50610fe3565b6104e582600754610eec565b60075551908152a280f35b6105079150853d8111610309576102fb8183610e9c565b386104d3565b82513d87823e3d90fd5b50503461013d578160031936011261013d576020906001549051908152f35b83833461013d57602090816003193601126101c257833591600183106106bd5761055f33610f06565b61056b83600154610e73565b82516323b872dd60e01b815233818801908152306020820152604081018390529196918390829081906060010381897f00000000000000000000000000000000000000000000000000000000000000006001600160a01b03165af19081156106b3578691610696575b501561065f576106097fbb2acf23a88ff2d77196aaa4036b06fca5d67dcefd9dc368e5323e940ff9a8a1949596600854610eec565b600855338652808252828620610620868254610eec565b905561062e85600554610eec565b600555338652815281852060018101805415610656575b50549082519485528401523392a280f35b42905586610645565b915162461bcd60e51b815291820152601360248201527215d311081d1c985b9cd9995c8819985a5b1959606a1b6044820152606490fd5b6106ad9150833d8511610309576102fb8183610e9c565b876105d4565b84513d88823e3d90fd5b8490606492519162461bcd60e51b8352820152600a602482015269135a5b880c481d5b9a5d60b21b6044820152fd5b9050346101c25760203660031901126101c25760809282916001600160a01b03610714610e58565b16825260205220908154916001810154916003600283015492015492815194855260208501528301526060820152f35b50503461013d578160031936011261013d576020906002549051908152f35b50503461013d578160031936011261013d57517f00000000000000000000000000000000000000000000000000000000000000006001600160a01b03168152602090f35b50503461013d578160031936011261013d57905490516001600160a01b039091168152602090f35b50503461013d578160031936011261013d57602090516301e133808152f35b919050346101c25760203660031901126101c25781359161081960018060a01b038554163314611028565b82156108515750816020917f66cbca4f3c64fecf1dcb9ce094abcf7f68c3450a1d4e3a8e917dd621edb4ebe09360015551908152a180f35b6020606492519162461bcd60e51b8352820152601160248201527005072696365206d757374206265203e203607c1b6044820152fd5b50503461013d578160031936011261013d576020906003549051908152f35b50503461013d578160031936011261013d57517f00000000000000000000000000000000000000000000000000000000000000006001600160a01b03168152602090f35b919050346101c25760203660031901126101c25781359061096e60208360018060a01b0361091c818954163314611028565b84516323b872dd60e01b81523397810197885230602089015260408801929092527f00000000000000000000000000000000000000000000000000000000000000001695909283918291606090910190565b038188885af190811561050d57916109b27f32173d8e51cec3a6fe484b7a1c3febe760cdf96e03d4cca36a43563a4333e838949260209488916109c9575b50610fa1565b6109be82600654610eec565b60065551908152a280f35b6109e09150853d8111610309576102fb8183610e9c565b386109ac565b919050346101c257806003193601126101c2577f0cf6ce3db485f79e960e63b1550af071fe0c99c09834149273e0fa8b32018ff89135602435610a3360018060a01b038654163314611028565b816002558060035582519182526020820152a180f35b919050346101c257826003193601126101c257610a6533610f06565b3383526020908282528084209160028301906003825494019182549285159182158093610ce4575b15610cae57908880925555610bec575b81610ad4575b82519384528301523392507fdacbdde355ba930696a362ea6738feb9f8bd52dfb3d81947558fd3217e23e32591a280f35b6007549091818111610be557905b8115610bb85781610b2496610af8828694610ef9565b600755855163a9059cbb60e01b8152339181019182526020820192909252909687918291604090910190565b0381897f00000000000000000000000000000000000000000000000000000000000000006001600160a01b03165af1948515610bae577fdacbdde355ba930696a362ea6738feb9f8bd52dfb3d81947558fd3217e23e3259495610b8d918891610b975750610fe3565b905b849350610aa3565b6105079150843d8611610309576102fb8183610e9c565b83513d88823e3d90fd5b50507fdacbdde355ba930696a362ea6738feb9f8bd52dfb3d81947558fd3217e23e3259293508490610b8f565b5080610ae2565b6006549093818111610ca757905b8115610c9e5781610c0a91610ef9565b600655825163a9059cbb60e01b8152338682019081526020810183905285908290819060400103818a7f00000000000000000000000000000000000000000000000000000000000000006001600160a01b03165af1908115610c945790610c77918891610c7d5750610fa1565b92610a9d565b6109e09150863d8811610309576102fb8183610e9c565b84513d89823e3d90fd5b50508492610a9d565b5080610bfa565b855162461bcd60e51b8152808901859052601060248201526f4e6f7468696e6720746f20636c61696d60801b6044820152606490fd5b50841515610a8d565b9050346101c257816003193601126101c2576020610d5c91610d0d610e58565b85546001600160a01b03908116908790610d28338414611028565b875163a9059cbb60e01b81526001600160a01b03909316948301948552602435602086015291958694859391849160400190565b0393165af1908115610d9457610d7992508391610d7c5750611060565b80f35b610303915060203d8111610309576102fb8183610e9c565b505051903d90823e3d90fd5b9050346101c25760203660031901126101c257918192610dbe610e58565b6001600160a01b0316825260205220600281015460038201548254919290919081151580610e4b575b610dfa575b505082519182526020820152f35b92610e33610e116001610e44959496015442610ef9565b610e2e610e3a6301e133809485610e3385610e2e6002548d610e73565b610e73565b0490610eec565b9660035490610e73565b3880610dec565b5060018101541515610de7565b600435906001600160a01b0382168203610e6e57565b600080fd5b81810292918115918404141715610e8657565b634e487b7160e01b600052601160045260246000fd5b90601f8019910116810190811067ffffffffffffffff821117610ebe57604052565b634e487b7160e01b600052604160045260246000fd5b90816020910312610e6e57518015158103610e6e5790565b91908201809211610e8657565b91908203918211610e8657565b6001600160a01b03166000908152600460205260409020805480151580610f94575b610f36575b50600142910155565b610f7c610f47600184015442610ef9565b610e2e6301e133809384610f6184610e2e60025485610e73565b04610f7160028801918254610eec565b905560035490610e73565b04610f8c60038301918254610eec565b905538610f2d565b5060018201541515610f28565b15610fa857565b60405162461bcd60e51b8152602060048201526013602482015272120c93c81d1c985b9cd9995c8819985a5b1959606a1b6044820152606490fd5b15610fea57565b60405162461bcd60e51b8152602060048201526016602482015275109510d20c93c81d1c985b9cd9995c8819985a5b195960521b6044820152606490fd5b1561102f57565b60405162461bcd60e51b81526020600482015260096024820152682737ba1037bbb732b960b91b6044820152606490fd5b1561106757565b60405162461bcd60e51b815260206004820152600f60248201526e151c985b9cd9995c8819985a5b1959608a1b6044820152606490fdfea2646970667358221220abaace1682d462771119cef6aade73ff2302c6cda6c4898aaeffe3bde5a4d2d964736f6c63430008140033","opcodes":"PUSH1 0xE0 CALLVALUE PUSH2 0xF7 JUMPI PUSH1 0x1F PUSH2 0x11FB CODESIZE DUP2 SWAP1 SUB SWAP2 DUP3 ADD PUSH1 0x1F NOT AND DUP4 ADD SWAP2 PUSH1 0x1 PUSH1 0x1 PUSH1 0x40 SHL SUB DUP4 GT DUP5 DUP5 LT OR PUSH2 0xFC JUMPI DUP1 DUP5 SWAP3 PUSH1 0xC0 SWAP5 PUSH1 0x40 MSTORE DUP4 CODECOPY DUP2 ADD SUB SLT PUSH2 0xF7 JUMPI PUSH2 0x47 DUP2 PUSH2 0x112 JUMP JUMPDEST SWAP1 PUSH2 0x54 PUSH1 0x20 DUP3 ADD PUSH2 0x112 JUMP JUMPDEST PUSH2 0x60 PUSH1 0x40 DUP4 ADD PUSH2 0x112 JUMP JUMPDEST SWAP1 PUSH1 0x60 DUP4 ADD MLOAD SWAP2 PUSH1 0xA0 PUSH1 0x80 DUP6 ADD MLOAD SWAP5 ADD MLOAD SWAP5 CALLER PUSH1 0x1 DUP1 PUSH1 0xA0 SHL SUB NOT PUSH1 0x0 SLOAD AND OR PUSH1 0x0 SSTORE PUSH1 0x1 DUP1 PUSH1 0xA0 SHL SUB SWAP3 DUP4 DUP1 SWAP3 AND PUSH1 0x80 MSTORE AND PUSH1 0xA0 MSTORE AND PUSH1 0xC0 MSTORE PUSH1 0x1 SSTORE PUSH1 0x2 SSTORE PUSH1 0x3 SSTORE PUSH1 0x40 MLOAD PUSH2 0x10D4 SWAP1 DUP2 PUSH2 0x127 DUP3 CODECOPY PUSH1 0x80 MLOAD DUP2 DUP2 DUP2 PUSH2 0x212 ADD MSTORE DUP2 DUP2 PUSH2 0x59C ADD MSTORE PUSH2 0x778 ADD MSTORE PUSH1 0xA0 MLOAD DUP2 DUP2 DUP2 PUSH2 0x3E2 ADD MSTORE DUP2 DUP2 PUSH2 0x93F ADD MSTORE PUSH2 0xC35 ADD MSTORE PUSH1 0xC0 MLOAD DUP2 DUP2 DUP2 PUSH2 0x466 ADD MSTORE DUP2 DUP2 PUSH2 0x8BB ADD MSTORE PUSH2 0xB29 ADD MSTORE RETURN JUMPDEST PUSH1 0x0 DUP1 REVERT JUMPDEST PUSH4 0x4E487B71 PUSH1 0xE0 SHL PUSH1 0x0 MSTORE PUSH1 0x41 PUSH1 0x4 MSTORE PUSH1 0x24 PUSH1 0x0 REVERT JUMPDEST MLOAD SWAP1 PUSH1 0x1 PUSH1 0x1 PUSH1 0xA0 SHL SUB DUP3 AND DUP3 SUB PUSH2 0xF7 JUMPI JUMP INVALID PUSH1 0x40 PUSH1 0x80 DUP2 MSTORE PUSH1 0x4 SWAP1 DUP2 CALLDATASIZE LT ISZERO PUSH2 0x15 JUMPI PUSH1 0x0 DUP1 REVERT JUMPDEST PUSH1 0x0 SWAP2 DUP3 CALLDATALOAD PUSH1 0xE0 SHR SWAP1 DUP2 PUSH4 0x31D7A262 EQ PUSH2 0xDA0 JUMPI DUP2 PUSH4 0x33F3D628 EQ PUSH2 0xCED JUMPI DUP2 PUSH4 0x372500AB EQ PUSH2 0xA49 JUMPI DUP2 PUSH4 0x37BA04A0 EQ PUSH2 0x9E6 JUMPI DUP2 PUSH4 0x451A26C7 EQ PUSH2 0x8EA JUMPI DUP2 PUSH4 0x4A541AC8 EQ PUSH2 0x8A6 JUMPI DUP2 PUSH4 0x634F13BE EQ PUSH2 0x887 JUMPI DUP2 PUSH4 0x72C55971 EQ PUSH2 0x7EE JUMPI DUP2 PUSH4 0x83914540 EQ PUSH2 0x7CF JUMPI DUP2 PUSH4 0x8DA5CB5B EQ PUSH2 0x7A7 JUMPI DUP2 PUSH4 0x9BE3783D EQ PUSH2 0x763 JUMPI DUP2 PUSH4 0x9C8F5383 EQ PUSH2 0x744 JUMPI DUP2 PUSH4 0xA87430BA EQ PUSH2 0x6EC JUMPI DUP2 PUSH4 0xAB69523B EQ PUSH2 0x536 JUMPI DUP2 PUSH4 0xB6AE5410 EQ PUSH2 0x517 JUMPI DUP2 PUSH4 0xC45EB577 EQ PUSH2 0x411 JUMPI DUP2 PUSH4 0xD03625A8 EQ PUSH2 0x3CD JUMPI DUP2 PUSH4 0xDB3AD22C EQ PUSH2 0x3AE JUMPI DUP2 PUSH4 0xDB40C6B3 EQ PUSH2 0x38F JUMPI DUP2 PUSH4 0xDF082AF3 EQ PUSH2 0x1E5 JUMPI DUP2 PUSH4 0xEB6BDAD5 EQ PUSH2 0x1C6 JUMPI DUP2 PUSH4 0xF2FDE38B EQ PUSH2 0x141 JUMPI POP PUSH4 0xF41C565D EQ PUSH2 0x120 JUMPI PUSH1 0x0 DUP1 REVERT JUMPDEST CALLVALUE PUSH2 0x13D JUMPI DUP2 PUSH1 0x3 NOT CALLDATASIZE ADD SLT PUSH2 0x13D JUMPI PUSH1 0x20 SWAP1 PUSH1 0x8 SLOAD SWAP1 MLOAD SWAP1 DUP2 MSTORE RETURN JUMPDEST POP DUP1 REVERT JUMPDEST SWAP1 POP CALLVALUE PUSH2 0x1C2 JUMPI PUSH1 0x20 CALLDATASIZE PUSH1 0x3 NOT ADD SLT PUSH2 0x1C2 JUMPI PUSH2 0x15C PUSH2 0xE58 JUMP JUMPDEST DUP4 SLOAD SWAP2 SWAP1 PUSH1 0x1 PUSH1 0x1 PUSH1 0xA0 SHL SUB SWAP1 PUSH2 0x176 CALLER DUP4 DUP7 AND EQ PUSH2 0x1028 JUMP JUMPDEST AND SWAP3 DUP4 ISZERO PUSH2 0x190 JUMPI POP POP PUSH1 0x1 PUSH1 0x1 PUSH1 0xA0 SHL SUB NOT AND OR DUP2 SSTORE DUP1 RETURN JUMPDEST SWAP1 PUSH1 0x20 PUSH1 0x64 SWAP3 MLOAD SWAP2 PUSH3 0x461BCD PUSH1 0xE5 SHL DUP4 MSTORE DUP3 ADD MSTORE PUSH1 0xC PUSH1 0x24 DUP3 ADD MSTORE PUSH12 0x5A65726F2061646472657373 PUSH1 0xA0 SHL PUSH1 0x44 DUP3 ADD MSTORE REVERT JUMPDEST DUP3 DUP1 REVERT JUMPDEST POP POP CALLVALUE PUSH2 0x13D JUMPI DUP2 PUSH1 0x3 NOT CALLDATASIZE ADD SLT PUSH2 0x13D JUMPI PUSH1 0x20 SWAP1 PUSH1 0x7 SLOAD SWAP1 MLOAD SWAP1 DUP2 MSTORE RETURN JUMPDEST SWAP1 POP CALLVALUE PUSH2 0x1C2 JUMPI DUP3 PUSH1 0x3 NOT CALLDATASIZE ADD SLT PUSH2 0x1C2 JUMPI DUP3 SLOAD PUSH1 0x1 PUSH1 0x1 PUSH1 0xA0 SHL SUB SWAP1 DUP2 AND SWAP1 PUSH2 0x210 CALLER DUP4 EQ PUSH2 0x1028 JUMP JUMPDEST PUSH32 0x0 AND DUP4 MLOAD SWAP2 PUSH4 0x70A08231 PUSH1 0xE0 SHL DUP4 MSTORE ADDRESS DUP5 DUP5 ADD MSTORE PUSH1 0x20 SWAP4 DUP5 DUP5 PUSH1 0x24 DUP2 DUP7 GAS STATICCALL SWAP4 DUP5 ISZERO PUSH2 0x385 JUMPI DUP8 SWAP5 PUSH2 0x352 JUMPI JUMPDEST POP DUP4 ISZERO PUSH2 0x31A JUMPI DUP6 MLOAD PUSH4 0xA9059CBB PUSH1 0xE0 SHL DUP2 MSTORE PUSH1 0x1 PUSH1 0x1 PUSH1 0xA0 SHL SUB SWAP1 SWAP3 AND SWAP1 DUP3 ADD SWAP1 DUP2 MSTORE PUSH1 0x20 DUP2 ADD DUP5 SWAP1 MSTORE SWAP1 SWAP2 DUP5 SWAP2 DUP4 SWAP2 SWAP1 DUP3 SWAP1 DUP10 SWAP1 DUP3 SWAP1 PUSH1 0x40 ADD SUB SWAP3 GAS CALL SWAP1 DUP2 ISZERO PUSH2 0x310 JUMPI PUSH32 0xC279BB989FC18C5851ADF5BFE55C947C5B36239700F3090FC450A4A143C1A477 SWAP5 SWAP2 PUSH2 0x2D7 SWAP2 DUP8 SWAP2 PUSH2 0x2E3 JUMPI JUMPDEST POP PUSH2 0x1060 JUMP JUMPDEST DUP5 PUSH1 0x8 SSTORE MLOAD SWAP1 DUP2 MSTORE LOG1 DUP1 RETURN JUMPDEST PUSH2 0x303 SWAP2 POP DUP6 RETURNDATASIZE DUP8 GT PUSH2 0x309 JUMPI JUMPDEST PUSH2 0x2FB DUP2 DUP4 PUSH2 0xE9C JUMP JUMPDEST DUP2 ADD SWAP1 PUSH2 0xED4 JUMP JUMPDEST CODESIZE PUSH2 0x2D1 JUMP JUMPDEST POP RETURNDATASIZE PUSH2 0x2F1 JUMP JUMPDEST DUP5 MLOAD RETURNDATASIZE DUP8 DUP3 RETURNDATACOPY RETURNDATASIZE SWAP1 REVERT JUMPDEST DUP6 MLOAD PUSH3 0x461BCD PUSH1 0xE5 SHL DUP2 MSTORE SWAP1 DUP2 ADD DUP6 SWAP1 MSTORE PUSH1 0x12 PUSH1 0x24 DUP3 ADD MSTORE PUSH18 0x4E6F20574C4420746F207769746864726177 PUSH1 0x70 SHL PUSH1 0x44 DUP3 ADD MSTORE PUSH1 0x64 SWAP1 REVERT JUMPDEST SWAP1 SWAP4 POP DUP5 DUP2 DUP2 RETURNDATASIZE DUP4 GT PUSH2 0x37E JUMPI JUMPDEST PUSH2 0x36A DUP2 DUP4 PUSH2 0xE9C JUMP JUMPDEST DUP2 ADD SUB SLT PUSH2 0x37A JUMPI MLOAD SWAP3 CODESIZE PUSH2 0x25D JUMP JUMPDEST DUP7 DUP1 REVERT JUMPDEST POP RETURNDATASIZE PUSH2 0x360 JUMP JUMPDEST DUP7 MLOAD RETURNDATASIZE DUP10 DUP3 RETURNDATACOPY RETURNDATASIZE SWAP1 REVERT JUMPDEST POP POP CALLVALUE PUSH2 0x13D JUMPI DUP2 PUSH1 0x3 NOT CALLDATASIZE ADD SLT PUSH2 0x13D JUMPI PUSH1 0x20 SWAP1 PUSH1 0x6 SLOAD SWAP1 MLOAD SWAP1 DUP2 MSTORE RETURN JUMPDEST POP POP CALLVALUE PUSH2 0x13D JUMPI DUP2 PUSH1 0x3 NOT CALLDATASIZE ADD SLT PUSH2 0x13D JUMPI PUSH1 0x20 SWAP1 PUSH1 0x5 SLOAD SWAP1 MLOAD SWAP1 DUP2 MSTORE RETURN JUMPDEST POP POP CALLVALUE PUSH2 0x13D JUMPI DUP2 PUSH1 0x3 NOT CALLDATASIZE ADD SLT PUSH2 0x13D JUMPI MLOAD PUSH32 0x0 PUSH1 0x1 PUSH1 0x1 PUSH1 0xA0 SHL SUB AND DUP2 MSTORE PUSH1 0x20 SWAP1 RETURN JUMPDEST SWAP2 SWAP1 POP CALLVALUE PUSH2 0x1C2 JUMPI PUSH1 0x20 CALLDATASIZE PUSH1 0x3 NOT ADD SLT PUSH2 0x1C2 JUMPI DUP2 CALLDATALOAD SWAP1 PUSH2 0x495 PUSH1 0x20 DUP4 PUSH1 0x1 DUP1 PUSH1 0xA0 SHL SUB PUSH2 0x443 DUP2 DUP10 SLOAD AND CALLER EQ PUSH2 0x1028 JUMP JUMPDEST DUP5 MLOAD PUSH4 0x23B872DD PUSH1 0xE0 SHL DUP2 MSTORE CALLER SWAP8 DUP2 ADD SWAP8 DUP9 MSTORE ADDRESS PUSH1 0x20 DUP10 ADD MSTORE PUSH1 0x40 DUP9 ADD SWAP3 SWAP1 SWAP3 MSTORE PUSH32 0x0 AND SWAP6 SWAP1 SWAP3 DUP4 SWAP2 DUP3 SWAP2 PUSH1 0x60 SWAP1 SWAP2 ADD SWAP1 JUMP JUMPDEST SUB DUP2 DUP9 DUP9 GAS CALL SWAP1 DUP2 ISZERO PUSH2 0x50D JUMPI SWAP2 PUSH2 0x4D9 PUSH32 0x32173D8E51CEC3A6FE484B7A1C3FEBE760CDF96E03D4CCA36A43563A4333E838 SWAP5 SWAP3 PUSH1 0x20 SWAP5 DUP9 SWAP2 PUSH2 0x4F0 JUMPI JUMPDEST POP PUSH2 0xFE3 JUMP JUMPDEST PUSH2 0x4E5 DUP3 PUSH1 0x7 SLOAD PUSH2 0xEEC JUMP JUMPDEST PUSH1 0x7 SSTORE MLOAD SWAP1 DUP2 MSTORE LOG2 DUP1 RETURN JUMPDEST PUSH2 0x507 SWAP2 POP DUP6 RETURNDATASIZE DUP2 GT PUSH2 0x309 JUMPI PUSH2 0x2FB DUP2 DUP4 PUSH2 0xE9C JUMP JUMPDEST CODESIZE PUSH2 0x4D3 JUMP JUMPDEST DUP3 MLOAD RETURNDATASIZE DUP8 DUP3 RETURNDATACOPY RETURNDATASIZE SWAP1 REVERT JUMPDEST POP POP CALLVALUE PUSH2 0x13D JUMPI DUP2 PUSH1 0x3 NOT CALLDATASIZE ADD SLT PUSH2 0x13D JUMPI PUSH1 0x20 SWAP1 PUSH1 0x1 SLOAD SWAP1 MLOAD SWAP1 DUP2 MSTORE RETURN JUMPDEST DUP4 DUP4 CALLVALUE PUSH2 0x13D JUMPI PUSH1 0x20 SWAP1 DUP2 PUSH1 0x3 NOT CALLDATASIZE ADD SLT PUSH2 0x1C2 JUMPI DUP4 CALLDATALOAD SWAP2 PUSH1 0x1 DUP4 LT PUSH2 0x6BD JUMPI PUSH2 0x55F CALLER PUSH2 0xF06 JUMP JUMPDEST PUSH2 0x56B DUP4 PUSH1 0x1 SLOAD PUSH2 0xE73 JUMP JUMPDEST DUP3 MLOAD PUSH4 0x23B872DD PUSH1 0xE0 SHL DUP2 MSTORE CALLER DUP2 DUP9 ADD SWAP1 DUP2 MSTORE ADDRESS PUSH1 0x20 DUP3 ADD MSTORE PUSH1 0x40 DUP2 ADD DUP4 SWAP1 MSTORE SWAP2 SWAP7 SWAP2 DUP4 SWAP1 DUP3 SWAP1 DUP2 SWAP1 PUSH1 0x60 ADD SUB DUP2 DUP10 PUSH32 0x0 PUSH1 0x1 PUSH1 0x1 PUSH1 0xA0 SHL SUB AND GAS CALL SWAP1 DUP2 ISZERO PUSH2 0x6B3 JUMPI DUP7 SWAP2 PUSH2 0x696 JUMPI JUMPDEST POP ISZERO PUSH2 0x65F JUMPI PUSH2 0x609 PUSH32 0xBB2ACF23A88FF2D77196AAA4036B06FCA5D67DCEFD9DC368E5323E940FF9A8A1 SWAP5 SWAP6 SWAP7 PUSH1 0x8 SLOAD PUSH2 0xEEC JUMP JUMPDEST PUSH1 0x8 SSTORE CALLER DUP7 MSTORE DUP1 DUP3 MSTORE DUP3 DUP7 KECCAK256 PUSH2 0x620 DUP7 DUP3 SLOAD PUSH2 0xEEC JUMP JUMPDEST SWAP1 SSTORE PUSH2 0x62E DUP6 PUSH1 0x5 SLOAD PUSH2 0xEEC JUMP JUMPDEST PUSH1 0x5 SSTORE CALLER DUP7 MSTORE DUP2 MSTORE DUP2 DUP6 KECCAK256 PUSH1 0x1 DUP2 ADD DUP1 SLOAD ISZERO PUSH2 0x656 JUMPI JUMPDEST POP SLOAD SWAP1 DUP3 MLOAD SWAP5 DUP6 MSTORE DUP5 ADD MSTORE CALLER SWAP3 LOG2 DUP1 RETURN JUMPDEST TIMESTAMP SWAP1 SSTORE DUP7 PUSH2 0x645 JUMP JUMPDEST SWAP2 MLOAD PUSH3 0x461BCD PUSH1 0xE5 SHL DUP2 MSTORE SWAP2 DUP3 ADD MSTORE PUSH1 0x13 PUSH1 0x24 DUP3 ADD MSTORE PUSH19 0x15D311081D1C985B9CD9995C8819985A5B1959 PUSH1 0x6A SHL PUSH1 0x44 DUP3 ADD MSTORE PUSH1 0x64 SWAP1 REVERT JUMPDEST PUSH2 0x6AD SWAP2 POP DUP4 RETURNDATASIZE DUP6 GT PUSH2 0x309 JUMPI PUSH2 0x2FB DUP2 DUP4 PUSH2 0xE9C JUMP JUMPDEST DUP8 PUSH2 0x5D4 JUMP JUMPDEST DUP5 MLOAD RETURNDATASIZE DUP9 DUP3 RETURNDATACOPY RETURNDATASIZE SWAP1 REVERT JUMPDEST DUP5 SWAP1 PUSH1 0x64 SWAP3 MLOAD SWAP2 PUSH3 0x461BCD PUSH1 0xE5 SHL DUP4 MSTORE DUP3 ADD MSTORE PUSH1 0xA PUSH1 0x24 DUP3 ADD MSTORE PUSH10 0x135A5B880C481D5B9A5D PUSH1 0xB2 SHL PUSH1 0x44 DUP3 ADD MSTORE REVERT JUMPDEST SWAP1 POP CALLVALUE PUSH2 0x1C2 JUMPI PUSH1 0x20 CALLDATASIZE PUSH1 0x3 NOT ADD SLT PUSH2 0x1C2 JUMPI PUSH1 0x80 SWAP3 DUP3 SWAP2 PUSH1 0x1 PUSH1 0x1 PUSH1 0xA0 SHL SUB PUSH2 0x714 PUSH2 0xE58 JUMP JUMPDEST AND DUP3 MSTORE PUSH1 0x20 MSTORE KECCAK256 SWAP1 DUP2 SLOAD SWAP2 PUSH1 0x1 DUP2 ADD SLOAD SWAP2 PUSH1 0x3 PUSH1 0x2 DUP4 ADD SLOAD SWAP3 ADD SLOAD SWAP3 DUP2 MLOAD SWAP5 DUP6 MSTORE PUSH1 0x20 DUP6 ADD MSTORE DUP4 ADD MSTORE PUSH1 0x60 DUP3 ADD MSTORE RETURN JUMPDEST POP POP CALLVALUE PUSH2 0x13D JUMPI DUP2 PUSH1 0x3 NOT CALLDATASIZE ADD SLT PUSH2 0x13D JUMPI PUSH1 0x20 SWAP1 PUSH1 0x2 SLOAD SWAP1 MLOAD SWAP1 DUP2 MSTORE RETURN JUMPDEST POP POP CALLVALUE PUSH2 0x13D JUMPI DUP2 PUSH1 0x3 NOT CALLDATASIZE ADD SLT PUSH2 0x13D JUMPI MLOAD PUSH32 0x0 PUSH1 0x1 PUSH1 0x1 PUSH1 0xA0 SHL SUB AND DUP2 MSTORE PUSH1 0x20 SWAP1 RETURN JUMPDEST POP POP CALLVALUE PUSH2 0x13D JUMPI DUP2 PUSH1 0x3 NOT CALLDATASIZE ADD SLT PUSH2 0x13D JUMPI SWAP1 SLOAD SWAP1 MLOAD PUSH1 0x1 PUSH1 0x1 PUSH1 0xA0 SHL SUB SWAP1 SWAP2 AND DUP2 MSTORE PUSH1 0x20 SWAP1 RETURN JUMPDEST POP POP CALLVALUE PUSH2 0x13D JUMPI DUP2 PUSH1 0x3 NOT CALLDATASIZE ADD SLT PUSH2 0x13D JUMPI PUSH1 0x20 SWAP1 MLOAD PUSH4 0x1E13380 DUP2 MSTORE RETURN JUMPDEST SWAP2 SWAP1 POP CALLVALUE PUSH2 0x1C2 JUMPI PUSH1 0x20 CALLDATASIZE PUSH1 0x3 NOT ADD SLT PUSH2 0x1C2 JUMPI DUP2 CALLDATALOAD SWAP2 PUSH2 0x819 PUSH1 0x1 DUP1 PUSH1 0xA0 SHL SUB DUP6 SLOAD AND CALLER EQ PUSH2 0x1028 JUMP JUMPDEST DUP3 ISZERO PUSH2 0x851 JUMPI POP DUP2 PUSH1 0x20 SWAP2 PUSH32 0x66CBCA4F3C64FECF1DCB9CE094ABCF7F68C3450A1D4E3A8E917DD621EDB4EBE0 SWAP4 PUSH1 0x1 SSTORE MLOAD SWAP1 DUP2 MSTORE LOG1 DUP1 RETURN JUMPDEST PUSH1 0x20 PUSH1 0x64 SWAP3 MLOAD SWAP2 PUSH3 0x461BCD PUSH1 0xE5 SHL DUP4 MSTORE DUP3 ADD MSTORE PUSH1 0x11 PUSH1 0x24 DUP3 ADD MSTORE PUSH17 0x5072696365206D757374206265203E203 PUSH1 0x7C SHL PUSH1 0x44 DUP3 ADD MSTORE REVERT JUMPDEST POP POP CALLVALUE PUSH2 0x13D JUMPI DUP2 PUSH1 0x3 NOT CALLDATASIZE ADD SLT PUSH2 0x13D JUMPI PUSH1 0x20 SWAP1 PUSH1 0x3 SLOAD SWAP1 MLOAD SWAP1 DUP2 MSTORE RETURN JUMPDEST POP POP CALLVALUE PUSH2 0x13D JUMPI DUP2 PUSH1 0x3 NOT CALLDATASIZE ADD SLT PUSH2 0x13D JUMPI MLOAD PUSH32 0x0 PUSH1 0x1 PUSH1 0x1 PUSH1 0xA0 SHL SUB AND DUP2 MSTORE PUSH1 0x20 SWAP1 RETURN JUMPDEST SWAP2 SWAP1 POP CALLVALUE PUSH2 0x1C2 JUMPI PUSH1 0x20 CALLDATASIZE PUSH1 0x3 NOT ADD SLT PUSH2 0x1C2 JUMPI DUP2 CALLDATALOAD SWAP1 PUSH2 0x96E PUSH1 0x20 DUP4 PUSH1 0x1 DUP1 PUSH1 0xA0 SHL SUB PUSH2 0x91C DUP2 DUP10 SLOAD AND CALLER EQ PUSH2 0x1028 JUMP JUMPDEST DUP5 MLOAD PUSH4 0x23B872DD PUSH1 0xE0 SHL DUP2 MSTORE CALLER SWAP8 DUP2 ADD SWAP8 DUP9 MSTORE ADDRESS PUSH1 0x20 DUP10 ADD MSTORE PUSH1 0x40 DUP9 ADD SWAP3 SWAP1 SWAP3 MSTORE PUSH32 0x0 AND SWAP6 SWAP1 SWAP3 DUP4 SWAP2 DUP3 SWAP2 PUSH1 0x60 SWAP1 SWAP2 ADD SWAP1 JUMP JUMPDEST SUB DUP2 DUP9 DUP9 GAS CALL SWAP1 DUP2 ISZERO PUSH2 0x50D JUMPI SWAP2 PUSH2 0x9B2 PUSH32 0x32173D8E51CEC3A6FE484B7A1C3FEBE760CDF96E03D4CCA36A43563A4333E838 SWAP5 SWAP3 PUSH1 0x20 SWAP5 DUP9 SWAP2 PUSH2 0x9C9 JUMPI JUMPDEST POP PUSH2 0xFA1 JUMP JUMPDEST PUSH2 0x9BE DUP3 PUSH1 0x6 SLOAD PUSH2 0xEEC JUMP JUMPDEST PUSH1 0x6 SSTORE MLOAD SWAP1 DUP2 MSTORE LOG2 DUP1 RETURN JUMPDEST PUSH2 0x9E0 SWAP2 POP DUP6 RETURNDATASIZE DUP2 GT PUSH2 0x309 JUMPI PUSH2 0x2FB DUP2 DUP4 PUSH2 0xE9C JUMP JUMPDEST CODESIZE PUSH2 0x9AC JUMP JUMPDEST SWAP2 SWAP1 POP CALLVALUE PUSH2 0x1C2 JUMPI DUP1 PUSH1 0x3 NOT CALLDATASIZE ADD SLT PUSH2 0x1C2 JUMPI PUSH32 0xCF6CE3DB485F79E960E63B1550AF071FE0C99C09834149273E0FA8B32018FF8 SWAP2 CALLDATALOAD PUSH1 0x24 CALLDATALOAD PUSH2 0xA33 PUSH1 0x1 DUP1 PUSH1 0xA0 SHL SUB DUP7 SLOAD AND CALLER EQ PUSH2 0x1028 JUMP JUMPDEST DUP2 PUSH1 0x2 SSTORE DUP1 PUSH1 0x3 SSTORE DUP3 MLOAD SWAP2 DUP3 MSTORE PUSH1 0x20 DUP3 ADD MSTORE LOG1 DUP1 RETURN JUMPDEST SWAP2 SWAP1 POP CALLVALUE PUSH2 0x1C2 JUMPI DUP3 PUSH1 0x3 NOT CALLDATASIZE ADD SLT PUSH2 0x1C2 JUMPI PUSH2 0xA65 CALLER PUSH2 0xF06 JUMP JUMPDEST CALLER DUP4 MSTORE PUSH1 0x20 SWAP1 DUP3 DUP3 MSTORE DUP1 DUP5 KECCAK256 SWAP2 PUSH1 0x2 DUP4 ADD SWAP1 PUSH1 0x3 DUP3 SLOAD SWAP5 ADD SWAP2 DUP3 SLOAD SWAP3 DUP6 ISZERO SWAP2 DUP3 ISZERO DUP1 SWAP4 PUSH2 0xCE4 JUMPI JUMPDEST ISZERO PUSH2 0xCAE JUMPI SWAP1 DUP9 DUP1 SWAP3 SSTORE SSTORE PUSH2 0xBEC JUMPI JUMPDEST DUP2 PUSH2 0xAD4 JUMPI JUMPDEST DUP3 MLOAD SWAP4 DUP5 MSTORE DUP4 ADD MSTORE CALLER SWAP3 POP PUSH32 0xDACBDDE355BA930696A362EA6738FEB9F8BD52DFB3D81947558FD3217E23E325 SWAP2 LOG2 DUP1 RETURN JUMPDEST PUSH1 0x7 SLOAD SWAP1 SWAP2 DUP2 DUP2 GT PUSH2 0xBE5 JUMPI SWAP1 JUMPDEST DUP2 ISZERO PUSH2 0xBB8 JUMPI DUP2 PUSH2 0xB24 SWAP7 PUSH2 0xAF8 DUP3 DUP7 SWAP5 PUSH2 0xEF9 JUMP JUMPDEST PUSH1 0x7 SSTORE DUP6 MLOAD PUSH4 0xA9059CBB PUSH1 0xE0 SHL DUP2 MSTORE CALLER SWAP2 DUP2 ADD SWAP2 DUP3 MSTORE PUSH1 0x20 DUP3 ADD SWAP3 SWAP1 SWAP3 MSTORE SWAP1 SWAP7 DUP8 SWAP2 DUP3 SWAP2 PUSH1 0x40 SWAP1 SWAP2 ADD SWAP1 JUMP JUMPDEST SUB DUP2 DUP10 PUSH32 0x0 PUSH1 0x1 PUSH1 0x1 PUSH1 0xA0 SHL SUB AND GAS CALL SWAP5 DUP6 ISZERO PUSH2 0xBAE JUMPI PUSH32 0xDACBDDE355BA930696A362EA6738FEB9F8BD52DFB3D81947558FD3217E23E325 SWAP5 SWAP6 PUSH2 0xB8D SWAP2 DUP9 SWAP2 PUSH2 0xB97 JUMPI POP PUSH2 0xFE3 JUMP JUMPDEST SWAP1 JUMPDEST DUP5 SWAP4 POP PUSH2 0xAA3 JUMP JUMPDEST PUSH2 0x507 SWAP2 POP DUP5 RETURNDATASIZE DUP7 GT PUSH2 0x309 JUMPI PUSH2 0x2FB DUP2 DUP4 PUSH2 0xE9C JUMP JUMPDEST DUP4 MLOAD RETURNDATASIZE DUP9 DUP3 RETURNDATACOPY RETURNDATASIZE SWAP1 REVERT JUMPDEST POP POP PUSH32 0xDACBDDE355BA930696A362EA6738FEB9F8BD52DFB3D81947558FD3217E23E325 SWAP3 SWAP4 POP DUP5 SWAP1 PUSH2 0xB8F JUMP JUMPDEST POP DUP1 PUSH2 0xAE2 JUMP JUMPDEST PUSH1 0x6 SLOAD SWAP1 SWAP4 DUP2 DUP2 GT PUSH2 0xCA7 JUMPI SWAP1 JUMPDEST DUP2 ISZERO PUSH2 0xC9E JUMPI DUP2 PUSH2 0xC0A SWAP2 PUSH2 0xEF9 JUMP JUMPDEST PUSH1 0x6 SSTORE DUP3 MLOAD PUSH4 0xA9059CBB PUSH1 0xE0 SHL DUP2 MSTORE CALLER DUP7 DUP3 ADD SWAP1 DUP2 MSTORE PUSH1 0x20 DUP2 ADD DUP4 SWAP1 MSTORE DUP6 SWAP1 DUP3 SWAP1 DUP2 SWAP1 PUSH1 0x40 ADD SUB DUP2 DUP11 PUSH32 0x0 PUSH1 0x1 PUSH1 0x1 PUSH1 0xA0 SHL SUB AND GAS CALL SWAP1 DUP2 ISZERO PUSH2 0xC94 JUMPI SWAP1 PUSH2 0xC77 SWAP2 DUP9 SWAP2 PUSH2 0xC7D JUMPI POP PUSH2 0xFA1 JUMP JUMPDEST SWAP3 PUSH2 0xA9D JUMP JUMPDEST PUSH2 0x9E0 SWAP2 POP DUP7 RETURNDATASIZE DUP9 GT PUSH2 0x309 JUMPI PUSH2 0x2FB DUP2 DUP4 PUSH2 0xE9C JUMP JUMPDEST DUP5 MLOAD RETURNDATASIZE DUP10 DUP3 RETURNDATACOPY RETURNDATASIZE SWAP1 REVERT JUMPDEST POP POP DUP5 SWAP3 PUSH2 0xA9D JUMP JUMPDEST POP DUP1 PUSH2 0xBFA JUMP JUMPDEST DUP6 MLOAD PUSH3 0x461BCD PUSH1 0xE5 SHL DUP2 MSTORE DUP1 DUP10 ADD DUP6 SWAP1 MSTORE PUSH1 0x10 PUSH1 0x24 DUP3 ADD MSTORE PUSH16 0x4E6F7468696E6720746F20636C61696D PUSH1 0x80 SHL PUSH1 0x44 DUP3 ADD MSTORE PUSH1 0x64 SWAP1 REVERT JUMPDEST POP DUP5 ISZERO ISZERO PUSH2 0xA8D JUMP JUMPDEST SWAP1 POP CALLVALUE PUSH2 0x1C2 JUMPI DUP2 PUSH1 0x3 NOT CALLDATASIZE ADD SLT PUSH2 0x1C2 JUMPI PUSH1 0x20 PUSH2 0xD5C SWAP2 PUSH2 0xD0D PUSH2 0xE58 JUMP JUMPDEST DUP6 SLOAD PUSH1 0x1 PUSH1 0x1 PUSH1 0xA0 SHL SUB SWAP1 DUP2 AND SWAP1 DUP8 SWAP1 PUSH2 0xD28 CALLER DUP5 EQ PUSH2 0x1028 JUMP JUMPDEST DUP8 MLOAD PUSH4 0xA9059CBB PUSH1 0xE0 SHL DUP2 MSTORE PUSH1 0x1 PUSH1 0x1 PUSH1 0xA0 SHL SUB SWAP1 SWAP4 AND SWAP5 DUP4 ADD SWAP5 DUP6 MSTORE PUSH1 0x24 CALLDATALOAD PUSH1 0x20 DUP7 ADD MSTORE SWAP2 SWAP6 DUP7 SWAP5 DUP6 SWAP4 SWAP2 DUP5 SWAP2 PUSH1 0x40 ADD SWAP1 JUMP JUMPDEST SUB SWAP4 AND GAS CALL SWAP1 DUP2 ISZERO PUSH2 0xD94 JUMPI PUSH2 0xD79 SWAP3 POP DUP4 SWAP2 PUSH2 0xD7C JUMPI POP PUSH2 0x1060 JUMP JUMPDEST DUP1 RETURN JUMPDEST PUSH2 0x303 SWAP2 POP PUSH1 0x20 RETURNDATASIZE DUP2 GT PUSH2 0x309 JUMPI PUSH2 0x2FB DUP2 DUP4 PUSH2 0xE9C JUMP JUMPDEST POP POP MLOAD SWAP1 RETURNDATASIZE SWAP1 DUP3 RETURNDATACOPY RETURNDATASIZE SWAP1 REVERT JUMPDEST SWAP1 POP CALLVALUE PUSH2 0x1C2 JUMPI PUSH1 0x20 CALLDATASIZE PUSH1 0x3 NOT ADD SLT PUSH2 0x1C2 JUMPI SWAP2 DUP2 SWAP3 PUSH2 0xDBE PUSH2 0xE58 JUMP JUMPDEST PUSH1 0x1 PUSH1 0x1 PUSH1 0xA0 SHL SUB AND DUP3 MSTORE PUSH1 0x20 MSTORE KECCAK256 PUSH1 0x2 DUP2 ADD SLOAD PUSH1 0x3 DUP3 ADD SLOAD DUP3 SLOAD SWAP2 SWAP3 SWAP1 SWAP2 SWAP1 DUP2 ISZERO ISZERO DUP1 PUSH2 0xE4B JUMPI JUMPDEST PUSH2 0xDFA JUMPI JUMPDEST POP POP DUP3 MLOAD SWAP2 DUP3 MSTORE PUSH1 0x20 DUP3 ADD MSTORE RETURN JUMPDEST SWAP3 PUSH2 0xE33 PUSH2 0xE11 PUSH1 0x1 PUSH2 0xE44 SWAP6 SWAP5 SWAP7 ADD SLOAD TIMESTAMP PUSH2 0xEF9 JUMP JUMPDEST PUSH2 0xE2E PUSH2 0xE3A PUSH4 0x1E13380 SWAP5 DUP6 PUSH2 0xE33 DUP6 PUSH2 0xE2E PUSH1 0x2 SLOAD DUP14 PUSH2 0xE73 JUMP JUMPDEST PUSH2 0xE73 JUMP JUMPDEST DIV SWAP1 PUSH2 0xEEC JUMP JUMPDEST SWAP7 PUSH1 0x3 SLOAD SWAP1 PUSH2 0xE73 JUMP JUMPDEST CODESIZE DUP1 PUSH2 0xDEC JUMP JUMPDEST POP PUSH1 0x1 DUP2 ADD SLOAD ISZERO ISZERO PUSH2 0xDE7 JUMP JUMPDEST PUSH1 0x4 CALLDATALOAD SWAP1 PUSH1 0x1 PUSH1 0x1 PUSH1 0xA0 SHL SUB DUP3 AND DUP3 SUB PUSH2 0xE6E JUMPI JUMP JUMPDEST PUSH1 0x0 DUP1 REVERT JUMPDEST DUP2 DUP2 MUL SWAP3 SWAP2 DUP2 ISZERO SWAP2 DUP5 DIV EQ OR ISZERO PUSH2 0xE86 JUMPI JUMP JUMPDEST PUSH4 0x4E487B71 PUSH1 0xE0 SHL PUSH1 0x0 MSTORE PUSH1 0x11 PUSH1 0x4 MSTORE PUSH1 0x24 PUSH1 0x0 REVERT JUMPDEST SWAP1 PUSH1 0x1F DUP1 NOT SWAP2 ADD AND DUP2 ADD SWAP1 DUP2 LT PUSH8 0xFFFFFFFFFFFFFFFF DUP3 GT OR PUSH2 0xEBE JUMPI PUSH1 0x40 MSTORE JUMP JUMPDEST PUSH4 0x4E487B71 PUSH1 0xE0 SHL PUSH1 0x0 MSTORE PUSH1 0x41 PUSH1 0x4 MSTORE PUSH1 0x24 PUSH1 0x0 REVERT JUMPDEST SWAP1 DUP2 PUSH1 0x20 SWAP2 SUB SLT PUSH2 0xE6E JUMPI MLOAD DUP1 ISZERO ISZERO DUP2 SUB PUSH2 0xE6E JUMPI SWAP1 JUMP JUMPDEST SWAP2 SWAP1 DUP3 ADD DUP1 SWAP3 GT PUSH2 0xE86 JUMPI JUMP JUMPDEST SWAP2 SWAP1 DUP3 SUB SWAP2 DUP3 GT PUSH2 0xE86 JUMPI JUMP JUMPDEST PUSH1 0x1 PUSH1 0x1 PUSH1 0xA0 SHL SUB AND PUSH1 0x0 SWAP1 DUP2 MSTORE PUSH1 0x4 PUSH1 0x20 MSTORE PUSH1 0x40 SWAP1 KECCAK256 DUP1 SLOAD DUP1 ISZERO ISZERO DUP1 PUSH2 0xF94 JUMPI JUMPDEST PUSH2 0xF36 JUMPI JUMPDEST POP PUSH1 0x1 TIMESTAMP SWAP2 ADD SSTORE JUMP JUMPDEST PUSH2 0xF7C PUSH2 0xF47 PUSH1 0x1 DUP5 ADD SLOAD TIMESTAMP PUSH2 0xEF9 JUMP JUMPDEST PUSH2 0xE2E PUSH4 0x1E13380 SWAP4 DUP5 PUSH2 0xF61 DUP5 PUSH2 0xE2E PUSH1 0x2 SLOAD DUP6 PUSH2 0xE73 JUMP JUMPDEST DIV PUSH2 0xF71 PUSH1 0x2 DUP9 ADD SWAP2 DUP3 SLOAD PUSH2 0xEEC JUMP JUMPDEST SWAP1 SSTORE PUSH1 0x3 SLOAD SWAP1 PUSH2 0xE73 JUMP JUMPDEST DIV PUSH2 0xF8C PUSH1 0x3 DUP4 ADD SWAP2 DUP3 SLOAD PUSH2 0xEEC JUMP JUMPDEST SWAP1 SSTORE CODESIZE PUSH2 0xF2D JUMP JUMPDEST POP PUSH1 0x1 DUP3 ADD SLOAD ISZERO ISZERO PUSH2 0xF28 JUMP JUMPDEST ISZERO PUSH2 0xFA8 JUMPI JUMP JUMPDEST PUSH1 0x40 MLOAD PUSH3 0x461BCD PUSH1 0xE5 SHL DUP2 MSTORE PUSH1 0x20 PUSH1 0x4 DUP3 ADD MSTORE PUSH1 0x13 PUSH1 0x24 DUP3 ADD MSTORE PUSH19 0x120C93C81D1C985B9CD9995C8819985A5B1959 PUSH1 0x6A SHL PUSH1 0x44 DUP3 ADD MSTORE PUSH1 0x64 SWAP1 REVERT JUMPDEST ISZERO PUSH2 0xFEA JUMPI JUMP JUMPDEST PUSH1 0x40 MLOAD PUSH3 0x461BCD PUSH1 0xE5 SHL DUP2 MSTORE PUSH1 0x20 PUSH1 0x4 DUP3 ADD MSTORE PUSH1 0x16 PUSH1 0x24 DUP3 ADD MSTORE PUSH22 0x109510D20C93C81D1C985B9CD9995C8819985A5B1959 PUSH1 0x52 SHL PUSH1 0x44 DUP3 ADD MSTORE PUSH1 0x64 SWAP1 REVERT JUMPDEST ISZERO PUSH2 0x102F JUMPI JUMP JUMPDEST PUSH1 0x40 MLOAD PUSH3 0x461BCD PUSH1 0xE5 SHL DUP2 MSTORE PUSH1 0x20 PUSH1 0x4 DUP3 ADD MSTORE PUSH1 0x9 PUSH1 0x24 DUP3 ADD MSTORE PUSH9 0x2737BA1037BBB732B9 PUSH1 0xB9 SHL PUSH1 0x44 DUP3 ADD MSTORE PUSH1 0x64 SWAP1 REVERT JUMPDEST ISZERO PUSH2 0x1067 JUMPI JUMP JUMPDEST PUSH1 0x40 MLOAD PUSH3 0x461BCD PUSH1 0xE5 SHL DUP2 MSTORE PUSH1 0x20 PUSH1 0x4 DUP3 ADD MSTORE PUSH1 0xF PUSH1 0x24 DUP3 ADD MSTORE PUSH15 0x151C985B9CD9995C8819985A5B1959 PUSH1 0x8A SHL PUSH1 0x44 DUP3 ADD MSTORE PUSH1 0x64 SWAP1 REVERT INVALID LOG2 PUSH5 0x6970667358 0x22 SLT KECCAK256 0xAB 0xAA 0xCE AND DUP3 0xD4 PUSH3 0x771119 0xCE 0xF6 0xAA 0xDE PUSH20 0xFF2302C6CDA6C4898AAEFFE3BDE5A4D2D964736F PUSH13 0x63430008140033000000000000 "},"methodIdentifiers":{"YEAR()":"83914540","btch2oPool()":"eb6bdad5","btch2oRatePerYear()":"634f13be","btch2oToken()":"4a541ac8","buyPackage(uint256)":"ab69523b","claimRewards()":"372500ab","fundBTCH2O(uint256)":"c45eb577","fundH2O(uint256)":"451a26c7","h2oPool()":"db40c6b3","h2oRatePerYear()":"9c8f5383","h2oToken()":"d03625a8","owner()":"8da5cb5b","packagePriceWLD()":"b6ae5410","pendingRewards(address)":"31d7a262","rescueToken(address,uint256)":"33f3d628","setPackagePrice(uint256)":"72c55971","setRewardRates(uint256,uint256)":"37ba04a0","totalPower()":"db3ad22c","transferOwnership(address)":"f2fde38b","users(address)":"a87430ba","withdrawWLD()":"df082af3","wldCollected()":"f41c565d","wldToken()":"9be3783d"}}}}}