{
  "_format": "hh-sol-artifact-1",
  "contractName": "H2OMining",
  "sourceName": "contracts/H2OMining.sol",
  "abi": [
    {
      "inputs": [
        {
          "internalType": "address",
          "name": "_wld",
          "type": "address"
        },
        {
          "internalType": "address",
          "name": "_h2o",
          "type": "address"
        },
        {
          "internalType": "address",
          "name": "_btch2o",
          "type": "address"
        },
        {
          "internalType": "uint256",
          "name": "_packagePriceWLD",
          "type": "uint256"
        },
        {
          "internalType": "uint256",
          "name": "_h2oRatePerYear",
          "type": "uint256"
        },
        {
          "internalType": "uint256",
          "name": "_btch2oRatePerYear",
          "type": "uint256"
        }
      ],
      "stateMutability": "nonpayable",
      "type": "constructor"
    },
    {
      "anonymous": false,
      "inputs": [
        {
          "indexed": true,
          "internalType": "address",
          "name": "user",
          "type": "address"
        },
        {
          "indexed": false,
          "internalType": "uint256",
          "name": "unitsBought",
          "type": "uint256"
        },
        {
          "indexed": false,
          "internalType": "uint256",
          "name": "totalPower",
          "type": "uint256"
        }
      ],
      "name": "PackageBought",
      "type": "event"
    },
    {
      "anonymous": false,
      "inputs": [
        {
          "indexed": true,
          "internalType": "address",
          "name": "token",
          "type": "address"
        },
        {
          "indexed": false,
          "internalType": "uint256",
          "name": "amount",
          "type": "uint256"
        }
      ],
      "name": "PoolFunded",
      "type": "event"
    },
    {
      "anonymous": false,
      "inputs": [
        {
          "indexed": false,
          "internalType": "uint256",
          "name": "newPrice",
          "type": "uint256"
        }
      ],
      "name": "PriceUpdated",
      "type": "event"
    },
    {
      "anonymous": false,
      "inputs": [
        {
          "indexed": false,
          "internalType": "uint256",
          "name": "h2oRate",
          "type": "uint256"
        },
        {
          "indexed": false,
          "internalType": "uint256",
          "name": "btch2oRate",
          "type": "uint256"
        }
      ],
      "name": "RatesUpdated",
      "type": "event"
    },
    {
      "anonymous": false,
      "inputs": [
        {
          "indexed": true,
          "internalType": "address",
          "name": "user",
          "type": "address"
        },
        {
          "indexed": false,
          "internalType": "uint256",
          "name": "h2oAmount",
          "type": "uint256"
        },
        {
          "indexed": false,
          "internalType": "uint256",
          "name": "btch2oAmount",
          "type": "uint256"
        }
      ],
      "name": "RewardsClaimed",
      "type": "event"
    },
    {
      "anonymous": false,
      "inputs": [
        {
          "indexed": false,
          "internalType": "uint256",
          "name": "amount",
          "type": "uint256"
        }
      ],
      "name": "WLDWithdrawn",
      "type": "event"
    },
    {
      "inputs": [],
      "name": "YEAR",
      "outputs": [
        {
          "internalType": "uint256",
          "name": "",
          "type": "uint256"
        }
      ],
      "stateMutability": "view",
      "type": "function"
    },
    {
      "inputs": [],
      "name": "btch2oPool",
      "outputs": [
        {
          "internalType": "uint256",
          "name": "",
          "type": "uint256"
        }
      ],
      "stateMutability": "view",
      "type": "function"
    },
    {
      "inputs": [],
      "name": "btch2oRatePerYear",
      "outputs": [
        {
          "internalType": "uint256",
          "name": "",
          "type": "uint256"
        }
      ],
      "stateMutability": "view",
      "type": "function"
    },
    {
      "inputs": [],
      "name": "btch2oToken",
      "outputs": [
        {
          "internalType": "contract IERC20",
          "name": "",
          "type": "address"
        }
      ],
      "stateMutability": "view",
      "type": "function"
    },
    {
      "inputs": [
        {
          "internalType": "uint256",
          "name": "units",
          "type": "uint256"
        }
      ],
      "name": "buyPackage",
      "outputs": [],
      "stateMutability": "nonpayable",
      "type": "function"
    },
    {
      "inputs": [],
      "name": "claimRewards",
      "outputs": [],
      "stateMutability": "nonpayable",
      "type": "function"
    },
    {
      "inputs": [
        {
          "internalType": "uint256",
          "name": "amount",
          "type": "uint256"
        }
      ],
      "name": "fundBTCH2O",
      "outputs": [],
      "stateMutability": "nonpayable",
      "type": "function"
    },
    {
      "inputs": [
        {
          "internalType": "uint256",
          "name": "amount",
          "type": "uint256"
        }
      ],
      "name": "fundH2O",
      "outputs": [],
      "stateMutability": "nonpayable",
      "type": "function"
    },
    {
      "inputs": [],
      "name": "h2oPool",
      "outputs": [
        {
          "internalType": "uint256",
          "name": "",
          "type": "uint256"
        }
      ],
      "stateMutability": "view",
      "type": "function"
    },
    {
      "inputs": [],
      "name": "h2oRatePerYear",
      "outputs": [
        {
          "internalType": "uint256",
          "name": "",
          "type": "uint256"
        }
      ],
      "stateMutability": "view",
      "type": "function"
    },
    {
      "inputs": [],
      "name": "h2oToken",
      "outputs": [
        {
          "internalType": "contract IERC20",
          "name": "",
          "type": "address"
        }
      ],
      "stateMutability": "view",
      "type": "function"
    },
    {
      "inputs": [],
      "name": "owner",
      "outputs": [
        {
          "internalType": "address",
          "name": "",
          "type": "address"
        }
      ],
      "stateMutability": "view",
      "type": "function"
    },
    {
      "inputs": [],
      "name": "packagePriceWLD",
      "outputs": [
        {
          "internalType": "uint256",
          "name": "",
          "type": "uint256"
        }
      ],
      "stateMutability": "view",
      "type": "function"
    },
    {
      "inputs": [
        {
          "internalType": "address",
          "name": "user",
          "type": "address"
        }
      ],
      "name": "pendingRewards",
      "outputs": [
        {
          "internalType": "uint256",
          "name": "h2oAmt",
          "type": "uint256"
        },
        {
          "internalType": "uint256",
          "name": "btch2oAmt",
          "type": "uint256"
        }
      ],
      "stateMutability": "view",
      "type": "function"
    },
    {
      "inputs": [
        {
          "internalType": "address",
          "name": "token",
          "type": "address"
        },
        {
          "internalType": "uint256",
          "name": "amount",
          "type": "uint256"
        }
      ],
      "name": "rescueToken",
      "outputs": [],
      "stateMutability": "nonpayable",
      "type": "function"
    },
    {
      "inputs": [
        {
          "internalType": "uint256",
          "name": "_price",
          "type": "uint256"
        }
      ],
      "name": "setPackagePrice",
      "outputs": [],
      "stateMutability": "nonpayable",
      "type": "function"
    },
    {
      "inputs": [
        {
          "internalType": "uint256",
          "name": "_h2oRate",
          "type": "uint256"
        },
        {
          "internalType": "uint256",
          "name": "_btch2oRate",
          "type": "uint256"
        }
      ],
      "name": "setRewardRates",
      "outputs": [],
      "stateMutability": "nonpayable",
      "type": "function"
    },
    {
      "inputs": [],
      "name": "totalPower",
      "outputs": [
        {
          "internalType": "uint256",
          "name": "",
          "type": "uint256"
        }
      ],
      "stateMutability": "view",
      "type": "function"
    },
    {
      "inputs": [
        {
          "internalType": "address",
          "name": "newOwner",
          "type": "address"
        }
      ],
      "name": "transferOwnership",
      "outputs": [],
      "stateMutability": "nonpayable",
      "type": "function"
    },
    {
      "inputs": [
        {
          "internalType": "address",
          "name": "",
          "type": "address"
        }
      ],
      "name": "users",
      "outputs": [
        {
          "internalType": "uint256",
          "name": "power",
          "type": "uint256"
        },
        {
          "internalType": "uint256",
          "name": "lastClaimed",
          "type": "uint256"
        },
        {
          "internalType": "uint256",
          "name": "pendingH2O",
          "type": "uint256"
        },
        {
          "internalType": "uint256",
          "name": "pendingBTCH2O",
          "type": "uint256"
        }
      ],
      "stateMutability": "view",
      "type": "function"
    },
    {
      "inputs": [],
      "name": "withdrawWLD",
      "outputs": [],
      "stateMutability": "nonpayable",
      "type": "function"
    },
    {
      "inputs": [],
      "name": "wldCollected",
      "outputs": [
        {
          "internalType": "uint256",
          "name": "",
          "type": "uint256"
        }
      ],
      "stateMutability": "view",
      "type": "function"
    },
    {
      "inputs": [],
      "name": "wldToken",
      "outputs": [
        {
          "internalType": "contract IERC20",
          "name": "",
          "type": "address"
        }
      ],
      "stateMutability": "view",
      "type": "function"
    }
  ],
  "bytecode": "0x60e0346100f757601f6111fb38819003918201601f19168301916001600160401b038311848410176100fc5780849260c0946040528339810103126100f75761004781610112565b9061005460208201610112565b61006060408301610112565b9060608301519160a06080850151940151943360018060a01b0319600054161760005560018060a01b0392838092166080521660a0521660c0526001556002556003556040516110d4908161012782396080518181816102120152818161059c0152610778015260a0518181816103e20152818161093f0152610c35015260c051818181610466015281816108bb0152610b290152f35b600080fd5b634e487b7160e01b600052604160045260246000fd5b51906001600160a01b03821682036100f75756fe6040608081526004908136101561001557600080fd5b600091823560e01c90816331d7a26214610da057816333f3d62814610ced578163372500ab14610a4957816337ba04a0146109e6578163451a26c7146108ea5781634a541ac8146108a6578163634f13be1461088757816372c55971146107ee57816383914540146107cf5781638da5cb5b146107a75781639be3783d146107635781639c8f538314610744578163a87430ba146106ec578163ab69523b14610536578163b6ae541014610517578163c45eb57714610411578163d03625a8146103cd578163db3ad22c146103ae578163db40c6b31461038f578163df082af3146101e5578163eb6bdad5146101c6578163f2fde38b14610141575063f41c565d1461012057600080fd5b3461013d578160031936011261013d576020906008549051908152f35b5080fd5b9050346101c25760203660031901126101c25761015c610e58565b835491906001600160a01b03906101763383861614611028565b169283156101905750506001600160a01b03191617815580f35b906020606492519162461bcd60e51b8352820152600c60248201526b5a65726f206164647265737360a01b6044820152fd5b8280fd5b50503461013d578160031936011261013d576020906007549051908152f35b9050346101c257826003193601126101c25782546001600160a01b0390811690610210338314611028565b7f0000000000000000000000000000000000000000000000000000000000000000168351916370a0823160e01b835230848401526020938484602481865afa938415610385578794610352575b50831561031a57855163a9059cbb60e01b81526001600160a01b03909216908201908152602081018490529091849183919082908990829060400103925af1908115610310577fc279bb989fc18c5851adf5bfe55c947c5b36239700f3090fc450a4a143c1a47794916102d79187916102e3575b50611060565b8460085551908152a180f35b6103039150853d8711610309575b6102fb8183610e9c565b810190610ed4565b386102d1565b503d6102f1565b84513d87823e3d90fd5b855162461bcd60e51b815290810185905260126024820152714e6f20574c4420746f20776974686472617760701b6044820152606490fd5b9093508481813d831161037e575b61036a8183610e9c565b8101031261037a5751923861025d565b8680fd5b503d610360565b86513d89823e3d90fd5b50503461013d578160031936011261013d576020906006549051908152f35b50503461013d578160031936011261013d576020906005549051908152f35b50503461013d578160031936011261013d57517f00000000000000000000000000000000000000000000000000000000000000006001600160a01b03168152602090f35b919050346101c25760203660031901126101c25781359061049560208360018060a01b03610443818954163314611028565b84516323b872dd60e01b81523397810197885230602089015260408801929092527f00000000000000000000000000000000000000000000000000000000000000001695909283918291606090910190565b038188885af190811561050d57916104d97f32173d8e51cec3a6fe484b7a1c3febe760cdf96e03d4cca36a43563a4333e838949260209488916104f0575b50610fe3565b6104e582600754610eec565b60075551908152a280f35b6105079150853d8111610309576102fb8183610e9c565b386104d3565b82513d87823e3d90fd5b50503461013d578160031936011261013d576020906001549051908152f35b83833461013d57602090816003193601126101c257833591600183106106bd5761055f33610f06565b61056b83600154610e73565b82516323b872dd60e01b815233818801908152306020820152604081018390529196918390829081906060010381897f00000000000000000000000000000000000000000000000000000000000000006001600160a01b03165af19081156106b3578691610696575b501561065f576106097fbb2acf23a88ff2d77196aaa4036b06fca5d67dcefd9dc368e5323e940ff9a8a1949596600854610eec565b600855338652808252828620610620868254610eec565b905561062e85600554610eec565b600555338652815281852060018101805415610656575b50549082519485528401523392a280f35b42905586610645565b915162461bcd60e51b815291820152601360248201527215d311081d1c985b9cd9995c8819985a5b1959606a1b6044820152606490fd5b6106ad9150833d8511610309576102fb8183610e9c565b876105d4565b84513d88823e3d90fd5b8490606492519162461bcd60e51b8352820152600a602482015269135a5b880c481d5b9a5d60b21b6044820152fd5b9050346101c25760203660031901126101c25760809282916001600160a01b03610714610e58565b16825260205220908154916001810154916003600283015492015492815194855260208501528301526060820152f35b50503461013d578160031936011261013d576020906002549051908152f35b50503461013d578160031936011261013d57517f00000000000000000000000000000000000000000000000000000000000000006001600160a01b03168152602090f35b50503461013d578160031936011261013d57905490516001600160a01b039091168152602090f35b50503461013d578160031936011261013d57602090516301e133808152f35b919050346101c25760203660031901126101c25781359161081960018060a01b038554163314611028565b82156108515750816020917f66cbca4f3c64fecf1dcb9ce094abcf7f68c3450a1d4e3a8e917dd621edb4ebe09360015551908152a180f35b6020606492519162461bcd60e51b8352820152601160248201527005072696365206d757374206265203e203607c1b6044820152fd5b50503461013d578160031936011261013d576020906003549051908152f35b50503461013d578160031936011261013d57517f00000000000000000000000000000000000000000000000000000000000000006001600160a01b03168152602090f35b919050346101c25760203660031901126101c25781359061096e60208360018060a01b0361091c818954163314611028565b84516323b872dd60e01b81523397810197885230602089015260408801929092527f00000000000000000000000000000000000000000000000000000000000000001695909283918291606090910190565b038188885af190811561050d57916109b27f32173d8e51cec3a6fe484b7a1c3febe760cdf96e03d4cca36a43563a4333e838949260209488916109c9575b50610fa1565b6109be82600654610eec565b60065551908152a280f35b6109e09150853d8111610309576102fb8183610e9c565b386109ac565b919050346101c257806003193601126101c2577f0cf6ce3db485f79e960e63b1550af071fe0c99c09834149273e0fa8b32018ff89135602435610a3360018060a01b038654163314611028565b816002558060035582519182526020820152a180f35b919050346101c257826003193601126101c257610a6533610f06565b3383526020908282528084209160028301906003825494019182549285159182158093610ce4575b15610cae57908880925555610bec575b81610ad4575b82519384528301523392507fdacbdde355ba930696a362ea6738feb9f8bd52dfb3d81947558fd3217e23e32591a280f35b6007549091818111610be557905b8115610bb85781610b2496610af8828694610ef9565b600755855163a9059cbb60e01b8152339181019182526020820192909252909687918291604090910190565b0381897f00000000000000000000000000000000000000000000000000000000000000006001600160a01b03165af1948515610bae577fdacbdde355ba930696a362ea6738feb9f8bd52dfb3d81947558fd3217e23e3259495610b8d918891610b975750610fe3565b905b849350610aa3565b6105079150843d8611610309576102fb8183610e9c565b83513d88823e3d90fd5b50507fdacbdde355ba930696a362ea6738feb9f8bd52dfb3d81947558fd3217e23e3259293508490610b8f565b5080610ae2565b6006549093818111610ca757905b8115610c9e5781610c0a91610ef9565b600655825163a9059cbb60e01b8152338682019081526020810183905285908290819060400103818a7f00000000000000000000000000000000000000000000000000000000000000006001600160a01b03165af1908115610c945790610c77918891610c7d5750610fa1565b92610a9d565b6109e09150863d8811610309576102fb8183610e9c565b84513d89823e3d90fd5b50508492610a9d565b5080610bfa565b855162461bcd60e51b8152808901859052601060248201526f4e6f7468696e6720746f20636c61696d60801b6044820152606490fd5b50841515610a8d565b9050346101c257816003193601126101c2576020610d5c91610d0d610e58565b85546001600160a01b03908116908790610d28338414611028565b875163a9059cbb60e01b81526001600160a01b03909316948301948552602435602086015291958694859391849160400190565b0393165af1908115610d9457610d7992508391610d7c5750611060565b80f35b610303915060203d8111610309576102fb8183610e9c565b505051903d90823e3d90fd5b9050346101c25760203660031901126101c257918192610dbe610e58565b6001600160a01b0316825260205220600281015460038201548254919290919081151580610e4b575b610dfa575b505082519182526020820152f35b92610e33610e116001610e44959496015442610ef9565b610e2e610e3a6301e133809485610e3385610e2e6002548d610e73565b610e73565b0490610eec565b9660035490610e73565b3880610dec565b5060018101541515610de7565b600435906001600160a01b0382168203610e6e57565b600080fd5b81810292918115918404141715610e8657565b634e487b7160e01b600052601160045260246000fd5b90601f8019910116810190811067ffffffffffffffff821117610ebe57604052565b634e487b7160e01b600052604160045260246000fd5b90816020910312610e6e57518015158103610e6e5790565b91908201809211610e8657565b91908203918211610e8657565b6001600160a01b03166000908152600460205260409020805480151580610f94575b610f36575b50600142910155565b610f7c610f47600184015442610ef9565b610e2e6301e133809384610f6184610e2e60025485610e73565b04610f7160028801918254610eec565b905560035490610e73565b04610f8c60038301918254610eec565b905538610f2d565b5060018201541515610f28565b15610fa857565b60405162461bcd60e51b8152602060048201526013602482015272120c93c81d1c985b9cd9995c8819985a5b1959606a1b6044820152606490fd5b15610fea57565b60405162461bcd60e51b8152602060048201526016602482015275109510d20c93c81d1c985b9cd9995c8819985a5b195960521b6044820152606490fd5b1561102f57565b60405162461bcd60e51b81526020600482015260096024820152682737ba1037bbb732b960b91b6044820152606490fd5b1561106757565b60405162461bcd60e51b815260206004820152600f60248201526e151c985b9cd9995c8819985a5b1959608a1b6044820152606490fdfea2646970667358221220abaace1682d462771119cef6aade73ff2302c6cda6c4898aaeffe3bde5a4d2d964736f6c63430008140033",
  "linkReferences": {},
  "deployedLinkReferences": {}
}