{
  "_format": "hh-sol-artifact-1",
  "contractName": "BTCH2OStaking",
  "sourceName": "contracts/BTCH2OStaking.sol",
  "abi": [
    {
      "inputs": [
        {
          "internalType": "address",
          "name": "_token",
          "type": "address"
        },
        {
          "internalType": "uint256",
          "name": "_aprBps",
          "type": "uint256"
        }
      ],
      "stateMutability": "nonpayable",
      "type": "constructor"
    },
    {
      "anonymous": false,
      "inputs": [
        {
          "indexed": false,
          "internalType": "uint256",
          "name": "newAprBps",
          "type": "uint256"
        }
      ],
      "name": "AprSet",
      "type": "event"
    },
    {
      "anonymous": false,
      "inputs": [
        {
          "indexed": true,
          "internalType": "address",
          "name": "user",
          "type": "address"
        },
        {
          "indexed": false,
          "internalType": "uint256",
          "name": "netReward",
          "type": "uint256"
        },
        {
          "indexed": false,
          "internalType": "uint256",
          "name": "fee",
          "type": "uint256"
        }
      ],
      "name": "Claimed",
      "type": "event"
    },
    {
      "anonymous": false,
      "inputs": [
        {
          "indexed": true,
          "internalType": "address",
          "name": "to",
          "type": "address"
        },
        {
          "indexed": false,
          "internalType": "uint256",
          "name": "amount",
          "type": "uint256"
        }
      ],
      "name": "FeeWithdrawn",
      "type": "event"
    },
    {
      "anonymous": false,
      "inputs": [
        {
          "indexed": false,
          "internalType": "uint256",
          "name": "deposit",
          "type": "uint256"
        },
        {
          "indexed": false,
          "internalType": "uint256",
          "name": "withdraw",
          "type": "uint256"
        },
        {
          "indexed": false,
          "internalType": "uint256",
          "name": "claim",
          "type": "uint256"
        }
      ],
      "name": "FeesSet",
      "type": "event"
    },
    {
      "anonymous": false,
      "inputs": [
        {
          "indexed": true,
          "internalType": "address",
          "name": "from",
          "type": "address"
        },
        {
          "indexed": false,
          "internalType": "uint256",
          "name": "amount",
          "type": "uint256"
        }
      ],
      "name": "Funded",
      "type": "event"
    },
    {
      "anonymous": false,
      "inputs": [
        {
          "indexed": true,
          "internalType": "address",
          "name": "previousOwner",
          "type": "address"
        },
        {
          "indexed": true,
          "internalType": "address",
          "name": "newOwner",
          "type": "address"
        }
      ],
      "name": "OwnershipTransferred",
      "type": "event"
    },
    {
      "anonymous": false,
      "inputs": [
        {
          "indexed": true,
          "internalType": "address",
          "name": "user",
          "type": "address"
        },
        {
          "indexed": false,
          "internalType": "uint256",
          "name": "netAmount",
          "type": "uint256"
        },
        {
          "indexed": false,
          "internalType": "uint256",
          "name": "fee",
          "type": "uint256"
        }
      ],
      "name": "Staked",
      "type": "event"
    },
    {
      "anonymous": false,
      "inputs": [
        {
          "indexed": true,
          "internalType": "address",
          "name": "user",
          "type": "address"
        },
        {
          "indexed": false,
          "internalType": "uint256",
          "name": "netAmount",
          "type": "uint256"
        },
        {
          "indexed": false,
          "internalType": "uint256",
          "name": "fee",
          "type": "uint256"
        }
      ],
      "name": "Unstaked",
      "type": "event"
    },
    {
      "inputs": [],
      "name": "YEAR",
      "outputs": [
        {
          "internalType": "uint256",
          "name": "",
          "type": "uint256"
        }
      ],
      "stateMutability": "view",
      "type": "function"
    },
    {
      "inputs": [],
      "name": "apr",
      "outputs": [
        {
          "internalType": "uint256",
          "name": "",
          "type": "uint256"
        }
      ],
      "stateMutability": "view",
      "type": "function"
    },
    {
      "inputs": [],
      "name": "aprBps",
      "outputs": [
        {
          "internalType": "uint256",
          "name": "",
          "type": "uint256"
        }
      ],
      "stateMutability": "view",
      "type": "function"
    },
    {
      "inputs": [],
      "name": "claim",
      "outputs": [],
      "stateMutability": "nonpayable",
      "type": "function"
    },
    {
      "inputs": [],
      "name": "claimFeeBps",
      "outputs": [
        {
          "internalType": "uint256",
          "name": "",
          "type": "uint256"
        }
      ],
      "stateMutability": "view",
      "type": "function"
    },
    {
      "inputs": [],
      "name": "depositFeeBps",
      "outputs": [
        {
          "internalType": "uint256",
          "name": "",
          "type": "uint256"
        }
      ],
      "stateMutability": "view",
      "type": "function"
    },
    {
      "inputs": [],
      "name": "feeBalance",
      "outputs": [
        {
          "internalType": "uint256",
          "name": "",
          "type": "uint256"
        }
      ],
      "stateMutability": "view",
      "type": "function"
    },
    {
      "inputs": [
        {
          "internalType": "uint256",
          "name": "amount",
          "type": "uint256"
        }
      ],
      "name": "fundRewards",
      "outputs": [],
      "stateMutability": "nonpayable",
      "type": "function"
    },
    {
      "inputs": [],
      "name": "owner",
      "outputs": [
        {
          "internalType": "address",
          "name": "",
          "type": "address"
        }
      ],
      "stateMutability": "view",
      "type": "function"
    },
    {
      "inputs": [
        {
          "internalType": "address",
          "name": "user",
          "type": "address"
        }
      ],
      "name": "pendingRewards",
      "outputs": [
        {
          "internalType": "uint256",
          "name": "",
          "type": "uint256"
        }
      ],
      "stateMutability": "view",
      "type": "function"
    },
    {
      "inputs": [
        {
          "internalType": "address",
          "name": "token",
          "type": "address"
        },
        {
          "internalType": "uint256",
          "name": "amount",
          "type": "uint256"
        }
      ],
      "name": "rescueToken",
      "outputs": [],
      "stateMutability": "nonpayable",
      "type": "function"
    },
    {
      "inputs": [],
      "name": "rewardPool",
      "outputs": [
        {
          "internalType": "uint256",
          "name": "",
          "type": "uint256"
        }
      ],
      "stateMutability": "view",
      "type": "function"
    },
    {
      "inputs": [
        {
          "internalType": "uint256",
          "name": "_aprBps",
          "type": "uint256"
        }
      ],
      "name": "setApr",
      "outputs": [],
      "stateMutability": "nonpayable",
      "type": "function"
    },
    {
      "inputs": [
        {
          "internalType": "uint256",
          "name": "_deposit",
          "type": "uint256"
        },
        {
          "internalType": "uint256",
          "name": "_withdraw",
          "type": "uint256"
        },
        {
          "internalType": "uint256",
          "name": "_claim",
          "type": "uint256"
        }
      ],
      "name": "setFees",
      "outputs": [],
      "stateMutability": "nonpayable",
      "type": "function"
    },
    {
      "inputs": [
        {
          "internalType": "uint256",
          "name": "amount",
          "type": "uint256"
        }
      ],
      "name": "stake",
      "outputs": [],
      "stateMutability": "nonpayable",
      "type": "function"
    },
    {
      "inputs": [
        {
          "internalType": "address",
          "name": "user",
          "type": "address"
        }
      ],
      "name": "stakedBalance",
      "outputs": [
        {
          "internalType": "uint256",
          "name": "",
          "type": "uint256"
        }
      ],
      "stateMutability": "view",
      "type": "function"
    },
    {
      "inputs": [],
      "name": "stakingToken",
      "outputs": [
        {
          "internalType": "contract IERC20",
          "name": "",
          "type": "address"
        }
      ],
      "stateMutability": "view",
      "type": "function"
    },
    {
      "inputs": [],
      "name": "totalStaked",
      "outputs": [
        {
          "internalType": "uint256",
          "name": "",
          "type": "uint256"
        }
      ],
      "stateMutability": "view",
      "type": "function"
    },
    {
      "inputs": [
        {
          "internalType": "address",
          "name": "_newOwner",
          "type": "address"
        }
      ],
      "name": "transferOwnership",
      "outputs": [],
      "stateMutability": "nonpayable",
      "type": "function"
    },
    {
      "inputs": [
        {
          "internalType": "uint256",
          "name": "amount",
          "type": "uint256"
        }
      ],
      "name": "unstake",
      "outputs": [],
      "stateMutability": "nonpayable",
      "type": "function"
    },
    {
      "inputs": [],
      "name": "withdrawFeeBps",
      "outputs": [
        {
          "internalType": "uint256",
          "name": "",
          "type": "uint256"
        }
      ],
      "stateMutability": "view",
      "type": "function"
    },
    {
      "inputs": [],
      "name": "withdrawFees",
      "outputs": [],
      "stateMutability": "nonpayable",
      "type": "function"
    }
  ],
  "bytecode": "0x6080346100c357601f61124538819003918201601f19168301916001600160401b038311848410176100c85780849260409485528339810103126100c35780516001600160a01b03811691908290036100c357602001519080156100895760018060a01b031933816000541617600055600154161760015560025560405161116690816100df8239f35b60405162461bcd60e51b8152602060048201526012602482015271212a21a419279d103d32b937903a37b5b2b760711b6044820152606490fd5b600080fd5b634e487b7160e01b600052604160045260246000fdfe6080604081815260048036101561001557600080fd5b600092833560e01c90816325ac1df214610e57575080632e17de7814610cea57806331d7a26214610cc457806333f3d62814610b97578063476343ee14610a725780634e71d92d1461080e57806357ded9c9146107ef57806359cee29c14610747578063602172671461070f57806360b71d4e146106f057806366666aa91461062c57806372f702f3146106035780637a526f4e146105e45780637aca2b59146105c7578063817b1cd2146105a857806383914540146105895780638da5cb5b1461056157806393707a191461048f578063a694fc3a1461033c578063ab87982714610319578063cec10c11146101c65763f2fde38b1461011557600080fd5b346101c25760203660031901126101c25761012e610e73565b8354916001600160a01b03808416926101483385146110f0565b1693841561018857505082907f8be0079c531659141344cd1fd0a4f28419497f9722a3daafe3b4186f6b6457e08580a36001600160a01b03191617815580f35b906020606492519162461bcd60e51b8352820152601460248201527342544348324f3a207a65726f206164647265737360601b6044820152fd5b8280fd5b50346101c25760603660031901126101c257803591602435604435926101f660018060a01b0387541633146110f0565b6107d08086116102d6578083116102935784116102505791816060949286947f01bae858246c904512695a3f6d48ab88abb7a0192fdd7c53b043e60317795f4597600355558260055581519384526020840152820152a180f35b606490602084519162461bcd60e51b8352820152601960248201527f42544348324f3a20636c61696d20666565206d617820323025000000000000006044820152fd5b835162461bcd60e51b8152602081840152601c60248201527f42544348324f3a20776974686472617720666565206d617820323025000000006044820152606490fd5b835162461bcd60e51b8152602081840152601b60248201527f42544348324f3a206465706f73697420666565206d61782032302500000000006044820152606490fd5b5050346103385781600319360112610338576020906003549051908152f35b5080fd5b50346101c2576020918260031936011261048b576103c792823590610362821515610e8e565b61036b33610faf565b8061271061037b60035485610ed0565b04926103878482610ef9565b60015486516323b872dd60e01b8152339881019889523060208a015260408901939093529197909688926001600160a01b03169183918b91839160600190565b03925af1948515610481577f1449c6dd7851abc30abf37f57715f492010519147cc2652fbc38202c18a6ee909495610406918891610454575b50610f56565b81610440575b33865260088152828620610421868254610fa2565b905561042f85600654610fa2565b60065582519485528401523392a280f35b61044c82600754610fa2565b60075561040c565b6104749150833d851161047a575b61046c8183610f06565b810190610f3e565b38610400565b503d610462565b83513d88823e3d90fd5b8380fd5b5090346101c25760203660031901126101c2576104f66020833580946104b6821515610e8e565b60015485516323b872dd60e01b8152339281019283523060208401526040830193909352919384926001600160a01b031691839189918391606090910190565b03925af1908115610557579061051291859161053f5750610f56565b519081527f5af8184bef8e4b45eb9f6ed7734d04da38ced226495548f46e0c8ff8d7d9a52460203392a280f35b610474915060203d811161047a5761046c8183610f06565b82513d86823e3d90fd5b505034610338578160031936011261033857905490516001600160a01b039091168152602090f35b505034610338578160031936011261033857602090516301e133808152f35b5050346103385781600319360112610338576020906006549051908152f35b50346101c257826003193601126101c25760209250549051908152f35b5050346103385781600319360112610338576020906005549051908152f35b50503461033857816003193601126103385760015490516001600160a01b039091168152602090f35b5091346106ed57806003193601126106ed5760015482516370a0823160e01b81523094810194909452602090849060249082906001600160a01b03165afa80156106e15781906106ad575b6020935061068a60065460075490610fa2565b90818111156106a55761069d9250610ef9565b905b51908152f35b50509061069f565b50916020813d82116106d9575b816106c760209383610f06565b810103126101c2579160209251610677565b3d91506106ba565b509051903d90823e3d90fd5b80fd5b5050346103385781600319360112610338576020906007549051908152f35b5050346103385760203660031901126103385760209181906001600160a01b03610737610e73565b1681526008845220549051908152f35b5090346101c25760203660031901126101c25781359161077160018060a01b0385541633146110f0565b620186a083116107ad5750816020917f255ab19e375a5b5dc7b35b2afa98fce75881b45b93ed72721caab22e3ce7f9899360025551908152a180f35b6020606492519162461bcd60e51b8352820152601a60248201527f42544348324f3a204150522064656d61736961646f20616c746f0000000000006044820152fd5b5050346103385781600319360112610338576020906002549051908152f35b5091903461033857816003193601126103385761082a33610faf565b33825260209060088252600281842001918254908115610a305761085e61271061085660055485610ed0565b048093610ef9565b60015484516370a0823160e01b8152308982015291956001600160a01b0392909184908290602490829087165afa908115610a265788916109f5575b50600654906108b5886108b06007548095610fa2565b610fa2565b11610981579783928888936109049a9b888061096e575b505055600154875163a9059cbb60e01b815233938101938452602084019490945292988993919091169183918b918391604090910190565b03925af1948515610481577f987d620f307ff6b94d58743cb7a7509f24071586a77759b77c2d4e29f75a2f9a9495610943918891610951575b5061102e565b82519485528401523392a280f35b6109689150833d851161047a5761046c8183610f06565b3861093d565b61097791610fa2565b60075538886108cc565b855162461bcd60e51b8152808a01859052604260248201527f42544348324f3a20696e73756666696369656e74207265776172642062616c6160448201527f6e6365202d206f776e6572206d7573742066756e642074686520636f6e74726160648201526118dd60f21b608482015260a490fd5b90508381813d8311610a1f575b610a0c8183610f06565b81010312610a1b57513861089a565b8780fd5b503d610a02565b86513d8a823e3d90fd5b8560649184519162461bcd60e51b8352820152601860248201527f42544348324f3a206e6f7468696e6720746f20636c61696d00000000000000006044820152fd5b5091903461033857816003193601126103385781546001600160a01b03908116610a9d3382146110f0565b600754908115610b54576007859055600154845163a9059cbb60e01b81526001600160a01b039092169682019687526020878101849052959694959194859185169082908990829060400103925af1918215610b4a57610b276020937f78473f3f373f7673597f4f0fa5873cb4d375fea6d4339ad6b56dbd411513cb3f958891610b33575061102e565b8554169351908152a280f35b6109689150853d811161047a5761046c8183610f06565b84513d87823e3d90fd5b835162461bcd60e51b8152602081880152601b60248201527f42544348324f3a206e6f206665657320746f20776974686472617700000000006044820152606490fd5b50346101c257816003193601126101c257610bb0610e73565b83546001600160a01b0390811690610bc93383146110f0565b80600154169216918214801590610cba575b15610c5157835163a9059cbb60e01b81526001600160a01b039091169281019283526024356020848101919091529093929091849182908790829060400103925af1908115610c485750610c2d575080f35b610c449060203d811161047a5761046c8183610f06565b5080f35b513d84823e3d90fd5b835162461bcd60e51b8152602081850152603a60248201527f42544348324f3a2063616e6e6f7420726573637565207374616b696e6720746f60448201527f6b656e207768696c6520757365727320617265207374616b65640000000000006064820152608490fd5b5060065415610bdb565b5050346103385760203660031901126103385760209061069d610ce5610e73565b61107a565b5082903461033857602092836003193601126101c25781353384526008855281842094610d18821515610e8e565b81865410610e1557610da69495610d2e33610faf565b610d39838254610ef9565b9055610d4782600654610ef9565b60065580610d64612710610d5c875486610ed0565b048094610ef9565b809584610e01575b600154865163a9059cbb60e01b8152339281019283526020830193909352919788926001600160a01b03169183918b918391604090910190565b03925af1948515610481577f7fc4727e062e336010f2c282598ef5f14facb3de68cf8195c2f23e1454b2b74e9495610943918891610de4575061102e565b610dfb9150833d851161047a5761046c8183610f06565b8861093d565b610e0d85600754610fa2565b600755610d6c565b8360649184519162461bcd60e51b8352820152601a60248201527f42544348324f3a20696e73756666696369656e74207374616b650000000000006044820152fd5b8490346103385781600319360112610338576020906002548152f35b600435906001600160a01b0382168203610e8957565b600080fd5b15610e9557565b60405162461bcd60e51b8152602060048201526013602482015272109510d20c93ce881e995c9bc8185b5bdd5b9d606a1b6044820152606490fd5b81810292918115918404141715610ee357565b634e487b7160e01b600052601160045260246000fd5b91908203918211610ee357565b90601f8019910116810190811067ffffffffffffffff821117610f2857604052565b634e487b7160e01b600052604160045260246000fd5b90816020910312610e8957518015158103610e895790565b15610f5d57565b60405162461bcd60e51b815260206004820152601b60248201527f42544348324f3a207472616e7366657246726f6d206661696c656400000000006044820152606490fd5b91908201809211610ee357565b6001600160a01b03166000908152600860205260409020805480151580611021575b610fdf575b50600142910155565b61100964496cebb80091611004610ffa600186015442610ef9565b9160025490610ed0565b610ed0565b0461101960028301918254610fa2565b905538610fd6565b5060018201541515610fd1565b1561103557565b60405162461bcd60e51b815260206004820152601760248201527f42544348324f3a207472616e73666572206661696c65640000000000000000006044820152606490fd5b6001600160a01b0316600090815260086020526040902080549081156110e757600264496cebb8006110cf6110d894600185015480156000146110db57506110046110c6425b42610ef9565b91855490610ed0565b04910154610fa2565b90565b6110c6611004916110c0565b60029150015490565b156110f757565b60405162461bcd60e51b8152602060048201526011602482015270212a21a419279d103737ba1037bbb732b960791b6044820152606490fdfea264697066735822122045de55a736b8199d208c5e620e7ac5563172661be0a35bdc9629b9932c34582e64736f6c63430008140033",
  "linkReferences": {},
  "deployedLinkReferences": {}
}