{
  "_format": "hh-sol-artifact-1",
  "contractName": "UTH2Mining",
  "sourceName": "contracts/UTH2Mining.sol",
  "abi": [
    {
      "inputs": [
        {
          "internalType": "address",
          "name": "_uth2",
          "type": "address"
        },
        {
          "internalType": "address",
          "name": "_btch2o",
          "type": "address"
        },
        {
          "internalType": "uint256[7]",
          "name": "_prices",
          "type": "uint256[7]"
        },
        {
          "internalType": "uint256[7]",
          "name": "_rates",
          "type": "uint256[7]"
        }
      ],
      "stateMutability": "nonpayable",
      "type": "constructor"
    },
    {
      "anonymous": false,
      "inputs": [
        {
          "indexed": true,
          "internalType": "address",
          "name": "user",
          "type": "address"
        },
        {
          "indexed": false,
          "internalType": "uint8",
          "name": "pkg",
          "type": "uint8"
        },
        {
          "indexed": false,
          "internalType": "uint256",
          "name": "count",
          "type": "uint256"
        },
        {
          "indexed": false,
          "internalType": "uint256",
          "name": "cost",
          "type": "uint256"
        }
      ],
      "name": "PackageBought",
      "type": "event"
    },
    {
      "anonymous": false,
      "inputs": [
        {
          "indexed": false,
          "internalType": "uint8",
          "name": "pkg",
          "type": "uint8"
        },
        {
          "indexed": false,
          "internalType": "uint256",
          "name": "price",
          "type": "uint256"
        },
        {
          "indexed": false,
          "internalType": "uint256",
          "name": "rate",
          "type": "uint256"
        }
      ],
      "name": "PackageUpdated",
      "type": "event"
    },
    {
      "anonymous": false,
      "inputs": [
        {
          "indexed": false,
          "internalType": "uint256",
          "name": "amount",
          "type": "uint256"
        }
      ],
      "name": "PoolFunded",
      "type": "event"
    },
    {
      "anonymous": false,
      "inputs": [
        {
          "indexed": true,
          "internalType": "address",
          "name": "user",
          "type": "address"
        },
        {
          "indexed": false,
          "internalType": "uint256",
          "name": "amount",
          "type": "uint256"
        }
      ],
      "name": "RewardsClaimed",
      "type": "event"
    },
    {
      "inputs": [],
      "name": "NUM_PKG",
      "outputs": [
        {
          "internalType": "uint256",
          "name": "",
          "type": "uint256"
        }
      ],
      "stateMutability": "view",
      "type": "function"
    },
    {
      "inputs": [],
      "name": "YEAR",
      "outputs": [
        {
          "internalType": "uint256",
          "name": "",
          "type": "uint256"
        }
      ],
      "stateMutability": "view",
      "type": "function"
    },
    {
      "inputs": [],
      "name": "btch2o",
      "outputs": [
        {
          "internalType": "contract IERC20",
          "name": "",
          "type": "address"
        }
      ],
      "stateMutability": "view",
      "type": "function"
    },
    {
      "inputs": [
        {
          "internalType": "uint8",
          "name": "pkg",
          "type": "uint8"
        },
        {
          "internalType": "uint256",
          "name": "count",
          "type": "uint256"
        }
      ],
      "name": "buyPackage",
      "outputs": [],
      "stateMutability": "nonpayable",
      "type": "function"
    },
    {
      "inputs": [],
      "name": "claimRewards",
      "outputs": [],
      "stateMutability": "nonpayable",
      "type": "function"
    },
    {
      "inputs": [
        {
          "internalType": "uint256",
          "name": "amount",
          "type": "uint256"
        }
      ],
      "name": "fundPool",
      "outputs": [],
      "stateMutability": "nonpayable",
      "type": "function"
    },
    {
      "inputs": [],
      "name": "getPackages",
      "outputs": [
        {
          "internalType": "uint256[7]",
          "name": "prices",
          "type": "uint256[7]"
        },
        {
          "internalType": "uint256[7]",
          "name": "rates",
          "type": "uint256[7]"
        }
      ],
      "stateMutability": "view",
      "type": "function"
    },
    {
      "inputs": [
        {
          "internalType": "address",
          "name": "user",
          "type": "address"
        }
      ],
      "name": "getUserCounts",
      "outputs": [
        {
          "internalType": "uint256[7]",
          "name": "",
          "type": "uint256[7]"
        }
      ],
      "stateMutability": "view",
      "type": "function"
    },
    {
      "inputs": [
        {
          "internalType": "address",
          "name": "user",
          "type": "address"
        }
      ],
      "name": "getUserRate",
      "outputs": [
        {
          "internalType": "uint256",
          "name": "ratePerYear",
          "type": "uint256"
        }
      ],
      "stateMutability": "view",
      "type": "function"
    },
    {
      "inputs": [],
      "name": "owner",
      "outputs": [
        {
          "internalType": "address",
          "name": "",
          "type": "address"
        }
      ],
      "stateMutability": "view",
      "type": "function"
    },
    {
      "inputs": [
        {
          "internalType": "uint256",
          "name": "",
          "type": "uint256"
        }
      ],
      "name": "packages",
      "outputs": [
        {
          "internalType": "uint256",
          "name": "price",
          "type": "uint256"
        },
        {
          "internalType": "uint256",
          "name": "ratePerYear",
          "type": "uint256"
        }
      ],
      "stateMutability": "view",
      "type": "function"
    },
    {
      "inputs": [
        {
          "internalType": "address",
          "name": "user",
          "type": "address"
        }
      ],
      "name": "pendingRewards",
      "outputs": [
        {
          "internalType": "uint256",
          "name": "",
          "type": "uint256"
        }
      ],
      "stateMutability": "view",
      "type": "function"
    },
    {
      "inputs": [],
      "name": "poolBalance",
      "outputs": [
        {
          "internalType": "uint256",
          "name": "",
          "type": "uint256"
        }
      ],
      "stateMutability": "view",
      "type": "function"
    },
    {
      "inputs": [
        {
          "internalType": "address",
          "name": "token",
          "type": "address"
        },
        {
          "internalType": "uint256",
          "name": "amount",
          "type": "uint256"
        }
      ],
      "name": "rescueToken",
      "outputs": [],
      "stateMutability": "nonpayable",
      "type": "function"
    },
    {
      "inputs": [
        {
          "internalType": "uint256[7]",
          "name": "prices",
          "type": "uint256[7]"
        },
        {
          "internalType": "uint256[7]",
          "name": "rates",
          "type": "uint256[7]"
        }
      ],
      "name": "setAllPackages",
      "outputs": [],
      "stateMutability": "nonpayable",
      "type": "function"
    },
    {
      "inputs": [
        {
          "internalType": "uint8",
          "name": "pkg",
          "type": "uint8"
        },
        {
          "internalType": "uint256",
          "name": "price",
          "type": "uint256"
        },
        {
          "internalType": "uint256",
          "name": "rate",
          "type": "uint256"
        }
      ],
      "name": "setPackage",
      "outputs": [],
      "stateMutability": "nonpayable",
      "type": "function"
    },
    {
      "inputs": [],
      "name": "totalUTH2Collected",
      "outputs": [
        {
          "internalType": "uint256",
          "name": "",
          "type": "uint256"
        }
      ],
      "stateMutability": "view",
      "type": "function"
    },
    {
      "inputs": [
        {
          "internalType": "address",
          "name": "newOwner",
          "type": "address"
        }
      ],
      "name": "transferOwnership",
      "outputs": [],
      "stateMutability": "nonpayable",
      "type": "function"
    },
    {
      "inputs": [
        {
          "internalType": "address",
          "name": "",
          "type": "address"
        }
      ],
      "name": "userInfo",
      "outputs": [
        {
          "internalType": "uint256",
          "name": "lastClaim",
          "type": "uint256"
        },
        {
          "internalType": "uint256",
          "name": "accrued",
          "type": "uint256"
        }
      ],
      "stateMutability": "view",
      "type": "function"
    },
    {
      "inputs": [],
      "name": "uth2",
      "outputs": [
        {
          "internalType": "contract IERC20",
          "name": "",
          "type": "address"
        }
      ],
      "stateMutability": "view",
      "type": "function"
    },
    {
      "inputs": [],
      "name": "withdrawUTH2",
      "outputs": [],
      "stateMutability": "nonpayable",
      "type": "function"
    }
  ],
  "bytecode": "0x60c034620001a0576001600160401b03601f620014e738819003918201601f19168401919083831185841017620001a55781906040938452853983019161020084840312620001a0576200005384620001bb565b9360206200008162000067828401620001bb565b956101206200007982888701620001d0565b9401620001d0565b600080546001600160a01b031916331781556001600160a01b039788166080529590961660a052845b60ff81166007808210156200015c57620000d2620000c983876200022a565b51928a6200022a565b5190875192888401848110898211176200014857895283528483019182528310156200013457600290600184811b8094519101555191015560ff8091169081146200012057600101620000aa565b634e487b7160e01b86526011600452602486fd5b634e487b7160e01b88526032600452602488fd5b634e487b7160e01b8b52604160045260248bfd5b8651611294908162000253823960805181818161034901528181610c8e0152610ea1015260a0518181816101f1015281816104ae015281816108e30152610e5e0152f35b600080fd5b634e487b7160e01b600052604160045260246000fd5b51906001600160a01b0382168203620001a057565b9080601f83011215620001a0576040519160e083016001600160401b03811184821017620001a557604052829060e08101928311620001a057905b828210620002195750505090565b81518152602091820191016200020b565b9060078110156200023c5760051b0190565b634e487b7160e01b600052603260045260246000fdfe6080604081815260048036101561001557600080fd5b60009260e08435811c91826304e4fc5e14610e8d575081630f2f565f14610e485781631959a00214610e02578163254b516e14610c03578163293c4ab514610b8957816331d7a26214610b5b57816333f3d62814610ab2578163372500ab1461089c578163487cb94d1461087f5781635c05a89f146107d1575080637d59551e146106f257806380168a751461063e578063839145401461061f5780638da5cb5b146105f7578063913701b61461053157806396365d4414610480578063afeca72b1461031a578063c216212a146102de578063d38d8ecf146102bf578063da3a5f721461018f5763f2fde38b1461010c57600080fd5b3461018b57602036600319011261018b57610125610ed0565b835491906001600160a01b039061013f3383861614611226565b169283156101595750506001600160a01b03191617815580f35b906020606492519162461bcd60e51b8352820152600c60248201526b5a65726f206164647265737360a01b6044820152fd5b8280fd5b508290346102bb576020908160031936011261018b5780359060018060a01b036101bd818654163314611226565b85516323b872dd60e01b815233838201908152306020820152604081018590529091859183919082908990829060600103927f0000000000000000000000000000000000000000000000000000000000000000165af19081156102b1578591610284575b501561025357507fd20389ec208fde395624b8221fa1cae9211e46a6ba77134c8e0b1af8c9603398929351908152a180f35b845162461bcd60e51b8152908101839052600b60248201526a119d5b990819985a5b195960aa1b6044820152606490fd5b6102a49150843d86116102aa575b61029c81836110cb565b81019061113c565b86610221565b503d610292565b86513d87823e3d90fd5b5080fd5b5050346102bb57816003193601126102bb576020906010549051908152f35b508290346102bb5760203660031901126102bb5735906007821015610317575060011b6002816001015491015482519182526020820152f35b80fd5b508290346102bb57816003193601126102bb5781546001600160a01b039081169390610347338614611226565b7f0000000000000000000000000000000000000000000000000000000000000000168151946370a0823160e01b865230848701526020938487602481865afa968715610476578697610443575b50861561040a57835163a9059cbb60e01b81526001600160a01b0390921690820190815260208101879052909291849184919082908890829060400103925af190811561040157506103e4578280f35b816103fa92903d106102aa5761029c81836110cb565b5081808280f35b513d85823e3d90fd5b835162461bcd60e51b815290810185905260136024820152724e6f7468696e6720746f20776974686472617760681b6044820152606490fd5b9096508481813d831161046f575b61045b81836110cb565b8101031261046b57519587610394565b8580fd5b503d610451565b84513d88823e3d90fd5b50903461018b578260031936011261018b5780516370a0823160e01b815230928101929092526020826024817f00000000000000000000000000000000000000000000000000000000000000006001600160a01b03165afa9182156105275783926104f0575b6020838351908152f35b9091506020813d821161051f575b8161050b602093836110cb565b8101031261018b57602092505190386104e6565b3d91506104fe565b81513d85823e3d90fd5b509190346102bb5760203660031901126102bb5761054d610ed0565b6001600160a01b03168252600f602052808220919081805b60078060ff831610156105ed5761057c8287610f57565b9054600391821b1c610599575b505061059490610f46565b610565565b6105a68388979497610f57565b9054911b1c908510156105da57610594916105cc6105d29260028860011b015490610f7d565b90610f90565b939038610589565b634e487b7160e01b835260328752602483fd5b6020858551908152f35b5050346102bb57816003193601126102bb57905490516001600160a01b039091168152602090f35b5050346102bb57816003193601126102bb57602090516301e133808152f35b509134610317576101c03660031901126103175760e4923684116102bb57366101c4116102bb5761067960018060a01b038354163314611226565b815b60078060ff831610156106ee57611fe08260051b169085519161069d8361107d565b80850135835287013560208301528210156106db57906106d16106d692600183811b01906020600191805184550151910155565b610f46565b61067b565b634e487b7160e01b845260328352602484fd5b8380f35b509190346102bb5760603660031901126102bb5761070e610eeb565b602435916044359061072a60018060a01b038654163314611226565b610739600760ff8516106110fe565b80516107448161107d565b84815282602082015260078410156107be57916107b89161079a85947fba7cc8548ff33d367f1eb6ac96624923f2e84dfdd24691183f8792efeb8c4464979660011b600101906020600191805184550151910155565b519384938460409194939260ff606083019616825260208201520152565b0390a180f35b634e487b7160e01b865260328752602486fd5b83858492346102bb57816003193601126102bb5782516107f0816110af565b81368237835192610800846110af565b82368537805b60ff81166007808210156108605782101561084d5790610848916108426002600184811b80910154610838858a6110ed565b52015491886110ed565b52610f46565b610806565b634e487b7160e01b835260328852602483fd5b6101c08561087d89896108758d518095610efb565b830190610efb565bf35b505050346102bb57816003193601126102bb576020905160078152f35b5050903461018b578260031936011261018b576108b833611154565b338352602090600f825260088185200154928315610a7e5781516370a0823160e01b815230828201527f00000000000000000000000000000000000000000000000000000000000000006001600160a01b0316908481602481855afa908115610a74579086918891610a3f575b5010610a0b5733808752600f8552838720600801879055835163a9059cbb60e01b81528381019182526020820187905291859183919082908a90829060400103925af1908115610a015786916109e4575b50156109aa5750907ffc30cddea38e2bf4d6ea7d3f9ed3b6ad7f176419f4963bd81318067a4aee73fe91519283523392a280f35b82606492519162461bcd60e51b83528201526016602482015275109510d20c93c81d1c985b9cd9995c8819985a5b195960521b6044820152fd5b6109fb9150843d86116102aa5761029c81836110cb565b38610976565b83513d88823e3d90fd5b5082606492519162461bcd60e51b8352820152600f60248201526e52657761726420706f6f6c206c6f7760881b6044820152fd5b809250868092503d8311610a6d575b610a5881836110cb565b81010312610a695785905138610925565b8680fd5b503d610a4e565b84513d89823e3d90fd5b82606492519162461bcd60e51b8352820152601060248201526f4e6f7468696e6720746f20636c61696d60801b6044820152fd5b5050903461018b578060031936011261018b576020610b2292610ad3610ed0565b85546001600160a01b03908116908790610aee338414611226565b865163a9059cbb60e01b81526001600160a01b03909316948301948552602435602086015291968794859391849160400190565b0393165af1908115610b525750610b37575080f35b610b4e9060203d81116102aa5761029c81836110cb565b5080f35b513d84823e3d90fd5b505050346102bb5760203660031901126102bb57602090610b82610b7d610ed0565b610f9d565b9051908152f35b8484346102bb576020918260031936011261031757610ba6610ed0565b848351610bb2816110af565b3690376001600160a01b03168152600f8352818120825193909190845b60078310610bee57868661087d87610be6836110af565b518092610efb565b60018281928654815201940192019192610bcf565b838584346102bb57826003193601126102bb57610c1e610eeb565b90602435610c31600760ff8516106110fe565b8015610dd257610c4033611154565b6007831015610dbf57610c5a818460011b60010154610f7d565b85516323b872dd60e01b815233818501908152306020828101919091526040820184905292949290829081906060010381897f00000000000000000000000000000000000000000000000000000000000000006001600160a01b03165af1908115610db5578691610d97575b5015610d5d5750610d577f72be55cdddb684d7757becf89a7380578b111d8df14ab625fa2e2cdc7c811f58939495610d0084601054610f90565b601055338752600f602052610d1786828920610f57565b81549060031b90610d2a8682841c610f90565b821b91600019901b19161790555192839233968460409194939260ff606083019616825260208201520152565b0390a280f35b606490602087519162461bcd60e51b835282015260146024820152731555120c881d1c985b9cd9995c8819985a5b195960621b6044820152fd5b610daf915060203d81116102aa5761029c81836110cb565b87610cc6565b87513d88823e3d90fd5b634e487b7160e01b845260328252602484fd5b845162461bcd60e51b8152602081840152600a602482015269436f756e74207a65726f60b01b6044820152606490fd5b505050346102bb5760203660031901126102bb579081906001600160a01b03610e29610ed0565b168152600f602052206008600782015491015482519182526020820152f35b505050346102bb57816003193601126102bb57517f00000000000000000000000000000000000000000000000000000000000000006001600160a01b03168152602090f35b8590346102bb57816003193601126102bb577f00000000000000000000000000000000000000000000000000000000000000006001600160a01b03168152602090f35b600435906001600160a01b0382168203610ee657565b600080fd5b6004359060ff82168203610ee657565b6000915b60078310610f0c57505050565b600190825181526020809101920192019190610eff565b91908203918211610f3057565b634e487b7160e01b600052601160045260246000fd5b60ff1660ff8114610f305760010190565b6007821015610f67570190600090565b634e487b7160e01b600052603260045260246000fd5b81810292918115918404141715610f3057565b91908201809211610f3057565b6001600160a01b03166000908152600f6020526040812060078082015490929190801561107657610fce9042610f23565b918093815b8160ff82161061100257505050610ff8610fff939260086301e1338093015493610f7d565b0490610f90565b90565b61100c8185610f57565b9054600391821b1c611028575b5061102390610f46565b610fd3565b6110358286989398610f57565b9054911b1c8287101561106257611023916105cc61105b9260028a60011b015490610f7d565b9590611019565b634e487b7160e01b84526032600452602484fd5b5050905090565b6040810190811067ffffffffffffffff82111761109957604052565b634e487b7160e01b600052604160045260246000fd5b60e0810190811067ffffffffffffffff82111761109957604052565b90601f8019910116810190811067ffffffffffffffff82111761109957604052565b906007811015610f675760051b0190565b1561110557565b60405162461bcd60e51b815260206004820152600f60248201526e496e76616c6964207061636b61676560881b6044820152606490fd5b90816020910312610ee657518015158103610ee65790565b6001600160a01b03166000908152600f6020526040812060078082018054909391901561121e57611186845442610f23565b918091815b8160ff8216106111be575050506301e133806111ac6111b793600893610f7d565b049201918254610f90565b9055429055565b6111c88187610f57565b9054600391821b1c6111e4575b506111df90610f46565b61118b565b6111f18288969396610f57565b9054911b1c82851015611062576111df916105cc6112179260028860011b015490610f7d565b93906111d5565b505050429055565b1561122d57565b60405162461bcd60e51b81526020600482015260096024820152682737ba1037bbb732b960b91b6044820152606490fdfea26469706673582212205caf0a9adb648d9096e8edc876c0b5f3dc0787b17b5e117b7a2d33d5b105cdb464736f6c63430008140033",
  "linkReferences": {},
  "deployedLinkReferences": {}
}