{
  "_format": "hh-sol-artifact-1",
  "contractName": "UTH2Mining",
  "sourceName": "contracts/UTH2Mining.sol",
  "abi": [
    {
      "inputs": [
        {
          "internalType": "address",
          "name": "_uth2",
          "type": "address"
        },
        {
          "internalType": "address",
          "name": "_btch2o",
          "type": "address"
        },
        {
          "internalType": "address",
          "name": "_owner2",
          "type": "address"
        },
        {
          "internalType": "uint256[7]",
          "name": "_prices",
          "type": "uint256[7]"
        },
        {
          "internalType": "uint256[7]",
          "name": "_rates",
          "type": "uint256[7]"
        }
      ],
      "stateMutability": "nonpayable",
      "type": "constructor"
    },
    {
      "anonymous": false,
      "inputs": [
        {
          "indexed": true,
          "internalType": "address",
          "name": "newOwner1",
          "type": "address"
        }
      ],
      "name": "Owner1Transferred",
      "type": "event"
    },
    {
      "anonymous": false,
      "inputs": [
        {
          "indexed": true,
          "internalType": "address",
          "name": "newOwner2",
          "type": "address"
        }
      ],
      "name": "Owner2Changed",
      "type": "event"
    },
    {
      "anonymous": false,
      "inputs": [
        {
          "indexed": true,
          "internalType": "address",
          "name": "user",
          "type": "address"
        },
        {
          "indexed": false,
          "internalType": "uint8",
          "name": "pkg",
          "type": "uint8"
        },
        {
          "indexed": false,
          "internalType": "uint256",
          "name": "count",
          "type": "uint256"
        },
        {
          "indexed": false,
          "internalType": "uint256",
          "name": "cost",
          "type": "uint256"
        }
      ],
      "name": "PackageBought",
      "type": "event"
    },
    {
      "anonymous": false,
      "inputs": [
        {
          "indexed": false,
          "internalType": "uint8",
          "name": "pkg",
          "type": "uint8"
        },
        {
          "indexed": false,
          "internalType": "uint256",
          "name": "price",
          "type": "uint256"
        },
        {
          "indexed": false,
          "internalType": "uint256",
          "name": "rate",
          "type": "uint256"
        }
      ],
      "name": "PackageUpdated",
      "type": "event"
    },
    {
      "anonymous": false,
      "inputs": [
        {
          "indexed": true,
          "internalType": "address",
          "name": "token",
          "type": "address"
        },
        {
          "indexed": false,
          "internalType": "uint256",
          "name": "amount",
          "type": "uint256"
        },
        {
          "indexed": true,
          "internalType": "address",
          "name": "funder",
          "type": "address"
        }
      ],
      "name": "PoolFunded",
      "type": "event"
    },
    {
      "anonymous": false,
      "inputs": [
        {
          "indexed": true,
          "internalType": "address",
          "name": "token",
          "type": "address"
        }
      ],
      "name": "RewardTokenAdded",
      "type": "event"
    },
    {
      "anonymous": false,
      "inputs": [
        {
          "indexed": true,
          "internalType": "address",
          "name": "token",
          "type": "address"
        }
      ],
      "name": "RewardTokenRemoved",
      "type": "event"
    },
    {
      "anonymous": false,
      "inputs": [
        {
          "indexed": true,
          "internalType": "address",
          "name": "user",
          "type": "address"
        },
        {
          "indexed": false,
          "internalType": "uint256",
          "name": "amount",
          "type": "uint256"
        },
        {
          "indexed": true,
          "internalType": "address",
          "name": "token",
          "type": "address"
        }
      ],
      "name": "RewardsClaimed",
      "type": "event"
    },
    {
      "inputs": [],
      "name": "NUM_PKG",
      "outputs": [
        {
          "internalType": "uint256",
          "name": "",
          "type": "uint256"
        }
      ],
      "stateMutability": "view",
      "type": "function"
    },
    {
      "inputs": [],
      "name": "YEAR",
      "outputs": [
        {
          "internalType": "uint256",
          "name": "",
          "type": "uint256"
        }
      ],
      "stateMutability": "view",
      "type": "function"
    },
    {
      "inputs": [
        {
          "internalType": "address",
          "name": "token",
          "type": "address"
        }
      ],
      "name": "addRewardToken",
      "outputs": [],
      "stateMutability": "nonpayable",
      "type": "function"
    },
    {
      "inputs": [
        {
          "internalType": "uint8",
          "name": "pkg",
          "type": "uint8"
        },
        {
          "internalType": "uint256",
          "name": "count",
          "type": "uint256"
        }
      ],
      "name": "buyPackage",
      "outputs": [],
      "stateMutability": "nonpayable",
      "type": "function"
    },
    {
      "inputs": [],
      "name": "claimRewards",
      "outputs": [],
      "stateMutability": "nonpayable",
      "type": "function"
    },
    {
      "inputs": [
        {
          "internalType": "address",
          "name": "token",
          "type": "address"
        },
        {
          "internalType": "uint256",
          "name": "amount",
          "type": "uint256"
        }
      ],
      "name": "fundPool",
      "outputs": [],
      "stateMutability": "nonpayable",
      "type": "function"
    },
    {
      "inputs": [],
      "name": "getContractBalances",
      "outputs": [
        {
          "internalType": "address[]",
          "name": "tokens",
          "type": "address[]"
        },
        {
          "internalType": "uint256[]",
          "name": "balances",
          "type": "uint256[]"
        }
      ],
      "stateMutability": "view",
      "type": "function"
    },
    {
      "inputs": [],
      "name": "getPackages",
      "outputs": [
        {
          "internalType": "uint256[7]",
          "name": "prices",
          "type": "uint256[7]"
        },
        {
          "internalType": "uint256[7]",
          "name": "rates",
          "type": "uint256[7]"
        }
      ],
      "stateMutability": "view",
      "type": "function"
    },
    {
      "inputs": [],
      "name": "getRewardTokens",
      "outputs": [
        {
          "internalType": "address[]",
          "name": "",
          "type": "address[]"
        }
      ],
      "stateMutability": "view",
      "type": "function"
    },
    {
      "inputs": [
        {
          "internalType": "address",
          "name": "user",
          "type": "address"
        }
      ],
      "name": "getUserCounts",
      "outputs": [
        {
          "internalType": "uint256[7]",
          "name": "",
          "type": "uint256[7]"
        }
      ],
      "stateMutability": "view",
      "type": "function"
    },
    {
      "inputs": [
        {
          "internalType": "address",
          "name": "user",
          "type": "address"
        }
      ],
      "name": "getUserRate",
      "outputs": [
        {
          "internalType": "uint256",
          "name": "",
          "type": "uint256"
        }
      ],
      "stateMutability": "view",
      "type": "function"
    },
    {
      "inputs": [
        {
          "internalType": "address",
          "name": "",
          "type": "address"
        }
      ],
      "name": "isRewardToken",
      "outputs": [
        {
          "internalType": "bool",
          "name": "",
          "type": "bool"
        }
      ],
      "stateMutability": "view",
      "type": "function"
    },
    {
      "inputs": [],
      "name": "owner1",
      "outputs": [
        {
          "internalType": "address",
          "name": "",
          "type": "address"
        }
      ],
      "stateMutability": "view",
      "type": "function"
    },
    {
      "inputs": [],
      "name": "owner2",
      "outputs": [
        {
          "internalType": "address",
          "name": "",
          "type": "address"
        }
      ],
      "stateMutability": "view",
      "type": "function"
    },
    {
      "inputs": [
        {
          "internalType": "uint256",
          "name": "",
          "type": "uint256"
        }
      ],
      "name": "packages",
      "outputs": [
        {
          "internalType": "uint256",
          "name": "price",
          "type": "uint256"
        },
        {
          "internalType": "uint256",
          "name": "ratePerYear",
          "type": "uint256"
        }
      ],
      "stateMutability": "view",
      "type": "function"
    },
    {
      "inputs": [
        {
          "internalType": "address",
          "name": "user",
          "type": "address"
        }
      ],
      "name": "pendingRewards",
      "outputs": [
        {
          "internalType": "uint256",
          "name": "",
          "type": "uint256"
        }
      ],
      "stateMutability": "view",
      "type": "function"
    },
    {
      "inputs": [],
      "name": "poolBalance",
      "outputs": [
        {
          "internalType": "uint256",
          "name": "",
          "type": "uint256"
        }
      ],
      "stateMutability": "view",
      "type": "function"
    },
    {
      "inputs": [],
      "name": "primaryToken",
      "outputs": [
        {
          "internalType": "address",
          "name": "",
          "type": "address"
        }
      ],
      "stateMutability": "view",
      "type": "function"
    },
    {
      "inputs": [
        {
          "internalType": "address",
          "name": "token",
          "type": "address"
        }
      ],
      "name": "removeRewardToken",
      "outputs": [],
      "stateMutability": "nonpayable",
      "type": "function"
    },
    {
      "inputs": [
        {
          "internalType": "address",
          "name": "token",
          "type": "address"
        },
        {
          "internalType": "uint256",
          "name": "amount",
          "type": "uint256"
        }
      ],
      "name": "rescueToken",
      "outputs": [],
      "stateMutability": "nonpayable",
      "type": "function"
    },
    {
      "inputs": [
        {
          "internalType": "uint256",
          "name": "",
          "type": "uint256"
        }
      ],
      "name": "rewardTokens",
      "outputs": [
        {
          "internalType": "address",
          "name": "",
          "type": "address"
        }
      ],
      "stateMutability": "view",
      "type": "function"
    },
    {
      "inputs": [
        {
          "internalType": "uint256[7]",
          "name": "prices",
          "type": "uint256[7]"
        },
        {
          "internalType": "uint256[7]",
          "name": "rates",
          "type": "uint256[7]"
        }
      ],
      "name": "setAllPackages",
      "outputs": [],
      "stateMutability": "nonpayable",
      "type": "function"
    },
    {
      "inputs": [
        {
          "internalType": "address",
          "name": "newOwner2",
          "type": "address"
        }
      ],
      "name": "setOwner2",
      "outputs": [],
      "stateMutability": "nonpayable",
      "type": "function"
    },
    {
      "inputs": [
        {
          "internalType": "uint8",
          "name": "pkg",
          "type": "uint8"
        },
        {
          "internalType": "uint256",
          "name": "price",
          "type": "uint256"
        },
        {
          "internalType": "uint256",
          "name": "rate",
          "type": "uint256"
        }
      ],
      "name": "setPackage",
      "outputs": [],
      "stateMutability": "nonpayable",
      "type": "function"
    },
    {
      "inputs": [],
      "name": "totalUTH2Collected",
      "outputs": [
        {
          "internalType": "uint256",
          "name": "",
          "type": "uint256"
        }
      ],
      "stateMutability": "view",
      "type": "function"
    },
    {
      "inputs": [
        {
          "internalType": "address",
          "name": "newOwner",
          "type": "address"
        }
      ],
      "name": "transferOwner1",
      "outputs": [],
      "stateMutability": "nonpayable",
      "type": "function"
    },
    {
      "inputs": [
        {
          "internalType": "address",
          "name": "",
          "type": "address"
        }
      ],
      "name": "userInfo",
      "outputs": [
        {
          "internalType": "uint256",
          "name": "lastClaim",
          "type": "uint256"
        },
        {
          "internalType": "uint256",
          "name": "accrued",
          "type": "uint256"
        }
      ],
      "stateMutability": "view",
      "type": "function"
    },
    {
      "inputs": [],
      "name": "uth2",
      "outputs": [
        {
          "internalType": "contract IERC20",
          "name": "",
          "type": "address"
        }
      ],
      "stateMutability": "view",
      "type": "function"
    }
  ],
  "bytecode": "0x60a03462000252576001600160401b0390601f62001c2738819003918201601f1916830192919084841183851017620002575781906040948552833981019261022082850312620002525762000055826200026d565b90602092620000668482016200026d565b9362000093620000788784016200026d565b976101406200008b826060870162000282565b940162000282565b6001600160a01b03978816958615620002205760018060a01b0319908960009733848a5416178955600199848b5416178a551660805260025499680100000000000000008b10156200020c57888b01806002558b1015620001f857889a6002895285892001911680928254161790558552600382528685208660ff1982541617905584975b6200013d575b8651611922908162000305823960805181818161100c01526113ba0152f35b60ff8816600780821015620001f057620001656200015c8387620002dc565b519284620002dc565b51908951928a840184811089821117620001dc578b5283528483019182528a1015620001c8576005908a891b925183600401555191015560ff809816978814620001b457968501968562000118565b634e487b7160e01b85526011600452602485fd5b634e487b7160e01b87526032600452602487fd5b634e487b7160e01b8a52604160045260248afd5b50506200011e565b634e487b7160e01b88526032600452602488fd5b634e487b7160e01b88526041600452602488fd5b875162461bcd60e51b815260048101849052600b60248201526a4f776e657232207a65726f60a81b6044820152606490fd5b600080fd5b634e487b7160e01b600052604160045260246000fd5b51906001600160a01b03821682036200025257565b9080601f8301121562000252576040519160e083016001600160401b038111848210176200025757604052829060e081019283116200025257905b828210620002cb5750505090565b8151815260209182019101620002bd565b906007811015620002ee5760051b0190565b634e487b7160e01b600052603260045260246000fdfe60806040908082526004908136101561001757600080fd5b60009060e08235811c91826304e4fc5e146113a6575081631959a002146113615781631c03e6cc14611246578163254b516e14610f72578163293c4ab514610ef85781632bfd514614610d8d57816331d7a26214610d6757816333f3d62814610cb6578163372500ab14610aa45781633d509c9714610881578163487cb94d14610865578163527097251461083c5781635825884f146107c45781635c05a89f146107175750806373688914146106ef5780637bb7bed1146106c35780637d59551e146105e757806380168a75146105325780638391454014610513578063913701b6146104e657806391ac094c146104b357806396365d441461040e5780639b5cc9f414610399578063b5fd73f81461035b578063c216212a14610323578063c4f59f9b146102ee578063d38d8ecf146102cb5763ffd2a7d31461015b57600080fd5b346102c857806003193601126102c85791906101756116eb565b9260025461018281611763565b9061018f855192836116b8565b80825261019b81611763565b9360209182840195601f1901368737845b81811061020157505050806101ca86519787899889528801906114bd565b928684038288015251928381520193925b8281106101ea57505050500390f35b8351855286955093810193928101926001016101db565b610211819994969597989961143c565b90548a516370a0823160e01b8152308682015291602491899184918491839160039190911b1c6001600160a01b03165afa9182156102be57879261028b575b50885183101561027a57509061026e91878260051b8a01015261177b565b979695939492976101ac565b634e487b7160e01b87526032855286fd5b9091508781813d83116102b7575b6102a381836116b8565b810103126102b357519038610250565b8680fd5b503d610299565b8b513d89823e3d90fd5b80fd5b5082346102ea57816003193601126102ea576020906013549051908152f35b5080fd5b5082346102ea57816003193601126102ea5761031f9061030c6116eb565b90519182916020835260208301906114bd565b0390f35b50346102c85760203660031901126102c85781359060078210156102c8575060059060011b8092015491015482519182526020820152f35b5082346102ea5760203660031901126102ea5760209160ff9082906001600160a01b036103866113e9565b1681526003855220541690519015158152f35b50346102c85760203660031901126102c8576103b36113e9565b8154906001600160a01b03906103cc338385161461183d565b1680916103da821515611876565b6001600160a01b0319161782557f0b532da792a8aec144e3a0854b26380749893326db86863f7aa666ad460df2c98280a280f35b50913461049d578260031936011261049d57602060249261042d611489565b94905491845195869384926370a0823160e01b8452309084015260018060a01b039160031b1c165afa9182156104a957839261046e575b6020838351908152f35b9091506020813d82116104a1575b81610489602093836116b8565b8101031261049d5760209250519038610464565b8280fd5b3d915061047c565b81513d85823e3d90fd5b5082346102ea57816003193601126102ea576020906104d0611489565b905491519160018060a01b039160031b1c168152f35b5082346102ea5760203660031901126102ea5760209061050c6105076113e9565b6115be565b9051908152f35b5082346102ea57816003193601126102ea57602090516301e133808152f35b508290346102c8576101c03660031901126102c85760e4903682116102c857366101c4116102c85761056e60018060a01b03825416331461183d565b805b60078060ff831610156105e357611fe08260051b16908551916105928361166a565b80880135835285013560208301528210156105d057906105c66105cb928260011b8801906020600191805184550151910155565b61159d565b610570565b634e487b7160e01b835260328652602483fd5b8280f35b5082346102ea5760603660031901126102ea57610602611404565b602435916044359061061e60018060a01b03865416331461183d565b61062d600760ff85161061178a565b80516106388161166a565b84815282602082015260078410156106b0579061068c6106aa93927fba7cc8548ff33d367f1eb6ac96624923f2e84dfdd24691183f8792efeb8c446497988660011b01906020600191805184550151910155565b519384938460409194939260ff606083019616825260208201520152565b0390a180f35b634e487b7160e01b865260328752602486fd5b5091903461049d57602036600319011261049d5735916002548310156102c857506104d060209261143c565b5082346102ea57816003193601126102ea57905490516001600160a01b039091168152602090f35b84929150346102ea57816003193601126102ea5782516107368161169c565b813682378351926107468461169c565b82368537805b60ff81166007808210156107a557821015610792579061078d9161078760058360011b808c015461077d858a6116da565b52015491886116da565b5261159d565b61074c565b634e487b7160e01b835260328852602483fd5b6101c0856107c289896107ba8d518095611414565b830190611414565bf35b82346102c85760203660031901126102c8576107de6113e9565b81546001600160a01b0391906107f7908316331461183d565b16610803811515611876565b600180546001600160a01b031916821790557f7e94bdc8f5d207846a5bc8d54a4a9e25703fe2b5cf10c1e62398d675d74af0b08280a280f35b8285346102ea57816003193601126102ea5760015490516001600160a01b039091168152602090f35b8285346102ea57816003193601126102ea576020905160078152f35b8285853461049d57602036600319011261049d5761089d6113e9565b83546001600160a01b0393918491821633148015610a97575b6108bf906118b1565b16918285526003918260205260ff818720541615610a5f5783856108e1611489565b905490861b1c1614610a115783865282602052852060ff19815416905560019384805b610932575b86857f66257bcef574219c04f7c05f7a1c78d599da10491294c92a5805c48b4cdf50098280a280f35b6002805480831015610a0a5786846109498561143c565b905490891b1c16146109665750506109609061177b565b85610904565b9293919094959650600019928381019081116109f7579061099a8561098d6109b99461143c565b9054908a1b1c169161143c565b90919082549060031b9160018060a01b03809116831b921b1916179055565b83549081156109e4575001926109ce8461143c565b81939154921b1b19169055558083808080610909565b634e487b7160e01b885260319052602487fd5b634e487b7160e01b895260118352602489fd5b5050610909565b906020608492519162461bcd60e51b8352820152602260248201527f43616e6e6f742072656d6f7665207072696d6172792072657761726420746f6b60448201526132b760f11b6064820152fd5b906020606492519162461bcd60e51b835282015260126024820152712737ba1030903932bbb0b932103a37b5b2b760711b6044820152fd5b50600154821633146108b6565b5050913461049d578260031936011261049d57610ac0336117e0565b33835260206012815260088285200154918215610c8257610adf611489565b905482516370a0823160e01b8152308188015260039290921b1c6001600160a01b031694908381602481895afa908115610c06579085918891610c51575b5010610c10573380875260128452828720600801879055825163a9059cbb60e01b8152828101918252602082018690529084908290819060400103818a8a5af1908115610c06578791610bd9575b5015610b9f5750907f322e87f0ab668ec0046e03e8c0bb8a8fe21edc59facfbdb533d069385d99879991519283523392a380f35b82606492519162461bcd60e51b8352820152601660248201527514995dd85c99081d1c985b9cd9995c8819985a5b195960521b6044820152fd5b610bf99150843d8611610bff575b610bf181836116b8565b8101906117c8565b38610b6b565b503d610be7565b83513d89823e3d90fd5b82606492519162461bcd60e51b8352820152601f60248201527f52657761726420706f6f6c206c6f77202d20636f6e74616374206f776e6572006044820152fd5b809250858092503d8311610c7b575b610c6a81836116b8565b810103126102b35784905138610b1d565b503d610c60565b5162461bcd60e51b81529283015250601060248201526f4e6f7468696e6720746f20636c61696d60801b6044820152606490fd5b5050913461049d578060031936011261049d576020610d21610cd66113e9565b85546001600160a01b039590861633148015610d5a575b610cf6906118b1565b845163a9059cbb60e01b81523391810191825260243560208301529586938492899291849160400190565b0393165af1908115610d515750610d36575080f35b610d4d9060203d8111610bff57610bf181836116b8565b5080f35b513d84823e3d90fd5b5060015486163314610ced565b8285346102ea5760203660031901126102ea5760209061050c610d886113e9565b61153d565b5050913461049d578060031936011261049d57610da86113e9565b835460243593916001600160a01b0391821633148015610eeb575b610dcc906118b1565b16918285526020916003835260ff828720541615610eaa5781516323b872dd60e01b8152338282019081523060208201526040810187905284908290819060600103818a895af1908115610c06578791610e8d575b5015610e555750907f50e73928be07b534e0beea032889bb051f54b4a046bb43c73625b53db520ab2691519384523393a380f35b82606492519162461bcd60e51b83528201526014602482015273119d5b99081d1c985b9cd9995c8819985a5b195960621b6044820152fd5b610ea49150843d8611610bff57610bf181836116b8565b38610e21565b82606492519162461bcd60e51b8352820152601860248201527f546f6b656e206e6f7420696e20726577617264206c69737400000000000000006044820152fd5b5060015482163314610dc3565b8285346102ea57602091826003193601126102c857610f156113e9565b848351610f218161169c565b3690376001600160a01b0316815260128352818120825193909190845b60078310610f5d5786866107c287610f558361169c565b518092611414565b60018281928654815201940192019192610f3e565b505090346102ea57826003193601126102ea57610f8d611404565b90602435610fa0600760ff85161061178a565b801561121657610faf336117e0565b600783101561120357610fc8818460011b84015461151d565b918260011c90610fd882856114fa565b865488516323b872dd60e01b808252338583019081526001600160a01b0393841660208083019190915260408201979097527f000000000000000000000000000000000000000000000000000000000000000084169391929087908290819003606001818e885af19081156111f9578b916111dc575b5015611199576001548b519283523386840190815291166001600160a01b031660208201526040810193909352918491839182908b90829060600103925af190811561118f578791611172575b501561113157507f72be55cdddb684d7757becf89a7380578b111d8df14ab625fa2e2cdc7c811f58939495601261112b926110d886601354611530565b601355338952526110eb868289206115ae565b81549060031b906110fe8682841c611530565b821b91600019901b19161790555192839233968460409194939260ff606083019616825260208201520152565b0390a280f35b60649187519162461bcd60e51b8352820152601e60248201527f55544832207472616e7366657220746f206f776e657232206661696c656400006044820152fd5b6111899150833d8511610bff57610bf181836116b8565b3861109b565b88513d89823e3d90fd5b8a5162461bcd60e51b8152808601879052601e60248201527f55544832207472616e7366657220746f206f776e657231206661696c656400006044820152606490fd5b6111f39150873d8911610bff57610bf181836116b8565b3861104e565b8c513d8d823e3d90fd5b634e487b7160e01b845260328252602484fd5b845162461bcd60e51b8152602081840152600a602482015269436f756e74207a65726f60b01b6044820152606490fd5b5050913461049d57602036600319011261049d576112626113e9565b83546001600160a01b0390811633148015611354575b611281906118b1565b81169261128f841515611876565b838552600360205260ff838620541661131b57600254906801000000000000000082101561130857509061099a8260016112cc940160025561143c565b81835260036020528220805460ff191660011790557ff3e4c2c64e71e6ba2eaab9a599bced62f9eb91d2cda610bf41aa8c80ff2cf8268280a280f35b634e487b7160e01b865260419052602485fd5b606490602084519162461bcd60e51b83528201526013602482015272151bdad95b88185b1c9958591e481859191959606a1b6044820152fd5b5060015481163314611278565b8285346102ea5760203660031901126102ea579081906001600160a01b036113876113e9565b1681526012602052206008600782015491015482519182526020820152f35b8390346102ea57816003193601126102ea577f00000000000000000000000000000000000000000000000000000000000000006001600160a01b03168152602090f35b600435906001600160a01b03821682036113ff57565b600080fd5b6004359060ff821682036113ff57565b6000915b6007831061142557505050565b600190825181526020809101920192019190611418565b6002548110156114735760026000527f405787fa12a823e0f2b7631cc41b3ba8828b3321ca811111fa75cd3aa3bb5ace0190600090565b634e487b7160e01b600052603260045260246000fd5b600254156114735760026000527f405787fa12a823e0f2b7631cc41b3ba8828b3321ca811111fa75cd3aa3bb5ace90600090565b90815180825260208080930193019160005b8281106114dd575050505090565b83516001600160a01b0316855293810193928101926001016114cf565b9190820391821161150757565b634e487b7160e01b600052601160045260246000fd5b8181029291811591840414171561150757565b9190820180921161150757565b6001600160a01b03811660009081526012602052604090206007810154919082156115955761158b6301e1338091611586600861157d61159297426114fa565b920154946115be565b61151d565b0490611530565b90565b505050600090565b60ff1660ff81146115075760010190565b6007821015611473570190600090565b6001600160a01b03166000908152601260205260408120909182805b60078060ff83161015611663576115f182866115ae565b9054600391821b1c61160e575b50506116099061159d565b6115da565b61161b83879894986115ae565b9054911b1c9086101561164f57611609916116416116479260058960011b01549061151d565b90611530565b9490386115fe565b634e487b7160e01b83526032600452602483fd5b5050509050565b6040810190811067ffffffffffffffff82111761168657604052565b634e487b7160e01b600052604160045260246000fd5b60e0810190811067ffffffffffffffff82111761168657604052565b90601f8019910116810190811067ffffffffffffffff82111761168657604052565b9060078110156114735760051b0190565b60405190600254808352826020918282019060026000527f405787fa12a823e0f2b7631cc41b3ba8828b3321ca811111fa75cd3aa3bb5ace936000905b8282106117405750505061173e925003836116b8565b565b85546001600160a01b031684526001958601958895509381019390910190611728565b67ffffffffffffffff81116116865760051b60200190565b60001981146115075760010190565b1561179157565b60405162461bcd60e51b815260206004820152600f60248201526e496e76616c6964207061636b61676560881b6044820152606490fd5b908160209103126113ff575180151581036113ff5790565b60018060a01b0381166000526012602052604060002060078101918254156118365760086301e1338061182461182f9361158661181e8854426114fa565b916115be565b049201918254611530565b9055429055565b5050429055565b1561184457565b60405162461bcd60e51b815260206004820152600a6024820152694e6f74206f776e65723160b01b6044820152606490fd5b1561187d57565b60405162461bcd60e51b815260206004820152600c60248201526b5a65726f206164647265737360a01b6044820152606490fd5b156118b857565b60405162461bcd60e51b815260206004820152600c60248201526b2737ba1030b71037bbb732b960a11b6044820152606490fdfea264697066735822122079499055872ab17bdffe48c1891b955e1e5fcc2512c7d6fc90c455126bb4843564736f6c63430008140033",
  "linkReferences": {},
  "deployedLinkReferences": {}
}