{
  "_format": "hh-sol-artifact-1",
  "contractName": "SwapProxy",
  "sourceName": "contracts/SwapProxy.sol",
  "abi": [
    {
      "inputs": [
        {
          "internalType": "address",
          "name": "_owner",
          "type": "address"
        }
      ],
      "stateMutability": "nonpayable",
      "type": "constructor"
    },
    {
      "anonymous": false,
      "inputs": [
        {
          "indexed": false,
          "internalType": "uint256",
          "name": "newFeeBps",
          "type": "uint256"
        }
      ],
      "name": "FeeUpdated",
      "type": "event"
    },
    {
      "anonymous": false,
      "inputs": [
        {
          "indexed": false,
          "internalType": "address",
          "name": "newOwner",
          "type": "address"
        }
      ],
      "name": "OwnerUpdated",
      "type": "event"
    },
    {
      "anonymous": false,
      "inputs": [
        {
          "indexed": true,
          "internalType": "address",
          "name": "user",
          "type": "address"
        },
        {
          "indexed": true,
          "internalType": "address",
          "name": "tokenIn",
          "type": "address"
        },
        {
          "indexed": true,
          "internalType": "address",
          "name": "tokenOut",
          "type": "address"
        },
        {
          "indexed": false,
          "internalType": "uint256",
          "name": "amountIn",
          "type": "uint256"
        },
        {
          "indexed": false,
          "internalType": "uint256",
          "name": "amountOut",
          "type": "uint256"
        },
        {
          "indexed": false,
          "internalType": "uint256",
          "name": "feeAmount",
          "type": "uint256"
        }
      ],
      "name": "Swapped",
      "type": "event"
    },
    {
      "inputs": [],
      "name": "SWAP_ROUTER",
      "outputs": [
        {
          "internalType": "address",
          "name": "",
          "type": "address"
        }
      ],
      "stateMutability": "view",
      "type": "function"
    },
    {
      "inputs": [],
      "name": "feeBps",
      "outputs": [
        {
          "internalType": "uint256",
          "name": "",
          "type": "uint256"
        }
      ],
      "stateMutability": "view",
      "type": "function"
    },
    {
      "inputs": [],
      "name": "getFeeBps",
      "outputs": [
        {
          "internalType": "uint256",
          "name": "",
          "type": "uint256"
        }
      ],
      "stateMutability": "view",
      "type": "function"
    },
    {
      "inputs": [],
      "name": "owner",
      "outputs": [
        {
          "internalType": "address",
          "name": "",
          "type": "address"
        }
      ],
      "stateMutability": "view",
      "type": "function"
    },
    {
      "inputs": [
        {
          "internalType": "address",
          "name": "token",
          "type": "address"
        }
      ],
      "name": "rescueToken",
      "outputs": [],
      "stateMutability": "nonpayable",
      "type": "function"
    },
    {
      "inputs": [
        {
          "internalType": "uint256",
          "name": "_feeBps",
          "type": "uint256"
        }
      ],
      "name": "setFeeBps",
      "outputs": [],
      "stateMutability": "nonpayable",
      "type": "function"
    },
    {
      "inputs": [
        {
          "internalType": "address",
          "name": "_newOwner",
          "type": "address"
        }
      ],
      "name": "setOwner",
      "outputs": [],
      "stateMutability": "nonpayable",
      "type": "function"
    },
    {
      "inputs": [
        {
          "internalType": "address",
          "name": "tokenIn",
          "type": "address"
        },
        {
          "internalType": "address",
          "name": "tokenOut",
          "type": "address"
        },
        {
          "internalType": "uint256",
          "name": "amountIn",
          "type": "uint256"
        },
        {
          "internalType": "uint256",
          "name": "amountOutMin",
          "type": "uint256"
        },
        {
          "internalType": "uint24",
          "name": "poolFee",
          "type": "uint24"
        },
        {
          "internalType": "uint256",
          "name": "deadline",
          "type": "uint256"
        }
      ],
      "name": "swap",
      "outputs": [
        {
          "internalType": "uint256",
          "name": "amountOut",
          "type": "uint256"
        }
      ],
      "stateMutability": "nonpayable",
      "type": "function"
    }
  ],
  "bytecode": "0x6080346100b157601f61095b38819003918201601f19168301916001600160401b038311848410176100b6578084926020946040528339810103126100b157516001600160a01b038116908190036100b157600a600155801561007f57600080546001600160a01b03191691909117905560405161088e90816100cd8239f35b60405162461bcd60e51b815260206004820152600a6024820152692d32b9379037bbb732b960b11b6044820152606490fd5b600080fd5b634e487b7160e01b600052604160045260246000fdfe6080604052600436101561001257600080fd5b60003560e01c806313af40351461072457806324a9d853146107065780632c928098146107065780634460d3cf146105df57806372c27b621461054e5780638da5cb5b14610525578063c33034b3146100a85763c60058931461007457600080fd5b346100a35760003660031901126100a357602060405173091ad9e2e6e5ed44c1c66db50e49a601f9f36cf68152f35b600080fd5b346100a35760c03660031901126100a3576100c16107d0565b6024356001600160a01b03811681036100a3576084359162ffffff831683036100a357604435156104f2574260a435106104c3576001600160a01b0381161515806104b1575b1561047f57600154806044350290604435820403610469576044356127108204810311610469576040516323b872dd60e01b8152336004820152306024820152604480359082015260208160648160006001600160a01b0388165af180156103875761044a575b5061271081046103d8575b60405163095ea7b360e01b815273091ad9e2e6e5ed44c1c66db50e49a601f9f36cf6600482015261271082046044803591909103602483015260209082908160006001600160a01b0388165af18015610387576103a9575b50604051938461010081011067ffffffffffffffff610100870111176103935762ffffff90610100860160405260018060a01b038416865260018060a01b038516602087015216604085015233606085015260a435608085015261271081046044350360a085015260643560c0850152600060e08501526040519363414bf38960e01b855260018060a01b03815116600486015260018060a01b03602082015116602486015262ffffff604082015116604486015260018060a01b0360608201511660648601526080810151608486015260a081015160a486015260c081015160c486015260e060018060a01b039101511660e485015260208461010481600073091ad9e2e6e5ed44c1c66db50e49a601f9f36cf65af192831561038757600093610352575b60209450612710604051926044358452858785015204604083015260018060a01b03169160018060a01b0316907fc9163c3bdf7263acf1bb3d24072cc7da025f7181c31e2edc7e1673edf5e0ca3260603392a4604051908152f35b92506020843d60201161037f575b8161036d6020938361081e565b810103126100a35760209351926102f7565b3d9150610360565b6040513d6000823e3d90fd5b634e487b7160e01b600052604160045260246000fd5b6103ca9060203d6020116103d1575b6103c2818361081e565b810190610840565b50846101d1565b503d6103b8565b60005460405163a9059cbb60e01b81526001600160a01b039091166004820152612710820460248201526020818060448101038160006001600160a01b0388165af180156103875761042b575b50610179565b6104439060203d6020116103d1576103c2818361081e565b5084610425565b6104629060203d6020116103d1576103c2818361081e565b508461016e565b634e487b7160e01b600052601160045260246000fd5b60405162461bcd60e51b815260206004820152600a6024820152692d32b937903a37b5b2b760b11b6044820152606490fd5b506001600160a01b0382161515610107565b60405162461bcd60e51b8152602060048201526007602482015266115e1c1a5c995960ca1b6044820152606490fd5b60405162461bcd60e51b815260206004820152600b60248201526a16995c9bc8185b5bdd5b9d60aa1b6044820152606490fd5b346100a35760003660031901126100a3576000546040516001600160a01b039091168152602090f35b346100a35760203660031901126100a35760043561057760018060a01b036000541633146107e6565b6101f481116105b1576020817f8c4d35e54a3f2ef1134138fd8ea3daee6a3c89e10d2665996babdf70261e2c7692600155604051908152a1005b60405162461bcd60e51b81526020600482015260066024820152654d617820352560d01b6044820152606490fd5b346100a3576020806003193601126100a3576105f96107d0565b6000546001600160a01b03908116916106133384146107e6565b16604051916370a0823160e01b83523060048401528383602481855afa928315610387576000936106d7575b50821561069e5760405163a9059cbb60e01b81526001600160a01b0391909116600482015260248101929092528290829060449082906000905af180156103875761068657005b8161069c92903d106103d1576103c2818361081e565b005b60405162461bcd60e51b81526004810185905260116024820152704e6f7468696e6720746f2072657363756560781b6044820152606490fd5b9092508381813d83116106ff575b6106ef818361081e565b810103126100a35751918461063f565b503d6106e5565b346100a35760003660031901126100a3576020600154604051908152f35b346100a35760203660031901126100a35761073d6107d0565b600054906001600160a01b039061075733838516146107e6565b1690811561079c576001600160a01b03191681176000556040519081527f4ffd725fc4a22075e9ec71c59edf9c38cdeb588a91b24fc5b61388c5be41282b90602090a1005b60405162461bcd60e51b815260206004820152600c60248201526b5a65726f206164647265737360a01b6044820152606490fd5b600435906001600160a01b03821682036100a357565b156107ed57565b60405162461bcd60e51b81526020600482015260096024820152682737ba1037bbb732b960b91b6044820152606490fd5b90601f8019910116810190811067ffffffffffffffff82111761039357604052565b908160209103126100a3575180151581036100a3579056fea2646970667358221220944b58c6bb92eeb7b66ace87cd933fed8a0152e767283746b3b10180b44470a164736f6c63430008140033",
  "linkReferences": {},
  "deployedLinkReferences": {}
}