{
  "_format": "hh-sol-artifact-1",
  "contractName": "FIREStaking",
  "sourceName": "contracts/FIREStaking.sol",
  "abi": [
    {
      "inputs": [
        {
          "internalType": "address",
          "name": "_token",
          "type": "address"
        },
        {
          "internalType": "uint256",
          "name": "_aprBps",
          "type": "uint256"
        }
      ],
      "stateMutability": "nonpayable",
      "type": "constructor"
    },
    {
      "anonymous": false,
      "inputs": [
        {
          "indexed": false,
          "internalType": "uint256",
          "name": "newAprBps",
          "type": "uint256"
        }
      ],
      "name": "AprSet",
      "type": "event"
    },
    {
      "anonymous": false,
      "inputs": [
        {
          "indexed": true,
          "internalType": "address",
          "name": "user",
          "type": "address"
        },
        {
          "indexed": false,
          "internalType": "uint256",
          "name": "netReward",
          "type": "uint256"
        },
        {
          "indexed": false,
          "internalType": "uint256",
          "name": "fee",
          "type": "uint256"
        }
      ],
      "name": "Claimed",
      "type": "event"
    },
    {
      "anonymous": false,
      "inputs": [
        {
          "indexed": true,
          "internalType": "address",
          "name": "to",
          "type": "address"
        },
        {
          "indexed": false,
          "internalType": "uint256",
          "name": "amount",
          "type": "uint256"
        }
      ],
      "name": "FeeWithdrawn",
      "type": "event"
    },
    {
      "anonymous": false,
      "inputs": [
        {
          "indexed": false,
          "internalType": "uint256",
          "name": "deposit",
          "type": "uint256"
        },
        {
          "indexed": false,
          "internalType": "uint256",
          "name": "withdraw",
          "type": "uint256"
        },
        {
          "indexed": false,
          "internalType": "uint256",
          "name": "claim",
          "type": "uint256"
        }
      ],
      "name": "FeesSet",
      "type": "event"
    },
    {
      "anonymous": false,
      "inputs": [
        {
          "indexed": true,
          "internalType": "address",
          "name": "from",
          "type": "address"
        },
        {
          "indexed": false,
          "internalType": "uint256",
          "name": "amount",
          "type": "uint256"
        }
      ],
      "name": "Funded",
      "type": "event"
    },
    {
      "anonymous": false,
      "inputs": [
        {
          "indexed": true,
          "internalType": "address",
          "name": "previousOwner",
          "type": "address"
        },
        {
          "indexed": true,
          "internalType": "address",
          "name": "newOwner",
          "type": "address"
        }
      ],
      "name": "OwnershipTransferred",
      "type": "event"
    },
    {
      "anonymous": false,
      "inputs": [
        {
          "indexed": true,
          "internalType": "address",
          "name": "user",
          "type": "address"
        },
        {
          "indexed": false,
          "internalType": "uint256",
          "name": "netAmount",
          "type": "uint256"
        },
        {
          "indexed": false,
          "internalType": "uint256",
          "name": "fee",
          "type": "uint256"
        }
      ],
      "name": "Staked",
      "type": "event"
    },
    {
      "anonymous": false,
      "inputs": [
        {
          "indexed": true,
          "internalType": "address",
          "name": "user",
          "type": "address"
        },
        {
          "indexed": false,
          "internalType": "uint256",
          "name": "netAmount",
          "type": "uint256"
        },
        {
          "indexed": false,
          "internalType": "uint256",
          "name": "fee",
          "type": "uint256"
        }
      ],
      "name": "Unstaked",
      "type": "event"
    },
    {
      "inputs": [],
      "name": "YEAR",
      "outputs": [
        {
          "internalType": "uint256",
          "name": "",
          "type": "uint256"
        }
      ],
      "stateMutability": "view",
      "type": "function"
    },
    {
      "inputs": [],
      "name": "apr",
      "outputs": [
        {
          "internalType": "uint256",
          "name": "",
          "type": "uint256"
        }
      ],
      "stateMutability": "view",
      "type": "function"
    },
    {
      "inputs": [],
      "name": "aprBps",
      "outputs": [
        {
          "internalType": "uint256",
          "name": "",
          "type": "uint256"
        }
      ],
      "stateMutability": "view",
      "type": "function"
    },
    {
      "inputs": [],
      "name": "claim",
      "outputs": [],
      "stateMutability": "nonpayable",
      "type": "function"
    },
    {
      "inputs": [],
      "name": "claimFeeBps",
      "outputs": [
        {
          "internalType": "uint256",
          "name": "",
          "type": "uint256"
        }
      ],
      "stateMutability": "view",
      "type": "function"
    },
    {
      "inputs": [],
      "name": "depositFeeBps",
      "outputs": [
        {
          "internalType": "uint256",
          "name": "",
          "type": "uint256"
        }
      ],
      "stateMutability": "view",
      "type": "function"
    },
    {
      "inputs": [],
      "name": "feeBalance",
      "outputs": [
        {
          "internalType": "uint256",
          "name": "",
          "type": "uint256"
        }
      ],
      "stateMutability": "view",
      "type": "function"
    },
    {
      "inputs": [
        {
          "internalType": "uint256",
          "name": "amount",
          "type": "uint256"
        }
      ],
      "name": "fundRewards",
      "outputs": [],
      "stateMutability": "nonpayable",
      "type": "function"
    },
    {
      "inputs": [],
      "name": "owner",
      "outputs": [
        {
          "internalType": "address",
          "name": "",
          "type": "address"
        }
      ],
      "stateMutability": "view",
      "type": "function"
    },
    {
      "inputs": [
        {
          "internalType": "address",
          "name": "user",
          "type": "address"
        }
      ],
      "name": "pendingRewards",
      "outputs": [
        {
          "internalType": "uint256",
          "name": "",
          "type": "uint256"
        }
      ],
      "stateMutability": "view",
      "type": "function"
    },
    {
      "inputs": [
        {
          "internalType": "address",
          "name": "token",
          "type": "address"
        },
        {
          "internalType": "uint256",
          "name": "amount",
          "type": "uint256"
        }
      ],
      "name": "rescueToken",
      "outputs": [],
      "stateMutability": "nonpayable",
      "type": "function"
    },
    {
      "inputs": [],
      "name": "rewardPool",
      "outputs": [
        {
          "internalType": "uint256",
          "name": "",
          "type": "uint256"
        }
      ],
      "stateMutability": "view",
      "type": "function"
    },
    {
      "inputs": [
        {
          "internalType": "uint256",
          "name": "_aprBps",
          "type": "uint256"
        }
      ],
      "name": "setApr",
      "outputs": [],
      "stateMutability": "nonpayable",
      "type": "function"
    },
    {
      "inputs": [
        {
          "internalType": "uint256",
          "name": "_deposit",
          "type": "uint256"
        },
        {
          "internalType": "uint256",
          "name": "_withdraw",
          "type": "uint256"
        },
        {
          "internalType": "uint256",
          "name": "_claim",
          "type": "uint256"
        }
      ],
      "name": "setFees",
      "outputs": [],
      "stateMutability": "nonpayable",
      "type": "function"
    },
    {
      "inputs": [
        {
          "internalType": "uint256",
          "name": "amount",
          "type": "uint256"
        }
      ],
      "name": "stake",
      "outputs": [],
      "stateMutability": "nonpayable",
      "type": "function"
    },
    {
      "inputs": [
        {
          "internalType": "address",
          "name": "user",
          "type": "address"
        }
      ],
      "name": "stakedBalance",
      "outputs": [
        {
          "internalType": "uint256",
          "name": "",
          "type": "uint256"
        }
      ],
      "stateMutability": "view",
      "type": "function"
    },
    {
      "inputs": [],
      "name": "stakingToken",
      "outputs": [
        {
          "internalType": "contract IERC20",
          "name": "",
          "type": "address"
        }
      ],
      "stateMutability": "view",
      "type": "function"
    },
    {
      "inputs": [],
      "name": "totalStaked",
      "outputs": [
        {
          "internalType": "uint256",
          "name": "",
          "type": "uint256"
        }
      ],
      "stateMutability": "view",
      "type": "function"
    },
    {
      "inputs": [
        {
          "internalType": "address",
          "name": "_newOwner",
          "type": "address"
        }
      ],
      "name": "transferOwnership",
      "outputs": [],
      "stateMutability": "nonpayable",
      "type": "function"
    },
    {
      "inputs": [
        {
          "internalType": "uint256",
          "name": "amount",
          "type": "uint256"
        }
      ],
      "name": "unstake",
      "outputs": [],
      "stateMutability": "nonpayable",
      "type": "function"
    },
    {
      "inputs": [],
      "name": "withdrawFeeBps",
      "outputs": [
        {
          "internalType": "uint256",
          "name": "",
          "type": "uint256"
        }
      ],
      "stateMutability": "view",
      "type": "function"
    },
    {
      "inputs": [],
      "name": "withdrawFees",
      "outputs": [],
      "stateMutability": "nonpayable",
      "type": "function"
    }
  ],
  "bytecode": "0x6080346100c157601f61122138819003918201601f19168301916001600160401b038311848410176100c65780849260409485528339810103126100c15780516001600160a01b03811691908290036100c157602001519080156100895760018060a01b031933816000541617600055600154161760015560025560405161114490816100dd8239f35b60405162461bcd60e51b815260206004820152601060248201526f2324a9229d103d32b937903a37b5b2b760811b6044820152606490fd5b600080fd5b634e487b7160e01b600052604160045260246000fdfe6080604081815260048036101561001557600080fd5b600092833560e01c90816325ac1df214610e41575080632e17de7814610cd457806331d7a26214610cae57806333f3d62814610b81578063476343ee14610a5c5780634e71d92d1461080c57806357ded9c9146107ed57806359cee29c14610745578063602172671461070d57806360b71d4e146106ee57806366666aa91461062a57806372f702f3146106015780637a526f4e146105e25780637aca2b59146105c5578063817b1cd2146105a657806383914540146105875780638da5cb5b1461055f57806393707a191461048d578063a694fc3a1461033a578063ab87982714610317578063cec10c11146101c45763f2fde38b1461011557600080fd5b346101c05760203660031901126101c05761012e610e5d565b8354916001600160a01b03808416926101483385146110d0565b1693841561018857505082907f8be0079c531659141344cd1fd0a4f28419497f9722a3daafe3b4186f6b6457e08580a36001600160a01b03191617815580f35b906020606492519162461bcd60e51b83528201526012602482015271464952453a207a65726f206164647265737360701b6044820152fd5b8280fd5b50346101c05760603660031901126101c057803591602435604435926101f460018060a01b0387541633146110d0565b6107d08086116102d45780831161029157841161024e5791816060949286947f01bae858246c904512695a3f6d48ab88abb7a0192fdd7c53b043e60317795f4597600355558260055581519384526020840152820152a180f35b606490602084519162461bcd60e51b8352820152601760248201527f464952453a20636c61696d20666565206d6178203230250000000000000000006044820152fd5b835162461bcd60e51b8152602081840152601a60248201527f464952453a20776974686472617720666565206d6178203230250000000000006044820152606490fd5b835162461bcd60e51b8152602081840152601960248201527f464952453a206465706f73697420666565206d617820323025000000000000006044820152606490fd5b5050346103365781600319360112610336576020906003549051908152f35b5080fd5b50346101c05760209182600319360112610489576103c592823590610360821515610e78565b61036933610f97565b8061271061037960035485610eb8565b04926103858482610ee1565b60015486516323b872dd60e01b8152339881019889523060208a015260408901939093529197909688926001600160a01b03169183918b91839160600190565b03925af194851561047f577f1449c6dd7851abc30abf37f57715f492010519147cc2652fbc38202c18a6ee909495610404918891610452575b50610f3e565b8161043e575b3386526008815282862061041f868254610f8a565b905561042d85600654610f8a565b60065582519485528401523392a280f35b61044a82600754610f8a565b60075561040a565b6104729150833d8511610478575b61046a8183610eee565b810190610f26565b386103fe565b503d610460565b83513d88823e3d90fd5b8380fd5b5090346101c05760203660031901126101c0576104f46020833580946104b4821515610e78565b60015485516323b872dd60e01b8152339281019283523060208401526040830193909352919384926001600160a01b031691839189918391606090910190565b03925af1908115610555579061051091859161053d5750610f3e565b519081527f5af8184bef8e4b45eb9f6ed7734d04da38ced226495548f46e0c8ff8d7d9a52460203392a280f35b610472915060203d81116104785761046a8183610eee565b82513d86823e3d90fd5b505034610336578160031936011261033657905490516001600160a01b039091168152602090f35b505034610336578160031936011261033657602090516301e133808152f35b5050346103365781600319360112610336576020906006549051908152f35b50346101c057826003193601126101c05760209250549051908152f35b5050346103365781600319360112610336576020906005549051908152f35b50503461033657816003193601126103365760015490516001600160a01b039091168152602090f35b5091346106eb57806003193601126106eb5760015482516370a0823160e01b81523094810194909452602090849060249082906001600160a01b03165afa80156106df5781906106ab575b6020935061068860065460075490610f8a565b90818111156106a35761069b9250610ee1565b905b51908152f35b50509061069d565b50916020813d82116106d7575b816106c560209383610eee565b810103126101c0579160209251610675565b3d91506106b8565b509051903d90823e3d90fd5b80fd5b5050346103365781600319360112610336576020906007549051908152f35b5050346103365760203660031901126103365760209181906001600160a01b03610735610e5d565b1681526008845220549051908152f35b5090346101c05760203660031901126101c05781359161076f60018060a01b0385541633146110d0565b620186a083116107ab5750816020917f255ab19e375a5b5dc7b35b2afa98fce75881b45b93ed72721caab22e3ce7f9899360025551908152a180f35b6020606492519162461bcd60e51b8352820152601860248201527f464952453a204150522064656d61736961646f20616c746f00000000000000006044820152fd5b5050346103365781600319360112610336576020906002549051908152f35b5091903461033657816003193601126103365761082833610f97565b33825260209060088252600281842001918254908115610a215761085c61271061085460055485610eb8565b048093610ee1565b60015484516370a0823160e01b8152308982015291956001600160a01b0392909184908290602490829087165afa908115610a175788916109e6575b50600654906108b3886108ae6007548095610f8a565b610f8a565b1161097f579783928888936109029a9b888061096c575b505055600154875163a9059cbb60e01b815233938101938452602084019490945292988993919091169183918b918391604090910190565b03925af194851561047f577f987d620f307ff6b94d58743cb7a7509f24071586a77759b77c2d4e29f75a2f9a949561094191889161094f575b50611016565b82519485528401523392a280f35b6109669150833d85116104785761046a8183610eee565b3861093b565b61097591610f8a565b60075538886108ca565b608489878681519262461bcd60e51b845283015260248201527f464952453a20696e73756666696369656e74207265776172642062616c616e6360448201527f65202d206f776e6572206d7573742066756e642074686520636f6e74726163746064820152fd5b90508381813d8311610a10575b6109fd8183610eee565b81010312610a0c575138610898565b8780fd5b503d6109f3565b86513d8a823e3d90fd5b8560649184519162461bcd60e51b83528201526016602482015275464952453a206e6f7468696e6720746f20636c61696d60501b6044820152fd5b5091903461033657816003193601126103365781546001600160a01b03908116610a873382146110d0565b600754908115610b3e576007859055600154845163a9059cbb60e01b81526001600160a01b039092169682019687526020878101849052959694959194859185169082908990829060400103925af1918215610b3457610b116020937f78473f3f373f7673597f4f0fa5873cb4d375fea6d4339ad6b56dbd411513cb3f958891610b1d5750611016565b8554169351908152a280f35b6109669150853d81116104785761046a8183610eee565b84513d87823e3d90fd5b835162461bcd60e51b8152602081880152601960248201527f464952453a206e6f206665657320746f207769746864726177000000000000006044820152606490fd5b50346101c057816003193601126101c057610b9a610e5d565b83546001600160a01b0390811690610bb33383146110d0565b80600154169216918214801590610ca4575b15610c3b57835163a9059cbb60e01b81526001600160a01b039091169281019283526024356020848101919091529093929091849182908790829060400103925af1908115610c325750610c17575080f35b610c2e9060203d81116104785761046a8183610eee565b5080f35b513d84823e3d90fd5b835162461bcd60e51b8152602081850152603860248201527f464952453a2063616e6e6f7420726573637565207374616b696e6720746f6b6560448201527f6e207768696c6520757365727320617265207374616b656400000000000000006064820152608490fd5b5060065415610bc5565b5050346103365760203660031901126103365760209061069b610ccf610e5d565b61105a565b5082903461033657602092836003193601126101c05781353384526008855281842094610d02821515610e78565b81865410610dff57610d909495610d1833610f97565b610d23838254610ee1565b9055610d3182600654610ee1565b60065580610d4e612710610d46875486610eb8565b048094610ee1565b809584610deb575b600154865163a9059cbb60e01b8152339281019283526020830193909352919788926001600160a01b03169183918b918391604090910190565b03925af194851561047f577f7fc4727e062e336010f2c282598ef5f14facb3de68cf8195c2f23e1454b2b74e9495610941918891610dce5750611016565b610de59150833d85116104785761046a8183610eee565b8861093b565b610df785600754610f8a565b600755610d56565b8360649184519162461bcd60e51b8352820152601860248201527f464952453a20696e73756666696369656e74207374616b6500000000000000006044820152fd5b8490346103365781600319360112610336576020906002548152f35b600435906001600160a01b0382168203610e7357565b600080fd5b15610e7f57565b60405162461bcd60e51b8152602060048201526011602482015270119254914e881e995c9bc8185b5bdd5b9d607a1b6044820152606490fd5b81810292918115918404141715610ecb57565b634e487b7160e01b600052601160045260246000fd5b91908203918211610ecb57565b90601f8019910116810190811067ffffffffffffffff821117610f1057604052565b634e487b7160e01b600052604160045260246000fd5b90816020910312610e7357518015158103610e735790565b15610f4557565b60405162461bcd60e51b815260206004820152601960248201527f464952453a207472616e7366657246726f6d206661696c6564000000000000006044820152606490fd5b91908201809211610ecb57565b6001600160a01b03166000908152600860205260409020805480151580611009575b610fc7575b50600142910155565b610ff164496cebb80091610fec610fe2600186015442610ee1565b9160025490610eb8565b610eb8565b0461100160028301918254610f8a565b905538610fbe565b5060018201541515610fb9565b1561101d57565b60405162461bcd60e51b8152602060048201526015602482015274119254914e881d1c985b9cd9995c8819985a5b1959605a1b6044820152606490fd5b6001600160a01b0316600090815260086020526040902080549081156110c757600264496cebb8006110af6110b894600185015480156000146110bb5750610fec6110a6425b42610ee1565b91855490610eb8565b04910154610f8a565b90565b6110a6610fec916110a0565b60029150015490565b156110d757565b60405162461bcd60e51b815260206004820152600f60248201526e2324a9229d103737ba1037bbb732b960891b6044820152606490fdfea26469706673582212208e90663961062fe1586d596d3255457c564d173536583d43572cd7f4c25842de64736f6c63430008140033",
  "linkReferences": {},
  "deployedLinkReferences": {}
}